2713003112024090606NSE   A1117599-0             000001130670157799NUEVO BANCO DEL CHACO SA                          AR1CAIXESBB    0299ESCAIXABANK SA                                        S1100000000EUR0000000024900000265930                                N
2713003112024090606NSE   A1117600-0             000001130670157799NUEVO BANCO DEL CHACO SA                          AR1NACNUS33    0299USBANCO DE LA NACION ARGENTINA                        S1100000000USD0000000003000000029281                                N
2713003112024090606 SE   A1117601-0             000001130670157799NUEVO BANCO DEL CHACO SA                          AR1NACNUS33    0299USMASTERCARD                                          S2900000000USD0000000461300004502280                                N
2713003112024090601NXS   A1317602-0             000011133709474729CARBOTEC S.A.                                     AR1NACNUS33    0307CLSAMAX TRADE COML E INVERSORA SPA                    B0120240906USD000000039390000367912924089EC01000619S                N
2713003112024090601NXS   A1317602-0             000021133709474729CARBOTEC S.A.                                     AR1NACNUS33    0307CLSAMAX TRADE COML E INVERSORA SPA                    B0120240906USD000000026700000249342524089EC01000636R                N
2713003112024090601NXS   A1317602-0             000031133709474729CARBOTEC S.A.                                     AR1NACNUS33    0307CLSAMAX TRADE COML E INVERSORA SPA                    B0120240906USD000000075450000704678724089EC01000701K                N
2713003112024090601NXS   A1317602-0             000041133709474729CARBOTEC S.A.                                     AR1NACNUS33    0307CLSAMAX TRADE COML E INVERSORA SPA                    B0120240906USD000000009000000084044124089EC01000707Z                N
2713003112024090601N     A1317603-0             000001133709474729CARBOTEC S.A.                                     AR1NACNUS33    0307CLSAMAX TRADE COML E INVERSORA SPA                    B2520240906USD0000000376300003514941                                N
2713003112024090601      A1117604-1             000001133709474729CARBOTEC S.A.                                     AR1            1007                                                      A1000000000USD0000000376300003514941                                N
2713003112024090606 SE   A1117605-0             000001130670157799NUEVO BANCO DEL CHACO SA                          AR1NACNUS33    0299USMASTERCARD                                          S2900000000USD0000000662300006464530                                N
2713003112024090606N     A1317612-0             000001120252098098MARTIN RAFAEL RAIMUNDO                            AR1NACNUS33    0307SGR1 INTERNATIONAL PTE LTD                            B2520240906USD0000001400000013076000                                N
2713003112024090606      A1117613-1             000001120252098098MARTIN RAFAEL RAIMUNDO                            AR1            1007                                                      A1000000000USD0000001400000013076000                                N
2713003112024090606NXS   A1317614-0             000001120252098098MARTIN RAFAEL RAIMUNDO                            AR1NACNUS33    0307SGR1 INTERNATIONAL PTE LTD                            B0220240906USD0000005600000052864000APX0031100000001                N
