2713003112024091006      A1317619-0             000001120079273865PACHECOY NORBERTO FRANCISCO                       AR1NACNUS33    0399ARPACHECOY NORBERTO FRANCISCO                         A0700000000USD0000002497500023401575                                N
2713003112024091006      A1117620-1             000001120079273865PACHECOY NORBERTO FRANCISCO                       AR1            1099                                                      A1000000000USD0000002497500023401575                                N
2713003112024091006N     A1317621-0             000001127063905890SENN MARIA CRISTINA                               AR1NACNUS33    0399CHCAISSE SUISSE DE COMPENSATION                       I0800000000USD0000000102000000956030                                N
2713003112024091006      A1117622-1             000001127063905890SENN MARIA CRISTINA                               AR1            1099                                                      A1000000000USD0000000102000000956030                                N
2713003112024091006NSE   A1117623-0             000001130670157799NUEVO BANCO DEL CHACO SA                          AR1NACNUS33    0299USBANCO DE LA NACION ARGENTINA                        S1100000000USD0000000003000000029375                                N
2713003112024091006 SE   A1117624-0             000001130670157799NUEVO BANCO DEL CHACO SA                          AR1NACNUS33    0299USMASTERCARD                                          S2900000000USD0000001075600010532011                                N
2713003112024091006 SE   A1117625-0             000001130670157799NUEVO BANCO DEL CHACO SA                          AR1NACNUS33    0299USMASTERCARD                                          S2900000000USD0000000710100006953116                                N
