2713003112024090906NSE   A1117615-0             000001130670157799NUEVO BANCO DEL CHACO SA                          AR1NACNUS33    0299USBANCO DE LA NACION ARGENTINA                        S1100000000USD0000000001500000014680                                N
2713003112024090906NSE   A1117616-0             000001130670157799NUEVO BANCO DEL CHACO SA                          AR1NACNUS33    0299USBANCO DE LA NACION ARGENTINA                        S1100000000USD0000000001500000014680                                N
2713003112024090906 SE   A1117617-0             000001130670157799NUEVO BANCO DEL CHACO SA                          AR1NACNUS33    0299USMASTERCARD                                          S2900000000USD0000001676200016404336                                N
2713003112024090906 SE   A1117618-0             000001130670157799NUEVO BANCO DEL CHACO SA                          AR1NACNUS33    0299USMASTERCARD                                          S2900000000USD0000001107900010842264                                N
