2713003112024091306NSE   A1117644-0             000001130670157799NUEVO BANCO DEL CHACO SA                          AR1NACNUS33    0299USBANCO DE LA NACION ARGENTINA                        S1100000000USD0000000003000000029422                                N
2713003112024091306NSE   A1117645-0             000001130670157799NUEVO BANCO DEL CHACO SA                          AR1NACNUS33    0299USBANCO DE LA NACION ARGENTINA                        S1100000000USD0000000001500000014711                                N
2713003112024091301NXS   A1317646-0             000011133709474729CARBOTEC S.A.                                     AR1NACNUS33    0307CLSAMAX TRADE COMERCIALIZADORA E INVERSORA SPA        B0120240913USD000000027690000259835924089EC01000707Z                N
2713003112024091301NXS   A1317646-0             000021133709474729CARBOTEC S.A.                                     AR1NACNUS33    0307CLSAMAX TRADE COMERCIALIZADORA E INVERSORA SPA        B0120240913USD000000047670000447369824089EC01000733P                N
2713003112024091301N     A1317649-0             000001133709474729CARBOTEC S.A.                                     AR1NACNUS33    0307CLSAMAX TRADE COMERCIALIZADORA E INVERSORA SPA        B2520240913USD0000000188400001768012                                N
2713003112024091301      A1117650-1             000001133709474729CARBOTEC S.A.                                     AR1            1007                                                      A1000000000USD0000000188400001768012                                N
2713003112024091306N     A1317651-0             000001130716378515BIOCHACO S.A.S                                    AR1NACNUS33    0307CLTRANSPORTE DEL PACIFICO SPA                         B2520240913USD0000000318000002984430                                N
2713003112024091306      A1117652-1             000001130716378515BIOCHACO S.A.S                                    AR1            1007                                                      A1000000000USD0000000318000002984430                                N
2713003112024091306 SE   A1117653-0             000001130670157799NUEVO BANCO DEL CHACO SA                          AR1NACNUS33    0299USMASTERCARD                                          S2900000000USD0000000860300008437465                                N
2713003112024091306NSE   A1117654-0             000001130670157799NUEVO BANCO DEL CHACO SA                          AR1NACNUS33    0299UYTOP SYSTEMS SA                                      S1300000000USD0000009739400094471792                0203020000000001N
2713003112024091306 SE   A1117655-0             000001130670157799NUEVO BANCO DEL CHACO SA                          AR1NACNUS33    0299USMASTERCARD                                          S2900000000USD0000000544900005344204                                N
2713003112024091306NXS   A1317656-0             000011130716378515BIOCHACO S.A.S                                    AR1NACNUS33    0307CLTRANSPORTE DEL PACIFICO SPA                         B0120240913USD000000032310000305342724089EC01000856V                N
2713003112024091306NXS   A1317656-0             000021130716378515BIOCHACO S.A.S                                    AR1NACNUS33    0307CLTRANSPORTE DEL PACIFICO SPA                         B0120240913USD000000032990000311768824089EC01001274Z                N
2713003112024091306NXS   A1317656-0             000031130716378515BIOCHACO S.A.S                                    AR1NACNUS33    0307CLTRANSPORTE DEL PACIFICO SPA                         B0120240913USD000000032170000304012124089EC01001284R                N
2713003112024091306NXS   A1317656-0             000041130716378515BIOCHACO S.A.S                                    AR1NACNUS33    0307CLTRANSPORTE DEL PACIFICO SPA                         B0120240913USD000000029730000280916424089EC01001285S                N
