2713003112024091606NSE   A1117657-0             000001130670157799NUEVO BANCO DEL CHACO SA                          AR1NACNUS33    0299USBANCO DE LA NACION ARGENTINA                        S1100000000USD0000000003000000029485                                N
2713003112024091606NSE   A1117658-0             000001130670157799NUEVO BANCO DEL CHACO SA                          AR1NACNUS33    0299USBANCO DE LA NACION ARGENTINA                        S1100000000USD0000000001500000014742                                N
2713003112024091606 SE   A1117659-0             000001130670157799NUEVO BANCO DEL CHACO SA                          AR1NACNUS33    0299USMASTERCARD                                          S2900000000USD0000001595300015679016                                N
2713003112024091606 SE   A1117660-0             000001130670157799NUEVO BANCO DEL CHACO SA                          AR1NACNUS33    0299USMASTERCARD                                          S2900000000USD0000001197500011768808                                N
