2713003112024091106N     A1317626-0             000001127032720094BELICH MILCA                                      AR1NACNUS33    0699CAGOVERNMENT OF CANADA                                I0800000000USD0000000026800000251309                                N
2713003112024091106      A1117627-1             000001127032720094BELICH MILCA                                      AR1            1099                                                      A1000000000USD0000000026800000251309                                N
2713003112024091106NSE   A1117628-0             000001130670157799NUEVO BANCO DEL CHACO SA                          AR1NACNUS33    0299USBANCO DE LA NACION ARGENTINA                        S1100000000USD0000000003000000029406                                N
2713003112024091106NSE   A1117629-0             000001130670157799NUEVO BANCO DEL CHACO SA                          AR1NACNUS33    0299USMICROSOFT CORPORATION                               S1300000000USD0000001651200016016853                                N
2713003112024091106 SE   A1117630-0             000001130670157799NUEVO BANCO DEL CHACO SA                          AR1NACNUS33    0299USMASTERCARD                                          S2900000000USD0000000520000005096847                                N
2713003112024091106N     A1117632-0             000001130999175461IN S S SE P                                       AR1CAIXESBB    0207ESIRINIZ ANA MARIA                                    I0800000000EUR0000000224300002428122                                N
2713003112024091106N     A1117633-0             000001130999175461IN S S SE P                                       AR1CAIXESBB    0207DESAEZ PERTINEZ FRANCISCA LEONOR                      I0800000000EUR0000000481800005216464                                N
2713003112024091106N     A1117634-0             000001130707833102CONTACTO S A                                      AR1CAIXESBB    0207ITPM ENGINEER SRL                                     B2220240615EUR000000248150002686521524018IC05000018L0203020000000003N
2713003112024091106N     A1117635-0             000001130999175461IN S S SE P                                       AR1CAIXESBB    0207ESMARIA DE LA CONCEPCION GARCIA DEL VILLAR            I0800000000EUR0000000258500002798443                                N
2713003112024091106 SE   A1117636-0             000001130670157799NUEVO BANCO DEL CHACO SA                          AR1NACNUS33    0299USMASTERCARD                                          S2900000000USD0000000780100007646216                                N
