2713003112024090406 SE   A1117533-0             000001130670157799NUEVO BANCO DEL CHACO SA                          AR1NACNUS33    0299USMASTERCARD                                          S2900000000USD0000002440700023796912                                N
2713003112024090406N     A1117534-0             000011130711530254DIFAMAQ SRL                                       AR1NACNUS33    0207CHCNHI INTERNATIONAL SA                               B0620240404USD0000000050800000495158C240406DHLEXPRES0203020000000001N
2713003112024090406N     A1117534-0             000021130711530254DIFAMAQ SRL                                       AR1NACNUS33    0207CHCNHI INTERNATIONAL SA                               B0620240227USD0000000074800000729576C240303DHLEXPRES0203020000000001N
2713003112024090406N     A1117534-0             000031130711530254DIFAMAQ SRL                                       AR1NACNUS33    0207CHCNHI INTERNATIONAL SA                               B0620231215USD0000000095000000926513C231219DHLEXPRES0203020000000001N
2713003112024090406N     A1117534-0             000041130711530254DIFAMAQ SRL                                       AR1NACNUS33    0207CHCNHI INTERNATIONAL SA                               B0620240412USD0000000082100000800038C240417DHLEXPRES0203020000000001N
2713003112024090406NSE   A1117535-0             000001130670157799NUEVO BANCO DEL CHACO SA                          AR1NACNUS33    0299USBANCO DE LA NACION ARGENTINA                        S1100000000USD0000000003000000029250                                N
2713003112024090406NSE   A1117536-0             000001130670157799NUEVO BANCO DEL CHACO SA                          AR1NACNUS33    0299USBANCO DE LA NACION ARGENTINA                        S1100000000USD0000000007500000073124                                N
2713003112024090406N     A1117538-0             000001130999175461IN S S SE P                                       AR1NACNUS33    0207ILBOOTH MYRIAM GRACIELA                               I0800000000USD0000000118300001153179                                N
2713003112024090406N     A1117540-0             000001130999175461IN S S SE P                                       AR1NACNUS33    0207ILFARIAS SOLIMANO MARIA TERESA                        I0800000000USD0000000294500002871677                                N
2713003112024090406N     A1117541-0             000001130999175461IN S S SE P                                       AR1NACNUS33    0207BRBOTTARO SILVIA SUSANA                               I0800000000USD0000000066200000645804                                N
2713003112024090406N     A1117542-0             000001130999175461IN S S SE P                                       AR1NACNUS33    0207USELIO R CALVO                                        I0800000000USD0000000228300002225785                                N
2713003112024090406N     A1117543-0             000001130999175461IN S S SE P                                       AR1NACNUS33    0207MXFERESIN GRACIELA MABEL                              I0800000000USD0000000091800000895002                                N
2713003112024090406N     A1117544-0             000001130999175461IN S S SE P                                       AR1NACNUS33    0207PYFERREYRA EVER PASION                                I0800000000USD0000000236000002300616                                N
2713003112024090406N     A1117545-0             000001130999175461IN S S SE P                                       AR1NACNUS33    0207BRCANTERO DELIA MARGARITA                             I0800000000USD0000000110500001077101                                N
2713003112024090406N     A1117546-0             000001130999175461IN S S SE P                                       AR1NACNUS33    0207BRVIRGILIO ALFREDO FERREYRA                           I0800000000USD0000000311900003040633                                N
2713003112024090406N     A1117547-0             000001130999175461IN S S SE P                                       AR1NACNUS33    0207BRJUAN CARLOS CARRERA                                 I0800000000USD0000000189200001844983                                N
2713003112024090406N     A1117548-0             000001130999175461IN S S SE P                                       AR1NACNUS33    0207BRFESTORAZZI MARCEL DE JESUS                          I0800000000USD0000000180500001759808                                N
2713003112024090406N     A1117549-0             000001130999175461IN S S SE P                                       AR1NACNUS33    0207USESCALADA MIGUEL OSCAR                               I0800000000USD0000000228900002231372                                N
2713003112024090406N     A1117550-0             000001130999175461IN S S SE P                                       AR1NACNUS33    0207BRVICTOR RAFAEL ACEVEDO                               I0800000000USD0000000190700001858867                                N
2713003112024090406N     A1117551-0             000001130999175461IN S S SE P                                       AR1NACNUS33    0207PYFIDELINO HUMBERTO FLORES VEGA                       I0800000000USD0000000191100001863401                                N
2713003112024090406N     A1117552-0             000001130999175461IN S S SE P                                       AR1NACNUS33    0207BRGRACIELA GONZALEZ                                   I0800000000USD0000000107600001048738                                N
2713003112024090406N     A1117553-0             000001130999175461IN S S SE P                                       AR1NACNUS33    0207CLKARCHENBAUM CLARA                                   I0800000000USD0000000337800003293282                                N
2713003112024090406N     A1117554-0             000001130999175461IN S S SE P                                       AR1NACNUS33    0207ILJARAZ SUSANA                                        I0800000000USD0000000126200001230545                                N
2713003112024090406N     A1117555-0             000001130999175461IN S S SE P                                       AR1NACNUS33    0207ILKLEINBERG SILVIA                                    I0800000000USD0000000145200001415237                                N
2713003112024090406N     A1117556-0             000001130999175461IN S S SE P                                       AR1NACNUS33    0207BRESTHER ANTONIA PERON                                I0800000000USD0000000120200001171967                                N
2713003112024090406N     A1117557-0             000001130999175461IN S S SE P                                       AR1NACNUS33    0207BRNOVO ANGEL SERENO                                   I0800000000USD0000000078200000761974                                N
2713003112024090406 SE   A1117558-0             000001130670157799NUEVO BANCO DEL CHACO SA                          AR1NACNUS33    0299USMASTERCARD                                          S2900000000USD0000000766200007470851                                N
2713003112024090406 SE   A1117559-0             000001130670157799NUEVO BANCO DEL CHACO SA                          AR1NACNUS33    0299USMASTERCARD                                          S2900000000USD0000000619400006039537                                N
2713003112024090406N     A1117560-0             000001130999175461IN S S SE P                                       AR1NACNUS33    0207USSILVI SILVIA GRACIELA                               I0800000000USD0000000113900001110221                                N
2713003112024090406N     A1117561-0             000001130999175461IN S S SE P                                       AR1NACNUS33    0207BRZORRILLA CARMEN                                     I0800000000USD0000000112800001099896                                N
2713003112024090406N     A1117562-0             000001130999175461IN S S SE P                                       AR1NACNUS33    0207USVARGAS NIDIA ANALIA                                 I0800000000USD0000000112900001100842                                N
2713003112024090406N     A1117563-0             000001130999175461IN S S SE P                                       AR1NACNUS33    0207BRANASTASIO VALENZUELA                                I0800000000USD0000000344000003353615                                N
2713003112024090406N     A1117564-0             000001130999175461IN S S SE P                                       AR1NACNUS33    0207PADRI JAIME FELICIANO                                 I0800000000USD0000000243100002369879                                N
2713003112024090406N     A1117565-0             000001130999175461IN S S SE P                                       AR1NACNUS33    0207PYCAMPUZANO ALFONSO ISABELINO                         I0800000000USD0000000054300000529771                                N
