2713003112024091206N     A1317637-0             000001120337246126ROVNER FACUNDO                                    AR1NACNUS33    0307ARROVNER FACUNDO                                      A0800000000USD0000000008500000079730                                N
2713003112024091206      A1117638-1             000001120337246126ROVNER FACUNDO                                    AR1            1007                                                      A1000000000USD0000000008500000079730                                N
2713003112024091206N     A1117639-0             000001130545754734S E CH E E P                                      AR1NACNUS33    0207PEASOC DE DISTRIBUIDORAS DE ENERGIA ELECTRICA LATINA  S2400000000USD0000000136200001334879                                N
2713003112024091206NSE   A1117640-0             000001130670157799NUEVO BANCO DEL CHACO SA                          AR1NACNUS33    0299USBANCO DE LA NACION ARGENTINA                        S1100000000USD0000000003000000029406                                N
2713003112024091206NSE   A1117641-0             000001130670157799NUEVO BANCO DEL CHACO SA                          AR1NACNUS33    0299USBANCO DE LA NACION ARGENTINA                        S1100000000USD0000000001500000014703                                N
2713003112024091206 SE   A1117642-0             000001130670157799NUEVO BANCO DEL CHACO SA                          AR1NACNUS33    0299USMASTERCARD                                          S2900000000USD0000000618700006064187                                N
2713003112024091206 SE   A1117643-0             000001130670157799NUEVO BANCO DEL CHACO SA                          AR1NACNUS33    0299USMASTERCARD                                          S2900000000USD0000000479800004702724                                N
