2713003112024090506NSE   A1117566-0             000001130670157799NUEVO BANCO DEL CHACO SA                          AR1NACNUS33    0299USBANCO DE LA NACION ARGENTINA                        S1100000000USD0000000003000000029265                                N
2713003112024090506NSE   A1117567-0             000001130670157799NUEVO BANCO DEL CHACO SA                          AR1NACNUS33    0299USBANCO DE LA NACION ARGENTINA                        S1100000000USD0000000001500000014633                                N
2713003112024090506NSE   A1117568-0             000001130670157799NUEVO BANCO DEL CHACO SA                          AR1NACNUS33    0299USBANCO DE LA NACION ARGENTINA                        S1100000000USD0000000007800000076090                                N
2713003112024090506NSE   A1117569-0             000001130670157799NUEVO BANCO DEL CHACO SA                          AR1NACNUS33    0299USBANCO DE LA NACION ARGENTINA                        S1100000000USD0000000037500000365816                                N
2713003112024090506N     A1117570-0             000001130999175461IN S S SE P                                       AR1CAIXESBB    0207ESPERLA LIDIA GAGLIARDI                               I0800000000EUR0000000139400001488746                                N
2713003112024090506N     A1117571-0             000001130999175461IN S S SE P                                       AR1CAIXESBB    0207ESFLORES REGINO                                       I0800000000EUR0000000172900001846480                                N
2713003112024090506N     A1117572-0             000001130999175461IN S S SE P                                       AR1CAIXESBB    0207ESCARBALLEIRA SARA PETRONA                            I0800000000EUR0000000091300000975118                                N
2713003112024090506N     A1117573-0             000001130999175461IN S S SE P                                       AR1CAIXESBB    0207ESFLORENTIN JULIO RAMON                               I0800000000EUR0000000129600001384489                                N
2713003112024090506N     A1117575-0             000001130999175461IN S S SE P                                       AR1CAIXESBB    0207ESCABRERA MARIA GRACIELA                              I0800000000EUR0000000081700000872761                                N
2713003112024090506N     A1117577-0             000001130999175461IN S S SE P                                       AR1CAIXESBB    0207ESSANCHEZ MARIA DEL CARMEN                            I0800000000EUR0000000082100000876457                                N
2713003112024090506N     A1117578-0             000001130999175461IN S S SE P                                       AR1CAIXESBB    0207ITDRI BERARDO GONZALO                                 I0800000000EUR0000000033700000360233                                N
2713003112024090506N     A1117579-0             000001130999175461IN S S SE P                                       AR1CAIXESBB    0207ESSISTI VICENTE JULIO                                 I0800000000EUR0000000187300002000335                                N
2713003112024090506N     A1117580-0             000001130999175461IN S S SE P                                       AR1CAIXESBB    0207ESCHRISTENER ROSA                                     I0800000000EUR0000000039400000420980                                N
2713003112024090506N     A1117581-0             000001130999175461IN S S SE P                                       AR1CAIXESBB    0207ESEDUARDO SOSA                                        I0800000000EUR0000000068400000730751                                N
2713003112024090506N     A1117582-0             000001130999175461IN S S SE P                                       AR1CAIXESBB    0207ESBERNARDO ENRIQUE TUCKEY BALLE                       I0800000000EUR0000000132200001412086                                N
2713003112024090506N     A1117583-0             000001130999175461IN S S SE P                                       AR1CAIXESBB    0207ESROLON ANA MARIA                                     I0800000000EUR0000000184900001975194                                N
2713003112024090506N     A1117584-0             000001130999175461IN S S SE P                                       AR1CAIXESBB    0207ESSUSANA ELENA VIAIN                                  I0800000000EUR0000000140000001494759                                N
2713003112024090506N     A1117585-0             000001130999175461IN S S SE P                                       AR1CAIXESBB    0207ESMORO RAQUEL                                         I0800000000EUR0000000135500001446689                                N
2713003112024090506N     A1117586-0             000001130999175461IN S S SE P                                       AR1CAIXESBB    0207ESROVALETTI ENRIQUE OSCAR                             I0800000000EUR0000000059000000630007                                N
2713003112024090506N     A1117587-0             000001130999175461IN S S SE P                                       AR1CAIXESBB    0207ESNIKITENKO FLORES VICTORIA LUISA                     I0800000000EUR0000000126800001354286                                N
2713003112024090506N     A1117588-0             000001130999175461IN S S SE P                                       AR1CAIXESBB    0207ESPALACIOS GLADYS LEONOR                              I0800000000EUR0000000190200002031488                                N
2713003112024090506N     A1117589-0             000001130999175461IN S S SE P                                       AR1CAIXESBB    0207ESMASACHS MARIA ALICIA                                I0800000000EUR0000000100800001076160                                N
2713003112024090506N     A1117590-0             000001130999175461IN S S SE P                                       AR1CAIXESBB    0207ESPITTAU MARIA ANGELICA                               I0800000000EUR0000000116900001248502                                N
2713003112024090506N     A1117591-0             000001130999175461IN S S SE P                                       AR1CAIXESBB    0207ESMONICA BEATRIZ MARCONI RUVINI                       I0800000000EUR0000000038400000410343                                N
2713003112024090506N     A1117592-0             000001130999175461IN S S SE P                                       AR1CAIXESBB    0207ESMALISANI ANA MARIA                                  I0800000000EUR0000000184400001968872                                N
2713003112024090506N     A1117593-0             000001130999175461IN S S SE P                                       AR1CAIXESBB    0207ITGROSSI LEONOR ESTER                                 I0800000000EUR0000000021500000229351                                N
2713003112024090506N     A1117594-0             000001130999175461IN S S SE P                                       AR1CAIXESBB    0207ESNANCY EDITH GOMEZ FIGUERA                           I0800000000EUR0000000129000001378209                                N
2713003112024090506 SE   A1117595-0             000001130670157799NUEVO BANCO DEL CHACO SA                          AR1NACNUS33    0299USMASTERCARD                                          S2900000000USD0000000570300005563353                                N
2713003112024090506 SE   A1117596-0             000001130670157799NUEVO BANCO DEL CHACO SA                          AR1NACNUS33    0299USMASTERCARD                                          S2900000000USD0000001058500010325490                                N
2713003112024090506N     A1117597-0             000001130999175461IN S S SE P                                       AR1CAIXESBB    0207CHSCHILLING SUSANA MAGDALENA                          I0800000000EUR0000000222900002380624                                N
2713003112024090506N     A1117598-0             000001130999175461IN S S SE P                                       AR1CAIXESBB    0207ESLOVERDE SONIA ELBA                                  I0800000000EUR0000000183500001959409                                N
