12019102813300
214869071020148690716000000000000000000000000ACOSTA, HORACIO ALBERTO                 20191028133001000100000061184220000037916542000002525410000044282422
213439832023134398329000000000110014512200001LATORRE MARIO LUIS                      20191028133001000200000182743020000002548762000000203910000020802672
228165746020281657462000000000110014460607001GARCIA,ANIBAL MAXIMILIAN                20191028133001005600000103456910000071620682000005513810000063264262
217497048020174970484000000000120014461400001SANCHEZ JOSE LUIS                       20191028133001007300000260695620000000055002000000010010000027023062
206273740027062737404000000000120014467300001SANTINELLI,ANA MACIEL DE                20191028133001008200000183141710000030771802000002432510000012214382
207670309020076703095000000000120014503300001GAUTIER,JORDAN ALBERTO                  20191028133001013000000067184020000027420362000001891510000033949612
204803671020048036717000000000100000000000000COLOMBO,JUAN CARLOS                     20191028133001015600000031152010000000735232000000035010000002183471
211415356027114153562000000000100000000000000BAQUE, STELLA MARYS                     20191028133001015900000009949320000000000002000000000010000003414932
232878786020328787866000000000000000000000000SERRATRICE, ALBERTO ADRIAN              20191028133001019400000048741320000003853522000000308210000009346832
212105390020121053900000000000100000000000000SANCHEZ,HUGO ALBERTO                    20191028133001019600000026142720000047148812000003560010000049597332
320191028133000000001000097439070000222070700000164803000026607896
