12021121021357
214869071020148690716000000000000000000000000ACOSTA, HORACIO ALBERTO                 20211210213571000100000174780520000045707692000003556910000062830052
213439832023134398329000000000110003918803030LATORRE MARIO LUIS                      20211210213571000200000863765620000005548002000000443810000091880182
207658492020076584924000000000110004708005030BONDAZ, LUIS ROLANDO                    20211210213574000700000310576720000121580512000009505810000151687602
205758711027057587119000000000110000130103021PORTA, MARTA EVA                        20211210213575004600001415204720000194812142000015606310000409130982
204715115027047151150000000000000000000000000CARBALLO, MARIA LIDIA                   20211210213579004800001492705520000049500902000003969010000228681352
228165746020281657462000000000110000209105017GARCIA,ANIBAL MAXIMILIAN                20211210213571005600000628905720000026190772000002031510000100083702
207456992020074569928000000000110000183608012GIMENEZ,ROLANDO WALTER                  20211210213579006300000302444120000037990722000003025510000067932582
217497048020174970484000000000110003920300030SANCHEZ JOSE LUIS                       20211210213571007300000214763120000003159002000000252710000028311042
221347051020213470516000000000000000000000000DAMILANO, ALBERTO JAVIER                20211210213577007600000528588520000157672372000012623110000221986852
223084190020230841900000000000000000000000000MARI, CHRISTIAN ARIEL                   20211210213577008000001342632220000002557372000000204610000136800132
220263692027202636921000000000111111111111030DELLACASA, ADRIANA ELDA                 20211210213574008300000436673520000117982942000009438810000185476162
205916292027059162921000000000111111111111003JARA,ELISA LILIAN                       20211210213576010300001157191220000067182362000003863010000182515182
206649889027066498897000000000110003921700030MARTINEZ,MIRTA                          20211210213573011000000755488120000022501082000001776910000141163102
205142220027051422207000000000000000000000000FLEGO, MARIA M.KELLNER D                20211210213578011200000141147020000116153872000009258610000129342712
212784553020127845531000000000110000239104014PULJIZ, OSCAR A. LEON                   20211210213575011900000565449420000116332532000008916510000171985822
210027153027100271538000000000110000342900013QUIROGA,MARIA MEDINA DE                 20211210213577012400002004087320000271604752000021664410000489131332
220651370027206513700000000000110000270703001SCHEMBREG JUANITA GLADYS                20211210213575012600001822886420000038872082000003109910000284602232
218376825020183768256000000000111111111111001JULIAN, JORGE ORLANDO                   20211210213575012700000263362720000009012602000000568910000081564332
204941385027049413853000000000110000165610025NOVIK, NILDA                            20211210213576012800000126489620000017285302000001382710000029795992
207670309020076703095000000000110003924506030GAUTIER,JORDAN ALBERTO                  20211210213571013000000462161320000016450422000001073010000062559252
211168557027111685571000000000110000103607020NAIDENOFF LILIAN GLADYS                 20211210213577013200001355018720000042215332000003377210000175399482
212331111020123311117000000000110000587206001VIGANOTTI,CARLOS RODOLFO                20211210213575013300000966396720000152156512000010929510000247703232
221930505027219305058000000000101522240000001MACIEL, MARCELA SOLEDAD                 20211210213572013400000189244810000045429812000003451010000028711382
208075405020080754052000000000110000068606002ESPINDOLA,JORGE ALBERTO                 20211210213576013500000281629620000059249452000004740110000114708402
234300976020343009764000000000110000157804007SAGUIR, SERGIO ELIAS                    20211210213577013600001803496720000154893542000012138710000525084322
221347801020213478010000000000110000006004021MARCON, DANTE RODOLFO                   20211210213575013700002360032720000106558642000008434910000341718422
203272313027032723131000000000000000000000000PAJOR,ROSA INSAURRALDE D                20211210213576013900000225433020000089900042000007196610000111723682
220092029020200920296000000000110000607810001RAFFIN, CARLOS RAÚL                     20211210213575014000002435620820000045907922000003350410000282044962
225518259020255182596000000000111111111111015PEREZ, PABLO ADRIAN                     20211210213572014100000438126620000017665292000001317510000067939002
206159007027061590078000000000000000000000000PEREZ,ANGELA VERON VDA D                20211210213579014200000734838320000067581152000005384110000140526572
220094016020200940165000000000110003918302030ROBLEDO, ALFREDO EMILIO                 20211210213572014500000318056920000004664922000000373210000036433292
210025070020100250706000000000110000011505001KOCHOL,EDUARDO MILAN                    20211210213575014600000097987120000138115572000010596210000149499662
208381997023083819979000000000111111111111005SCHULZ,HERALDO ROBERTO                  20211210213579014800000835424520000090688492000007255310000173505412
224632451023246324514000000000110001680107015LOPEZ,ANDREA VERONICA                   20211210213572014900000327267820000029914862000002283410000114951602
221546267027215462671000000000110000418007003PICCINELLI KARINA                       20211210213576015400000621643620000042285292000003382910000105354672
211415356027114153562000000000101454734000001BAQUE, STELLA MARYS                     20211210213571015900000014900810000000000002000000000010000001490081
208046118020080461187000000000110000132805018DOMINGUEZ,ALDO                          20211210213578016000000607224620000032566882000002605410000093028802
205079296020050792960000000000111111111111010INGLANT,CARLOS                          20211210213577016100000904421920000134822302000010785710000270566002
212704608020127046086000000000110000253103023ZAISER,RAUL ENRIQUE                     20211210213577016300000508021020000018413512000001477610000099921852
223293248027232932487000000000110003915605030SALOMÓN, ESTER NOEMÍ                    20211210213573016400000608445920000000000002000000000010000060844592
217150973020171509735000000000110003916700030DELLAMEA, RODOLFO ANTONI                20211210213574016500000023805020000009469732000000603510000021064082
207916104020079161048000000000000000000000000BRUNO CARLOS OMAR                       20211210213579016700001139490820000065051972000005091110000236066652
212466287020124662878000000000111111111111003VEGA,ERNESTO RAUL                       20211210213576017000000014567720000001332092000000106610000002778202
218291445027182914458000000000110000165806025ARIAS, MONICA S. IANCHUK                20211210213576017100000337906120000052347792000004194610000085718942
212105785027121057854000000000110000286507016CHUAIRE,GRACIELA SARA                   20211210213574017200000699893220000001440002000000115010000097152582
208301507020083015072000000000000000000000000GUTIERREZ,ROBERTO                       20211210213573018200001901129320000091624092000007329610000281704062
210781927023107819274000000000110000208707004GASPAR,ESTELA M.GARCIA D                20211210213578018400000743348620000035789902000002863210000127612942
211392582027113925820000000000110000418105003LEZCANO,JUANA NANCI C.DE                20211210213576018700010534801910000113448072000009092410000940941361
225369657020253696576000000000111111111111012ESCALANTE,CARLOS ALBERTO                20211210213579018800000149473320000037809612000002834910000119575302
214202214027142022147000000000110000182709012TROCHE, EMMA GLADYS ELIZABETH           20211210213579018900000477432620000038848322000002861210000090576462
234164514027341645145000000000000000000000000SAGUIR, ELBA GLADYS                     20211210213575019200000863493420000058764562000004002510000196264052
232878786020328787866000000000101205546000001SERRATRICE, ALBERTO ADRIAN              20211210213571019400000344524010000007365512000000589110000026149301
213306348020133063480000000000101049318000001KOCHOL, ALBERTO JOSE                    20211210213575019500000260442920000023088692000001746110000048958372
212105390020121053900000000000110003914902030SANCHEZ,HUGO ALBERTO                    20211210213571019600000089643920000044343462000003209510000052986902
207897409020078974096000000000110000241908006CISNEROS,CARLOS                         20211210213577019800000357615520000152225142000012184910000186768202
207916271020079162710000000000101016375000001CAROL,HUMBERTO RAMON                    20211210213575019900001779801620000187823062000014973010000435281562
213439659020134396599000000000111111111111030FERNANDEZ VICTOR LEOPOLD                20211210213572020200000054205620000000000002000000000010000005420562
213439263027134392636000000000110003914205030MACIEL, MARÍA PATRICIA                  20211210213574020500000079512620000007192992000000575410000015386712
216936032020169360325000000000000000000000000BRIZUELA PELLEGRINI,RAUL                20211210213577020700000879673720000009736642000000779010000097626112
210536929020105369299000000000110000103204009DEHEZA ATILIO EVARISTO                  20211210213576021200000848328320000024827502000001986110000133293432
226225425023262254259000000000110000587707001BONILLO, GUSTAVO RAUL                   20211210213575021400000551545020000040365472000002805310000117743442
212555043027125550431000000000101463201000001ANDRADA, NILDA NOEMI                    20211210213574021600000024120010000051590402000003749010000070102892
216296998020162969987000000000110000166008025PAULUK, FRANCISCO ENRIQU                20211210213576021900000334346720000006859002000000548710000016319052
211173395020111733954000000000000000000000000SILENCIO, JOSE RAMON                    20211210213577022000000460492520000033412922000002588410000080240332
214732223020147322233000000000000000000000000ROMERO BENITO BENIGNO                   20211210213579022100000768888120000079493062000006374110000283476462
211226253023112262539000000000110100314408003BERTONCINI JORGE RAUL                   20211210213576022500000738149520000043975442000003183910000076242502
224408000020244080007000000000110000162303010INGLANT PABLO DANIEL                    20211210213577022600000524753420000074223032000005942510000127104122
214948924027149489245000000000000000000000000SANG, ETHEL NOEMI                       20211210213575022700000448944310000154004962000012163010000112044232
205477016027054770168000000000110000109404024MONTES, ANA RITA LOPEZ D                20211210213579022800000542458720000027837822000002227010000084618042
216516424020165164246000000000110000165708025ESCOBEDO EDUARDO OSCAR                  20211210213576023000000667876420000047562372000003809210000123596442
205399102027053991020000000000111111111111003STROHSCHEIN GERTRUDIS S                 20211210213576023200000000350020000000000002000000000010000000035002
214037663023140376639000000000110003916504030RAMIREZ PABLO MARCIAL                   20211210213574023300000328889320000001397102000000118510000103945682
211382556020113825562000000000000000000000000NUÑEZ BASTACINI, CARLOS LUIS            20211210213574023800000400034020000041328852000003192210000081013032
213289254020132892548000000000110003920703030FALCON JULIO CESAR                      20211210213574023900000139518720000005316272000000425310000019225612
223987528027239875284000000000110000588105001MONDINO VERONICA ANDREA                 20211210213575024000000440781520000055962892000004530810000099587962
225369123023253691239000000000110000212808004BARRIOS FACUNDO JULIAN                  20211210213578024100000404018720000259491222000020759510000336641782
212979528024129795286000000000110000055608018FERNANDEZ RUBEN ARIEL                   20211210213578024200000783362620000079462362000006277910000248190672
211899075027118990752000000000110113506807030ROMERO CORAZON MARIA G.D                20211210213571024400000465415420000060991782000004493510000107083972
221618513020216185138000000000110003922000030OBREGON RAMON GUSTAVO                   20211210213571024700000193877720000000542472000000043410000019925902
222905812020229058127000000000110003918204030SANCHEZ,JORGE EDUARDO                   20211210213572024800000665257220000015944262000001275510000004527491
229021282020290212821000000000000000000000000VECCHIETTI, NORBERTO EDUARDO            20211210213577024900000896178320000108833132000008669410000197584022
210023495027100234950000000000000000000000000ROJAS GLORIA ESTER                      20211210213576025000000890896320000088995352000007122810000243337952
207923059020079230597000000000110003922403030ISMAEL JULIO                            20211210213572025300000237575520000035292412000002830310000058766932
224727668027247276683000000000000000000000000ROJAS IVANA L.BONFANTI D                20211210213571025400000897760620000179533152000014348710000267086262
216897725020168977256000000000000000000000000MULLER JUAN CARLOS R.                   20211210213571025500000571160120000028062932000002044810000076269112
207911536020079115364000000000110001682504015FERNANDEZ RAMON CESAR                   20211210213572025700000278119120000102231142000008194810000129223572
220800422027208004226000000000000000000000000VEGA NORMA DEL CARMEN                   20211210213577025900000621761320000174554722000013964410000308891112
234413905027344139054000000000111111111111030NOIRAT, MARIA MIRKA                     20211210213572026100000164941020000046393732000003664010000062521432
232065602027320656023000000000110113507510030DEDIEUS JOHANA MARIELA                  20211210213574026200000792066320000099193162000007262110000177673582
216757758027167577585000000000110003922109030ROMERO EMILCE GLADIS                    20211210213572026400000147724020000063992792000004972010000078267992
213048687020130486879000000000110000171803021BENITEZ PABLO                           20211210213575026500000604793820000101690442000008140710000252851242
227001837027270018373000000000110003919310030PACE MARIANA ORTIZ DE                   20211210213573026600000335542020000048795382000002959310000082053802
216115900020161159000000000000000000000000000AZAREVICH WALTER OMAR                   20211210213578026800000422002720000232164752000018573210000375444192
217548697027175486971000000000000000000000000ZARATE, MARTA BEATRIZ VERA DE           20211210213574027100000197800020000023097402000001832010000062571352
220451103027204511034000000000000000000000000BARRERO, SANDRA ESTHER S.               20211210213574027200000937494820000063441752000004787610000272087552
222052272020220522726000000000110000127903010MENDEZ FERNANDO FABIAN                  20211210213577027600001138567320000067434422000005398310000203839322
218396221020183962214000000000111111111111030PENAYO OSCAR DANIEL                     20211210213574027700000073516420000027465492000002044910000111986692
212186463027121864636000000000110001678109015JOHNSON ELSA MARY                       20211210213572027800000268366220000000880842000000070510000092893122
213592086027135920865000000000000000000000000ALMIRON PETRONA CONCEPCION              20211210213573028000000274160810000008398272000000671910000019085001
224478137027244781379000000000011111111111030GARCÍA, MIRIAM NOEMÍ                    20211210213574028200000353735220000033045872000002433210000068176072
222537527027225375270000000000000000000000000GIL, GRISELDA AMALIA                    20211210213579028300000427956120000068731102000005498510000165870562
229012735020290127352000000000110003920006030ORTÍZ, DIEGO                            20211210213572028500000711796220000045450032000003479610000177063742
218549133027185491337000000000110003914804030VERA, EUGENIA                           20211210213574028800000151721110000024817782000001884410000009457232
210179841020101798411000000000110000397005022RISSO PATRON MANUEL GREGORIO            20211210213577029000000091298510000150433652000012034810000182408032
216453438027164534389000000000000000000000000ACEVEDO, NANCY HERRERA DE               20211210213577029400000858149620000093357262000007473310000207667892
232568215023325682159000000000000000000000000DOMINGUEZ, FRANCO JAVIER                20211210213576029500000378482320000052233562000003172510000089764542
221794804027217948040000000000000000000000000ALEGRE, NANCY ROXANA                    20211210213578029600000576524020000161061272000012885010000242813672
205090467023050904679000000000000000000000000CARRIZO, CARLOS NÉSTOR                  20211210213577029700000125347720000011995572000000959710000025544372
225534711020255347110000000000110003424008030MAFFEI, MARTIN RENATO                   20211210213574029800000140997320000067826872000005280910000094702752
230776374020307763746000000000111111111111030GONZÁLEZ, JORGE HERNAN                  20211210213571030000000261463820000002032422000000162610000049092242
230626966027306269661000000000000000000000000RODRIGUEZ, ESTELA ANDREA                20211210213575030100000695863620000091494412000006302510000209613722
221793276023217932769000000000110000421100003MACHBANIN, DANIEL RENEÉ                 20211210213576030200001811483520000134359562000010401210000329205592
206213214027064134146000000000000000000000000RODRIGUEZ, BLANCA LUISA                 20211210213579030800000243675620000030546082000002478110000095997122
222002636027220026367000000000000000000000000YURI, ROXANA ETEL                       20211210213574030900000121213120000000000002000000000010000012121312
222777868020227778688000000000110003439207030PIEDRABUENA, PABLO HUGO                 20211210213574031100000293573720000020251262000001548810000177506472
211322356027113223567000000000110000260707018DIEWALD, MARGARITA ISABEL D. DE         20211210213578031200001636252020000072945362000005835610000235987002
220693963020206939630000000000000000000000000CÉSPEDES, CARLOS ALBERTO                20211210213577031300000365251020000001814482000000150010000038324582
226812299020268122991000000000000000000000000BULACIO, HORACIO FABIÁN                 20211210213572031400000098477710000075518582000006041310000066066682
213485688027134856888000000000110000161404023VOGELMAN, EVANGELINA M.DE               20211210213577031500000184536620000024820092000001909410000059001862
218440790020184407907000000000110000240301014GIULIONI, HECTOR LUIS DANIEL            20211210213575031600000540612020000023662252000001892910000077534162
221517638027215176385000000000000000000000000GONZÁLEZ, JUANA                         20211210213579031700001882070510000009148802000000731910000179131441
214606537020146065377000000000110003958101030VELAZCO, RITO ALBERTO                   20211210213571031800000892344820000005968772000000411010000095162152
225528610020255286103000000000110000070506002GUIZDACOFF, DANTE RENÉ                  20211210213576032000000774546020000080479492000006447710000198733592
206502631027065026312000000000111111111111030BLANCO, ELISA                           20211210213574032100000196016820000021957392000001668610000041392212
220463157020204631574000000000110001701305015ROBLES, WALTER RICARDO                  20211210213572032300000044423820000027385692000002107710000031393752
214697892020146978925000000000110000242110016RAMIREZ, CARLOS ALBERTO                 20211210213574032500000222888920000018473232000001467110000067161722
212105621020121056217000000000000000000000000LUQUE, EMILIO MARTIR                    20211210213574032800000141050220000000000002000000000010000014105022
227990412020279904126000000000110004523207030COSSIO, CRISTIAN FEDERICO               20211210213574033000000758861520000039293552000003001510000120040302
233839501023338395019000000000000000000000000LIPPS, DIEGO LUIS                       20211210213578033100000209931620000070096492000005616810000122713472
205706394027057063942000000000000000000000000BARRERA, ANGELICA                       20211210213577033200000119741110000060275272000004822010000047818962
220451374027204513746000000000110004671101030PELLIZZARI, NORA DEL CARMEN             20211210213573033300000290319510000025289182000001701410000003912911
222784595020227845954000000000000000000000000ACOSTA, RUBEN HORACIO                   20211210213571033600000048207620000023018082000001776310000054340122
232089571024320895711000000000000000000000000ANDRES, MARCIA EMILCE                   20211210213576033900000249816220000004229862000000343010000041799782
225278230027252782309000000000000000000000000SALIVA, YAMILA BEATRÍZ                  20211210213573034100000499755820000007615582000000517710000057539392
217251556027172515563000000000110004677007030CONDE OLGADO, NÉLIDA                    20211210213574034200000242832620000032429862000002600710000081202922
220090614020200906145000000000000000000000000VALUSSI, CARLOS ALBERTO                 20211210213574034300000428437020000008619712000000646410000056000172
217943110020179431107000000000110000195304021RIVERO, LUCIANO HUMBERTO                20211210213575034500000334528520000443767002000035524210000465577432
225369111020253691116000000000000000000000000TYWONIUK, ARIEL ABELARDO                20211210213578034600000449132620000041657772000003332310000145154042
207931049020079310493000000000110000617904001FUENTES JUAN CARLOS                     20211210213575034700000456692810000051015812000004081110000004938422
213069986020076795909000000000000000000000000RODRIGUEZ, DOMINGO RAMÓN                20211210213575034800000004787220000083116602000006649010000091260422
227324879027273248795000000000110000172201021ZALAZAR, MARÍA LORENA                   20211210213575034900001018760420000366553122000029333310000466731832
218279603023182796034000000000000000000000000ENCINA, NILDA ELENA                     20211210213574035100000377726620000030209552000001939710000074288992
231294336020312943361000000000110004870704030KISZKA, JOSE MARIA                      20211210213571035200000164693010000022919772000001833510000145888682
230614342027306143420000000000110004745510030GAITAN, NOELIA ANDREA                   20211210213574035300000069333110000213652522000017072910000226970022
213439200027134392008000000000110007722302030DIAZ COLODRERO MARIA BEATRIZ            20211210213574035500000034783220000077307822000003799710000080406172
217914867027179148671000000000000000000000000GIMENEZ, NANCI BEATRIZ                  20211210213578035600000386659420000046971042000003712610000109637572
213592838020135928381000000000110004746300030GODOY, JUAN CARLOS                      20211210213574035700000330731920000010767782000000828910000033507932
221306906020213069064000000000000000000000000AMBROSIO TODARO, CIRO FERNANDO          20211210213572035800000461202420000086687322000006935010000140080332
223915017023239150179000000000110004707400030GOMEZ, JORGE ALFREDO                    20211210213573035900000104177420000038434252000003019210000048550072
221862014027218620146000000000110000621504001RAJCKAKOWSKI, LILIANA GABRIELA          20211210213575036000000394942620000097687452000006976810000314739262
213960650020139606508000000000110000005508011ORTIZ, FRANCISCO RAFAEL                 20211210213575036200000215955720000005080432000000406510000045486952
226980367027269803679000000000000000000000000SANCHEZ, CINTHIA VERONICA               20211210213579036300000401760820000094305132000007546510000197393202
231612794020316127941000000000000000000000000BIAZONI, MARIANO ANTONELLO              20211210213577036400000354728620000042625922000003410310000079227752
214224627027142246274000000000000000000000000NAVARRO, NORMA INES                     20211210213576036500004258247810000067195482000005375710000359166871
228122328027281223289000000000110007350610030OLDERBURGEN, ANGELA BEATRIZ             20211210213574036600000139274010000000871502000000069610000035887142
206696698023066966984000000000110000719207001GOI, TERESITA MARIA                     20211210213575036700000452277120000005124282000000409910000069286502
214085323020140853233000000000000000000000000DEL VALLE, DESIDERIO JORGE              20211210213574036800000397324120000032056342000002540510000071534702
223273543027232735436000000000110001674600015VALDEZ, NANCY ETELVINA                  20211210213571036900000159451420000025238502000002019010000040981742
220591732020205917323000000000000000000000000CORREA HECTOR DANIEL                    20211210213575037000000297672410000026561802000002102010000002314441
224559204020245592044000000000110011270309030BARRERO, OMAR DARÍO                     20211210213574037100000014067220000000000002000000000010000001906722
224816216027248162169000000000000000000000000PEÓN, VERÓNICA BEATRÍZ                  20211210213575037300000052000020000000000002000000000010000005200002
226418312020264183120000000000110004568209030BENOIST, SERGIO ANIBAL                  20211210213571037500000139183320000389253992000030451110000424977242
234966409020349664098000000000110000165904025MICHELINI, RODOLFO OSCAR                20211210213576037600000015243020000012696812000000944210000015096692
222002924020220029248000000000110000646307001ROBLES, GUSTAVO ADOLFO                  20211210213575037700001082565820000062932882000004875210000205296412
224632543020246325430000000000000000000000000SABLICH, DIEGO ORLANDO                  20211210213571037800000852599920000090514362000007247610000195991142
212120358020121203589000000000000000000000000IZQUIERDO RICARDO                       20211210213577038100000192932520000291603742000023337410000342784662
221849386027218493861000000000000000000000000JIMENEZ, CLAUDIA MONICA                 20211210213575038200000596144320000224902792000014905910000399402632
228955466020289554662000000000110000560507018MORIENEGA, EUGENIO VICTOR               20211210213578038300000703536020000035591762000002865610000235698192
233730044027337300443000000000010004774806030DELLACASA, MARIA PAULA                  20211210213572038400000178284320000036497072000002751910000054050312
213036425027130364255000000000000000000000000ROMAN, ANA NIEVES                       20211210213579038900000156045820000024449322000001683510000075890602
227471905020274719053000000000110113507401030ZAMPEDRI, JUAN EDUARDO                  20211210213574039000000830684120000040202782000003216310000122949562
224606461020246064610000000000110000015504014TERZICH, NORBERTO RICARDO ARIEL         20211210213575039200000214119020000035979122000002620810000084722812
233145918020331459187000000000000000000000000GUTIERREZ, FERNANDO ANDRES              20211210213578039300000478742920000159777222000012751410000237337772
228858416027288584163000000000000000000000000RADA, PAMELA ELISABETH                  20211210213571039600000180292510000007237812000000506210000037176442
229020268020290202680000000000000000000000000OPAT, RODOLFO ANTONIO                   20211210213575039700000387012520000041381352000003310410000159002062
207927181020079271811000000000110001680608015JIMENEZ RUBEN LUIS                      20211210213572039900000274448120000005209782000000392610000032615332
231254808023312548089000000000000000000000000SORIA,  NAHUEL SEBASTIAN                20211210213579040300000124092020000018633622000001447810000030898042
210980281020109802817000000000000000000000000GALEANO, ISIDRO                         20211210213572040400000162489720000000000002000000000010000016248972
224687554020246875546000000000000000000000000ORTÍZ, DANIEL CHRISTIAN                 20211210213578040500000119144320000010777432000000861910000022605672
235690561020356905610000000000000000000000000FERNANDEZ LARRE GONZALO EMANUEL         20211210213571040600000190588720000015074152000001206110000034012412
220382869020203828692000000000111111111111003ROSSI GUSTAVO                           20211210213576040800000181974910000037378972000002990610000019242422
222192430023221924304000000000000000000000000ALBARIÑO ANA NOEMI                      20211210213571040900000122109720000005564672000000445210000019733922
225237666020252376667000000000111111111111003RIPOLL GABRIEL ALEJANDRO                20211210213576041000000979587220000095314862000007617910000192511792
232712414020327124146000000000111111111111025SALIVAR ALEJANDRO MIGUEL                20211210213576041100000130764920000019459682000001263310000063788372
208494895020084948951000000000000000000000000QUIROGA CARLOS RENE                     20211210213577041200000585351520000133960702000010390010000211628702
223059589020230595896000000000000000000000000SANCHEZ, ALEJANDRO DANIEL               20211210213573041300000132148710000006373032000000509810000006892821
235496615027354966153000000000110001606001030PENAYO GISELLE ANAHI                    20211210213574041400000504739020000008937342000000715010000180965572
232302598027323025989000000000000000000000000GUTIERREZ REGINA MARIA PIA              20211210213579041600000416973620000032980442000002446210000081341682
226963938020269639386000000000000000000000000VELAZQUEZ CARLOS ALEJANDRO              20211210213579041800000164481920000129677372000010389810000175597532
229546856020295468565000000000110000786101001GIULIONI, JOSÉ AGUSTÍN                  20211210213575041900000266881120000013504052000001080410000040084122
224797375020247973754000000000110000823510030FERNANDEZ, DARDO ANDRÉS                 20211210213574042000000132517220000004372642000000349810000067808482
230486081020304860813000000000000000000000000NOGUERA PRIETO JAVIER ALBERTO           20211210213579042100000029275220000021924962000001753810000024677102
230708602020307086027000000000000000000000000MORANTE DIEGO MARCELO                   20211210213578042200000295274520000010228452000000823010000039673602
221626434027216264342000000000111111111111030OVIEDO, MARIA GABRIELA                  20211210213574042300000076806220000173783822000013909210000180073522
217249437023172494374000000000000000000000000GOMEZ SUSANA RAQUEL                     20211210213578042400000207313420000125882492000010071510000149148182
224397927020243979278000000000000000000000000MOLINA DARIO FABIAN                     20211210213572042900000426765720000030251362000000902110000082660002
227368933020273689339000000000110003973402030SOLIS JUAN CARLOS                       20211210213573043000000204362820000001830222000000146410000050344952
220451639020204516392000000000000000000000000COLUSSI SERGIO ORLANDO                  20211210213572043100000340424720000042266762000002958410000076013392
231665505027316655055000000000000000000000000PUERTA BARBARA LISANDRA                 20211210213574043200000199021320000042289092000003383310000123287772
210374266020103742669000000000000000000000000SOROCZUK CARLOS ROBERTO                 20211210213577043300000279732520000015701982000001256010000043549632
233839840023338398409000000000110001485102001GIULIONI LUIS                           20211210213575043600000044841320000002621232000000209710000020959092
216367251027163672516000000000110002032809030NASIR ALICIA FLORENTINA                 20211210213574043700000348851320000101676152000008037610000184868672
231377516027313775165000000000000000000000000VINA SIMONICINI LORENA                  20211210213577043900000180168620000015628012000001250210000048462652
207623113020076231134000000000110000034401012ROBLEDO, JUAN OMAR                      20211210213579044100000037706110000006121002000000489710000062868972
227556897020275568970000000000000000000000000DEYDAR, HÉCTOR OSVALDO                  20211210213576044300000904955120000034452192000001974210000170751462
235285360027352853602000000000000000000000000OJEDA, YAMILA TRINIDAD                  20211210213579044400000844892720000034362302000002753510000141620122
225904740020259047405000000000110002143601030MOLARES MONTEIRO, FERNANDO GABRIEL      20211210213574044500000252695120000020803442000001664310000049040722
234478958020344789585000000000000000000000000RAMIREZ, NILSON RODRIGO                 20211210213574044700000097359220000013278002000000828510000032269122
238766474020387664743000000000000000000000000RODRIGUEZ JIMENEZ, MIGUEL EDUARDO       20211210213575044800000170072520000009850802000000788010000016009252
216706753027167067536000000000000000000000000BRASCAR, MIRIAN ELIZABETH               20211210213579045000000170844420000108231212000008504410000156555462
226339253027263392537000000000000000000000000AMARILLA, LORENA ELIZABETH              20211210213579045100000373467520000009352232000000748310000058364692
205615914027056159148000000000000000000000000VAZQUEZ, ZULMA RAMONA                   20211210213571045200000134119620000000000002000000000010000006588121
230290500020302905003000000000000000000000000PARED, MARCELO SEBASTIAN                20211210213571045300000207912420000010041662000000667010000040493602
239751919020397519199000000000000000000000000RODRIGUEZ JIMENEZ, ANTONIO ALEXIS       20211210213575045400000179346220000032090622000002255710000044840502
240585914023405859149000000000000000000000000MENDEZ, TOMAS FEDERICO                  20211210213577045600000078243320000002086402000000166910000039494042
213901884020139018843000000000110000270409014RAFFIN, JORGE FERNANDO                  20211210213575045700000682575820000015244642000001194510000086332772
222197716020221977166000000000000000000000000LATORRE, GUILLERMO ALBERTO              20211210213576045800000431054910000000292502000000028010000023605791
234035777023340357779000000000000000000000000ESCALANTE, GERARDO GASTÓN               20211210213579045900000314431720000018277082000001191110000108444992
221085081020210850814000000000110000037501014BARRETO SERGIO RICARDO                  20211210213575046000000804682720000018987202000001109410000099344532
231195076020311950763000000000110000560605018MORIENEGA, MIGUEL ANGEL                 20211210213578046100000713351720000063416532000005073310000211085012
208306819020083068192000000000000000000000000AGUIRRE, GUSTAVO OSCAR                  20211210213579046200000527539710000089084452000006981710000073397562
224093805027240938052000000000000000000000000GONZALEZ, GRACIELA CLAUDIA              20211210213579046300000040155620000043040662000003389710000049727252
241082856020410828562000000000110000112410021GÓMEZ, SANTIAGO                         20211210213575046400000486474520000241641962000019304210000288359842
220770583020207705838000000000000000000000000AYALA, OSCAR                            20211210213575046600000377872320000012668602000001022510000050353582
227277487020272774871000000000111111111111001CHEJ, SERGIO ADRIAN                     20211210213575046700000367356620000016198302000001295810000069455842
221618791020216187912000000000110002260401030GONZALEZ, ORLANDO GUSTAVO               20211210213571046800000266498320000000813482000000065110000027456802
235305117027353051178000000000000000000000000RAMIREZ, LIZ ANABEL                     20211210213579046900000148047620000011054342000000884310000025770672
239315039020393150395000000000000000000000000BARRIOS, MATÍAS JUAN MANUEL             20211210213578047000000325040920000007883392000000630710000066006412
206074373027060743733000000000000000000000000SAUCEDO, ANTONIA                        20211210213575047300000282228820000060912612000004905210000211234472
237762199023377621999000000000010000043106025ANDRES, NALDO LIONEL                    20211210213576047400000002000020000000000002000000000010000000200002
230517241027305172419000000000000000000000000GARCÍA, ELENA                           20211210213578047500000362122420000012571392000001005710000153501722
223070459027230704592000000000000000000000000LEDESMA, MARISA ALEJANDRA               20211210213577047600000258299010000038638592000003091010000013400872
236116802020361168020000000000000000000000000FORLIN DELLACASA, LEANDRO NAHUEL        20211210213575047700000404972920000113971852000009012210000166199972
229366026027293660269000000000000000000000000INSAURRALDE, CYNTHIA SABRINA            20211210213576048100000356764520000061749632000004939910000104985042
216375626023163756269000000000000000000000000GUTIERREZ, HUGO OMAR                    20211210213578048200000681467020000022131062000001770610000105682602
220091499020200914997000000000000000000000000ROMERO, MAURICIO JORGE                  20211210213579048300000003509220000000000002000000000010000001521922
228661268027286612682000000000000000000000000DIP, CLAUDIA CECILIA                    20211210213574048700000203493020000007926142000000636810000028211762
224153632020241536328000000000000000000000000ESPINOZA, JOSÉ LUIS                     20211210213579048800000565027820000007847092000000632510000080669122
205916248027059162484000000000110000507804003RODRIGUEZ, CELINA                       20211210213576048900000220525720000031057402000002484510000147886072
230214376027302143760000000000000000000000000LÓPEZ CRISTALDO, NORMA EMILIA           20211210213571049000000251599020000032271782000001584310000062401892
227435225027274352251000000000110000050808025LEGUIZA, FRIDA AMALIA                   20211210213576049100000325947220000018077672000001469510000064833972
222687213027226872138000000000110011069906030VILLALBA, MARCELA ALEJANDRA             20211210213571049200000098990320000007396402000000600910000017436542
210876529027108765297000000000110000370208021VEGA, NILDA                             20211210213575049300000546776020000008653822000000692310000098444072
231085057027310850573000000000110000078210027JUDKEVICH, PAOLA LUCRECIA               20211210213576049600000075432120000010569772000000845510000025908432
233612966023336129664000000000000000000000000RAMIREZ, VALERIA EVELIN                 20211210213574049700000490316110000110031092000008805910000122599662
210025971027100259716000000000000000000000000BILINSKI, OLGA MARÍA                    20211210213572050100000435817320000015050212000000783310000059054112
223419974023234199749000000000110000033905014TOMADIN, ROBERTO CARLOS                 20211210213575050300000281127020000019541082000001577110000049596072
228000348020280003485000000000110000129309024BARRIENTO, SERGIO ALCIDES               20211210213579050400000141854720000026783812000002142910000065279742
231786695020317866950000000000000000000000000FALCON, CESAR AUGUSTO                   20211210213571050500000101064820000037206272000002908610000076648522
213999510020139995105000000000110007644500030ALMADA, EULOGIO CARLOS                  20211210213571050600000131767120000003167002000000253410000016318372
210916883020109168832000000000000000000000000VALLEJOS, CARLOS                        20211210213579050700000381196620000067392242000005395910000124572212
234898442027348984425000000000110123139200030RIZZI, IVANNA YANELA                    20211210213572051100000391090720000119040342000009538710000153819342
223813857020238138575000000000110005289708030LEDESMA, GUSTAVO HERNÁN                 20211210213579051200000544520920000050433802000004039210000104481972
230705571020307055717000000000000000000000000PARRA, MAURO ARIEL                      20211210213571051300000230990020000020601902000001648010000055647982
231398825020313988253000000000000000000000000BONDARUK, MAURO LEANDRO                 20211210213577051400000453636320000025088882000002006910000094303572
225961143020259611432000000000000000000000000VITER, DANIEL GUSTAVO                   20211210213579051500000525083710000005128612000000410310000047420791
231569415023315694159000000000000000000000000ORTIZ, MARTIN ENRIQUE                   20211210213574051600000565692520000001100002000000035010000057665752
214649223023146492304000000000000000000000000RAMIREZ, CLARA INOCENCIA                20211210213578051800000054539620000010798972000000863810000022621552
233214113027332141134000000000110114340704030TOSSI, ELVIA MIREL                      20211210213571051900000125335720000002092892000000167410000035669032
220092641027200926418000000000110000658009003GAUNA, ELENA BEATRIZ                    20211210213576052000000385499420000023303762000001869010000061666802
232855174020328551749000000000110007121607030SCHELOVER, WALTER ALFREDO SEBASTIAN     20211210213574052200000177082520000004402672000000217610000027332262
240033403020400334030000000000110000121409014BLANCO, DENIS IVAN                      20211210213575052300000103718020000004033732000000327310000014372802
220651333020206513331000000000000000000000000RAFFIN HECTOR EDUARDO                   20211210213575052400000013424320000006307722000000265110000007623642
211662171027116621717000000000000000000000000AREVALO, CRISTELA                       20211210213579052500000415778420000018008022000001445210000083698142
212465842027124658425000000000110000281010014ASELLE, MARIA DEL CARMEN                20211210213575052600000266303520000009218632000000593410000116907412
233383159027333831592000000000000000000000000PRO CARLA DANIELA                       20211210213574052700000312534720000010937142000000875010000044770992
226221601020262216013000000000000000000000000ALEGRE JUAN DANIEL                      20211210213579052800000482697920000252833432000020226710000376799552
240175418020401754181000000000110000285608004IMFELD, SANTIAGO GABRIEL                20211210213578052900000023119720000001569072000000125510000024712261
226207615020262076157000000000000000000000000RAMIREZ, MIGUEL ANGEL                   20211210213579053000000252306820000031509032000002520510000054229662
220157357027201573578000000000000000000000000RAMONA ALBERTINA GATTO                  20211210213577053100000040823620000024863142000001988910000045032412
224329410020243294100000000000000000000000000ROMERO, CARMELO LUIS                    20211210213579053300000292632220000017441252000001397210000053263652
210408277027104082772000000000000000000000000MARIA JULIA SANDOVAL                    20211210213572053400000080730410000002006972000000160510000006082121
229225822023292258224000000000110000043607020CARDOZO EDITH PAOLA                     20211210213577053500000118235720000087426052000007021710000136852852
204891769027048917696000000000110000304300015DIAZ, LUCIA AURORA                      20211210213572053600001356212620000024804402000001984210000162649122
218307504027183075042000000000110007760009030AGUIRRE, BLANCA ESTER                   20211210213571053700000012801120000000904462000000072310000014060242
234352223020343522232000000000000000000000000ROA, SAMUEL NICANOR                     20211210213571053800000113274220000004543962000000363610000030330382
235306691023353066919000000000110000075110030GARCIA CARBALLO, CHRISTIAN GABRIEL      20211210213574053900000000000020000000000002000000000010000000000101
233724714027337247143000000000000000000000000SPAGNOLI, MELISA BELEN                  20211210213574054000000345738820000018542352000001483310000057167902
212465954020124659540000000000000000000000000MACIEL, JORGE BUENAVENTURA              20211210213575054300000108399620000004626192000000288910000015437262
231308431027313084316000000000110007460307030VILLALBA, DELIA LEONOR                  20211210213572054400000216985420000008628282000000690310000038214042
237796997023377969979000000000110007764106030CALVO, DIEGO BLAS                       20211210213571054500000147206210000010640322000000886310000058948602
225384494023253844949000000000000000000000000ISSA URIEL ALEJANDRO                    20211210213577054800000090591120000060913052000004891210000076097092
224250215023242502159000000000000000000000000CADAVIZ, LUIS MARIA                     20211210213576054900000570186620000085455942000006836410000169685962
233548612023335486129000000000000000000000000DE LOS SANTOS, JAVIER GONZALO           20211210213571055000000071305420000000067502000000010010000013494892
223861308027238613081000000000110011097606030PAVON, MONICA GRACIELA                  20211210213571055100000152075020000000000002000000000010000015207502
223635141027236351411000000000110007969800030RETAMOZO, GLADIS BEATRIZ                20211210213572055200000126735810000044243352000003539610000031215812
238538512027385385124000000000000000000000000TREPPO, MACARENA AYELÉN                 20211210213579055400000169869220000020993382000001684010000037441902
226489950020264899509000000000000000000000000TARTAGLINO, DARIO ALEJANDRO             20211210213577055600000427005120000053908722000004317510000119216382
225877339020258773390000000000000000000000000OJEDA, LUIS WALTER                      20211210213578055800000234075620000002586462000000206810000025973342
230199509027301995097000000000000000000000000RAMIREZ, LILIAN NOELIA                  20211210213579055900000312386720000001760322000000140910000032984902
233214446020332144465000000000110002233001030CUESTA, DARDO GERMAN                    20211210213573056000000392215720000126225372000009101210000287567152
225089775020250897759000000000000000000000000VILLARRUEL, OSCAR ALEJANDRO             20211210213574056300000254426520000007395942000000591710000037891272
229720741020297207416000000000111111111111030FERNANDEZ, MARCELO JOSE                 20211210213573056400000129401320000021116672000001477810000102699922
235305354027353053545000000000000000000000000VALLEJO, CARLA ARACELI                  20211210213577056500000236834220000252775862000020222010000307360892
240175490020401754904000000000110000297206004HASSAN MAHMUD, NADIR DIONEL             20211210213578056600000403269920000020797392000001663610000061858522
232473989027324739896000000000000000000000000LUSA, MARIA LAURA                       20211210213575056700000167729720000035611952000002289810000078439692
214376166027143761660000000000110000034608022CARO CLARA ESTELA                       20211210213577056800000237689520000103043142000008248110000125987282
230370363027303703638000000000000000000000000BUYATTI, DANIELA ELISABETH              20211210213579057000000478743910000014339802000001137910000030788381
236210517020362105170000000000110000340100017ALMADA, LEONARDO ALEJANDRO              20211210213572057100000043973410000001200392000000096110000003206561
214141108020141411080000000000110001715703001VEGA HORACCIO OSCAR                     20211210213575057300000041949420000000000002000000000010000004195942
227277264027272772644000000000000000000000000MEDINA, MARÍA ELENA                     20211210213575057500000179950720000021665912000001733010000048037682
228125804020281258045000000000110003997110030VALLINA, GUSTAVO ADRIAN                 20211210213571057600000091261620000000000002000000000010000009126162
234033714027340337145000000000110008684402030AMBROGGIO, ALEJANDRA SOLEDAD            20211210213573057700000212478020000031793922000002543410000083288632
237587137020375871379000000000000000000000000ORDENAVIA, ESTEBAN JOSÉ MARÍA           20211210213572057800000020000020000000000002000000000010000002000002
224807127020248071274000000000110002158702030BAZ, DARÍO ALEJANDRO                    20211210213574057900000573160120000008552062000000684210000070470602
227377891020273778919000000000110003920801030CARRIO, JUAN PABLO                      20211210213571058000000103758310000048920332000003886710000038155832
225302713023253027134000000000000000000000000POSCH WERNING, GRETEL GUADALUPE         20211210213572058100000027080920000001799552000000144010000004493242
217290502027172905027000000000000000000000000GOMEZ, HILDA JULIANA                    20211210213571058200000411010420000010880432000000874810000059782802
228660844027286608448000000000110009684701030RAMIREZ, LIDIA YAMILE                   20211210213574058300000359406620000010062822000000769510000052556842
228125841023281258419000000000110008922210030PALACIOS, HECTOR FABIAN                 20211210213572058400000028556310000008981942000000730210000101127142
230380960020303809601000000000000000000000000KIEWCZUN, BENJAMIN TEODORO              20211210213571058500000663049920000005066062000000405410000071330512
207433986020074339868000000000110000444203017MARI, PEDRO OSCAR                       20211210213572058600000155450320000004849342000000067510000020577622
233995170027339951700000000000000000000000000CACERES, YANINA BETANIA                 20211210213576058700000159151520000000000002000000000010000015915152
231085102020310851028000000000000000000000000RODA, ELBIO JAVIER                      20211210213576058800000032549320000000000002000000000010000003814732
225986107020259861072000000000000000000000000IVAN, ALEJANDRO HORACIO                 20211210213576058900000291060520000020890272000001671310000053999092
232489289027324892899000000000110009572705030MARTINEZ, MARÍA ALEJANDRA               20211210213572059000000438591220000011248892000000899910000063457572
218021614027180216141000000000101501446000001GONZALEZ SILVIA NOEMI                   20211210213572059100000217092120000024474212000001962110000005316762
220494907027204949072000000000000000000000000VELAZQUEZ, ISABEL SUSANA                20211210213577059200000063270020000002304472000000184310000024853042
238970011027389700113000000000000000000000000CABALLERO, DEBORAH ELIANA               20211210213578059300000244381120000004482002000000358610000044366252
228858351020288583510000000000000000000000000GARAY, JOSE MARIA                       20211210213571059400000595118320000000956432000000076510000065575622
216703139027167031396000000000000000000000000YULAN, MARIA SUSANA                     20211210213577059500000122072210000035315832000002825310000058825582
243333455020433334559000000000000000000000000GOMEZ, GONZALO LEONEL                   20211210213572059700000302542020000006752582000000540310000008442192
230626179020306261798000000000110000728707018ORELLANO, ALFREDO GERARDO               20211210213575059800000009015320000002090372000000167310000052405322
234898441027348984417000000000110007460503030RIZZI, GEORGINA LORENA                  20211210213574059900000268973420000076242192000003185510000098235182
203588317027035883172000000000110009177906030BUSSOLON, HAIDEE SILVIA                 20211210213574060000000164624720000014722032000001177710000031866732
225364370020253643707000000000000000000000000GUILLEN, JORGE HORACIO                  20211210213575060100001623826320000057348312000004597010000288553452
243437984027434379844000000000000000000000000MENDEZ TREVISAN, SELENA FIORELA         20211210213579060200000233034920000040016032000003201210000082674402
214224476020142244765000000000110000728707015AYALA, JUAN ANIBAL                      20211210213571060300000099217920000000000002000000000010000009921792
238190725020381907253000000000000000000000000MACIEL, FRANCO DAVID                    20211210213572060400000109867620000004228402000000338210000015679442
221342080027213420807000000000000000000000000CORREA, SONIA YANINNE                   20211210213577060500000122943320000052971992000004237810000064842542
230730156020307301564000000000000000000000000INCOFF, JUAN CARLOS MIGUEL              20211210213577060600000401633620000043564492000003497810000084858072
231972298020319722980000000000110009443806030SANTINELLI, MAURO ANGEL                 20211210213571060700001149590620000016207802000001324310000131034432
230166944020301669446000000000110009752605030FLORES, ROLANDO FABIAN                  20211210213574060800000560158320000003545862000000283610000059533332
230566549020305665496000000000000000000000000ESCOBEDO, LUCAS GONZALO                 20211210213576060900000077400020000000000002000000000010000007740002
224600612020246006122000000000000000000000000ESTECHE, MAURICIO RAFAEL                20211210213576061000000165275120000049525732000003962110000061453282
214044693023140446939000000000110001609504001MENDOZA, JOSE RODOLFO                   20211210213575061100000026752610000009240872000000739410000065881372
226707696027267076966000000000000000000000000GARCIA, CAROLINA JAQUELINA              20211210213571061200000664104120000012893302000001012110000110135552
226719787020267197874000000000000000000000000CONFORTI, JUAN PABLO                    20211210213578061300000199078820000041362952000003309110000096933912
210851820020108518201000000000110000265006012ROJAS, JOAQUIN NELSON                   20211210213579061400000392813720000013097082000001093810000062319522
242737014020427370144000000000000000000000000GIMENEZ OJEDA, FEDERICO IVAN            20211210213579061500000443236020000031365712000002003810000101840202
230484195027304841953000000000110009721206030CARDOZO ROMERO, GABRIELA ADELIA         20211210213576061600000063189820000000000002000000000010000001601021
238764801020387648012000000000000000000000000ROMERO, FRANCO JOAQUIN                  20211210213579061700000122439120000025759702000002060710000059064042
212867141027128671418000000000000000000000000VERA, MARIA ELENA                       20211210213579061800000220144520000032930242000002296610000122476602
217986060020179860601000000000110000242502012ORTEGA, ENRIQUE GABRIEL                 20211210213579062000000194193520000016009322000001217710000050273302
214156494020141564944000000000110000498803017ROUSSELOT, GERARDO MARCELO              20211210213572062200000181273420000000000002000000000010000023666842
235047602020350476025000000000000000000000000ALVAREZ, EZEQUIEL DARIO                 20211210213579062300000239044520000001074482000000086010000026430332
228660940020286609407000000000110005649203030OJEDA, JUAN ALBERTO                     20211210213572062400000035930320000000000002000000000010000003593532
242984306020429843066000000000000000000000000RODRIGUEZ JIMENEZ, MAXIMILIANO FACUNDO  20211210213575062500000134966420000025858572000002073210000046840642
220448783027204487834000000000000000000000000GUTIERREZ, SUSANA NELLI LUCIA           20211210213574062700000206632410000017454682000001396410000010148201
214194164027141941645000000000110134311808030RUIZ DIAZ, MARIA JOSEFA                 20211210213574062800000103187820000000206112000000016510000011290142
221618888020216188889000000000000000000000000GARCÍA, FABIÁN CARLOS                   20211210213571062900000128624220000007640862000000611310000054673692
235466801020354668018000000000110011139510030VELOSO, JUAN MARCELO                    20211210213571063000000206791520000014992852000001199410000042171062
233214471020332144716000000000000000000000000ARIZAGA, RODRIGO JAVIER                 20211210213574063100000140750220000005044972000000403610000031424382
213579129027135791291000000000000000000000000CUÑADO DORA SOFIA                       20211210213573063300000025163820000003028062000000242210000005520222
220591807020205918079000000000000000000000000LÓPEZ, S. DANIEL                        20211210213571063400000136028720000000000002000000000010000020573222
218395052027183950520000000000110133873302030MIEREZ, ALICIA                          20211210213571063500000588071220000041101722000003043210000099604522
223273308020232733080000000000000000000000000NIKCEVICH, JORGE DARÍO                  20211210213574063600000248137920000001996822000000167010000026793912
231109821020311098218000000000110011141203030BESGA NASIR, MAURO ANDRÉS               20211210213572063700000553255420000054360292000004353610000128664172
229219606027292196062000000000110000804101018EPINAL, ARIELA BEATRIZ                  20211210213578063800000047141710000005730252000000458410000020862002
231698721020316987215000000000110000427703013QUIROGA CARLOS JAVIER                   20211210213577063900000003500020000000000002000000000010000000350002
243335058020433350589000000000110000429207005TELLIER VERON, JORGE ABEL               20211210213579064000000317675720000003063232000000245110000034806292
212828827027128288274000000000110000172506009PACHECO, MARIA LUISA                    20211210213576064100000303698320000005762022000000461010000036085752
227615042020276150422000000000000000000000000VALLEJOS, DIEGO EMANUEL                 20211210213575064200000215371320000001384662000000110810000022910712
223859597020238595976000000000110011389807030LEONARD ALBERTO ENRIQUE                 20211210213573064300000169850720000000000002000000000010000016985072
236116111023361161114000000000110001050410016PENAYO, ANABEL ERIKA                    20211210213574064400000381262020000008713242000000637510000048275692
211406483027114064837000000000110011300310030PORTALUPPI, MIRTA GRACIELA              20211210213571064500000596207120000079826012000006165610000158264642
216650054020166500541000000000110000690708018BECHER OSCAR EDUARDO                    20211210213578064600000180709420000010023182000000801810000028013942
236494289020364942894000000000000000000000000SALINA SENA, ERNESTO EZEQUIEL           20211210213571064700000534902510000003266322000000261310000050250061
233214358027332143587000000000110011295210030MÜLLER, MARIA NOEL                      20211210213571064800000084939820000003737562000000299110000012927761
221686296027216862967000000000110011306510030SAPIEGA, GLADYS PATRICIA                20211210213574065000000039909320000000908922000000072810000004892622
236198287020361982879000000000110000509101017ZIOLKOWSKI, NORBERTO AUGUSTO            20211210213571065100000111038020000005597512000000447810000016656532
224632977027246329775000000000110001048107016RIVERO, MARIA SILVIA                    20211210213572065300000152787620000007889722000000640310000039042902
222343188027223431882000000000000000000000000LEVITT, LORENA GRISEL                   20211210213572065400000050941210000043530212000003482410000054742152
234881932020348819322000000000110000364505004GASPAR, HERNAN ULISES                   20211210213578065600000045764620000003160972000000252910000007712142
234569433027345694337000000000110000246904024AQUINO, RAMONA BEATRIZ                  20211210213579065700000164407920000010321722000000825810000026679932
211171604027111716043000000000110118822407030GARECA JUANA OBDULIA                    20211210213578065800000324038320000005939602000000475210000093305782
223406463027234064636000000000000000000000000MARIN, ANALIA                           20211210213575065900000056564620000024209872000001936810000029672652
217493829020174938297000000000000000000000000SANCHEZ JOSE HIPOLITO                   20211210213575066000000067682020000040400062000003154210000046852842
230626843020306268431000000000110001722806001COLLADO, DANIEL OMAR                    20211210213575066100000137363820000002764692000000221210000024011452
214679166027146791668000000000110011972301030MACIEL, MIRTA GLADIS                    20211210213574066200000191015820000019117002000001529210000090651622
227081877020270818774000000000110000703501013ZABALA, JUAN DIEGO                      20211210213577066500000233761120000005655022000000452410000138286892
230140888023301408889000000000000000000000000GASPARINI,MAURO DANIEL                  20211210213576066600000191831420000024963432000001454410000065970542
223011172020230111724000000000110000617000005ESCALANTE, FABIAN APOLONIO              20211210213579066700000140644120000000000002000000000010000014064412
223504819027235048197000000000110011098200030ALVARES, MARCELA ANALIA                 20211210213577066800000147608820000008810752000000714010000023500232
232277852020322778520000000000110000716902013PASSIMO, MARTIN CRUZ                    20211210213577066900000286925820000093804242000007504210000157574072
239306783020393067838000000000000000000000000SAGUIR, ALEJANDRO ELÍAS                 20211210213575067000002463280620000038769482000002971010000288959442
244744670020447446708000000000110011882509030PIETTO, JOAQUIN                         20211210213574067100000053236720000000000002000000000010000005323672
234703454020347034542000000000110003923106030LEZCANO, LEOPOLDO DE JESÚS              20211210213574067300000006282120000000000002000000000010000000628212
210283183020102831838000000000110012068010030MONZÓN, JUAN RAMÓN                      20211210213578067400000492107920000000000002000000000010000049210792
233859831023338598319000000000000000000000000TADINACK, EMMANUEL MARTIN               20211210213577067500000157293410000043565922000003485010000027488082
226374533027263745332000000000110012105800030PINSKER, VERONICA GRACIA                20211210213571067600000041611720000000000002000000000010000004161172
237454566027374545669000000000110000286202025AGUIRRE, MARÍA ELISABET                 20211210213576067700000037982120000003782442000000302610000007550392
320211210213570000039216457976460017023746680013229592003877741754
