12021120321361
214869071020148690716000000000000000000000000ACOSTA, HORACIO ALBERTO                 20211203213611000100000238781220000019170912000001533610000042898922
213439832023134398329000000000110003918803030LATORRE MARIO LUIS                      20211203213611000200001072873720000022541382000001819310000129646822
207658492020076584924000000000110004708005030BONDAZ, LUIS ROLANDO                    20211203213614000700000313091520000063807212000005082810000095282542
205758711027057587119000000000110000130103021PORTA, MARTA EVA                        20211203213615004600000653578820000401508282000032138710000528804892
204715115027047151150000000000000000000000000CARBALLO, MARIA LIDIA                   20211203213619004800001901097220000069523102000005307810000303936542
228165746020281657462000000000110000209105017GARCIA,ANIBAL MAXIMILIAN                20211203213611005600000807647920000085602752000006195010000174821982
207456992020074569928000000000110000183608012GIMENEZ,ROLANDO WALTER                  20211203213619006300002003007410000031503502000002432210000169040461
217497048020174970484000000000110003920300030SANCHEZ JOSE LUIS                       20211203213611007300000847423620000023642672000001891410000120048992
221347051020213470516000000000000000000000000DAMILANO, ALBERTO JAVIER                20211203213617007600001125027820000265025322000020631010000493329882
223084190020230841900000000000000000000000000MARI, CHRISTIAN ARIEL                   20211203213617008000002154931420000005371812000000289910000220835962
220263692027202636921000000000111111111111030DELLACASA, ADRIANA ELDA                 20211203213614008300!"%&/()=!"20000043997302000003500610000118561492
205916292027059162921000000000111111111111003JARA,ELISA LILIAN                       20211203213616010300000010295620000077023672000005948510000077458382
206649889027066498897000000000110003921700030MARTINEZ,MIRTA                          20211203213613011000000836504620000067811472000005298510000208334052
205142220027051422207000000000000000000000000FLEGO, MARIA M.KELLNER D                20211203213618011200000202677420000294403462000023579710000312313232
212784553020127845531000000000110000239104014PULJIZ, OSCAR A. LEON                   20211203213615011900000397637320000287916812000022982110000325382332
210027153027100271538000000000110000342900013QUIROGA,MARIA MEDINA DE                 20211203213617012400002994916420000470753322000036869810000861279862
220651370027206513700000000000110000270703001SCHEMBREG JUANITA GLADYS                20211203213615012600001813157620000058788682000004706110000337646542
218376825020183768256000000000111111111111001JULIAN, JORGE ORLANDO                   20211203213615012700000370919720000034888682000002791010000100981402
204941385027049413853000000000110000165610025NOVIK, NILDA                            20211203213616012800000351526720000019035912000001522910000054036292
207670309020076703095000000000110003924506030GAUTIER,JORDAN ALBERTO                  20211203213611013000000039963710000022374322000001790010000018198952
211168557027111685571000000000110000103607020NAIDENOFF LILIAN GLADYS                 20211203213617013200001113551110000050665082000004053410000064564891
212331111020123311117000000000110000587206001VIGANOTTI,CARLOS RODOLFO                20211203213615013300000653278720000132595292000010376510000196885512
221930505027219305058000000000110003925002030MACIEL, MARCELA SOLEDAD                 20211203213612013400001126631520000070886372000005473410000213360332
208075405020080754052000000000110000068606002ESPINDOLA,JORGE ALBERTO                 20211203213616013500000780104820000098179282000007769710000219056342
234300976020343009764000000000110000157804007SAGUIR, SERGIO ELIAS                    20211203213617013600001557349420000167837742000013375210000457073032
221347801020213478010000000000110000006004021MARCON, DANTE RODOLFO                   20211203213615013700002360987120000175122792000013997810000623650592
203272313027032723131000000000000000000000000PAJOR,ROSA INSAURRALDE D                20211203213616013900002776855210000193571262000015166110000085630871
220092029020200920296000000000110000607810001RAFFIN, CARLOS RAÚL                     20211203213615014000003815794020000154210892000012364510000612205532
225518259020255182596000000000111111111111015PEREZ, PABLO ADRIAN                     20211203213612014100000780856320000020335332000001631210000104835092
206159007027061590078000000000000000000000000PEREZ,ANGELA VERON VDA D                20211203213619014200001450507320000100124742000007268910000244448582
220094016020200940165000000000110003918302030ROBLEDO, ALFREDO EMILIO                 20211203213612014500000741635020000017860242000001126510000091911092
210025070020100250706000000000110000011505001KOCHOL,EDUARDO MILAN                    20211203213615014600000669199020000152584902000012066010000247145622
208381997023083819979000000000111111111111005SCHULZ,HERALDO ROBERTO                  20211203213619014800001194689520000041480162000003324010000160616712
224632451023246324514000000000110001680107015LOPEZ,ANDREA VERONICA                   20211203213612014900000532172820000057656262000004504510000182117442
221546267027215462671000000000110000418007003PICCINELLI KARINA                       20211203213616015400000756712420000072144592000005771510000217058912
211415356027114153562000000000110003931304030BAQUE, STELLA MARYS                     20211203213611015900000581578220000001965382000000157210000059486882
208046118020080461187000000000110000132805018DOMINGUEZ,ALDO                          20211203213618016000000468399320000071093722000005687610000117364892
205079296020050792960000000000111111111111010INGLANT,CARLOS                          20211203213617016100001108813620000514843402000041205710000714382022
212704608020127046086000000000110000253103023ZAISER,RAUL ENRIQUE                     20211203213617016300000273437120000064978682000005212010000099950692
223293248027232932487000000000110003915605030SALOMÓN, ESTER NOEMÍ                    20211203213613016400000910158420000000000002000000000010000091015842
217150973020171509735000000000110003916700030DELLAMEA, RODOLFO ANTONI                20211203213614016500000789314620000004692142000000375410000099775012
207916104020079161048000000000000000000000000BRUNO CARLOS OMAR                       20211203213619016700001228120320000081472442000006420010000317012182
212466287020124662878000000000111111111111003VEGA,ERNESTO RAUL                       20211203213616017000000012653120000012406982000000992510000013573042
218291445027182914458000000000110000165806025ARIAS, MONICA S. IANCHUK                20211203213616017100000385411520000075429422000006039810000113366592
212105785027121057854000000000110000286507016CHUAIRE,GRACIELA SARA                   20211203213614017200001358974120000002601082000000070010000173586272
208301507020083015072000000000000000000000000GUTIERREZ,ROBERTO                       20211203213613018200002379693820000194568162000015486610000544043152
210781927023107819274000000000110000208707004GASPAR,ESTELA M.GARCIA D                20211203213618018400000509008420000052120042000004169710000167996362
211392582027113925820000000000110000418105003LEZCANO,JUANA NANCI C.DE                20211203213616018700004857489520000105542902000008457110000590446142
225369657020253696576000000000111111111111012ESCALANTE,CARLOS ALBERTO                20211203213619018800000642616320000094909992000007388910000200867982
214202214027142022147000000000110000182709012TROCHE, EMMA GLADYS ELIZABETH           20211203213619018900000805921320000016767692000001341510000107097222
234164514027341645145000000000000000000000000SAGUIR, ELBA GLADYS                     20211203213615019200000143901720000110957912000008761310000304810342
232878786020328787866000000000000000000000000SERRATRICE, ALBERTO ADRIAN              20211203213611019400000622714920000037005632000002960510000101381072
213306348020133063480000000000110000353207001KOCHOL, ALBERTO JOSE                    20211203213615019500000285557820000126247342000010104310000153792692
212105390020121053900000000000110003914902030SANCHEZ,HUGO ALBERTO                    20211203213611019600000332995520000056224292000003914410000089132402
207897409020078974096000000000110000241908006CISNEROS,CARLOS                         20211203213617019800000431451220000208787282000015837110000250348692
207916271020079162710000000000110000589701001CAROL,HUMBERTO RAMON                    20211203213615019900002597415420000044297432000003553010000487076982
213439659020134396599000000000111111111111030FERNANDEZ VICTOR LEOPOLD                20211203213612020200000082569720000000000002000000000010000008256972
213439263027134392636000000000110003914205030MACIEL, MARÍA PATRICIA                  20211203213614020500000063062710000021492972000001719410000015014762
216936032020169360325000000000000000000000000BRIZUELA PELLEGRINI,RAUL                20211203213617020700001590354820000025341582000002027210000184174342
210536929020105369299000000000110000103204009DEHEZA ATILIO EVARISTO                  20211203213616021200000879468720000071721502000005737710000298786772
226225425023262254259000000000110000587707001BONILLO, GUSTAVO RAUL                   20211203213615021400000943151220000067007312000005224510000178691482
212555043027125550431000000000110004705406030ANDRADA, NILDA NOEMI                    20211203213614021600001513141920000043618162000003489410000254156422
216296998020162969987000000000110000166008025PAULUK, FRANCISCO ENRIQU                20211203213616021900000218440320000007499822000000600010000027603852
211173395020111733954000000000000000000000000SILENCIO, JOSE RAMON                    20211203213617022000000542503420000022250432000001780110000091502912
214732223020147322233000000000000000000000000ROMERO BENITO BENIGNO                   20211203213619022100000670967620000129471982000010205710000291294662
211226253023112262539000000000110100314408003BERTONCINI JORGE RAUL                   20211203213616022500000794208220000206686032000016539210000291153332
224408000020244080007000000000110000162303010INGLANT PABLO DANIEL                    20211203213617022600000424681220000038508662000002992310000080677552
214948924027149489245000000000000000000000000SANG, ETHEL NOEMI                       20211203213615022700000654548720000091483432000006962010000175981852
205477016027054770168000000000110000109404024MONTES, ANA RITA LOPEZ D                20211203213619022800000459013020000023612372000001888910000158635652
216516424020165164246000000000110000165708025ESCOBEDO EDUARDO OSCAR                  20211203213616023000000761112920000193795432000015254710000396824212
205399102027053991020000000000111111111111003STROHSCHEIN GERTRUDIS S                 20211203213616023200000029250020000000000002000000000010000002927852
214037663023140376639000000000110003916504030RAMIREZ PABLO MARCIAL                   20211203213614023300000416177820000036039812000002865110000106744172
211382556020113825562000000000000000000000000NUÑEZ BASTACINI, CARLOS LUIS            20211203213614023800000659002720000078971422000005057310000144365962
213289254020132892548000000000110003920703030FALCON JULIO CESAR                      20211203213614023900000634272820000116063662000009285110000178562432
223987528027239875284000000000110000588105001MONDINO VERONICA ANDREA                 20211203213615024000000678049020000033914802000002621710000101457532
225369123023253691239000000000110000212808004BARRIOS FACUNDO JULIAN                  20211203213618024100000882999620000186750502000014953710000438919072
212979528024129795286000000000110000055608018FERNANDEZ RUBEN ARIEL                   20211203213618024200000975532920000136899322000010979310000605158332
211899075027118990752000000000110113506807030ROMERO CORAZON MARIA G.D                20211203213611024400000437443520000031094232000002418210000074596762
221618513020216185138000000000110003922000030OBREGON RAMON GUSTAVO                   20211203213611024700000172836820000015883162000001270610000033039782
222905812020229058127000000000110003918204030SANCHEZ,JORGE EDUARDO                   20211203213612024800000235319620000043498172000003481210000193511272
229021282020290212821000000000000000000000000VECCHIETTI, NORBERTO EDUARDO            20211203213617024900000701339520000090733602000007258710000194236542
210023495027100234950000000000000000000000000ROJAS GLORIA ESTER                      20211203213616025000000710939720000205436822000016439510000323524742
207923059020079230597000000000110003922403030ISMAEL JULIO                            20211203213612025300000286369120000038568522000003085310000066896902
224727668027247276683000000000000000000000000ROJAS IVANA L.BONFANTI D                20211203213611025400001248114620000090922852000004660610000232359862
216897725020168977256000000000000000000000000MULLER JUAN CARLOS R.                   20211203213611025500001057347420000054121192000004276710000253292342
207911536020079115364000000000110001682504015FERNANDEZ RAMON CESAR                   20211203213612025700001473942120000110097182000008335710000256657822
220800422027208004226000000000000000000000000VEGA NORMA DEL CARMEN                   20211203213617025900000888794020000199305252000015944510000360828902
234413905027344139054000000000111111111111030NOIRAT, MARIA MIRKA                     20211203213612026100000681574220000043405222000003417610000111220882
232065602027320656023000000000110113507510030DEDIEUS JOHANA MARIELA                  20211203213614026200000667445420000073835532000005613910000140018682
216757758027167577585000000000110003922109030ROMERO EMILCE GLADIS                    20211203213612026400000191517720000001283382000000088710000020426282
213048687020130486879000000000110000171803021BENITEZ PABLO                           20211203213615026500000517561120000158008932000012627410000312244512
227001837027270018373000000000110003919310030PACE MARIANA ORTIZ DE                   20211203213613026600000226658620000023618532000001889110000046998582
216115900020161159000000000000000000000000000AZAREVICH WALTER OMAR                   20211203213618026800000713492420000252191952000020180210000434827712
217548697027175486971000000000000000000000000ZARATE, MARTA BEATRIZ VERA DE           20211203213614027100000437079120000023063752000001845110000095975302
220451103027204511034000000000000000000000000BARRERO, SANDRA ESTHER S.               20211203213614027200000216167920000085429352000006657010000166228722
222052272020220522726000000000110000127903010MENDEZ FERNANDO FABIAN                  20211203213617027600001259248120000145014222000011159310000421375672
218396221020183962214000000000111111111111030PENAYO OSCAR DANIEL                     20211203213614027700000358076420000025944862000002075710000123628682
212186463027121864636000000000110001678109015JOHNSON ELSA MARY                       20211203213612027800001275068310000004136552000000330910000096963831
213592086027135920865000000000000000000000000ALMIRON PETRONA CONCEPCION              20211203213613028000000114606220000007651102000000612010000019050522
224478137027244781379000000000011111111111030GARCÍA, MIRIAM NOEMÍ                    20211203213614028200000451050820000104126802000007832110000148448672
222537527027225375270000000000000000000000000GIL, GRISELDA AMALIA                    20211203213619028300000324776720000037139632000002971010000230921442
229012735020290127352000000000110003920006030ORTÍZ, DIEGO                            20211203213612028500001050465020000036378672000002442610000225537562
218549133027185491337000000000110003914804030VERA, EUGENIA                           20211203213614028800000158015510000049434932000003614010000033271982
210179841020101798411000000000110000397005022RISSO PATRON MANUEL GREGORIO            20211203213617029000000952811320000174195812000013935510000415666042
216453438027164534389000000000000000000000000ACEVEDO, NANCY HERRERA DE               20211203213617029400001103326320000187902572000014572510000350522252
232568215023325682159000000000000000000000000DOMINGUEZ, FRANCO JAVIER                20211203213616029500000688304920000039783012000002909210000108322582
221794804027217948040000000000000000000000000ALEGRE, NANCY ROXANA                    20211203213618029600000511461020000104611302000008369110000294727092
205090467023050904679000000000000000000000000CARRIZO, CARLOS NÉSTOR                  20211203213617029700000591332210000011184262000000894610000039090421
225534711020255347110000000000110003424008030MAFFEI, MARTIN RENATO                   20211203213614029800000113690620000111834902000008976410000195988172
230776374020307763746000000000111111111111030GONZÁLEZ, JORGE HERNAN                  20211203213611030000000110300710000000808092000000064610000004602682
230626966027306269661000000000000000000000000RODRIGUEZ, ESTELA ANDREA                20211203213615030100001140966320000175334732000013915610000398760432
221793276023217932769000000000110000421100003MACHBANIN, DANIEL RENEÉ                 20211203213616030200001388962520000169680382000013283310000279758622
206213214027064134146000000000000000000000000RODRIGUEZ, BLANCA LUISA                 20211203213619030800000139291920000050015072000004042510000114244282
222002636027220026367000000000000000000000000YURI, ROXANA ETEL                       20211203213614030900000037314020000000000002000000000010000003731402
222777868020227778688000000000110003439207030PIEDRABUENA, PABLO HUGO                 20211203213614031100001070699820000035427892000002852610000340040362
211322356027113223567000000000110000260707018DIEWALD, MARGARITA ISABEL D. DE         20211203213618031200001110434020000089660162000007123710000199991192
220693963020206939630000000000000000000000000CÉSPEDES, CARLOS ALBERTO                20211203213617031300000447476720000012691922000001015410000057338052
226812299020268122991000000000000000000000000BULACIO, HORACIO FABIÁN                 20211203213612031400000190950720000022547062000001808010000056116882
213485688027134856888000000000110000161404023VOGELMAN, EVANGELINA M.DE               20211203213617031500000290143020000030762002000002162910000091121412
218440790020184407907000000000110000240301014GIULIONI, HECTOR LUIS DANIEL            20211203213615031600000304619520000048874892000003909810000078945862
221517638027215176385000000000000000000000000GONZÁLEZ, JUANA                         20211203213619031700000437039420000010922372000000873710000054538942
214606537020146065377000000000110003958101030VELAZCO, RITO ALBERTO                   20211203213611031800000521683620000018874642000001510010000104195102
225528610020255286103000000000110000070506002GUIZDACOFF, DANTE RENÉ                  20211203213616032000000875534720000033824172000002715410000286794252
206502631027065026312000000000111111111111030BLANCO, ELISA                           20211203213614032100000335837720000006528752000000469510000040065572
220463157020204631574000000000110001701305015ROBLES, WALTER RICARDO                  20211203213612032300000315682420000015411312000000919610000057013732
214697892020146978925000000000110000242110016RAMIREZ, CARLOS ALBERTO                 20211203213614032500000494663620000061922982000004320910000147502572
212105621020121056217000000000000000000000000LUQUE, EMILIO MARTIR                    20211203213614032800000027067220000000000002000000000010000002706722
227990412020279904126000000000110004523207030COSSIO, CRISTIAN FEDERICO               20211203213614033000001004944920000105366952000008134110000233262272
233839501023338395019000000000000000000000000LIPPS, DIEGO LUIS                       20211203213618033100000149183120000108612652000008688810000246964832
205706394027057063942000000000000000000000000BARRERA, ANGELICA                       20211203213617033200000132574020000022222772000001814910000035298682
220451374027204513746000000000110004671101030PELLIZZARI, NORA DEL CARMEN             20211203213613033300001067609520000024528092000001962210000131092822
222784595020227845954000000000000000000000000ACOSTA, RUBEN HORACIO                   20211203213611033600000785022910000081854512000006567010000109874572
232089571024320895711000000000000000000000000ANDRES, MARCIA EMILCE                   20211203213616033900000270807220000034164642000002737710000121468032
225278230027252782309000000000000000000000000SALIVA, YAMILA BEATRÍZ                  20211203213613034100000664752720000008545722000000602610000074960732
217251556027172515563000000000110004677007030CONDE OLGADO, NÉLIDA                    20211203213614034200000471056520000022021102000001761910000118237512
220090614020200906145000000000000000000000000VALUSSI, CARLOS ALBERTO                 20211203213614034300000617482720000026401382000002159310000095801872
217943110020179431107000000000110000195304021RIVERO, LUCIANO HUMBERTO                20211203213615034500000366949120000339204132000026208210000373578222
225369111020253691116000000000000000000000000TYWONIUK, ARIEL ABELARDO                20211203213618034600000149775220000029373862000002345510000226090782
207931049020079310493000000000110000617904001FUENTES JUAN CARLOS                     20211203213615034700000656600820000048028282000003842610000154679712
213069986020076795909000000000000000000000000RODRIGUEZ, DOMINGO RAMÓN                20211203213615034800000788422020000107527062000008552010000243190712
227324879027273248795000000000110000172201021ZALAZAR, MARÍA LORENA                   20211203213615034900000959454220000106329742000008429410000201432222
218279603023182796034000000000000000000000000ENCINA, NILDA ELENA                     20211203213614035100000279030320000064897212000005192010000090483192
231294336020312943361000000000110004870704030KISZKA, JOSE MARIA                      20211203213611035200002273463620000063461762000005076810000473489372
230614342027306143420000000000110004745510030GAITAN, NOELIA ANDREA                   20211203213614035300000382394420000085528222000006842410000144024372
213439200027134392008000000000110007722302030DIAZ COLODRERO MARIA BEATRIZ            20211203213614035500001448906120000030982152000002478610000175624902
217914867027179148671000000000000000000000000GIMENEZ, NANCI BEATRIZ                  20211203213618035600000376545020000065815572000005241310000177125922
213592838020135928381000000000110004746300030GODOY, JUAN CARLOS                      20211203213614035700000775597620000036848792000002952410000123629512
221306906020213069064000000000000000000000000AMBROSIO TODARO, CIRO FERNANDO          20211203213612035800000239579120000106452682000008518310000129700062
223915017023239150179000000000110004707400030GOMEZ, JORGE ALFREDO                    20211203213613035900000617982220000094495822000007251610000155568882
221862014027218620146000000000110000621504001RAJCKAKOWSKI, LILIANA GABRIELA          20211203213615036000000552881720000169958732000013596710000402256162
213960650020139606508000000000110000005508011ORTIZ, FRANCISCO RAFAEL                 20211203213615036200000326946420000000526472000000042110000041249902
226980367027269803679000000000000000000000000SANCHEZ, CINTHIA VERONICA               20211203213619036300000933921620000086838612000006947310000402054152
231612794020316127941000000000000000000000000BIAZONI, MARIANO ANTONELLO              20211203213617036400000802918120000097594282000007807510000198805342
214224627027142246274000000000000000000000000NAVARRO, NORMA INES                     20211203213616036500003805725820000070709632000005666010000450715612
228122328027281223289000000000110007350610030OLDERBURGEN, ANGELA BEATRIZ             20211203213614036600000458018520000006221492000000497710000136413092
206696698023066966984000000000110000719207001GOI, TERESITA MARIA                     20211203213615036700000517125420000059841732000004787510000149982672
214085323020140853233000000000000000000000000DEL VALLE, DESIDERIO JORGE              20211203213614036800000057774110000033900472000002712010000027851862
223273543027232735436000000000110001674600015VALDEZ, NANCY ETELVINA                  20211203213611036900000037273520000015053762000001143310000018666782
220591732020205917323000000000000000000000000CORREA HECTOR DANIEL                    20211203213615037000000255029620000073456272000005884510000097978332
224559204020245592044000000000110011270309030BARRERO, OMAR DARÍO                     20211203213614037100000023222020000000000002000000000010000007944352
224816216027248162169000000000000000000000000PEÓN, VERÓNICA BEATRÍZ                  20211203213615037300000045000020000000000002000000000010000004500102
226418312020264183120000000000110004568209030BENOIST, SERGIO ANIBAL                  20211203213611037500001607527620000243017082000018000310000521880502
234966409020349664098000000000110000165904025MICHELINI, RODOLFO OSCAR                20211203213616037600000439552520000027209782000002193610000155867662
222002924020220029248000000000110000646307001ROBLES, GUSTAVO ADOLFO                  20211203213615037700000925170220000109964222000008663410000301992602
224632543020246325430000000000000000000000000SABLICH, DIEGO ORLANDO                  20211203213611037800000969491120000253568602000020157110000408820112
212120358020121203589000000000000000000000000IZQUIERDO RICARDO                       20211203213617038100000091557910000072914532000005855410000134689932
221849386027218493861000000000000000000000000JIMENEZ, CLAUDIA MONICA                 20211203213615038200001002978720000355863192000027871210000530095712
228955466020289554662000000000110000560507018MORIENEGA, EUGENIO VICTOR               20211203213618038300001108635420000096822312000007759810000792454912
233730044027337300443000000000010004774806030DELLACASA, MARIA PAULA                  20211203213612038400000321658320000094353972000007349410000125784862
213036425027130364255000000000000000000000000ROMAN, ANA NIEVES                       20211203213619038900000062926510000072504732000005784410000154461682
227471905020274719053000000000110113507401030ZAMPEDRI, JUAN EDUARDO                  20211203213614039000001440190020000041495532000003237310000185190802
224606461020246064610000000000110000015504014TERZICH, NORBERTO RICARDO ARIEL         20211203213615039200000268720820000054349882000004213310000172141832
233145918020331459187000000000000000000000000GUTIERREZ, FERNANDO ANDRES              20211203213618039300000389683420000086252702000006998110000171312652
228858416027288584163000000000000000000000000RADA, PAMELA ELISABETH                  20211203213611039600000657658120000066923002000005340310000189092732
229020268020290202680000000000000000000000000OPAT, RODOLFO ANTONIO                   20211203213615039700000418730620000032236782000002578810000186521052
207927181020079271811000000000110001680608015JIMENEZ RUBEN LUIS                      20211203213612039900001079873120000004108052000000328710000112062492
231254808023312548089000000000000000000000000SORIA,  NAHUEL SEBASTIAN                20211203213619040300000282919310000015711522000001225610000012702971
210980281020109802817000000000000000000000000GALEANO, ISIDRO                         20211203213612040400000377067020000000000002000000000010000037706702
224687554020246875546000000000000000000000000ORTÍZ, DANIEL CHRISTIAN                 20211203213618040500000177298720000017101992000001368210000034695042
235690561020356905610000000000000000000000000FERNANDEZ LARRE GONZALO EMANUEL         20211203213611040600000487165820000010063642000000810810000058724142
220382869020203828692000000000111111111111003ROSSI GUSTAVO                           20211203213616040800000230902320000017585702000001411210000051297972
222192430023221924304000000000000000000000000ALBARIÑO ANA NOEMI                      20211203213611040900000280542620000043320472000003441610000067420622
225237666020252376667000000000111111111111003RIPOLL GABRIEL ALEJANDRO                20211203213616041000002000861110000206801292000016517110000005063472
232712414020327124146000000000111111111111025SALIVAR ALEJANDRO MIGUEL                20211203213616041100000085915020000020927092000001674210000088557372
208494895020084948951000000000000000000000000QUIROGA CARLOS RENE                     20211203213617041200000589837320000140896482000010965510000233744012
223059589020230595896000000000000000000000000SANCHEZ, ALEJANDRO DANIEL               20211203213613041300000356871120000013828962000001066910000049409382
235496615027354966153000000000110001606001030PENAYO GISELLE ANAHI                    20211203213614041400000392652720000020878582000001670110000264280672
232302598027323025989000000000000000000000000GUTIERREZ REGINA MARIA PIA              20211203213619041600000264563020000055859052000004237310000133985322
226963938020269639386000000000000000000000000VELAZQUEZ CARLOS ALEJANDRO              20211203213619041800000248768110000081142092000006496310000161517952
229546856020295468565000000000110000786101001GIULIONI, JOSÉ AGUSTÍN                  20211203213615041900000078243720000028004162000002240310000052353502
224797375020247973754000000000110000823510030FERNANDEZ, DARDO ANDRÉS                 20211203213614042000000293152720000011498892000000919910000084864722
230486081020304860813000000000000000000000000NOGUERA PRIETO JAVIER ALBERTO           20211203213619042100000214529820000023965762000001917210000045227022
230708602020307086027000000000000000000000000MORANTE DIEGO MARCELO                   20211203213618042200000280348120000076197472000006095610000103622722
221626434027216264342000000000111111111111030OVIEDO, MARIA GABRIELA                  20211203213614042300000062312220000041855862000003286310000047758452
217249437023172494374000000000000000000000000GOMEZ SUSANA RAQUEL                     20211203213618042400000469005920000139143642000010436610000189789242
224397927020243979278000000000000000000000000MOLINA DARIO FABIAN                     20211203213612042900000537496520000010452982000000679510000111178212
227368933020273689339000000000110003973402030SOLIS JUAN CARLOS                       20211203213613043000000249733620000003439322000000275110000032772982
220451639020204516392000000000000000000000000COLUSSI SERGIO ORLANDO                  20211203213612043100000058490820000034601262000002673510000040182992
231665505027316655055000000000000000000000000PUERTA BARBARA LISANDRA                 20211203213614043200000243130420000030898572000002472110000101128772
210374266020103742669000000000000000000000000SOROCZUK CARLOS ROBERTO                 20211203213617043300000250977420000008098142000000648010000033131082
233839840023338398409000000000110001485102001GIULIONI LUIS                           20211203213615043600000130564720000011258992000000900710000044126342
216367251027163672516000000000110002032809030NASIR ALICIA FLORENTINA                 20211203213614043700000473324920000071270242000005324710000140889062
231377516027313775165000000000000000000000000VINA SIMONICINI LORENA                  20211203213617043900000533583620000034791472000002760010000106265962
207623113020076231134000000000110000034401012ROBLEDO, JUAN OMAR                      20211203213619044100000208818520000018178462000001458710000080495842
227556897020275568970000000000000000000000000DEYDAR, HÉCTOR OSVALDO                  20211203213616044300000475764020000054150592000003591510000238838882
235285360027352853602000000000000000000000000OJEDA, YAMILA TRINIDAD                  20211203213619044400001383655120000023218242000001857410000252205712
225904740020259047405000000000110002143601030MOLARES MONTEIRO, FERNANDO GABRIEL      20211203213614044500000375379120000060774562000004788010000150384072
234478958020344789585000000000000000000000000RAMIREZ, NILSON RODRIGO                 20211203213614044700000193680720000021667252000001733310000084631322
238766474020387664743000000000000000000000000RODRIGUEZ JIMENEZ, MIGUEL EDUARDO       20211203213615044800000118669920000009465682000000662110000031916462
216706753027167067536000000000000000000000000BRASCAR, MIRIAN ELIZABETH               20211203213619045000000635958620000078343872000006272610000151320472
226339253027263392537000000000000000000000000AMARILLA, LORENA ELIZABETH              20211203213619045100000324295920000007112032000000573610000090422952
205615914027056159148000000000000000000000000VAZQUEZ, ZULMA RAMONA                   20211203213611045200000413351120000001678062000000134210000062999752
230290500020302905003000000000000000000000000PARED, MARCELO SEBASTIAN                20211203213611045300000164473820000003500002000000035010000041303472
239751919020397519199000000000000000000000000RODRIGUEZ JIMENEZ, ANTONIO ALEXIS       20211203213615045400000186116820000031287152000002416810000067915152
240585914023405859149000000000000000000000000MENDEZ, TOMAS FEDERICO                  20211203213617045600000060391520000002877972000000204510000023343172
213901884020139018843000000000110000270409014RAFFIN, JORGE FERNANDO                  20211203213615045700000922636220000032799982000002624010000129131202
222197716020221977166000000000000000000000000LATORRE, GUILLERMO ALBERTO              20211203213616045800000120800420000000000002000000000010000018531042
234035777023340357779000000000000000000000000ESCALANTE, GERARDO GASTÓN               20211203213619045900000323930920000042002462000002819410000168692012
221085081020210850814000000000110000037501014BARRETO SERGIO RICARDO                  20211203213615046000001353891220000059676482000004774210000194588182
231195076020311950763000000000110000560605018MORIENEGA, MIGUEL ANGEL                 20211203213618046100000331641020000141698522000011154010000258397682
208306819020083068192000000000000000000000000AGUIRRE, GUSTAVO OSCAR                  20211203213619046200000264084020000031895232000002363410000099497292
224093805027240938052000000000000000000000000GONZALEZ, GRACIELA CLAUDIA              20211203213619046300000143448120000053807982000004155610000070447232
241082856020410828562000000000110000112410021GÓMEZ, SANTIAGO                         20211203213615046400000736602320000424883322000033955310000495148022
220770583020207705838000000000000000000000000AYALA, OSCAR                            20211203213615046600000329501920000013063812000000848910000045929112
227277487020272774871000000000111111111111001CHEJ, SERGIO ADRIAN                     20211203213615046700000405133620000180864462000014469110000287280112
221618791020216187912000000000110002260401030GONZALEZ, ORLANDO GUSTAVO               20211203213611046800000072054920000002927622000000234210000010109692
235305117027353051178000000000000000000000000RAMIREZ, LIZ ANABEL                     20211203213619046900000142171220000015197372000001215710000029292922
239315039020393150395000000000000000000000000BARRIOS, MATÍAS JUAN MANUEL             20211203213618047000000668219020000012212232000000981510000110293752
206074373027060743733000000000000000000000000SAUCEDO, ANTONIA                        20211203213615047300000347114320000152319282000012194910000394783042
237762199023377621999000000000010000043106025ANDRES, NALDO LIONEL                    20211203213616047400000000770020000000000002000000000010000000077002
230517241027305172419000000000000000000000000GARCÍA, ELENA                           20211203213618047500000316489120000037520602000002952610000249258852
223070459027230704592000000000000000000000000LEDESMA, MARISA ALEJANDRA               20211203213617047600000295370120000056448182000004515610000149432692
236116802020361168020000000000000000000000000FORLIN DELLACASA, LEANDRO NAHUEL        20211203213615047700000136841020000078587562000006246310000205756882
229366026027293660269000000000000000000000000INSAURRALDE, CYNTHIA SABRINA            20211203213616048100000452513420000091969102000007360410000191109452
216375626023163756269000000000000000000000000GUTIERREZ, HUGO OMAR                    20211203213618048200000329254120000022180562000001774610000085381762
220091499020200914997000000000000000000000000ROMERO, MAURICIO JORGE                  20211203213619048300000059936320000000000002000000000010000006533632
228661268027286612682000000000000000000000000DIP, CLAUDIA CECILIA                    20211203213614048700000345859020000010349952000000827910000044853062
224153632020241536328000000000000000000000000ESPINOZA, JOSÉ LUIS                     20211203213619048800000435156620000019349702000001547910000080136572
205916248027059162484000000000110000507804003RODRIGUEZ, CELINA                       20211203213616048900000228050520000244870152000019589810000354097342
230214376027302143760000000000000000000000000LÓPEZ CRISTALDO, NORMA EMILIA           20211203213611049000000245894420000052829212000004226510000108816482
227435225027274352251000000000110000050808025LEGUIZA, FRIDA AMALIA                   20211203213616049100000275016120000019973272000001355710000116840862
222687213027226872138000000000110011069906030VILLALBA, MARCELA ALEJANDRA             20211203213611049200000791151820000014972492000001275010000094368272
210876529027108765297000000000110000370208021VEGA, NILDA                             20211203213615049300000511197920000046462392000003716810000148126502
231085057027310850573000000000110000078210027JUDKEVICH, PAOLA LUCRECIA               20211203213616049600000105096420000049163982000003937710000072047352
233612966023336129664000000000000000000000000RAMIREZ, VALERIA EVELIN                 20211203213614049700000783581020000050692282000003513810000248880622
210025971027100259716000000000000000000000000BILINSKI, OLGA MARÍA                    20211203213612050100000297592720000026973142000001726210000089664092
223419974023234199749000000000110000033905014TOMADIN, ROBERTO CARLOS                 20211203213615050300000419918820000028794092000002322110000070553762
228000348020280003485000000000110000129309024BARRIENTO, SERGIO ALCIDES               20211203213619050400000203828720000002191892000000175410000138938922
231786695020317866950000000000000000000000000FALCON, CESAR AUGUSTO                   20211203213611050500000498594020000073756602000005862510000199504522
213999510020139995105000000000110007644500030ALMADA, EULOGIO CARLOS                  20211203213611050600000210741120000000000002000000000010000021074112
210916883020109168832000000000000000000000000VALLEJOS, CARLOS                        20211203213619050700000431863120000050222342000004017510000110943152
234898442027348984425000000000110123139200030RIZZI, IVANNA YANELA                    20211203213612051100000428660220000017167402000001100310000090820002
223813857020238138575000000000110005289708030LEDESMA, GUSTAVO HERNÁN                 20211203213619051200000352058020000060371402000004839010000095093302
230705571020307055717000000000000000000000000PARRA, MAURO ARIEL                      20211203213611051300000251804020000043515892000003344410000225462042
231398825020313988253000000000000000000000000BONDARUK, MAURO LEANDRO                 20211203213617051400000068372520000000000002000000000010000007637252
225961143020259611432000000000000000000000000VITER, DANIEL GUSTAVO                   20211203213619051500000394066720000005472822000000437910000044835702
231569415023315694159000000000000000000000000ORTIZ, MARTIN ENRIQUE                   20211203213614051600000799067820000015259282000001137610000095052302
214649223023146492304000000000000000000000000RAMIREZ, CLARA INOCENCIA                20211203213618051800000385199610000002914632000000237810000007661161
233214113027332141134000000000110114340704030TOSSI, ELVIA MIREL                      20211203213611051900000318246020000002785982000000222910000150716732
220092641027200926418000000000110000658009003GAUNA, ELENA BEATRIZ                    20211203213616052000000549219720000050429722000004041410000104947552
232855174020328551749000000000110007121607030SCHELOVER, WALTER ALFREDO SEBASTIAN     20211203213614052200000585415520000012193952000000975510000072450062
240033403020400334030000000000110000121409014BLANCO, DENIS IVAN                      20211203213615052300000184695820000006042332000000483310000024463582
220651333020206513331000000000000000000000000RAFFIN HECTOR EDUARDO                   20211203213615052400000174612620000019943832000001595510000037245542
211662171027116621717000000000000000000000000AREVALO, CRISTELA                       20211203213619052500000233673220000004738742000000379110000091234952
212465842027124658425000000000110000281010014ASELLE, MARIA DEL CARMEN                20211203213615052600000035531310000072894612000005841110000206577982
233383159027333831592000000000000000000000000PRO CARLA DANIELA                       20211203213614052700000912850920000002262192000000181010000194193512
226221601020262216013000000000000000000000000ALEGRE JUAN DANIEL                      20211203213619052800000342496220000013713252000001097110000094622622
240175418020401754181000000000110000285608004IMFELD, SANTIAGO GABRIEL                20211203213618052900000155232720000012320332000000985610000076988792
226207615020262076157000000000000000000000000RAMIREZ, MIGUEL ANGEL                   20211203213619053000000328316620000039624062000003169810000106159742
220157357027201573578000000000000000000000000RAMONA ALBERTINA GATTO                  20211203213617053100000087792220000011169872000000764210000022276722
224329410020243294100000000000000000000000000ROMERO, CARMELO LUIS                    20211203213619053300000228768920000034828372000002754610000161117152
210408277027104082772000000000000000000000000MARIA JULIA SANDOVAL                    20211203213612053400000081201320000003499482000000284110000014391202
229225822023292258224000000000110000043607020CARDOZO EDITH PAOLA                     20211203213617053500001059663620000204236912000016274410000356478622
204891769027048917696000000000110000304300015DIAZ, LUCIA AURORA                      20211203213612053600002338138820000086210442000006690710000325257692
218307504027183075042000000000110007760009030AGUIRRE, BLANCA ESTER                   20211203213611053700000395263820000002195722000000175610000059048792
234352223020343522232000000000000000000000000ROA, SAMUEL NICANOR                     20211203213611053800000025790720000018949322000001515910000038195822
233724714027337247143000000000000000000000000SPAGNOLI, MELISA BELEN                  20211203213614054000000212323320000010528612000000842310000033175312
212465954020124659540000000000000000000000000MACIEL, JORGE BUENAVENTURA              20211203213615054300000057638620000007160052000000572810000012866632
231308431027313084316000000000110007460307030VILLALBA, DELIA LEONOR                  20211203213612054400000113430120000000000002000000000010000044509112
237796997023377969979000000000110007764106030CALVO, DIEGO BLAS                       20211203213611054500000310868620000018603712000001585510000118661262
225384494023253844949000000000000000000000000ISSA URIEL ALEJANDRO                    20211203213617054800000302244210000073360582000005900810000106938292
224250215023242502159000000000000000000000000CADAVIZ, LUIS MARIA                     20211203213616054900000498469420000142353002000011417010000244533642
233548612023335486129000000000000000000000000DE LOS SANTOS, JAVIER GONZALO           20211203213611055000000053174620000001601372000000153510000014101232
223861308027238613081000000000110011097606030PAVON, MONICA GRACIELA                  20211203213611055100000444679120000000000002000000000010000044467912
223635141027236351411000000000110007969800030RETAMOZO, GLADIS BEATRIZ                20211203213612055200000377491720000016269632000001031510000055513652
238538512027385385124000000000000000000000000TREPPO, MACARENA AYELÉN                 20211203213619055400000249863120000021787582000001747710000087425322
226489950020264899509000000000000000000000000TARTAGLINO, DARIO ALEJANDRO             20211203213617055600000650167320000063186822000005055510000146107932
225877339020258773390000000000000000000000000OJEDA, LUIS WALTER                      20211203213618055800000282220120000012820062000001025710000040939502
230199509027301995097000000000000000000000000RAMIREZ, LILIAN NOELIA                  20211203213619055900000297872810000013865772000001109310000016032441
233214446020332144465000000000110002233001030CUESTA, DARDO GERMAN                    20211203213613056000000520424520000082918052000006634410000287583792
225089775020250897759000000000000000000000000VILLARRUEL, OSCAR ALEJANDRO             20211203213614056300000351439920000008761272000000631910000053129802
229720741020297207416000000000111111111111030FERNANDEZ, MARCELO JOSE                 20211203213613056400000275881520000013742332000001033710000178340702
235305354027353053545000000000000000000000000VALLEJO, CARLA ARACELI                  20211203213617056500000011537010000272572162000021745510000354006912
240175490020401754904000000000110000297206004HASSAN MAHMUD, NADIR DIONEL             20211203213618056600000496367720000151877792000012151710000228839392
232473989027324739896000000000000000000000000LUSA, MARIA LAURA                       20211203213615056700000315742420000031341582000002507310000125875242
214376166027143761660000000000110000034608022CARO CLARA ESTELA                       20211203213617056800000333015120000133639642000010692010000165871952
230370363027303703638000000000000000000000000BUYATTI, DANIELA ELISABETH              20211203213619057000000280792820000004345482000000365210000034818242
236210517020362105170000000000110000340100017ALMADA, LEONARDO ALEJANDRO              20211203213612057100000189445120000002859272000000228710000021780912
214141108020141411080000000000110001715703001VEGA HORACCIO OSCAR                     20211203213615057300000188517120000003325712000000243810000023152602
227277264027272772644000000000000000000000000MEDINA, MARÍA ELENA                     20211203213615057500000191479520000044675982000003578010000069126132
228125804020281258045000000000110003997110030VALLINA, GUSTAVO ADRIAN                 20211203213611057600000188350920000001303922000000065210000020132492
234033714027340337145000000000110008684402030AMBROGGIO, ALEJANDRA SOLEDAD            20211203213613057700000143381220000006726522000000441110000075829382
237587137020375871379000000000000000000000000ORDENAVIA, ESTEBAN JOSÉ MARÍA           20211203213612057800000011377520000000000002000000000010000001137752
224807127020248071274000000000110002158702030BAZ, DARÍO ALEJANDRO                    20211203213614057900000658092620000005899142000000471810000157584742
227377891020273778919000000000110003920801030CARRIO, JUAN PABLO                      20211203213611058000000888413420000115973512000009278010000203887052
225302713023253027134000000000000000000000000POSCH WERNING, GRETEL GUADALUPE         20211203213612058100000070421420000010232052000000818710000017192322
217290502027172905027000000000000000000000000GOMEZ, HILDA JULIANA                    20211203213611058200000920109620000023970502000001922210000117791642
228660844027286608448000000000110009684701030RAMIREZ, LIDIA YAMILE                   20211203213614058300000360351920000020346972000001310710000071519222
228125841023281258419000000000110008922210030PALACIOS, HECTOR FABIAN                 20211203213612058400000235039720000009852582000000788210000221283912
230380960020303809601000000000000000000000000KIEWCZUN, BENJAMIN TEODORO              20211203213611058500000585520310000005179742000000414410000053413731
207433986020074339868000000000110000444203017MARI, PEDRO OSCAR                       20211203213612058600000138106120000001258302000000104410000015790722
233995170027339951700000000000000000000000000CACERES, YANINA BETANIA                 20211203213616058700000032781320000000972132000000077810000004242482
231085102020310851028000000000000000000000000RODA, ELBIO JAVIER                      20211203213616058800000043568020000000000002000000000010000007356802
225986107020259861072000000000000000000000000IVAN, ALEJANDRO HORACIO                 20211203213616058900000249586820000112818672000009035010000174378122
232489289027324892899000000000110009572705030MARTINEZ, MARÍA ALEJANDRA               20211203213612059000000265243010000025293952000001826610000017617412
218021614027180216141000000000000000000000000GONZALEZ SILVIA NOEMI                   20211203213612059100000278072620000019059052000001524710000068603492
220494907027204949072000000000000000000000000VELAZQUEZ, ISABEL SUSANA                20211203213617059200000052505120000007769232000000621610000024662582
238970011027389700113000000000000000000000000CABALLERO, DEBORAH ELIANA               20211203213618059300000138225020000009855622000000788510000022399272
228858351020288583510000000000000000000000000GARAY, JOSE MARIA                       20211203213611059400000855163920000017599422000001407910000140194482
216703139027167031396000000000000000000000000YULAN, MARIA SUSANA                     20211203213617059500000132963220000006458312000000516610000128012872
243333455020433334559000000000000000000000000GOMEZ, GONZALO LEONEL                   20211203213612059700000266705120000004379652000000350410000031015122
230626179020306261798000000000110000728707018ORELLANO, ALFREDO GERARDO               20211203213615059800000113636220000024342852000001947610000157776512
234898441027348984417000000000110007460503030RIZZI, GEORGINA LORENA                  20211203213614059900000682096020000122501962000009740610000177594952
203588317027035883172000000000110009177906030BUSSOLON, HAIDEE SILVIA                 20211203213614060000000773188620000013441292000001075410000092053612
225364370020253643707000000000000000000000000GUILLEN, JORGE HORACIO                  20211203213615060100001893248220000117308842000008568910000484642822
243437984027434379844000000000000000000000000MENDEZ TREVISAN, SELENA FIORELA         20211203213619060200000442961420000065887602000005271010000132093642
214224476020142244765000000000110000728707015AYALA, JUAN ANIBAL                      20211203213611060300000139501220000000000002000000000010000013950122
238190725020381907253000000000000000000000000MACIEL, FRANCO DAVID                    20211203213612060400000237379720000000000002000000000010000027464922
221342080027213420807000000000000000000000000CORREA, SONIA YANINNE                   20211203213617060500000138242320000012570012000001005710000026293672
230730156020307301564000000000000000000000000INCOFF, JUAN CARLOS MIGUEL              20211203213617060600000911688220000116398642000009274810000211639982
231972298020319722980000000000110009443806030SANTINELLI, MAURO ANGEL                 20211203213611060700001983756820000072686972000005750810000270487572
230166944020301669446000000000110009752605030FLORES, ROLANDO FABIAN                  20211203213614060800000501626620000012378972000000611210000062480512
230566549020305665496000000000000000000000000ESCOBEDO, LUCAS GONZALO                 20211203213616060900000156402520000001417342000000113410000020046752
224600612020246006122000000000000000000000000ESTECHE, MAURICIO RAFAEL                20211203213616061000000392093220000023218122000001857510000119270342
214044693023140446939000000000110001609504001MENDOZA, JOSE RODOLFO                   20211203213615061100000243232320000020876932000001670110000133359572
226707696027267076966000000000000000000000000GARCIA, CAROLINA JAQUELINA              20211203213611061200000583011020000014481252000001158510000183830642
226719787020267197874000000000000000000000000CONFORTI, JUAN PABLO                    20211203213618061300000406649420000020775622000001662010000142424202
210851820020108518201000000000110000265006012ROJAS, JOAQUIN NELSON                   20211203213619061400000351622520000032303732000002607510000087582202
242737014020427370144000000000000000000000000GIMENEZ OJEDA, FEDERICO IVAN            20211203213619061500000323254120000053366352000004269210000173203762
230484195027304841953000000000110009721206030CARDOZO ROMERO, GABRIELA ADELIA         20211203213616061600000101625120000000000002000000000010000013734012
238764801020387648012000000000000000000000000ROMERO, FRANCO JOAQUIN                  20211203213619061700000137916820000055377912000004430110000134655912
212867141027128671418000000000000000000000000VERA, MARIA ELENA                       20211203213619061800000489206920000110699802000008317010000220543692
217986060020179860601000000000110000242502012ORTEGA, ENRIQUE GABRIEL                 20211203213619062000000083510420000012451902000001000510000050821072
214156494020141564944000000000110000498803017ROUSSELOT, GERARDO MARCELO              20211203213612062200000013836510000000000002000000000010000019212752
235047602020350476025000000000000000000000000ALVAREZ, EZEQUIEL DARIO                 20211203213619062300000270851920000000741332000000059310000028270592
228660940020286609407000000000110005649203030OJEDA, JUAN ALBERTO                     20211203213612062400005581217010000004160052000000332810000370309481
242984306020429843066000000000000000000000000RODRIGUEZ JIMENEZ, MAXIMILIANO FACUNDO  20211203213615062500000155367020000042580812000003406310000088732512
220448783027204487834000000000000000000000000GUTIERREZ, SUSANA NELLI LUCIA           20211203213614062700000104547420000007271692000000581710000019867012
214194164027141941645000000000110134311808030RUIZ DIAZ, MARIA JOSEFA                 20211203213614062800000237146420000001165102000000093210000025792472
221618888020216188889000000000000000000000000GARCÍA, FABIÁN CARLOS                   20211203213611062900000242199520000004961612000000396910000148507162
235466801020354668018000000000110011139510030VELOSO, JUAN MARCELO                    20211203213611063000000650496320000029123562000002329710000107060222
233214471020332144716000000000000000000000000ARIZAGA, RODRIGO JAVIER                 20211203213614063100000143110320000000366862000000018310000018611342
213579129027135791291000000000000000000000000CUÑADO DORA SOFIA                       20211203213613063300000029784420000000000002000000000010000002978442
220591807020205918079000000000000000000000000LÓPEZ, S. DANIEL                        20211203213611063400000222264120000000135002000000015010000042448942
218395052027183950520000000000110133873302030MIEREZ, ALICIA                          20211203213611063500000910652620000093261532000007278410000183598952
223273308020232733080000000000000000000000000NIKCEVICH, JORGE DARÍO                  20211203213614063600000685589320000007496692000000599810000075995642
231109821020311098218000000000110011141203030BESGA NASIR, MAURO ANDRÉS               20211203213612063700000925398110000040269812000002353910000022483371
229219606027292196062000000000110000804101018EPINAL, ARIELA BEATRIZ                  20211203213618063800000443989320000012032712000000966410000065015002
231698721020316987215000000000110000427703013QUIROGA CARLOS JAVIER                   20211203213617063900000041997320000011361512000000908910000015470352
243335058020433350589000000000110000429207005TELLIER VERON, JORGE ABEL               20211203213619064000000319453520000002403442000000192210000076757572
212828827027128288274000000000110000172506009PACHECO, MARIA LUISA                    20211203213616064100000416976420000011975262000000958110000053577092
227615042020276150422000000000000000000000000VALLEJOS, DIEGO EMANUEL                 20211203213615064200000146884420000003684462000000299410000018342962
223859597020238595976000000000110011389807030LEONARD ALBERTO ENRIQUE                 20211203213613064300000163585320000022609372000001748810000038793022
236116111023361161114000000000110001050410016PENAYO, ANABEL ERIKA                    20211203213614064400000253035910000018896882000001437910000004823502
211406483027114064837000000000110011300310030PORTALUPPI, MIRTA GRACIELA              20211203213611064500000752163820000009677052000000633510000117724332
216650054020166500541000000000110000690708018BECHER OSCAR EDUARDO                    20211203213618064600000243125420000007786332000000622810000032036592
236494289020364942894000000000000000000000000SALINA SENA, ERNESTO EZEQUIEL           20211203213611064700000280173220000022837032000001827110000050671642
233214358027332143587000000000110011295210030MÜLLER, MARIA NOEL                      20211203213611064800000432440920000003679302000000294310000056195282
221686296027216862967000000000110011306510030SAPIEGA, GLADYS PATRICIA                20211203213614065000000226313710000013221002000001057710000002274291
236198287020361982879000000000110000509101017ZIOLKOWSKI, NORBERTO AUGUSTO            20211203213611065100000182024620000022182312000001774610000041407312
224632977027246329775000000000110001048107016RIVERO, MARIA SILVIA                    20211203213612065300000328088820000008377572000000674710000069835052
222343188027223431882000000000000000000000000LEVITT, LORENA GRISEL                   20211203213612065400000041963720000029142622000002313410000039254902
234881932020348819322000000000110000364505004GASPAR, HERNAN ULISES                   20211203213618065600000094187920000004476782000000358110000024625572
234569433027345694337000000000110000246904024AQUINO, RAMONA BEATRIZ                  20211203213619065700000145403920000008791882000000703310000023261942
211171604027111716043000000000110118822407030GARECA JUANA OBDULIA                    20211203213618065800000309368320000000000002000000000010000052158832
223406463027234064636000000000000000000000000MARIN, ANALIA                           20211203213615065900000123789020000021885792000001750810000034089612
217493829020174938297000000000000000000000000SANCHEZ JOSE HIPOLITO                   20211203213615066000000218916620000005294762000000423410000027144082
230626843020306268431000000000110001722806001COLLADO, DANIEL OMAR                    20211203213615066100000215709020000026740282000002108610000083575822
214679166027146791668000000000110011972301030MACIEL, MIRTA GLADIS                    20211203213614066200000023675820000032290862000001866210000081416612
227081877020270818774000000000110000703501013ZABALA, JUAN DIEGO                      20211203213617066500000219563920000046061602000003684810000112896512
230140888023301408889000000000000000000000000GASPARINI,MAURO DANIEL                  20211203213616066600000228652420000028350342000002268010000117005492
223011172020230111724000000000110000617000005ESCALANTE, FABIAN APOLONIO              20211203213619066700000117771620000000067502000000010010000011843662
223504819027235048197000000000110011098200030ALVARES, MARCELA ANALIA                 20211203213617066800000178128520000000000002000000000010000020122862
232277852020322778520000000000110000716902013PASSIMO, MARTIN CRUZ                    20211203213617066900000305007820000172491712000013805810000297965332
239306783020393067838000000000000000000000000SAGUIR, ALEJANDRO ELÍAS                 20211203213615067000002532287220000190630502000015250310000470147762
244744670020447446708000000000110011882509030PIETTO, JOAQUIN                         20211203213614067100000068228820000000108002000000008610000007180022
234703454020347034542000000000110003923106030LEZCANO, LEOPOLDO DE JESÚS              20211203213614067300000073333320000000000002000000000010000007333332
210283183020102831838000000000110012068010030MONZÓN, JUAN RAMÓN                      20211203213618067400000093499520000000000002000000000010000009349952
233859831023338598319000000000000000000000000TADINACK, EMMANUEL MARTIN               20211203213617067500000191934620000043162012000003452910000062010182
226374533027263745332000000000110012105800030PINSKER, VERONICA GRACIA                20211203213611067600000019180620000000000002000000000010000001918062
237454566027374545669000000000110000286202025AGUIRRE, MARÍA ELISABET                 20211203213616067700000045239420000000000002000000000010000004523942
320211203213610000039121833375180022295486930017505663005720706306
