12024012524025
2148690710201486907160000000000000000000000000ACOSTA, HORACIO ALBERTa                 202401252402510001000000126466542000001366702200000109341000000141524222
2134398320231343983290000000001100003918803030LATORRE MARIO LUIS                      202401252402510002000000470131132000019678561200001574371000000665342372
2057587110270575871190000000001100000130103021PORTA, MARTA EVA                        202401252402550046000000545684542000068905668200005512551000001450472922
2047151150270471511500000000000000000000000000CARBALLO, MARIA LIDIA                   202401252402590048000001497142562000028331727200002146861000001898272272
2281657460202816574620000000001100000209105017GARCIA,ANIBAL MAXIMILIAN                202401252402510056000000625782212000002643612200000211491000000731143222
2174970480201749704840000000001100003920300030SANCHEZ JOSE LUIS                       202401252402510073000000313997992000004606321200000368511000000361692692
2213470510202134705160000000000000000000000000DAMILANO, ALBERTO JAVIER                202401252402570076000000587093992000060385403200004832711000001279978062
2230841900202308419000000000000000000000000000MARI, CHRISTIAN ARI                     202401252402570080000001061403752000001017931200000081441000001071501622
2059162920270591629210000000001101111111111003JARA,ELISA LILIAN                       202401252402560103000000657793312000020521863200001641741000000861370202
2066498890270664988970000000001100003921700030MARTINEZ,MIRTA                          202401252402530110000000271401062000017915588200001433251000000715386442
2127845530201278455310000000001100000239104014PULJIZ, OSCAR A. LEON                   202401252402550119000000366961802000046469081200003717481000000827935132
2100271530271002715380000000001100000342900013QUIROGA,MARIA MEDINA DE                 202401252402570124000002609473512000035345445200002827651000003160804062
2206513700272065137000000000001100000270703001SCHEMBREG JUANITA GLADYS                202401252402550126000000729442252000043509479200003480751000001317481792
2183768250201837682560000000001101111111111001JULIAN, JORGE ORLANDO                   202401252402550127000000141442202000004202727200000336211000000377245162
2049413850270494138530000000001100000165610025NOVIK, NILDA                            202401252402560128000000282319802000016362568200001309011000000444636472
2076703090200767030950000000001100003924506030GAUTIER,JORDAN ALBERTO                  202401252402510130000000088712582000024546608200001963681000000332214982
2111685570271116855710000000001100000103607020NAIDENOFF LILIAN GLADYS                 202401252402570132000000918899422000077903597200006232331000001695703062
2123311110201233111170000000001100000587206001VIGANOTTI,CARLOS RODOLFO                202401252402550133000000591183772000082776630200006622101000001412327972
2219305050272193050580000000001100003925002030MACIEL, MARCELA SOLEDAD                 202401252402520134000000395674742000001914645200000153181000000423968012
2080754050200807540520000000001100000068606002ESPINDOLA,JORGE ALBERTO                 202401252402560135000000312111632000036130320200002890391000000729905922
2343009760203430097640000000001100000157804007SAGUIR, SERGIO ELIAS                    202401252402570136000000760264972000073104120200005848351000001623927162
2213478010202134780100000000001100000006004021MARCON, DANTE RODOLFO                   202401252402550137000001487381952000037974637200003037991000002535348932
2200920290202009202960000000001100000607810001RAFFIN, CARLOS RAÚL                     202401252402550140000001497460032000099937776200007995031000002560346362
2100250700201002507060000000001100000011505001KOCHOL,EDUARDO MILAN                    202401252402550146000000250337542000110760725200008861011000001348842582
2083819970230838199790000000001101111111111005SCHULZ,HERALDO ROBERTO                  202401252402590148000000505123062000008724997200000698001000000591675032
2246324510232463245140000000001100001680107015LOPEZ,ANDREA VERONICA                   202401252402520149000000175080122000009192617200000735401000000357134132
2215462670272154626710000000001100000418007003PICCINELLI KARINA                       202401252402560154000000473399122000018402250200001472191000000875940482
2114153560271141535620000000001100003931304030BAQUE, STELLA MARYS                     202401252402510159000000207227232000000000000200000000001000000207227232
2127046080201270460860000000001100000253103023ZAISER,RAUL ENRIQUE                     202401252402570163000000423872762000018882255200001510591000000662705222
2232932480272329324870000000001100003915605030SALOMÓN, ESTER NOEMÍ                    202401252402530164000000278499052000000000000200000000001000000278499052
2171509730201715097350000000001100003916700030DELLAMEA, RODOLFO ANTONI                202401252402540165000000065802942000031559281200002524741000000383996762
2079161040200791610480000000000000000000000000BRUNO CARLOS OMAR                       202401252402590167000000191411372000012279183200000982321000000661050022
2182914450271829144580000000001100000165806025ARIAS, MONICA S. IANCHUK                202401252402560171000000150173772000034261542200002740941000000490048252
2107819270231078192740000000001100000208707004GASPAR,ESTELA M.GARCIA D                202401252402580184000000303994432000071006445200005680491000001008378392
2113925820271139258200000000001100000418105003LEZCANO,JUANA NANCI C.DE                202401252402560187000001146703632000068432483200005474601000001825553862
2253696570202536965760000000001101111111111012ESCALANTE,CARLOS ALBERTO                202401252402590188000000288042142000013588003200001087001000000544305422
2142022140271420221470000000001100000182709012TROCHE, EMMA GLADYS ELIZABETH           202401252402590189000000587977842000011736589200000938911000000711231572
2341645140273416451450000000000000000000000000SAGUIR, ELBA GLADYS                     202401252402550192000000414846212000036514114200002921161000001009051042
2328787860203287878660000000000000000000000000SERRATRICE, ALBERTO ADRIAN              202401252402510194000000211984272000006826019200000546081000000253694282
2133063480201330634800000000001100000353207001KOCHOL, ALBERTO JOSE                    202401252402550195000000136378422000006005549200000480441000000195953472
2078974090200789740960000000001100000241908006CISNEROS,CARLOS                         202401252402570198000000308046812000026972347200002157791000000575612492
2079162710200791627100000000001100000589701001CAROL,HUMBERTO RAMON                    202401252402550199000001041347202000012053035200000951731000001612245672
2134392630271343926360000000001100003914205030MACIEL, MARÍA PATRICIA                  202401252402540205000000197017592000003741404200000299321000000234132312
2169360320201693603250000000000000000000000000BRIZUELA PELLEGRINI,RAUL                202401252402570207000000488743672000000600650200000048051000000494702122
2105369290201053692990000000001100000103204009DEHEZA ATILIO EVARISTO                  202401252402560212000000166814262000011438931200000915101000000581087472
2262254250232622542590000000001100000587707001BONILLO, GUSTAVO RAUL                   202401252402550214000000473129302000019781500200001537971000000669606332
2125550430271255504310000000001100004705406030ANDRADA, NILDA NOEMI                    202401252402540216000000478534242000015294545200001223541000000687688152
2162969980201629699870000000001100000166008025PAULUK, FRANCISCO ENRIQU                202401252402560219000000142194232000037184007200002974731000000536455572
2111733950201117339540000000000000000000000000SILENCIO, JOSE RAMON                    202401252402570220000000326285292000006765414200000541231000000393398202
2147322230201473222330000000000000000000000000ROMERO BENITO BENIGNO                   202401252402590221000000617691182000024958895200001996711000000881230672
2112262530231122625390000000001100100314408003BERTONCINI JORGE RAUL                   202401252402560225000000156903322000005778857200000385811000000221305582
2244080000202440800070000000001100000162303010INGLANT PABLO DANIEL                    202401252402570226000000340315912000027346283200002187701000000611591042
2149489240271494892450000000000000000000000000SANG, ETHEL NOEMI                       202401252402550227000000193596712000006807852200000544621000000269380362
2054770160270547701680000000001100000109404024MONTES, ANA RITA LOPEZ D                202401252402590228000000340945912000006889853200000551191000000482292752
2165164240201651642460000000001100000165708025ESCOBEDO EDUARDO OSCAR                  202401252402560230000000545952112000042591108200003407241000000968455952
2140376630231403766390000000001100003916504030RAMIREZ PABLO MARCIAL                   202401252402540233000000212544492000016129352200001001421000000514594792
2113825560201138255620000000000000000000000000NUÑEZ BASTACINI, CARLOS LUIS            202401252402540238000000238598312000006232311200000498571000000300422852
2132892540201328925480000000001100003920703030FALCON JULIO CESAR                      202401252402540239000000207797032000006508494200000520691000000272361282
2239875280272398752840000000001100000588105001MONDINO VERONICA ANDREA                 202401252402550240000000251801302000046278374200003702271000000710882772
2253691230232536912390000000001100000212808004BARRIOS FACUNDO JULIAN                  202401252402580241000000319328112000065563550200005245071000001180610792
2129795280201297952800000000001100000055608018FERNANDEZ RUBEN ARIEL                   202401252402580242000000524633462000063933651200005115401000001312642302
2118990750271189907520000000001100113506807030ROMERO CORAZON MARIA G.D                202401252402510244000000282865812000003242395200000259381000000334025832
2229058120202290581270000000001100003918204030SANCHEZ,JORGE EDUARDO                   202401252402520248000000376532302000031225156200002498001000000773905522
2100234950271002349500000000000000000000000000ROJAS GLORIA ESTER                      202401252402560250000000425418252000069407276200005553131000001651756632
2247276680272472766830000000000000000000000000ROJAS IVANA L.BONFANTI D                202401252402510254000000422730842000011882790200000950641000000532873102
2168977250201689772560000000000000000000000000MULLER JUAN CARLOS R.                   202401252402510255000000469745222000007521925200000601751000000789212472
2208004220272080042260000000000000000000000000VEGA NORMA DEL CARMEN                   202401252402570259000000118682272000050026601200004002111000000955150422
2320656020273206560230000000001100113507510030DEDIEUS JOHANA MARIELA                  202401252402540262000000299998592000020777702200001662201000000506113412
2167577580271675775850000000001100003922109030ROMERO EMILCE GLADIS                    202401252402520264000000154991842000003581624200000286531000000190521552
2130486870201304868790000000001100000171803021BENITEZ PABLO                           202401252402550265000000363583202000020448862200001635911000000764176862
2161159000201611590000000000000000000000000000AZAREVICH WALTER OMAR                   202401252402580268000000158692052000036742499200002939391000000753436852
2175486970271754869710000000000000000000000000ZARATE, MARTA BEATRIZ VERA DE           202401252402540271000000152354802000014553495200001164251000000426127502
2204511030272045110340000000000000000000000000BARRERO, SANDRA ESTHER S.               202401252402540272000000997380152000012447038200000995781000001379657652
2220522720202205227260000000001100000127903010MENDEZ FERNANDO FABIAN                  202401252402570276000000675694642000188288996200015063121000002984701482
2183962210201839622140000000001101111111111030PENAYO OSCAR DANIEL                     202401252402540277000000010149002000002538518200000081451000000016415832
2121864630271218646360000000001100001678109015JOHNSON ELSA MARY                       202401252402520278000000401072652000002956246200000108491000000799190372
2135920860271359208650000000000000000000000000ALMIRON PETRONA CONCEPCION              202401252402530280000000154356112000000653904200000043011000000160852142
2244781370272447813790000000000101111111111030GARCÍA, MIRIAM NOEMÍ                    202401252402540282000000349735762000007031385200000562501000000419487112
2225375270272253752700000000000000000000000000GIL, GRISELDA AMALIA                    202401252402590283000000099059071000018158918200001452711000000081077402
2290127350202901273520000000001100003920006030ORTÍZ, DIEGO                            202401252402520285000000077141462000013728773200001098291000000298824912
2185491330271854913370000000001100003914804030VERA, EUGENIA                           202401252402540288000000260682412000003123916200000249921000000291671652
2101798410201017984110000000001100000397005022RISSO PATRON MANUEL GREGORIO            202401252402570290000000198318642000018097781200001447821000000366284242
2164534380271645343890000000000000000000000000ACEVEDO, NANCY HERRERA DE               202401252402570294000000248085022000018888251200001433771000000436601642
2325682150233256821590000000000000000000000000DOMINGUEZ, FRANCO JAVIER                202401252402560295000000392707152000009275520200000742051000000484720302
2217948040272179480400000000000000000000000000ALEGRE, NANCY ROXANA                    202401252402580296000000275605102000013437504200001074961000000807817432
2050904670230509046790000000000000000000000000CARRIZO, CARLOS NÉSTOR                  202401252402570297000000005927091000011907536200000952601000000208896172
2255347110202553471100000000001100003424008030MAFFEI, MARTIN RENATO                   202401252402540298000000152532512000016188244200001295061000000347837242
2306269660273062696610000000000000000000000000RODRIGUEZ, ESTELA ANDREA                202401252402550301000000547423652000032201658200002576141000001124624342
2217932760232179327690000000001100000421100003MACHBANIN, DANIEL RENEÉ                 202401252402560302000000949842352000047441383200003759481000001739751552
2220026360272200263670000000000000000000000000YURI, ROXANA ETEL                       202401252402540309000000031830502000000000000200000000001000000031830502
2227778680202277786880000000001100003439207030PIEDRABUENA, PABLO HUGO                 202401252402540311000001040275492000004710476200000376841000001449888562
2113223560271132235670000000001100000260707018DIEWALD, MARGARITA ISABEL D. DE         202401252402580312000000880561192000045144609200003611561000001328395722
2206939630202069396300000000000000000000000000CÉSPEDES, CARLOS ALBERTO                202401252402570313000000016769232000000352341200000028191000000020264452
2268122990202681229910000000000000000000000000BULACIO, HORACIO FABIÁN                 202401252402520314000000109890462000001473110200000117861000000089202462
2134856880271348568880000000001100000161404023VOGELMAN, EVANGELINA M.DE               202401252402570315000000126868952000021620629200001729671000000206397072
2184407900201844079070000000001100000240301014GIULIONI, HECTOR LUIS DANIEL            202401252402550316000000222153142000104336759200008346941000001257173792
2215176380272151763850000000000000000000000000GONZÁLEZ, JUANA                         202401252402590317000000284764392000011277928200000902261000000396641412
2146065370201460653770000000001100003958101030VELAZCO, RITO ALBERTO                   202401252402510318000000277166462000005528707200000442291000000341836092
2255286100202552861030000000001100000070506002GUIZDACOFF, DANTE RENÉ                  202401252402560320000000459964992000032831153200002626501000000989464122
2065026310270650263120000000001101111111111030BLANCO, ELISA                           202401252402540321000000121966522000002212101200000176961000000143910572
2204631570202046315740000000001100001701305015ROBLES, WALTER RICARDO                  202401252402520323000000152062002000006074202200000485951000000217198312
2146978920201469789250000000001100000242110016RAMIREZ, CARLOS ALBERTO                 202401252402540325000000385340022000007716955200000617351000000524390722
2121056210201210562170000000000000000000000000LUQUE, EMILIO MARTIR                    202401252402540328000000112392872000001916184200000153301000000131401412
2279904120202799041260000000001100004523207030COSSIO, CRISTIAN FEDERICO               202401252402540330000000466541082000016846568200001347731000000666204282
2338395010233383950190000000000000000000000000LIPPS, DIEGO LUIS                       202401252402580331000000285768112000019729611200001578381000000613477492
2057063940270570639420000000000000000000000000BARRERA, ANGELICA                       202401252402570332000000058308412000009265870200000741281000000157520332
2204513740272045137460000000001100004671101030PELLIZZARI, NORA DEL CARMEN             202401252402530333000000254009402000010883117200000870641000000361969932
2227845950202278459540000000000000000000000000ACOSTA, RUBEN HORACIO                   202401252402510336000000219830492000007825534200000626041000000421779842
2172515560271725155630000000001100004677007030CONDE OLGADO, NÉLIDA                    202401252402540342000000258699752000007235770200000578871000000461877382
2200906140202009061450000000000000000000000000VALUSSI, CARLOS ALBERTO                 202401252402540343000000118839842000008244841200000659891000000201928362
2179431100201794311070000000001100000195304021RIVERO, LUCIANO HUMBERTO                202401252402550345000000691746112000074066239200005925291000001427433212
2253691110202536911160000000000000000000000000TYWONIUK, ARIEL ABELARDO                202401252402580346000000308043551000003182115200000254581000000067828381
2079310490200793104930000000001100000617904001FUENTES JUAN CARLOS                     202401252402550347000000360454772000008723658200000697901000000556569202
2076795900200767959090000000000000000000000000RODRIGUEZ, DOMINGO RAMÓN                202401252402550348000000444669462000015831534200001266541000000770537012
2273248790272732487950000000001100000172201021ZALAZAR, MARÍA LORENA                   202401252402550349000000409863362000023621174200001889701000000646185402
2182796030231827960340000000000000000000000000ENCINA, NILDA ELENA                     202401252402540351000000250395532000004147614200000331811000000293039862
2312943360203129433610000000001100004870704030KISZKA, JOSE MARIA                      202401252402510352000000494912112000002286591200000182921000000875785582
2306143420273061434200000000001100004745510030GAITAN, NOELIA ANDREA                   202401252402540353000000101370442000015421538200001233731000000277237692
2179148670271791486710000000000000000000000000GIMENEZ, NANCI BEATRIZ                  202401252402580356000000138045022000006221002200000497701000000548567842
2135928380201359283810000000001100004746300030GODOY, JUAN CARLOS                      202401252402540357000000013091752000012949027200001035931000000141546092
2213069060202130690640000000000000000000000000AMBROSIO TODARO, CIRO FERNANDO          202401252402520358000000192712552000025037546200002003031000000450581842
2239150170232391501790000000001100004707400030GOMEZ, JORGE ALFREDO                    202401252402530359000000227196232000007957077200000605661000000306161342
2218620140272186201460000000001100000621504001RAJCKAKOWSKI, LILIANA GABRIELA          202401252402550360000000263656142000102595440200008207651000001599782042
2139606500201396065080000000001100000005508011ORTIZ, FRANCISCO RAFAEL                 202401252402550362000000319285822000002598877200000207921000000345066672
2269803670272698036790000000000000000000000000SANCHEZ, CINTHIA VERONICA               202401252402590363000000074368232000041916045200003353271000000960336312
2316127940203161279410000000000000000000000000BIAZONI, MARIANO ANTONELLO              202401252402570364000000078789352000011538303200000923061000000193249322
2142246270271422462740000000000000000000000000NAVARRO, NORMA INES                     202401252402560365000001293582572000032662947200002613011000001617599032
2281223280272812232890000000001100007350610030OLDERBURGEN, ANGELA BEATRIZ             202401252402540366000000183259512000001014813200000081181000000236683212
2066966980230669669840000000001100000719207001GOI, TERESITA MARIA                     202401252402550367000000560167972000006236063200000498901000000697779202
2140853230201408532330000000000000000000000000DEL VALLE, DESIDERIO JORGE              202401252402540368000000276707792000009713749200000777101000000373068182
2232735430272327354360000000001100001674600015VALDEZ, NANCY ETELVINA                  202401252402510369000000150962932000000236620200000018931000000153310202
2205917320202059173230000000000000000000000000CORREA HECTOR DANIEL                    202401252402550370000000172350782000018468194200001477481000000355555242
2248162160272481621690000000000000000000000000PEÓN, VERÓNICA BEATRÍZ                  202401252402550373000000187004032000006604704200000528391000000465363482
2264183120202641831200000000001100004568209030BENOIST, SERGIO ANIBAL                  202401252402530375000000177836412000003612503200000288991000000283164282
2349664090203496640980000000001100000165904025MICHELINI, RODOLFO OSCAR                202401252402560376000000092435082000026582922200002126631000000409626272
2220029240202200292480000000001100000646307001ROBLES, GUSTAVO ADOLFO                  202401252402550377000000825808322000049434059200003954701000001465978712
2246325430202463254300000000000000000000000000SABLICH, DIEGO ORLANDO                  202401252402510378000000617608962000027830046200002226431000000758423042
2121203580201212035890000000000000000000000000IZQUIERDO RICARDO                       202401252402570381000000088399712000037968682200003037491000000542053292
2218493860272184938610000000000000000000000000JIMENEZ, CLAUDIA MONICA                 202401252402550382000000462204102000115404142200009033451000001686003072
2289554660202895546620000000001100000560507018MORIENEGA, EUGENIO VICTOR               202401252402580383000001666831492000057320554200004586881000002765636042
2130364250271303642550000000000000000000000000ROMAN, ANA NIEVES                       202401252402590389000000233352872000014003863200001100621000000563989032
2274719050202747190530000000001100113507401030ZAMPEDRI, JUAN EDUARDO                  202401252402540390000000564892152000009149358200000731971000000655653762
2246064610202460646100000000001100000015504014TERZICH, NORBERTO RICARDO ARIEL         202401252402550392000000179634692000017007103200001360561000000504092412
2331459180203314591870000000000000000000000000GUTIERREZ, FERNANDO ANDRES              202401252402580393000000255331272000022099469200001767951000000578630512
2288584160272885841630000000000000000000000000RADA, PAMELA ELISABETH                  202401252402510396000000305181002000002991017200000239291000000610305892
2290202680202902026800000000000000000000000000OPAT, RODOLFO ANTONIO                   202401252402550397000000033551282000003551653200000284131000000221794022
2079271810200792718110000000001100001680608015JIMENEZ RUBEN LUIS                      202401252402520399000000592034552000000000000200000000001000000592034552
2109802810201098028170000000000000000000000000GALEANO, ISIDRO                         202401252402520404000000100845772000000000000200000000001000000100845772
2246875540202468755460000000000000000000000000ORTÍZ, DANIEL CHRISTIAN                 202401252402580405000000121442442000001108039200000088641000000132434192
2356905610203569056100000000000000000000000000FERNANDEZ LARRE GONZALO EMANUEL         202401252402510406000000061718821000006984554200000558761000000007567962
2221924300232219243040000000001100013316309030ALBARIÑO ANA NOEMI                      202401252402510409000000212817172000000334854200000026791000000216138922
2327124140203271241460000000001101111111111025SALIVAR ALEJANDRO MIGUEL                202401252402560411000000076857432000000000000200000000001000000299546932
2230595890202305958960000000000000000000000000SANCHEZ, ALEJANDRO DANIEL               202401252402530413000000071092202000024398239200001951861000000313122732
2354966150273549661530000000001100001606001030PENAYO GISELLE ANAHI                    202401252402540414000000196910601000022611920200001808961000000363894052
2323025980273230259890000000000000000000000000GUTIERREZ REGINA MARIA PIA              202401252402590416000000158305262000010409308200000749991000000297593752
2269639380202696393860000000000000000000000000VELAZQUEZ CARLOS ALEJANDRO              202401252402590418000000066130872000040897884200003271751000000560388462
2295468560202954685650000000001100000786101001GIULIONI, JOSÉ AGUSTÍN                  202401252402550419000000068595702000011015782200000881251000000180430772
2247973750202479737540000000001100000823510030FERNANDEZ, DARDO ANDRÉS                 202401252402540420000000150484382000001510151200000120811000000161863332
2304860810203048608130000000000000000000000000NOGUERA PRIETO JAVIER ALBERTO           202401252402590421000000030176592000000000000200000000001000000030176592
2307086020203070860270000000000000000000000000MORANTE DIEGO MARCELO                   202401252402580422000000110841162000018681985200001494551000000296166462
2216264340272162643420000000001101111111111030OVIEDO, MARIA GABRIELA                  202401252402540423000000099181222000011316711200000905341000000211442992
2172494370231724943740000000000000000000000000GOMEZ SUSANA RAQUEL                     202401252402580424000000200468431000052344490200004187551000000282959722
2243979270202439792780000000000000000000000000MOLINA DARIO FABIAN                     202401252402520429000000363452382000008786478200000632421000000509099892
2273689330202736893390000000001100003973402030SOLIS JUAN CARLOS                       202401252402530430000000165361622000001051841200000084151000000285916232
2204516390202045163920000000000000000000000000COLUSSI SERGIO ORLANDO                  202401252402520431000000143979162000016322527200001305821000000338717762
2316655050273166550550000000000000000000000000PUERTA BARBARA LISANDRA                 202401252402540432000000132008442000017063742200001365091000000328629022
2103742660201037426690000000000000000000000000SOROCZUK CARLOS ROBERTO                 202401252402570433000000098278742000000360009200000028801000000101850032
2338398400233383984090000000001100001485102001GIULIONI LUIS                           202401252402550436000000030178322000006271877200000501761000000039199082
2163672510271636725160000000001100002032809030NASIR ALICIA FLORENTINA                 202401252402540437000000291905692000032327412200002547691000000642501122
2313775160273137751650000000000000000000000000VINA SIMONICINI LORENA                  202401252402570439000000179628432000003992347200000319381000000289357272
2076231130200762311340000000001100000034401012ROBLEDO, JUAN OMAR                      202401252402590441000000263134532000009993182200000799461000000445862392
2275568970202755689700000000000000000000000000DEYDAR, HÉCTOR OSVALDO                  202401252402560443000000580831752000027149181200002171951000001184017312
2352853600273528536020000000000000000000000000OJEDA, YAMILA TRINIDAD                  202401252402590444000000291333442000007815753200000625241000000631906332
2259047400202590474050000000001100002143601030MOLARES MONTEIRO, FERNANDO GABRIEL      202401252402540445000000027276411000000000000200000000001000000027276411
2344789580203447895850000000000000000000000000RAMIREZ, NILSON RODRIGO                 202401252402540447000000114101422000000534414200000042761000000140080502
2387664740203876647430000000000000000000000000RODRIGUEZ JIMENEZ, MIGUEL EDUARDO       202401252402550448000000231902452000008607040200000688561000000411946792
2167067530271670675360000000000000000000000000BRASCAR, MIRIAN ELIZABETH               202401252402590450000000321718682000007972848200000616361000000294609802
2263392530272633925370000000000000000000000000AMARILLA, LORENA ELIZABETH              202401252402590451000000128122012000004391932200000351351000000182055982
2302905000203029050030000000000000000000000000PARED, MARCELO SEBASTIAN                202401252402510453000000093898012000000310691200000024861000000098356162
2397519190203975191990000000000000000000000000RODRIGUEZ JIMENEZ, ANTONIO ALEXIS       202401252402550454000000060269052000012535040200001002821000000149319282
2405859140234058591490000000000000000000000000MENDEZ, TOMAS FEDERICO                  202401252402570456000000052813622000005473747200000437911000000106857482
2139018840201390188430000000001100000270409014RAFFIN, JORGE FERNANDO                  202401252402550457000000340876842000098601007200007888081000001324098332
2221977160202219771660000000000000000000000000LATORRE, GUILLERMO ALBERTO              202401252402560458000000020178081000000000000200000000001000000029708581
2340357770233403577790000000000000000000000000ESCALANTE, GERARDO GASTÓN               202401252402590459000000201074432000008912998200000639181000000342973482
2311950760203119507630000000001100000560605018MORIENEGA, MIGUEL ANGEL                 202401252402580461000000104367802000006960829200000556871000000205200222
2083068190200830681920000000000000000000000000AGUIRRE, GUSTAVO OSCAR                  202401252402590462000000081969082000002748249200000219841000000169660732
2410828560204108285620000000001100000112410021GÓMEZ, SANTIAGO                         202401252402550464000000644465932000022801472200001824131000000871456522
2272774870202727748710000000001101111111111001CHEJ, SERGIO ADRIAN                     202401252402550467000000295192272000012558693200001004701000000520705002
2216187910202161879120000000001100002260401030GONZALEZ, ORLANDO GUSTAVO               202401252402510468000000224948102000013773395200001101891000000361580162
2353051170273530511780000000000000000000000000RAMIREZ, LIZ ANABEL                     202401252402590469000000101342242000008266189200000661291000000210331992
2393150390203931503950000000000000000000000000BARRIOS, MATÍAS JUAN MANUEL             202401252402580470000000327965472000009592049200000767371000000496154542
2060743730270607437330000000000000000000000000SAUCEDO, ANTONIA                        202401252402550473000000234376072000024320689200001945641000000635628822
2305172410273051724190000000000000000000000000GARCÍA, ELENA                           202401252402580475000000088090152000001937507200000154991000000111310232
2361168020203611680200000000000000000000000000FORLIN DELLACASA, LEANDRO NAHUEL        202401252402550477000000211102592000016332561200001306591000000514006102
2293660260272936602690000000000000000000000000INSAURRALDE, CYNTHIA SABRINA            202401252402560481000000217004952000059112460200004729011000000809300292
2163756260231637562690000000000000000000000000GUTIERREZ, HUGO OMAR                    202401252402580482000000244949172000023746700200001899701000000499713972
2241536320202415363280000000000000000000000000ESPINOZA, JOSÉ LUIS                     202401252402590488000000052901852000005183334200000414671000000113270522
2059162480270591624840000000001100000507804003RODRIGUEZ, CELINA                       202401252402560489000000149738532000035011837200002800931000000497055972
2302143760273021437600000000000000000000000000LÓPEZ CRISTALDO, NORMA EMILIA           202401252402510490000000110087512000033537938200002567241000000510697182
2274352250272743522510000000001100000050808025LEGUIZA, FRIDA AMALIA                   202401252402560491000000145684462000009144981200000731601000000393550502
2226872130272268721380000000001100011069906030VILLALBA, MARCELA ALEJANDRA             202401252402510492000000313649182000005399929200000432001000000367216472
2108765290271087652970000000001100000370208021VEGA, NILDA                             202401252402550493000000026334291000005221347200000417711000000152471222
2310850570273108505730000000001100000078210027JUDKEVICH, PAOLA LUCRECIA               202401252402560496000000052779962000007047250200000563761000000098948702
2336129660233361296640000000000000000000000000RAMIREZ, VALERIA EVELIN                 202401252402540497000000293144092000041373052200002838171000000898857202
2100259710271002597160000000000000000000000000BILINSKI, OLGA MARÍA                    202401252402520501000000196240392000002389652200000191161000000227910602
2280003480202800034850000000001100000129309024BARRIENTO, SERGIO ALCIDES               202401252402590504000000292770962000006427479200000514201000000499921402
2317866950203178669500000000000000000000000000FALCON, CESAR AUGUSTO                   202401252402510505000000251822962000007102964200000568241000000484195362
2139995100201399951050000000001100007644500030ALMADA, EULOGIO CARLOS                  202401252402510506000000015361761000000422291200000033791000000011172641
2348984420273489844250000000001100123139200030RIZZI, IVANNA YANELA                    202401252402520511000000205508042000013862606200001109021000000377952432
2238138570202381385750000000001100005289708030LEDESMA, GUSTAVO HERNÁN                 202401252402590512000000412557452000021957894200001756611000000630379782
2307055710203070557170000000000000000000000000PARRA, MAURO ARIEL                      202401252402510513000000444926462000016540120200001323231000000750631562
2313988250203139882530000000000000000000000000BONDARUK, MAURO LEANDRO                 202401252402570514000000091755261000006840437200000547231000000070810932
2315694150233156941590000000000000000000000000ORTIZ, MARTIN ENRIQUE                   202401252402540516000000134828342000001526496200000122121000000149971182
2332141130273321411340000000001100114340704030TOSSI, ELVIA MIREL                      202401252402510519000000107813182000001767729200000141421000000315333062
2200926410272009264180000000001100000658009003GAUNA, ELENA BEATRIZ                    202401252402560520000000156461162000003906219200000312491000000195210862
2328551740203285517490000000001100007121607030SCHELOVER, WALTER ALFREDO SEBASTIAN     202401252402540522000000222588362000002700585200000216041000000249378172
2400334030204003340300000000001100000121409014BLANCO, DENIS IVAN                      202401252402550523000000074977791000002080724200000166451000000054337001
2206513330202065133310000000000000000000000000RAFFIN HECTOR EDUARDO                   202401252402550524000000147554472000000642058200000051361000000146429942
2116621710271166217170000000000000000000000000AREVALO, CRISTELA                       202401252402590525000000254223962000000000000200000000001000000256223962
2124658420271246584250000000001100000281010014ASELLE, MARIA DEL CARMEN                202401252402550526000000188612372000007579683200000606381000000430558572
2333831590273338315920000000000000000000000000PRO CARLA DANIELA                       202401252402540527000000323796902000000122505200000009801000000573571712
2262216010202622160130000000000000000000000000ALEGRE JUAN DANIEL                      202401252402590528000000113861372000001175358200000094031000000375682172
2401754180204017541810000000001100000285608004IMFELD, SANTIAGO GABRIEL                202401252402580529000000440404842000001729587200000138361000000607254232
2262076150202620761570000000000000000000000000RAMIREZ, MIGUEL ANGEL                   202401252402590530000000261664292000003460630200000276861000000298786482
2201573570272015735780000000000000000000000000RAMONA ALBERTINA GATTO                  202401252402570531000000024036622000009199879200000736001000001684829891
2243294100202432941000000000000000000000000000ROMERO, CARMELO LUIS                    202401252402590533000000265454302000000000000200000000001000000571060852
2048917690270489176960000000001100000304300015DIAZ, LUCIA AURORA                      202401252402520536000000451338832000002359813200000188801000000478248162
2183075040271830750420000000001100007760009030AGUIRRE, BLANCA ESTER                   202401252402510537000000315880562000002003281200000160261000000372639112
2343522230203435222320000000000000000000000000ROA, SAMUEL NICANOR                     202401252402510538000000161432942000000213126200000017051000000252079552
2313084310273130843160000000001100007460307030VILLALBA, DELIA LEONOR                  202401252402520544000000151192422000000848374200000067871000000173808292
2377969970233779699790000000001100007764106030CALVO, DIEGO BLAS                       202401252402510545000000077983822000010495654200000839651000000228418202
2253844940232538449490000000000000000000000000ISSA URIEL ALEJANDRO                    202401252402570548000000325333272000024154623200001932371000000890594112
2242502150232425021590000000000000000000000000CADAVIZ, LUIS MARIA                     202401252402560549000000129635162000019997695200001599781000000472647832
2238613080272386130810000000001100011097606030PAVON, MONICA GRACIELA                  202401252402510551000000150399132000000000000200000000001000000150399132
2236351410272363514110000000001100007969800030RETAMOZO, GLADIS BEATRIZ                202401252402520552000000106247672000009941494200000795321000000204867292
2385385120273853851240000000000000000000000000TREPPO, MACARENA AYELÉN                 202401252402590554000000015717532000021671380200001733761000000386606072
2264899500202648995090000000000000000000000000TARTAGLINO, DARIO ALEJANDRO             202401252402570556000000256789002000059456497200004756461000001262077312
2258773390202587733900000000000000000000000000OJEDA, LUIS WALTER                      202401252402580558000000079528492000010966383200000877321000000188315002
2301995090273019950970000000000000000000000000RAMIREZ, LILIAN NOELIA                  202401252402590559000000147731992000004465105200000357211000000192025832
2332144460203321444650000000001100002233001030CUESTA, DARDO GERMAN                    202401252402530560000000154314832000014940281200001195231000000271150262
2250897750202508977590000000000000000000000000VILLARRUEL, OSCAR ALEJANDRO             202401252402540563000000073548312000008168402200000653481000000151249602
2297207410202972074160000000001101111111111030FERNANDEZ, MARCELO JOSE                 202401252402530564000000167367172000038083469200003046691000000545155172
2353053540273530535450000000000000000000000000VALLEJO, CARLA ARACELI                  202401252402570565000000199264852000160219514200012817551000002026978952
2401754900204017549040000000001100000297206004HASSAN MAHMUD, NADIR DIONEL             202401252402580566000000183939832000037237458200002978981000000603093432
2324739890273247398960000000000000000000000000LUSA, MARIA LAURA                       202401252402550567000000116317712000003194231200000255551000000258290252
2143761660271437616600000000001100000034608022CARO CLARA ESTELA                       202401252402570568000000142016412000096077725200007686181000001095107482
2303703630273037036380000000000000000000000000BUYATTI, DANIELA ELISABETH              202401252402590570000000087783282000000024000200000001921000000089021362
2362105170203621051700000000001100000340100017ALMADA, LEONARDO ALEJANDRO              202401252402520571000000114045862000008042708200000643431000000250865562
2141411080201414110800000000001100001715703001VEGA HORACCIO OSCAR                     202401252402550573000000027049952000004395072200000351611000000141779562
2272772640272727726440000000000000000000000000MEDINA, MARÍA ELENA                     202401252402550575000000136066292000002677328200000214181000000423438652
2281258040202812580450000000001100003997110030VALLINA, GUSTAVO ADRIAN                 202401252402510576000000190828902000000000000200000000001000000190828902
2340337140273403371450000000001100008684402030AMBROGGIO, ALEJANDRA SOLEDAD            202401252402530577000000220946722000007139505200000571171000000398417832
2248071270202480712740000000001100002158702030BAZ, DARÍO ALEJANDRO                    202401252402540579000000343955302000025679941200002054391000000766408022
2273778910202737789190000000001100003920801030CARRIO, JUAN PABLO                      202401252402510580000000193472182000000981229200000078501000000203205972
2172905020271729050270000000000000000000000000GOMEZ, HILDA JULIANA                    202401252402510582000000406045672000002260219200000180821000000437267042
2286608440272866084480000000001100009684701030RAMIREZ, LIDIA YAMILE                   202401252402540583000000186743682000010506341200000840511000000296465082
2281258410232812584190000000001100008922210030PALACIOS, HECTOR FABIAN                 202401252402520584000000087715162000000620746200000049661000000216551652
2303809600203038096010000000000000000000000000KIEWCZUN, BENJAMIN TEODORO              202401252402510585000000139122862000005591577200000447321000000194591312
2074339860200743398680000000001100000444203017MARI, PEDRO OSCAR                       202401252402520586000000088471442000001145365200000091631000000108733362
2310851020203108510280000000000000000000000000RODA, ELBIO JAVIER                      202401252402560588000000031582252000001553218200000124251000000046990182
2259861070202598610720000000000000000000000000IVAN, ALEJANDRO HORACIO                 202401252402560589000000160443472000038644413200003091581000000554351022
2324892890273248928990000000001100009572705030MARTINEZ, MARÍA ALEJANDRA               202401252402520590000000243703482000008462976200000677031000000333015712
2180216140271802161410000000000000000000000000GONZALEZ SILVIA NOEMI                   202401252402520591000000147085222000017029286200001362361000000336015722
2204949070272049490720000000000000000000000000VELAZQUEZ, ISABEL SUSANA                202401252402570592000000033273782000001147137200000091781000000044653372
2389700110273897001130000000000000000000000000CABALLERO, DEBORAH ELIANA               202401252402580593000000131414102000005241358200000419311000000222581122
2288583510202885835100000000001100013175102030GARAY, JOSE MARIA                       202401252402510594000000393015212000025035329200002002821000000654020812
2167031390271670313960000000000000000000000000YULAN, MARIA SUSANA                     202401252402570595000000093252632000004958779200000396711000000230533262
2306261790203062617980000000001100000728707018ORELLANO, ALFREDO GERARDO               202401252402550598000000295281112000014396758200001151741000000816209152
2348984410273489844170000000001100007460503030RIZZI, GEORGINA LORENA                  202401252402540599000000253305612000007578963200000297001000000328798242
2253643700202536437070000000000000000000000000GUILLEN, JORGE HORACIO                  202401252402550601000001172003622000045260965200003557581000001872795692
2434379840274343798440000000000000000000000000MENDEZ TREVISAN, SELENA FIORELA         202401252402590602000000159648212000010443350200000835481000000275770232
2142244760201422447650000000001100000728707015AYALA, JUAN ANIBAL                      202401252402510603000000033193402000001703320200000136271000000050090332
2381907250203819072530000000000000000000000000MACIEL, FRANCO DAVID                    202401252402520604000000289995182000000959778200000076791000000299516172
2213420800272134208070000000000000000000000000CORREA, SONIA YANINNE                   202401252402570605000000098108162000002274807200000181981000000120674252
2307301560203073015640000000000000000000000000INCOFF, JUAN CARLOS MIGUEL              202401252402570606000000467567342000040279581200003222351000000928862452
2319722980203197229800000000001100009443806030SANTINELLI, MAURO ANGEL                 202401252402510607000000581772772000007265556200000581241000000665646592
2301669440203016694460000000001100009752605030FLORES, ROLANDO FABIAN                  202401252402540608000000244499012000002785613200000222841000000272132302
2305665490203056654960000000000000000000000000ESCOBEDO, LUCAS GONZALO                 202401252402560609000000035123362000000000000200000000001000000035123362
2246006120202460061220000000000000000000000000ESTECHE, MAURICIO RAFAEL                202401252402560610000000105647982000012881590200001030511000000253996022
2140446930231404469390000000001100001609504001MENDOZA, JOSE RODOLFO                   202401252402550611000000140692332000009175129200000734021000000545224962
2267076960272670769660000000000000000000000000GARCIA, CAROLINA JAQUELINA              202401252402510612000000368405212000007380700200000590431000000559609382
2267197870202671978740000000000000000000000000CONFORTI, JUAN PABLO                    202401252402580613000000204352172000004324299200000345941000000828633222
2108518200201085182010000000001100000265006012ROJAS, JOAQUIN NELSON                   202401252402590614000000127536542000006314391200000505161000000264057402
2427370140204273701440000000000000000000000000GIMENEZ OJEDA, FEDERICO IVAN            202401252402590615000000221007312000029795055200002383641000000582576222
2304841950273048419530000000001100009721206030CARDOZO ROMERO, GABRIELA ADELIA         202401252402560616000000016412852000000036000200000002881000000016769972
2387648010203876480120000000000000000000000000ROMERO, FRANCO JOAQUIN                  202401252402590617000000053863202000000193909200000015511000000101335782
2128671410271286714180000000000000000000000000VERA, MARIA ELENA                       202401252402590618000000083352582000018722955200001463351000000406075522
2179860600201798606010000000001100000242502012ORTEGA, ENRIQUE GABRIEL                 202401252402590620000000234543642000015168318200001171761000000460900242
2141564940201415649440000000001100000498803017ROUSSELOT, GERARDO MARCELO              202401252402520622000000097494752000000000000200000000001000000031953252
2350476020203504760250000000000000000000000000ALVAREZ, EZEQUIEL DARIO                 202401252402590623000000055401132000000000000200000000001000000132066882
2286609400202866094070000000001100005649203030OJEDA, JUAN ALBERTO                     202401252402520624000000165270172000000000000200000000001000000200269672
2429843060204298430660000000000000000000000000RODRIGUEZ JIMENEZ, MAXIMILIANO FACUNDO  202401252402550625000000044594052000028835972200002306891000000358548712
2141941640271419416450000000001100134311808030RUIZ DIAZ, MARIA JOSEFA                 202401252402540628000000269899372000000206203200000016501000000294440452
2216188880202161888890000000000000000000000000GARCÍA, FABIÁN CARLOS                   202401252402510629000000223130432000001136347200000090901000000316827252
2354668010203546680180000000001100011139510030VELOSO, JUAN MARCELO                    202401252402510630000000186346812000007812222200000624991000000263844042
2135791290271357912910000000000000000000000000CUÑADO DORA SOFIA                       202401252402530633000000014753742000001850636200000148051000000033112052
2205918070202059180790000000001100000504301017LÓPEZ, SERGIO DANIEL                    202401252402510634000000059690372000001452285200000116191000000074097032
2183950520271839505200000000001100133873302030MIEREZ, ALICIA                          202401252402540635000000521723532000015606372200001248511000000719390492
2232733080202327330800000000001100011663110030NIKCEVICH, JORGE DARÍO                  202401252402540636000000154245032000035098876200002807921000000502425872
2311098210203110982180000000001100011141203030BESGA NASIR, MAURO ANDRÉS               202401252402520637000000256841722000009858435200000788831000000492081492
2292196060272921960620000000001100000804101018EPINAL, ARIELA BEATRIZ                  202401252402580638000000255550642000003756010200000300471000000292810272
2316987210203169872150000000001100000427703013QUIROGA, CARLOS JAVIER                  202401252402570639000000307576082000072678048200005814241000001118382752
2433350580204333505890000000001100000429207005TELLIER VERON, JORGE ABEL               202401252402590640000000116373512000001054135200000084331000000292864832
2128288270271282882740000000001100000172506009PACHECO, MARIA LUISA                    202401252402560641000000239496592000000829815200000066391000000247728352
2276150420202761504220000000000000000000000000VALLEJOS, DIEGO EMANUEL                 202401252402590642000000109296962000005173621200000413891000000160619282
2238595970202385959760000000001100011389807030LEONARD ALBERTO ENRIQUE                 202401252402530643000000206765992000003259345200000260751000000239098692
2361161110233611611140000000001100001050410016PENAYO, ANABEL ERIKA                    202401252402540644000000194889222000003475016200000232551000000153624452
2114064830271140648370000000001100011300310030PORTALUPPI, MIRTA GRACIELA              202401252402510645000000277112782000002167676200000173411000000296101512
2166500540201665005410000000001100000690708018BECHER OSCAR EDUARDO                    202401252402580646000000203847882000003837678200000307011000000241917652
2364942890203649428940000000000000000000000000SALINA SENA, ERNESTO EZEQUIEL           202401252402510647000000059706892000002915715200000233261000000088630782
2332143580273321435870000000001100011295210030MÜLLER, MARIA NOEL                      202401252402510648000000048089891000002603505200000208281000000044591662
2216862960272168629670000000001100011306510030SAPIEGA, GLADYS PATRICIA                202401252402540650000000067868691000004162600200000333011000000026575701
2361982870203619828790000000001100000509101017ZIOLKOWSKI, NORBERTO AUGUSTO            202401252402510651000000184265242000001711685200000136931000000451471162
2246329770272463297750000000001100001048107016RIVERO, MARIA SILVIA                    202401252402520653000000300591452000003947414200000315791000000328095452
2223431880272234318820000000000000000000000000LEVITT, LORENA GRISEL                   202401252402540654000000217058722000003656833200000292561000000264330492
2167065410201670654150000000000000000000000000ASSEL, CARLOS ORLANDO                   202401252402570655000000024858712000002280029200000182401000000055960602
2348819320203488193220000000001100000364505004GASPAR, HERNAN ULISES                   202401252402580656000000116500942000001918379200000153471000000252228262
2345694330273456943370000000001100000246904024AQUINO, RAMONA BEATRIZ                  202401252402590657000000150388852000009529808200000762371000000244924562
2111716040271117160430000000001100118822407030GARECA JUANA OBDULIA                    202401252402580658000000151048102000000452008200000036161000000338043672
2234064630272340646360000000000000000000000000MARIN, ANALIA                           202401252402550659000000129974832000001149446200000091961000000172196332
2174938290201749382970000000000000000000000000SANCHEZ JOSE HIPOLITO                   202401252402550660000000091325742000016528910200001322301000000259439292
2306268430203062684310000000001100001722806001COLLADO, DANIEL OMAR                    202401252402550661000000098752032000000922187200000073781000000170946002
2146791660271467916680000000001100011972301030MACIEL, MIRTA GLADIS                    202401252402540662000000082638012000003737024200000298951000000124894452
2229122530202291225340000000001100012082009030ACOSTA GUSTAVO ADOLFO                   202401252402540663000000076318742000002000345200000160031000000096162162
2270818770202708187740000000001100000703501013ZABALA, JUAN DIEGO                      202401252402570665000000177616122000004840818200000387271000000680290702
2301408880233014088890000000000000000000000000GASPARINI,MAURO DANIEL                  202401252402560666000000071187912000004887739200000391021000000195593732
2230111720202301117240000000001100000617000005ESCALANTE, FABIAN APOLONIO              202401252402590667000000092250832000000589156200000047131000000098095262
2235048190272350481970000000001100011098200030ALVARES, MARCELA ANALIA                 202401252402570668000000145674642000007507305200000600581000000450463862
2322778520203227785200000000001100000716902013PASSIMO, MARTIN CRUZ                    202401252402570669000000169101192000025869491200002069551000000789529702
2393067830203930678380000000000000000000000000SAGUIR, ALEJANDRO ELÍAS                 202401252402550670000001835364032000037080880200002966461000002210102822
2337304000203373040020000000000000000000000000BLANCO, RICARDO MAURICIO                202401252402540672000000000000002000000000000200000000001000000079691522
2102831830201028318380000000001100012068010030MONZÓN, JUAN RAMÓN                      202401252402580674000000153310992000000000000200000000001000000153310992
2338598310233385983190000000000000000000000000TADINACK, EMMANUEL MARTIN               202401252402570675000000092280941000011738389200000939071000000024163882
2374545660273745456690000000001100000286202025AGUIRRE, MARÍA ELISABET                 202401252402560677000000019800122000000000000200000000001000000118401622
2289279010272892790110000000001100001118604016KIEWCZUN, JULIA MARIA                   202401252402520679000000203818932000001659167200000132741000000220277862
2409685840274096858410000000001100101274100005IBAÑEZ SILVESTRI, AGUSTINA              202401252402590680000000168589902000007868355200000629441000000431077262
2245594000202455940040000000001100012231000030CAMARASA, EMILIANO FERNANDO             202401252402530681000000094117252000009583556200000766681000000236343632
2326719830203267198390000000000000000000000000GUTIERREZ, ADRIAN ROBERTO               202401252402530683000001011469202000024331259200001946491000001497021302
2310850790233108507990000000000000000000000000PEREZ STROHSCHEIN, FRANCO NICOLAS       202401252402560684000000576349742000026293870200002103481000000859982462
2393140370203931403730000000001100000636300005ALONSO, ROBERTO FRANCO                  202401252402590685000000132890872000002442762200000195431000000173135932
2209842290272098422920000000001100000873000003VILLORDO, MARÍA ALEJANDRA               202401252402560686000000175149832000014842059200001125201000000323945222
2213478520202134785250000000001100001799910001ROMERO, JUAN ALBERTO                    202401252402550687000000023088062000013303346200001064271000000155057252
2381941470273819414720000000001100012587503030PALACIO, ROSANA GABRIELA                202401252402550688000000129161442000004314186200000345141000000151690812
2169361600201693616070000000001100000442808008GODOY CARLOS OSVALDO                    202401252402570689000000035745431000001621835200000129741000000019656821
2449011800204490118060000000001100000405401004FIGUEROA KESQUE, VICTOR LAUTARO         202401252402560690000000057811902000000036000200000002881000000063168522
2405011950204050119570000000001100000448409014BARRETO, SANTIAGO NICOLÁS               202401252402550692000000284810402000019702000200001405291000000480425112
2176697690201766976960000000001100141463701030GALEANO, PEDRO ESTEBAN                  202401252402540693000000138126492000002979122200000238321000000171478392
2254640430202546404340000000001100000895705018IBAÑEZ, DANTE ARIEL                     202401252402580695000000130240902000001376677200000110131000000176614292
2255185860202551858620000000001100001435209015FERNANDEZ, CÉSAR DARÍO                  202401252402520696000000210970081000016456626200001229071000000047632891
2327289680203272896840000000001100003666902030DELLACASA, ADRIAN HUGO                  202401252402520697000000277270562000065378331200005229091000000925824782
2419435840274194358430000000000000000000000000AMBROSIO TODARO, CHIARA BELEN           202401252402520698000000087001322000003279548200000262371000000121834432
2383840120273838401260000000001100012982008030ACEVEDO, ADRIANA MARIA ITATI            202401252402580699000000014354812000007892462200000631401000000016980032
2412787590274127875900000000001100013000204030GONZALEZ, ARACELI BELEN                 202401252402510701000000145265842000004586743200000366951000000210640072
2175965220201759652200000000001100012975210030GOMEZ, RICARDO REINALDO                 202401252402520702000000204709032000000952934200000076221000000215361152
2335009320273350093260000000001100013021400030BAEZ, YANINA MARISEL                    202401252402580703000000007256372000009885403200000790811000000152083842
2312917710203129177190000000001100000465410014MACIEL, ENZO SEBASTIÁN                  202401252402550704000000174796902000003762249200000300981000000261838412
2369249870273692498730000000001100001042201003RICO, FABIANA VANINA                    202401252402560706000000037117382000000939471200000075161000000075010932
2363682820203636828210000000001100000182905002BENES, CRISTIAN ALBERTO                 202401252402560707000000122689942000000000000200000000001000000553598552
2117543780271175437870000000001100013153007030MAMBRIN, MERCEDES GRACIELA              202401252402590708000000298730692000001281986200000102561000000311447992
2170356430201703564390000000001100301703003018NAVARRETE OSCAR                         202401252402580709000000087264622000000000000200000000001000000087264622
2294607230202946072350000000001100000333204012FLEITA FRANCISCO ANTONIO                202401252402590710000000388596082000015066275200001131031000000538127802
2427889470204278894760000000001100000350608010INGLANT MATIAS DANIEL                   202401252402570711000000567060972000041665695200003333241000000982384682
2434375460204343754610000000001100000474801014SALTEÑO LUCAS ADALBERTO                 202401252402550712000000076639922000001173296200000093861000000124931652
2129383190201293831950000000001100001060210003BONIARDI, RAÚL CLEMENTE                 202401252402560713000000120484682000001398320200000111871000000186486012
2323983620203239836240000000001100000344709014ACEVEDO, GERARDO DAVID                  202401252402550714000000093576562000000565527200000045241000000100586592
2446511170204465111740000000001100013432101030LOPEZ IVAN GABRIEL                      202401252402540715000000307284772000032309419200002584741000001167583852
2308081480273080814810000000001100000662006005PEREZ ANDREA ROMINA                     202401252402590716000000888560222000009400708200000752061000000981815242
2290127950272901279500000000001100000925706015ISMAEL GISELA YANINA                    202401252402520717000000190686462000001305699200000104461000000203638992
2079304420200793044260000000001100000969700018BAEZ LUIS ANGEL                         202401252402580718000000158075052000000850962200000068081000000166516592
2951463500279514635020000000001100132059305030BORMATAVA NADZEYA                       202401252402560719000000005225301000019558986200001564711000000205976602
2052494650270524946510000000000000000000000000SILVA, BEATRIZ                          202401252402560720000000410535322000032559541200002604751000000733525982
2274109340272741093490000000001100000921108015VELAZCO ADRIANA TERESA                  202401252402520721000000129584072000012381467200000990521000000261230922
2380071920203800719250000000001100000320805024GARCIA SERGIO HERNAN                    202401252402590722000000106655512000000808060200000064641000000149672472
2308081530203080815330000000001100000720709005RIVAS ENRIQUE SEBASTIAN                 202401252402590723000000304059232000000000000200000000001000000304059232
2300044810203000448170000000001100000475003006VECCHIETTI, ROBERTO ORLANDO             202401252402570724000000891815152000005671093200000453691000001057081392
2427890380204278903850000000001100013123106030ARGUELLO, GONZALO                       202401252402570725000000140161112000018130362200001450421000000325914312
2204133100202041331080000000001100013776908030SABADINI, EDUARDO RUBÉN                 202401252402530726000000187088262000009264632200000741171000000278993412
2369787560203697875600000000001100100515003024MARTINEZ, GONZALO                       202401252402590727000000211956971000000140101200000011291000000210567251
2361153650273611536560000000001100001980310030COLUSSI, PATRICIA NATALIA               202401252402510728000000339416222000015272642200001221811000000550419982
2242802100202428021020000000001100000439203004OJEDA, HILARIO RUBÉN                    202401252402580729000000045160872000000088000200000007041000000046033832
2121243910271212439170000000000000000000000000VIZGARRA IRMA PRESENTACION              202401252402560730000000047730862000000811956200000064961000000248278962
2311016280273110162830000000001100000725509005CHAVEZ, NOELIA                          202401252402590731000000042080022000000598023200000047841000000048012412
2294098130202940981360000000001100013835203030NIEVA, EDUARDO ANDRES                   202401252402570732000000097361922000000000000200000000001000000097361922
2184940310271849403160000000001100001324101016PERALTA, SILVIA BEATRIZ                 202401252402530733000000213076242000000000000200000000001000000228166242
2140377070201403770750000000001100014033406030BURATOVICH ANTONIO FRANCISCO            202401252402530735000000108318942000000337566200000027011000000111667592
2354666650203546666510000000001100013924804030CHETTOLO, JUAN FEDERICO                 202401252402540736000000142794862000001575887200000126071000000170369162
2168603340271686033420000000001100100539103013JUAREZ INGRID ROSANA                    202401252402570737000000127544602000000000000200000000001000000127544602
2302800340203028003410000000002100000136107024GOMEZ, BERNARDO RUBEN                   202401252402590738000000051783052000005387027200000430961000000145927112
2148888240271488882430000000001100000235900002GAMARRA, MARIA INES DEL ROSARIO         202401252402590739000000091022141000000000000200000000001000000091022141
2331441260203314412610000000001100000131709016RUBIO CHUAIRE JUAN ANDRES               202401252402540740000000388057002000002747212200000219781000000415309342
2363684830273636848370000000001100100265009002HONCHERUK IVANA CARINA                  202401252402580741000000060271832000000000000200000000001000000060271832
2225388360272253883640000000001100014007907030RAMIREZ ELOISA BEATRIZ                  202401252402550742000000113015732000001156405200000092511000000124487272
2207097640272070976460000000001100000221502020LALLANA, ANGELA CLAUDIA                 202401252402570743000000094539022000019085559200001526861000000291567252
2319710430203197104350000000001100013863001030BRITEZ ALEJANDRO MANUEL                 202401252402540745000000359283852000044730816200001721411000000810118802
2452497480204524974850000000001100013943407001NASIR JUAN CRUZ                         202401252402590746000000031523782000009484105200000758741000000308231792
2255097920202550979200000000002100000499604014BRUIC ERIC CONRADO                      202401252402550747000000145048452000004382340200000350591000000188521262
2320887440273208874400000000001100014070007030LEIVA, NOELIA BEATRIZ                   202401252402540751000000083993152000013694613200001095581000000219843702
2344139830203441398310000000001100014038402030OJEDA, GUSTAVO ALEJANDRO                202401252402520752000000089974962000000000000200000000001000000089974962
2393157920203931579260000000000000000000000000DURE ALEJANDRO TOMAS                    202401252402510755000000162333402000001690885200000135271000000278753842
2414134950204141349560000000001100014044007030JATCHUK NICOLAS DANEL                   202401252402560756000000049357002000000000000200000000001000000049357002
3202401252402500000400000010577497030000006331908969000000050177207000019575561179
