12024013024030
2148690710201486907160000000000000000000000000ACOSTA, HORACIO ALBERTO                 202401302403010001000000033122942000000672285200000053781000000039792012
2134398320231343983290000000001100003918803030LATORRE MARIO LUIS                      202401302403010002000000135714292000016593512200001207221000000300442192
2057587110270575871190000000001100000130103021PORTA, MARTA EVA                        202401302403050046000000213029122000082894250200006631511000001080089612
2047151150270471511500000000000000000000000000CARBALLO, MARIA LIDIA                   202401302403090048000001015706422000016730742200001338481000001198263762
2281657460202816574620000000001100000209105017GARCIA,ANIBAL MAXIMILIAN                202401302403010056000000391975552000007814405200000625151000000466404702
2174970480201749704840000000001100003920300030SANCHEZ JOSE LUIS                       202401302403010073000000232370412000000000000200000000001000000232370412
2213470510202134705160000000000000000000000000DAMILANO, ALBERTO JAVIER                202401302403070076000000323411492000144721829200011577721000001907248712
2230841900202308419000000000000000000000000000MARI, CHRISTIAN ARIEL                   202401302403070080000000407636132000005932139200000474571000000466482952
2059162920270591629210000000001101111111111003JARA,ELISA LILIAN                       202401302403060103000000324032452000019257312200001540581000000515064992
2066498890270664988970000000001100003921700030MARTINEZ,MIRTA                          202401302403030110000000050556722000011970688200000899271000000184303332
2127845530201278455310000000001100000239104014PULJIZ, OSCAR A. LEON                   202401302403050119000000228542052000040465575200003237291000000629960512
2100271530271002715380000000001100000342900013QUIROGA,MARIA MEDINA DE                 202401302403070124000000367871351000072013658200005761101000000448986632
2206513700272065137000000000001100000270703001SCHEMBREG JUANITA GLADYS                202401302403050126000000214385362000007779508200000622361000000367153982
2183768250201837682560000000001101111111111001JULIAN, JORGE ORLANDO                   202401302403050127000000096546362000007162406200000572991000000310845082
2049413850270494138530000000001100000165610025NOVIK, NILDA                            202401302403060128000000210133182000004028332200000322271000000250094232
2076703090200767030950000000001100003924506030GAUTIER,JORDAN ALBERTO                  202401302403010130000000080189612000008535666200000682831000000164863442
2111685570271116855710000000001100000103607020NAIDENOFF LILIAN GLADYS                 202401302403070132000000378840242000087675012200007013941000001199912472
2123311110201233111170000000001100000587206001VIGANOTTI,CARLOS RODOLFO                202401302403050133000000444717992000077102694200006168221000001209576712
2219305050272193050580000000001100003925002030MACIEL, MARCELA SOLEDAD                 202401302403020134000000214382562000014736000200001178851000000357472592
2080754050200807540520000000001100000068606002ESPINDOLA,JORGE ALBERTO                 202401302403060135000000218928862000049301179200003944081000000735447952
2343009760203430097640000000001100000157804007SAGUIR, SERGIO ELIAS                    202401302403070136000000509300912000076277739200006102191000001759076172
2213478010202134780100000000001100000006004021MARCON, DANTE RODOLFO                   202401302403050137000000225373552000070835487200005666811000001003304712
2200920290202009202960000000001100000607810001RAFFIN, CARLOS RAÚL                     202401302403050140000001093676252000057145379200004571621000001879791282
2100250700201002507060000000001100000011505001KOCHOL,EDUARDO MILAN                    202401302403050146000000113555682000008721168200000697701000000246722162
2083819970230838199790000000001101111111111005SCHULZ,HERALDO ROBERTO                  202401302403090148000000397344852000024178698200001934281000000637197552
2246324510232463245140000000001100001680107015LOPEZ,ANDREA VERONICA                   202401302403020149000000083389652000010688325200000855061000000214193592
2215462670272154626710000000001100000418007003PICCINELLI KARINA                       202401302403060154000000331637982000011289494200000903161000000813736282
2114153560271141535620000000001100003931304030BAQUE, STELLA MARYS                     202401302403010159000000241267352000000612092200000048971000000247339302
2127046080201270460860000000001100000253103023ZAISER,RAUL ENRIQUE                     202401302403070163000000188054892000012523143200001001841000000244298732
2232932480272329324870000000001100003915605030SALOMÓN, ESTER NOEMÍ                    202401302403030164000000404507362000000000000200000000001000000404507362
2171509730201715097350000000001100003916700030DELLAMEA, RODOLFO ANTONI                202401302403040165000000489924782000004584811200000366781000000536406112
2079161040200791610480000000000000000000000000BRUNO CARLOS OMAR                       202401302403090167000000254915051000015177661200001214211000000006181902
2182914450271829144580000000001100000165806025ARIAS, MONICA S. IANCHUK                202401302403060171000000121376392000019862083200001588961000000318408262
2107819270231078192740000000001100000208707004GASPAR,ESTELA M.GARCIA D                202401302403080184000000068121372000030581621200002446511000000458207072
2113925820271139258200000000001100000418105003LEZCANO,JUANA NANCI C.DE                202401302403060187000000665970592000019812941200001585021000000862514982
2253696570202536965760000000001101111111111012ESCALANTE,CARLOS ALBERTO                202401302403090188000000204142942000022419690200001793591000000433574252
2142022140271420221470000000001100000182709012TROCHE, EMMA GLADYS ELIZABETH           202401302403090189000000200336871000016358165200001308651000000034741771
2341645140273416451450000000000000000000000000SAGUIR, ELBA GLADYS                     202401302403050192000000198260052000020612845200001649041000000480405262
2328787860203287878660000000000000000000000000SERRATRICE, ALBERTO ADRIAN              202401302403010194000000153938032000014695709200001175651000000276674472
2133063480201330634800000000001100000353207001KOCHOL, ALBERTO JOSE                    202401302403050195000000027289421000013438367200001075061000000106019192
2121053900201210539000000000001100003914902030SANCHEZ,HUGO ALBERTO                    202401302403010196000000015250162000000000000200000000001000000015250162
2078974090200789740960000000001100000241908006CISNEROS,CARLOS                         202401302403070198000000153854892000029297836200002343861000000444489392
2079162710200791627100000000001100000589701001CAROL,HUMBERTO RAMON                    202401302403050199000000966025182000030833690200002305781000001640507632
2134392630271343926360000000001100003914205030MACIEL, MARÍA PATRICIA                  202401302403040205000000096483662000008032603200000642611000000178267682
2169360320201693603250000000000000000000000000BRIZUELA PELLEGRINI,RAUL                202401302403070207000000331909082000005173343200000321371000000383321142
2105369290201053692990000000001100000103204009DEHEZA ATILIO EVARISTO                  202401302403060212000000097511332000019464915200001557171000000497352912
2262254250232622542590000000001100000587707001BONILLO, GUSTAVO RAUL                   202401302403050214000000283357692000056825191200004546021000000851159082
2125550430271255504310000000001100004705406030ANDRADA, NILDA NOEMI                    202401302403040216000000401578822000013688330200001095071000000571801452
2162969980201629699870000000001100000166008025PAULUK, FRANCISCO ENRIQU                202401302403060219000000071827402000002198812200000175901000000219672622
2111733950201117339540000000000000000000000000SILENCIO, JOSE RAMON                    202401302403070220000000007374421000020568908200001577191000000196737472
2147322230201473222330000000000000000000000000ROMERO BENITO BENIGNO                   202401302403090221000000271064372000032942085200002635381000000635416342
2112262530231122625390000000001100100314408003BERTONCINI JORGE RAUL                   202401302403060225000000124363452000037720939200003017701000000502955392
2244080000202440800070000000001100000162303010INGLANT PABLO DANIEL                    202401302403070226000000167762562000006860878200000548851000000235822492
2149489240271494892450000000000000000000000000SANG, ETHEL NOEMI                       202401302403050227000000247010652000006587909200000453341000000314436652
2054770160270547701680000000001100000109404024MONTES, ANA RITA LOPEZ D                202401302403090228000000087668052000015844009200001267501000000386154442
2165164240201651642460000000001100000165708025ESCOBEDO EDUARDO OSCAR                  202401302403060230000000366776712000018654499200001492341000000686410712
2140376630231403766390000000001100003916504030RAMIREZ PABLO MARCIAL                   202401302403040233000000059767532000000952206200000076171000000243517922
2113825560201138255620000000000000000000000000NUÑEZ BASTACINI, CARLOS LUIS            202401302403040238000000139707062000018378573200001470291000000322022502
2132892540201328925480000000001100003920703030FALCON JULIO CESAR                      202401302403040239000000102245672000005815739200000465251000000159937812
2239875280272398752840000000001100000588105001MONDINO VERONICA ANDREA                 202401302403050240000000222057732000029364179200002349151000000626286872
2253691230232536912390000000001100000212808004BARRIOS FACUNDO JULIAN                  202401302403080241000000218413322000130869582200010469561000001560301332
2129795280201297952800000000001100000055608018FERNANDEZ RUBEN ARIEL                   202401302403080242000000385051412000054844853200004387571000001192140722
2118990750271189907520000000001100113506807030ROMERO CORAZON MARIA G.D                202401302403010244000000082744002000005007466200000400581000000145369832
2229058120202290581270000000001100003918204030SANCHEZ,JORGE EDUARDO                   202401302403020248000000088989172000007577955200000606231000000165100842
2100234950271002349500000000000000000000000000ROJAS GLORIA ESTER                      202401302403060250000000120088142000050215127200004017211000000787749882
2247276680272472766830000000000000000000000000ROJAS IVANA L.BONFANTI D                202401302403010254000000291942692000029258003200002340631000000728293672
2168977250201689772560000000000000000000000000MULLER JUAN CARLOS R.                   202401302403010255000000347110792000007965446200000609921000000547184582
2208004220272080042260000000000000000000000000VEGA NORMA DEL CARMEN                   202401302403070259000000213186152000069997741200005599861000001045023702
2320656020273206560230000000001100113507510030DEDIEUS JOHANA MARIELA                  202401302403040262000000171163532000014160916200001132871000000311639822
2167577580271675775850000000001100003922109030ROMERO EMILCE GLADIS                    202401302403020264000000011542981000000488534200000039091000000006696731
2130486870201304868790000000001100000171803021BENITEZ PABLO                           202401302403050265000000396293272000027910124200002207541000000674687422
2161159000201611590000000000000000000000000000AZAREVICH WALTER OMAR                   202401302403080268000000135385462000028203280200002256261000000506994502
2175486970271754869710000000000000000000000000ZARATE, MARTA BEATRIZ VERA DE           202401302403040271000000101995822000017535061200001402841000000387615742
2204511030272045110340000000000000000000000000BARRERO, SANDRA ESTHER S.               202401302403040272000000569779182000033920742200002713681000000998488252
2220522720202205227260000000001100000127903010MENDEZ FERNANDO FABIAN                  202401302403070276000000474568522000139738885200011179111000001924073012
2183962210201839622140000000001101111111111030PENAYO OSCAR DANIEL                     202401302403040277000000009574742000001953441200000156271000000042809282
2121864630271218646360000000001100001678109015JOHNSON ELSA MARY                       202401302403020278000000142784232000001614723200000129181000000356630382
2135920860271359208650000000000000000000000000ALMIRON PETRONA CONCEPCION              202401302403030280000000082593652000005406784200000432541000000136228952
2244781370272447813790000000000101111111111030GARCÍA, MIRIAM NOEMÍ                    202401302403040282000000172845852000017752747200001420221000000348953102
2225375270272253752700000000000000000000000000GIL, GRISELDA AMALIA                    202401302403090283000000188233532000045332102200003627001000000684912502
2290127350202901273520000000001100003920006030ORTÍZ, DIEGO                            202401302403020285000000271011932000027103329200002168251000000561365792
2185491330271854913370000000001100003914804030VERA, EUGENIA                           202401302403040288000000302148322000006183320200000494671000000363486852
2101798410201017984110000000001100000397005022RISSO PATRON MANUEL GREGORIO            202401302403070290000000007904231000007713410200000617061000000202707862
2164534380271645343890000000000000000000000000ACEVEDO, NANCY HERRERA DE               202401302403070294000000022636912000018114411200001449141000000326598512
2325682150233256821590000000000000000000000000DOMINGUEZ, FRANCO JAVIER                202401302403060295000000282827242000006377913200000414451000000346191922
2217948040272179480400000000000000000000000000ALEGRE, NANCY ROXANA                    202401302403080296000000055425372000032789243200002623091000000562526962
2050904670230509046790000000000000000000000000CARRIZO, CARLOS NÉSTOR                  202401302403070297000000098043072000065851465200005268131000000780177142
2255347110202553471100000000001100003424008030MAFFEI, MARTIN RENATO                   202401302403040298000000021837432000033203488200002656281000000360222632
2306269660273062696610000000000000000000000000RODRIGUEZ, ESTELA ANDREA                202401302403050301000000295083182000141934561200011355261000001979293732
2217932760232179327690000000001100000421100003MACHBANIN, DANIEL RENEÉ                 202401302403060302000000915598022000072973252200005837851000001937601342
2220026360272200263670000000000000000000000000YURI, ROXANA ETEL                       202401302403040309000000049068342000000360785200000028861000000052647332
2227778680202277786880000000001100003439207030PIEDRABUENA, PABLO HUGO                 202401302403040311000000750129742000009492921200000759461000001384615012
2113223560271132235670000000001100000260707018DIEWALD, MARGARITA ISABEL D. DE         202401302403080312000000520027272000057459807200004596801000001090028542
2206939630202069396300000000000000000000000000CÉSPEDES, CARLOS ALBERTO                202401302403070313000000059534862000002176307200000174091000000081123842
2268122990202681229910000000000000000000000000BULACIO, HORACIO FABIÁN                 202401302403020314000000016773562000000266493200000021321000000046574922
2134856880271348568880000000001100000161404023VOGELMAN, EVANGELINA M.DE               202401302403070315000000116966262000019407617200001552611000000394731172
2184407900201844079070000000001100000240301014GIULIONI, HECTOR LUIS DANIEL            202401302403050316000000185370712000017079638200001366381000000354800712
2215176380272151763850000000000000000000000000GONZÁLEZ, JUANA                         202401302403090317000000200527102000001676078200000134081000000217153802
2146065370201460653770000000001100003958101030VELAZCO, RITO ALBERTO                   202401302403010318000000008837101000005729484200000458361000000054047532
2255286100202552861030000000001100000070506002GUIZDACOFF, DANTE RENÉ                  202401302403060320000000235235722000083978052200006718251000001345261832
2065026310270650263120000000001101111111111030BLANCO, ELISA                           202401302403040321000000079922582000007035705200000562871000000149716762
2204631570202046315740000000001100001701305015ROBLES, WALTER RICARDO                  202401302403020323000000200493782000008633944200000690701000000323202102
2146978920201469789250000000001100000242110016RAMIREZ, CARLOS ALBERTO                 202401302403040325000000421129932000021819594200001745541000000667606232
2121056210201210562170000000000000000000000000LUQUE, EMILIO MARTIR                    202401302403040328000000070267852000001704646200000136371000000087177942
2279904120202799041260000000001100004523207030COSSIO, CRISTIAN FEDERICO               202401302403040330000000249058832000034304433200002744341000000610511202
2338395010233383950190000000000000000000000000LIPPS, DIEGO LUIS                       202401302403080331000000190720611000010969187200000877531000000132606822
2057063940270570639420000000000000000000000000BARRERA, ANGELICA                       202401302403070332000000049757542000002863211200000229061000000082959342
2204513740272045137460000000001100004671101030PELLIZZARI, NORA DEL CARMEN             202401302403030333000000331062832000006466055200000517281000000395206102
2227845950202278459540000000000000000000000000ACOSTA, RUBEN HORACIO                   202401302403010336000000305605272000015148216200001211841000000493094942
2172515560271725155630000000001100004677007030CONDE OLGADO, NÉLIDA                    202401302403040342000000154741651000039768686200003181501000000295575412
2200906140202009061450000000000000000000000000VALUSSI, CARLOS ALBERTO                 202401302403040343000000066037202000014636367200001170881000000211229742
2179431100201794311070000000001100000195304021RIVERO, LUCIANO HUMBERTO                202401302403050345000000409755762000109385466200008750821000001495909102
2253691110202536911160000000000000000000000000TYWONIUK, ARIEL ABELARDO                202401302403080346000000125272831000006791508200000513761000000020507842
2079310490200793104930000000001100000617904001FUENTES JUAN CARLOS                     202401302403050347000000262244502000014627450200001170211000000467685292
2076795900200767959090000000000000000000000000RODRIGUEZ, DOMINGO RAMÓN                202401302403050348000000261643562000029384483200002318261000000662792132
2273248790272732487950000000001100000172201021ZALAZAR, MARÍA LORENA                   202401302403050349000000263986682000036836535200002946941000000632905092
2182796030231827960340000000000000000000000000ENCINA, NILDA ELENA                     202401302403040351000000179149682000017541642200001403331000000355123022
2312943360203129433610000000001100004870704030KISZKA, JOSE MARIA                      202401302403010352000000747732662000009639824200000771181000001046671422
2306143420273061434200000000001100004745510030GAITAN, NOELIA ANDREA                   202401302403040353000000097189672000009638724200000716001000000252186412
2179148670271791486710000000000000000000000000GIMENEZ, NANCI BEATRIZ                  202401302403080356000000097548132000006840638200000547241000000315212372
2135928380201359283810000000001100004746300030GODOY, JUAN CARLOS                      202401302403040357000000130282712000028780200200002217901000000415866812
2213069060202130690640000000000000000000000000AMBROSIO TODARO, CIRO FERNANDO          202401302403020358000000218539761000096556865200007724531000000744295112
2239150170232391501790000000001100004707400030GOMEZ, JORGE ALFREDO                    202401302403030359000000140407472000015336382200001226921000000292544372
2218620140272186201460000000001100000621504001RAJCKAKOWSKI, LILIANA GABRIELA          202401302403050360000000191240522000028809961200002304801000000656326132
2139606500201396065080000000001100000005508011ORTIZ, FRANCISCO RAFAEL                 202401302403050362000000201158892000000000000200000000001000000217366522
2269803670272698036790000000000000000000000000SANCHEZ, CINTHIA VERONICA               202401302403090363000000272014122000078293364200006263401000001195373862
2316127940203161279410000000000000000000000000BIAZONI, MARIANO ANTONELLO              202401302403070364000000106793102000009172471200000733801000000186841012
2142246270271422462740000000000000000000000000NAVARRO, NORMA INES                     202401302403060365000000208148072000027023507200002161851000000476221292
2281223280272812232890000000001100007350610030OLDERBURGEN, ANGELA BEATRIZ             202401302403040366000000145769852000003136135200000250891000000180069192
2066966980230669669840000000001100000719207001GOI, TERESITA MARIA                     202401302403050367000000425682332000002562041200000204961000000526587732
2140853230201408532330000000000000000000000000DEL VALLE, DESIDERIO JORGE              202401302403040368000000031027232000004588738200000367091000000076547522
2232735430272327354360000000001100001674600015VALDEZ, NANCY ETELVINA                  202401302403010369000000050866251000001845192200000147611000000032561941
2205917320202059173230000000000000000000000000CORREA HECTOR DANIEL                    202401302403050370000000099146512000025230004200002018421000000350427782
2248162160272481621690000000000000000000000000PEÓN, VERÓNICA BEATRÍZ                  202401302403050373000000170942022000007063537200000565101000000436415272
2264183120202641831200000000001100004568209030BENOIST, SERGIO ANIBAL                  202401302403030375000000081806222000000338697200000027101000000076701972
2349664090203496640980000000001100000165904025MICHELINI, RODOLFO OSCAR                202401302403060376000000067058022000024695484200001975651000000340665062
2220029240202200292480000000001100000646307001ROBLES, GUSTAVO ADOLFO                  202401302403050377000000424515202000025734121200002058711000000797475102
2246325430202463254300000000000000000000000000SABLICH, DIEGO ORLANDO                  202401302403010378000000317460712000064047845200005123831000001133505452
2121203580201212035890000000000000000000000000IZQUIERDO RICARDO                       202401302403070381000000067684972000089285587200007142831000001052531562
2218493860272184938610000000000000000000000000JIMENEZ, CLAUDIA MONICA                 202401302403050382000000560039992000128341050200010267241000001944335372
2289554660202895546620000000001100000560507018MORIENEGA, EUGENIO VICTOR               202401302403080383000001191720532000057553684200004604241000002351366912
2130364250271303642550000000000000000000000000ROMAN, ANA NIEVES                       202401302403090389000000169533421000016773029200001341831000000029832292
2274719050202747190530000000001100113507401030ZAMPEDRI, JUAN EDUARDO                  202401302403040390000000510659912000008206623200000656531000000592069612
2246064610202460646100000000001100000015504014TERZICH, NORBERTO RICARDO ARIEL         202401302403050392000000176150712000081518010200006052891000000996764922
2331459180203314591870000000000000000000000000GUTIERREZ, FERNANDO ANDRES              202401302403080393000000175693092000019925163200001593981000000456281892
2288584160272885841630000000000000000000000000RADA, PAMELA ELISABETH                  202401302403010396000000276231542000007738027200000619041000000372829572
2290202680202902026800000000000000000000000000OPAT, RODOLFO ANTONIO                   202401302403050397000000121802872000008150206200000652031000000388518352
2079271810200792718110000000001100001680608015JIMENEZ RUBEN LUIS                      202401302403020399000000180063532000002393286200000191441000000203804952
2109802810201098028170000000000000000000000000GALEANO, ISIDRO                         202401302403020404000000052273172000000453861200000036311000000056775472
2246875540202468755460000000000000000000000000ORTÍZ, DANIEL CHRISTIAN                 202401302403080405000000044020002000011367248200000909391000000156783092
2356905610203569056100000000000000000000000000FERNANDEZ LARRE GONZALO EMANUEL         202401302403010406000000039962102000006116858200000489361000000100641322
2221924300232219243040000000001100013316309030ALBARIÑO ANA NOEMI                      202401302403010409000000056610632000002986112200000238891000000181365902
2327124140203271241460000000001101111111111025SALIVAR ALEJANDRO MIGUEL                202401302403060411000000057815662000013643963200001091521000000405300272
2084948950200849489510000000000000000000000000QUIROGA, CARLOS RENE                    202401302403070412000000001800002000000000000200000000001000000001800002
2230595890202305958960000000000000000000000000SANCHEZ, ALEJANDRO DANIEL               202401302403030413000000055915062000013642189200001091381000000191245572
2354966150273549661530000000001100001606001030PENAYO GISELLE ANAHI                    202401302403040414000000346650522000048203459200003856271000001285053852
2323025980273230259890000000000000000000000000GUTIERREZ REGINA MARIA PIA              202401302403090416000000102738362000009169798200000733581000000208827762
2269639380202696393860000000000000000000000000VELAZQUEZ CARLOS ALEJANDRO              202401302403090418000000096136142000058671755200004693721000000703820472
2295468560202954685650000000001100000786101001GIULIONI, JOSÉ AGUSTÍN                  202401302403050419000000028384912000009032824200000722621000000117990532
2247973750202479737540000000001100000823510030FERNANDEZ, DARDO ANDRÉS                 202401302403040420000000268875602000008380833200000670481000000363225832
2304860810203048608130000000000000000000000000NOGUERA PRIETO JAVIER ALBERTO           202401302403090421000000032727052000004379944200000350391000000076176102
2307086020203070860270000000000000000000000000MORANTE DIEGO MARCELO                   202401302403080422000000079863952000019914818200001593171000000277418962
2216264340272162643420000000001101111111111030OVIEDO, MARIA GABRIELA                  202401302403040423000000071774442000030351111200002428091000000372857462
2172494370231724943740000000000000000000000000GOMEZ SUSANA RAQUEL                     202401302403080424000000149904102000028434429200002274751000000431973992
2243979270202439792780000000000000000000000000MOLINA DARIO FABIAN                     202401302403020429000000154979782000010449546200000835961000000269437312
2273689330202736893390000000001100003973402030SOLIS JUAN CARLOS                       202401302403030430000000226998442000031521962200002521751000000626721712
2204516390202045163920000000000000000000000000COLUSSI SERGIO ORLANDO                  202401302403020431000000169026572000043128951200003403241000000596913462
2316655050273166550550000000000000000000000000PUERTA BARBARA LISANDRA                 202401302403040432000000110368892000008103934200000648301000000210832432
2103742660201037426690000000000000000000000000SOROCZUK CARLOS ROBERTO                 202401302403070433000000149297162000041495736200003319631000000560934892
2338398400233383984090000000001100001485102001GIULIONI LUIS                           202401302403050436000000061510972000001253055200000100251000000073941272
2163672510271636725160000000001100002032809030NASIR ALICIA FLORENTINA                 202401302403040437000000212878042000021299753200001703981000000387960642
2313775160273137751650000000000000000000000000VINA SIMONICINI LORENA                  202401302403070439000000077765922000021501485200001604641000000399177032
2076231130200762311340000000001100000034401012ROBLEDO, JUAN OMAR                      202401302403090441000000151955832000004193797200000335511000000212601992
2275568970202755689700000000000000000000000000DEYDAR, HÉCTOR OSVALDO                  202401302403060443000000693785181000026715075200002137201000000314120181
2352853600273528536020000000000000000000000000OJEDA, YAMILA TRINIDAD                  202401302403090444000000044152621000007610028200000608821000000212555142
2259047400202590474050000000001100002143601030MOLARES MONTEIRO, FERNANDO GABRIEL      202401302403040445000000060385072000015834586200001266781000000220756302
2344789580203447895850000000000000000000000000RAMIREZ, NILSON RODRIGO                 202401302403040447000000153892772000005033948200000402701000000222249232
2387664740203876647430000000000000000000000000RODRIGUEZ JIMENEZ, MIGUEL EDUARDO       202401302403050448000000119886992000002386767200000190941000000139916902
2167067530271670675360000000000000000000000000BRASCAR, MIRIAN ELIZABETH               202401302403090450000000065745861000014374385200001149951000000153944802
2263392530272633925370000000000000000000000000AMARILLA, LORENA ELIZABETH              202401302403090451000000050028612000004616128200000369291000000097420602
2302905000203029050030000000000000000000000000PARED, MARCELO SEBASTIAN                202401302403010453000000055834292000000912424200000072991000000067894292
2397519190203975191990000000000000000000000000RODRIGUEZ JIMENEZ, ANTONIO ALEXIS       202401302403050454000000031668802000016344578200001307581000000215556002
2405859140234058591490000000000000000000000000MENDEZ, TOMAS FEDERICO                  202401302403070456000000065295522000002100783200000168061000000107564572
2139018840201390188430000000001100000270409014RAFFIN, JORGE FERNANDO                  202401302403050457000000080319662000012694816200001015581000000206252742
2221977160202219771660000000000000000000000000LATORRE, GUILLERMO ALBERTO              202401302403060458000000069115342000000036000200000002881000000108877712
2340357770233403577790000000000000000000000000ESCALANTE, GERARDO GASTÓN               202401302403090459000000081008312000013906982200000989231000000268497152
2311950760203119507630000000001100000560605018MORIENEGA, MIGUEL ANGEL                 202401302403080461000000082556582000082024761200006561911000000967432532
2083068190200830681920000000000000000000000000AGUIRRE, GUSTAVO OSCAR                  202401302403090462000000040972752000015616817200001110611000000286022812
2240938050272409380520000000000000000000000000GONZALEZ, GRACIELA CLAUDIA              202401302403090463000000035089601000033524105200002681921000000297469532
2410828560204108285620000000001100000112410021GÓMEZ, SANTIAGO                         202401302403050464000000363200872000102785892200008222911000001382836882
2272774870202727748710000000001101111111111001CHEJ, SERGIO ADRIAN                     202401302403050467000000226651812000033460647200002676861000000650601922
2216187910202161879120000000001100002260401030GONZALEZ, ORLANDO GUSTAVO               202401302403010468000000281473052000001981847200000158541000000301132982
2353051170273530511780000000000000000000000000RAMIREZ, LIZ ANABEL                     202401302403090469000000099823252000003886710200000310941000000138675412
2393150390203931503950000000000000000000000000BARRIOS, MATÍAS JUAN MANUEL             202401302403080470000000327465702000005850837200000468081000000451306742
2060743730270607437330000000000000000000000000SAUCEDO, ANTONIA                        202401302403050473000000126879442000018441557200001475341000000283243322
2305172410273051724190000000000000000000000000GARCÍA, ELENA                           202401302403080475000000021025852000001691683200000135331000000043806852
2361168020203611680200000000000000000000000000FORLIN DELLACASA, LEANDRO NAHUEL        202401302403050477000000131621232000028645340200002291631000000565844462
2293660260272936602690000000000000000000000000INSAURRALDE, CYNTHIA SABRINA            202401302403060481000000200678052000047143577200003771481000000676442342
2163756260231637562690000000000000000000000000GUTIERREZ, HUGO OMAR                    202401302403080482000000162530292000006883585200000550681000000283375212
2286612680272866126820000000000000000000000000DIP, CLAUDIA CECILIA                    202401302403040487000000002600002000000000000200000000001000000002611502
2241536320202415363280000000000000000000000000ESPINOZA, JOSÉ LUIS                     202401302403090488000000066967832000006261879200000500951000000135285672
2059162480270591624840000000001100000507804003RODRIGUEZ, CELINA                       202401302403060489000000088106452000047158804200003772701000000713305292
2302143760273021437600000000000000000000000000LÓPEZ CRISTALDO, NORMA EMILIA           202401302403010490000000036327292000002595262200000207621000000192247092
2274352250272743522510000000001100000050808025LEGUIZA, FRIDA AMALIA                   202401302403060491000000081177912000038434779200003074801000000681036582
2226872130272268721380000000001100011069906030VILLALBA, MARCELA ALEJANDRA             202401302403010492000000369081352000008218083200000657451000000450604732
2108765290271087652970000000001100000370208021VEGA, NILDA                             202401302403050493000000157742812000016772899200000273931000000486452372
2310850570273108505730000000001100000078210027JUDKEVICH, PAOLA LUCRECIA               202401302403060496000000023752342000003728244200000298251000000070936532
2336129660233361296640000000000000000000000000RAMIREZ, VALERIA EVELIN                 202401302403040497000000176784072000026617376200002129371000000490534632
2100259710271002597160000000000000000000000000BILINSKI, OLGA MARÍA                    202401302403020501000000132957132000003449636200000228261000000230699052
2280003480202800034850000000001100000129309024BARRIENTO, SERGIO ALCIDES               202401302403090504000000130038612000004963604200000397101000000230170952
2317866950203178669500000000000000000000000000FALCON, CESAR AUGUSTO                   202401302403010505000000229342602000006903297200000552241000000539385122
2139995100201399951050000000001100007644500030ALMADA, EULOGIO CARLOS                  202401302403010506000000028385682000000000000200000000001000000028385682
2348984420273489844250000000001100123139200030RIZZI, IVANNA YANELA                    202401302403020511000000042924962000021807590200001744591000000235631152
2238138570202381385750000000001100005289708030LEDESMA, GUSTAVO HERNÁN                 202401302403090512000000206883422000030985499200002478821000000514259592
2307055710203070557170000000000000000000000000PARRA, MAURO ARIEL                      202401302403010513000000185650192000012477331200000998191000000648845692
2313988250203139882530000000000000000000000000BONDARUK, MAURO LEANDRO                 202401302403070514000000084281281000008790351200000703221000000022958491
2315694150233156941590000000000000000000000000ORTIZ, MARTIN ENRIQUE                   202401302403040516000000111509492000001238224200000099061000000123792672
2332141130273321411340000000001100114340704030TOSSI, ELVIA MIREL                      202401302403010519000000051098402000001639150200000131221000000344044172
2200926410272009264180000000001100000658009003GAUNA, ELENA BEATRIZ                    202401302403060520000000070674362000007697741200000615811000000147035962
2328551740203285517490000000001100007121607030SCHELOVER, WALTER ALFREDO SEBASTIAN     202401302403040522000000208687382000003088662200000247101000000245530302
2400334030204003340300000000001100000121409014BLANCO, DENIS IVAN                      202401302403050523000000047077872000000560948200000044881000000052642472
2206513330202065133310000000000000000000000000RAFFIN HECTOR EDUARDO                   202401302403050524000000078460122000009546739200000763731000000171157032
2116621710271166217170000000000000000000000000AREVALO, CRISTELA                       202401302403090525000000204853722000001983829200000158711000000273776302
2124658420271246584250000000001100000281010014ASELLE, MARIA DEL CARMEN                202401302403050526000000189130932000001931135200000125821000000357168712
2333831590273338315920000000000000000000000000PRO CARLA DANIELA                       202401302403040527000000163341412000004090826200000327261000000393301142
2262216010202622160130000000000000000000000000ALEGRE JUAN DANIEL                      202401302403090528000000064747132000000648019200000051841000000071175482
2401754180204017541810000000001100000285608004IMFELD, SANTIAGO GABRIEL                202401302403080529000000066578642000010835651200000866851000000854863302
2262076150202620761570000000000000000000000000RAMIREZ, MIGUEL ANGEL                   202401302403090530000000076608352000016116733200001289361000000310685572
2201573570272015735780000000000000000000000000RAMONA ALBERTINA GATTO                  202401302403070531000000056038542000008886839200000710941000000144195992
2243294100202432941000000000000000000000000000ROMERO, CARMELO LUIS                    202401302403090533000000286178772000037446431200002995721000000924241612
2292258220232922582240000000001100000043607020CARDOZO EDITH PAOLA                     202401302403070535000000000000002000000000000200000000001000000000000191
2048917690270489176960000000001100000304300015DIAZ, LUCIA AURORA                      202401302403020536000000266098562000043620119200003489611000000703910142
2183075040271830750420000000001100007760009030AGUIRRE, BLANCA ESTER                   202401302403010537000000062509042000000533700200000042691000000091533202
2343522230203435222320000000000000000000000000ROA, SAMUEL NICANOR                     202401302403010538000000082159682000004331119200000346481000000230579242
2313084310273130843160000000001100007460307030VILLALBA, DELIA LEONOR                  202401302403020544000000066333151000000399545200000031961000000056189661
2377969970233779699790000000001100007764106030CALVO, DIEGO BLAS                       202401302403010545000000064466722000032838617200002627081000000526442612
2253844940232538449490000000000000000000000000ISSA URIEL ALEJANDRO                    202401302403070548000000116224672000022182920200001774631000000443770952
2242502150232425021590000000000000000000000000CADAVIZ, LUIS MARIA                     202401302403060549000000293021162000044675748200003574011000000794106882
2238613080272386130810000000001100011097606030PAVON, MONICA GRACIELA                  202401302403010551000000110078462000000000000200000000001000000110078462
2236351410272363514110000000001100007969800030RETAMOZO, GLADIS BEATRIZ                202401302403020552000000092780132000021835641200001746841000000309389702
2385385120273853851240000000000000000000000000TREPPO, MACARENA AYELÉN                 202401302403090554000000123146932000011832628200000946601000000391827662
2264899500202648995090000000000000000000000000TARTAGLINO, DARIO ALEJANDRO             202401302403070556000000305490482000060880144200004870421000000962011082
2258773390202587733900000000000000000000000000OJEDA, LUIS WALTER                      202401302403080558000000111551922000013283657200001062701000000243325792
2301995090273019950970000000000000000000000000RAMIREZ, LILIAN NOELIA                  202401302403090559000000051940242000003859037200000308731000000090221882
2332144460203321444650000000001100002233001030CUESTA, DARDO GERMAN                    202401302403030560000000116497072000008070289200000645641000000520612372
2250897750202508977590000000000000000000000000VILLARRUEL, OSCAR ALEJANDRO             202401302403040563000000078264722000002580038200000206401000000204047752
2297207410202972074160000000001101111111111030FERNANDEZ, MARCELO JOSE                 202401302403030564000000075325242000013044942200000908641000000239111522
2353053540273530535450000000000000000000000000VALLEJO, CARLA ARACELI                  202401302403070565000000056714251000078838384200006307061000000817874182
2401754900204017549040000000001100000297206004HASSAN MAHMUD, NADIR DIONEL             202401302403080566000000161659662000049913616200003993071000000772134502
2324739890273247398960000000000000000000000000LUSA, MARIA LAURA                       202401302403050567000000082343152000017961025200001436871000000490857162
2143761660271437616600000000001100000034608022CARO CLARA ESTELA                       202401302403070568000000038075152000030212736200002416991000000337785522
2303703630273037036380000000000000000000000000BUYATTI, DANIELA ELISABETH              202401302403090570000000062453822000000495324200000039631000000094415182
2362105170203621051700000000001100000340100017ALMADA, LEONARDO ALEJANDRO              202401302403020571000000130168051000007361075200000588891000000047962071
2141411080201414110800000000001100001715703001VEGA HORACCIO OSCAR                     202401302403050573000000066368022000007442305200000595381000000293390442
2272772640272727726440000000000000000000000000MEDINA, MARÍA ELENA                     202401302403050575000000134982972000003344106200000267531000000360440252
2281258040202812580450000000001100003997110030VALLINA, GUSTAVO ADRIAN                 202401302403010576000000169015562000000000000200000000001000000169015562
2340337140273403371450000000001100008684402030AMBROGGIO, ALEJANDRA SOLEDAD            202401302403030577000000215297872000003947993200000315851000000511458102
2248071270202480712740000000001100002158702030BAZ, DARÍO ALEJANDRO                    202401302403040579000000366494462000054288025200004343031000000994888382
2273778910202737789190000000001100003920801030CARRIO, JUAN PABLO                      202401302403010580000000086015422000016504163200001320321000000249736732
2172905020271729050270000000000000000000000000GOMEZ, HILDA JULIANA                    202401302403010582000000354696412000007874630200000629961000000436213852
2286608440272866084480000000001100009684701030RAMIREZ, LIDIA YAMILE                   202401302403040583000000340891051000005949067200000475921000000233490051
2281258410232812584190000000001100008922210030PALACIOS, HECTOR FABIAN                 202401302403020584000000089433282000001200367200000096031000000034805651
2303809600203038096010000000000000000000000000KIEWCZUN, BENJAMIN TEODORO              202401302403010585000000140731502000001204502200000096361000000152680162
2074339860200743398680000000001100000444203017MARI, PEDRO OSCAR                       202401302403020586000000065432952000001614927200000129191000000062836282
2310851020203108510280000000000000000000000000RODA, ELBIO JAVIER                      202401302403060588000000004892822000000000000200000000001000000004892822
2259861070202598610720000000000000000000000000IVAN, ALEJANDRO HORACIO                 202401302403060589000000043220142000004544196200000363541000000201289912
2324892890273248928990000000001100009572705030MARTINEZ, MARÍA ALEJANDRA               202401302403020590000000096676052000000550238200000044011000000135484222
2180216140271802161410000000000000000000000000GONZALEZ SILVIA NOEMI                   202401302403020591000000083904402000008703450200000696281000000190242622
2204949070272049490720000000000000000000000000VELAZQUEZ, ISABEL SUSANA                202401302403070592000000017452502000001328651200000106291000000030632722
2389700110273897001130000000000000000000000000CABALLERO, DEBORAH ELIANA               202401302403080593000000025418252000027877153200002230191000000291981292
2288583510202885835100000000001100013175102030GARAY, JOSE MARIA                       202401302403010594000000222522142000010207458200000816601000000444724262
2167031390271670313960000000000000000000000000YULAN, MARIA SUSANA                     202401302403070595000000082050562000019295087200001543601000000318008082
2306261790203062617980000000001100000728707018ORELLANO, ALFREDO GERARDO               202401302403050598000000150093172000025449252200002035951000000500627492
2348984410273489844170000000001100007460503030RIZZI, GEORGINA LORENA                  202401302403040599000000141414252000019976491200001517391000000361957022
2253643700202536437070000000000000000000000000GUILLEN, JORGE HORACIO                  202401302403050601000000538323022000037257702200002952991000001088331052
2434379840274343798440000000000000000000000000MENDEZ TREVISAN, SELENA FIORELA         202401302403090602000000093691952000007620823200000530441000000169767242
2142244760201422447650000000001100000728707015AYALA, JUAN ANIBAL                      202401302403010603000000125585822000000691822200000055351000000132450292
2381907250203819072530000000000000000000000000MACIEL, FRANCO DAVID                    202401302403020604000000244359992000004729051200000378331000000291272172
2213420800272134208070000000000000000000000000CORREA, SONIA YANINNE                   202401302403070605000000026109502000002062247200000164981000000046566992
2307301560203073015640000000000000000000000000INCOFF, JUAN CARLOS MIGUEL              202401302403070606000000303570792000094856946200007588531000001657727072
2319722980203197229800000000001100009443806030SANTINELLI, MAURO ANGEL                 202401302403010607000000457842602000080547134200006443761000001265966182
2301669440203016694460000000001100009752605030FLORES, ROLANDO FABIAN                  202401302403040608000000187188312000006607136200000528571000000252731102
2305665490203056654960000000000000000000000000ESCOBEDO, LUCAS GONZALO                 202401302403060609000000020727882000001115495200000089241000000031793592
2246006120202460061220000000000000000000000000ESTECHE, MAURICIO RAFAEL                202401302403060610000000105066972000018011603200001440941000000322669112
2140446930231404469390000000001100001609504001MENDOZA, JOSE RODOLFO                   202401302403050611000000006413231000008804995200000704411000000296248992
2267076960272670769660000000000000000000000000GARCIA, CAROLINA JAQUELINA              202401302403010612000000200452332000010349722200000827981000000348688322
2267197870202671978740000000000000000000000000CONFORTI, JUAN PABLO                    202401302403080613000000141880992000001297693200000103821000000319392202
2108518200201085182010000000001100000265006012ROJAS, JOAQUIN NELSON                   202401302403090614000000079448732000005577154200000446581000000270123842
2427370140204273701440000000000000000000000000GIMENEZ OJEDA, FEDERICO IVAN            202401302403090615000000096661252000009147362200000731791000000224103832
2304841950273048419530000000001100009721206030CARDOZO ROMERO, GABRIELA ADELIA         202401302403060616000000036304862000000000000200000000001000000064447612
2387648010203876480120000000000000000000000000ROMERO, FRANCO JOAQUIN                  202401302403090617000000064667712000004421679200000353741000000207625512
2128671410271286714180000000000000000000000000VERA, MARIA ELENA                       202401302403090618000000158297422000019588628200001567101000000381069982
2179860600201798606010000000001100000242502012ORTEGA, ENRIQUE GABRIEL                 202401302403090620000000179738662000010693169200000855471000000476579132
2141564940201415649440000000001100000498803017ROUSSELOT, GERARDO MARCELO              202401302403020622000000071171402000000060000200000004801000000105541602
2350476020203504760250000000000000000000000000ALVAREZ, EZEQUIEL DARIO                 202401302403090623000000031718682000000000000200000000001000000088116182
2286609400202866094070000000001100005649203030OJEDA, JUAN ALBERTO                     202401302403020624000000091592492000000000000200000000001000000091592492
2429843060204298430660000000000000000000000000RODRIGUEZ JIMENEZ, MAXIMILIANO FACUNDO  202401302403050625000000055168782000023575801200001886071000000291338222
2141941640271419416450000000001100134311808030RUIZ DIAZ, MARIA JOSEFA                 202401302403040628000000043226401000006051344200000484111000000089823322
2216188880202161888890000000000000000000000000GARCÍA, FABIÁN CARLOS                   202401302403010629000000167412892000001059590200000084761000000432157322
2354668010203546680180000000001100011139510030VELOSO, JUAN MARCELO                    202401302403010630000000108415401000006476520200000518111000000044168311
2135791290271357912910000000000000000000000000CUÑADO DORA SOFIA                       202401302403030633000000007161882000000000000200000000001000000007161882
2205918070202059180790000000001100000504301017LÓPEZ, SERGIO DANIEL                    202401302403010634000000109923302000000566263200000045301000000115540632
2183950520271839505200000000001100133873302030MIEREZ, ALICIA                          202401302403040635000000415455092000055928258200004474271000001086458902
2232733080202327330800000000001100011663110030NIKCEVICH, JORGE DARÍO                  202401302403040636000000024124802000007686259200000615021000000100372372
2311098210203110982180000000001100011141203030BESGA NASIR, MAURO ANDRÉS               202401302403020637000000165448142000022897873200001831831000000483419292
2292196060272921960620000000001100000804101018EPINAL, ARIELA BEATRIZ                  202401302403080638000000010186421000000710995200000056881000000052726652
2316987210203169872150000000001100000427703013QUIROGA, CARLOS JAVIER                  202401302403070639000000204554782000077275369200006020311000001055685582
2433350580204333505890000000001100000429207005TELLIER VERON, JORGE ABEL               202401302403090640000000151473072000000000000200000000001000000278294672
2128288270271282882740000000001100000172506009PACHECO, MARIA LUISA                    202401302403060641000000165535852000002064285200000165141000000186013562
2276150420202761504220000000000000000000000000VALLEJOS, DIEGO EMANUEL                 202401302403090642000000068441832000001405817200000112461000000082387542
2238595970202385959760000000001100011389807030LEONARD ALBERTO ENRIQUE                 202401302403030643000000727749541000010170169200000813631000000626861481
2361161110233611611140000000001100001050410016PENAYO, ANABEL ERIKA                    202401302403040644000000152189582000014634568200001170761000000509855712
2114064830271140648370000000001100011300310030PORTALUPPI, MIRTA GRACIELA              202401302403010645000000112526902000002807668200000224601000000285527232
2166500540201665005410000000001100000690708018BECHER OSCAR EDUARDO                    202401302403080646000000052139292000001611021200000128881000000068120622
2364942890203649428940000000000000000000000000SALINA SENA, ERNESTO EZEQUIEL           202401302403010647000000010064241000001188258200000095071000000001723272
2332143580273321435870000000001100011295210030MÜLLER, MARIA NOEL                      202401302403010648000000129408192000001257053200000100571000000153476152
2216862960272168629670000000001100011306510030SAPIEGA, GLADYS PATRICIA                202401302403040650000000036332832000009064440200000725141000000128252092
2361982870203619828790000000001100000509101017ZIOLKOWSKI, NORBERTO AUGUSTO            202401302403010651000000187017392000010597106200000847781000000426825022
2246329770272463297750000000001100001048107016RIVERO, MARIA SILVIA                    202401302403020653000000205917822000010337382200000826991000000315950662
2223431880272234318820000000000000000000000000LEVITT, LORENA GRISEL                   202401302403040654000000069612372000001496227200000119701000000084463442
2167065410201670654150000000000000000000000000ASSEL, CARLOS ORLANDO                   202401302403070655000000066208212000002867818200000229421000000129972472
2348819320203488193220000000001100000364505004GASPAR, HERNAN ULISES                   202401302403080656000000007678761000007632264200000610571000000233049812
2345694330273456943370000000001100000246904024AQUINO, RAMONA BEATRIZ                  202401302403090657000000084603412000005613923200000449111000000255205532
2111716040271117160430000000001100118822407030GARECA JUANA OBDULIA                    202401302403080658000000073832772000002941278200000235311000000176666742
2234064630272340646360000000000000000000000000MARIN, ANALIA                           202401302403050659000000069003342000015927934200001274251000000310210682
2174938290201749382970000000000000000000000000SANCHEZ JOSE HIPOLITO                   202401302403050660000000086472302000023496633200001879761000000336097372
2306268430203062684310000000001100001722806001COLLADO, DANIEL OMAR                    202401302403050661000000118663992000004000009200000320001000000195341332
2146791660271467916680000000001100011972301030MACIEL, MIRTA GLADIS                    202401302403040662000000045788332000000308039200000024641000000373451132
2229122530202291225340000000001100012082009030ACOSTA GUSTAVO ADOLFO                   202401302403040663000000109970462000009788844200000783101000000207075802
2270818770202708187740000000001100000703501013ZABALA, JUAN DIEGO                      202401302403070665000000105077722000023256951200001860551000000532716022
2301408880233014088890000000000000000000000000GASPARINI,MAURO DANIEL                  202401302403060666000000096382962000017695479200001415651000000315034852
2230111720202301117240000000001100000617000005ESCALANTE, FABIAN APOLONIO              202401302403090667000000078900332000000235974200000018881000000081241192
2235048190272350481970000000001100011098200030ALVARES, MARCELA ANALIA                 202401302403070668000000057568642000002451808200000196151000000083898322
2322778520203227785200000000001100000716902013PASSIMO, MARTIN CRUZ                    202401302403070669000000126881382000029480143200002358391000000474782572
2393067830203930678380000000000000000000000000SAGUIR, ALEJANDRO ELÍAS                 202401302403050670000000779796582000037450927200002996081000001148803822
2337304000203373040020000000000000000000000000BLANCO, RICARDO MAURICIO                202401302403040672000000053240002000000000000200000000001000000053262602
2102831830201028318380000000001100012068010030MONZÓN, JUAN RAMÓN                      202401302403080674000000022914772000000000000200000000001000000022914772
2338598310233385983190000000000000000000000000TADINACK, EMMANUEL MARTIN               202401302403070675000000321827632000014514375200001161201000000465810182
2374545660273745456690000000001100000286202025AGUIRRE, MARÍA ELISABET                 202401302403060677000000028247832000000558792200000044701000000005451701
2289279010272892790110000000001100001118604016KIEWCZUN, JULIA MARIA                   202401302403020679000000068298742000001886652200000150931000000087014332
2409685840274096858410000000001100101274100005IBAÑEZ SILVESTRI, AGUSTINA              202401302403090680000000122653372000003287241200000262951000000499856332
2245594000202455940040000000001100012231000030CAMARASA, EMILIANO FERNANDO             202401302403030681000000070357652000027830384200002226441000000376935052
2326719830203267198390000000000000000000000000GUTIERREZ, ADRIAN ROBERTO               202401302403030683000000789690042000031792885200002543461000001167689582
2310850790233108507990000000000000000000000000PEREZ STROHSCHEIN, FRANCO NICOLAS       202401302403060684000000153445652000031874975200002493631000000524601522
2393140370203931403730000000001100000636300005ALONSO, ROBERTO FRANCO                  202401302403090685000000049522831000008708808200000696711000000053613142
2209842290272098422920000000001100000873000003VILLORDO, MARÍA ALEJANDRA               202401302403060686000000059877802000023066202200001845301000000288696272
2213478520202134785250000000001100001799910001ROMERO, JUAN ALBERTO                    202401302403050687000000023654482000000342609200000027411000000027053162
2381941470273819414720000000001100012587503030PALACIO, ROSANA GABRIELA                202401302403050688000000098268392000002232107200000178571000000146244142
2169361600201693616070000000001100000442808008GODOY CARLOS OSVALDO                    202401302403070689000000015481791000012382906200000990641000000107356632
2449011800204490118060000000001100000405401004FIGUEROA KESQUE, VICTOR LAUTARO         202401302403060690000000094538792000003499208200000279931000000105949942
2405011950204050119570000000001100000448409014BARRETO, SANTIAGO NICOLÁS               202401302403050692000000459813152000029475163200002358021000000752206762
2176697690201766976960000000001100141463701030GALEANO, PEDRO ESTEBAN                  202401302403040693000000068839412000006538490200000523071000000265431822
2254640430202546404340000000001100000895705018IBAÑEZ, DANTE ARIEL                     202401302403080695000000104013212000033210150200002656821000000487998792
2255185860202551858620000000001100001435209015FERNANDEZ, CÉSAR DARÍO                  202401302403020696000000436519042000039250446200003140001000000825883502
2327289680203272896840000000001100003666902030DELLACASA, ADRIAN HUGO                  202401302403020697000000187509122000028376962200002270141000000469008602
2419435840274194358430000000000000000000000000AMBROSIO TODARO, CHIARA BELEN           202401302403020698000000078529022000008361418200000668911000000162575792
2383840120273838401260000000001100012982008030ACEVEDO, ADRIANA MARIA ITATI            202401302403080699000000074986852000002742669200000219411000000116793132
2412787590274127875900000000001100013000204030GONZALEZ, ARACELI BELEN                 202401302403010701000000060273522000007217743200000577421000000167482532
2175965220201759652200000000001100012975210030GOMEZ, RICARDO REINALDO                 202401302403020702000000160234142000000515148200000041201000000165345172
2335009320273350093260000000001100013021400030BAEZ, YANINA MARISEL                    202401302403080703000000105168692000022586006200001806861000000451427892
2312917710203129177190000000001100000465410014MACIEL, ENZO SEBASTIÁN                  202401302403050704000000051703722000007248195200000579851000000050608322
2369249870273692498730000000001100001042201003RICO, FABIANA VANINA                    202401302403060706000000054823072000000000000200000000001000000042613572
2363682820203636828210000000001100000182905002BENES, CRISTIAN ALBERTO                 202401302403060707000000148900092000000438516200000035081000000171608812
2117543780271175437870000000001100013153007030MAMBRIN, MERCEDES GRACIELA              202401302403090708000000164706022000001426485200000114131000000197473242
2170356430201703564390000000001100301703003018NAVARRETE OSCAR                         202401302403080709000000046557602000000000000200000000001000000046557602
2294607230202946072350000000001100000333204012FLEITA FRANCISCO ANTONIO                202401302403090710000000318319922000037061366200002844411000000686089172
2427889470204278894760000000001100000350608010INGLANT MATIAS DANIEL                   202401302403070711000000248834452000034520813200002761631000000922584452
2434375460204343754610000000001100000474801014SALTEÑO LUCAS ADALBERTO                 202401302403050712000000045137512000000000000200000000001000000094248442
2129383190201293831950000000001100001060210003BONIARDI, RAÚL CLEMENTE                 202401302403060713000000043045612000002717169200000217381000000129081422
2323983620203239836240000000001100000344709014ACEVEDO, GERARDO DAVID                  202401302403050714000000088186982000001435896200000114871000000103431072
2446511170204465111740000000001100013432101030LOPEZ IVAN GABRIEL                      202401302403040715000000248544682000019365689200001549501000000581581022
2308081480273080814810000000001100000662006005PEREZ ANDREA ROMINA                     202401302403090716000000626661462000026046857200002083741000000885046292
2290127950272901279500000000001100000925706015ISMAEL GISELA YANINA                    202401302403020717000000062815471000005644748200000451581000000006819571
2079304420200793044260000000001100000969700018BAEZ LUIS ANGEL                         202401302403080718000000077816452000002351808200000188141000000101146392
2951463500279514635020000000001100132059305030BORMATAVA NADZEYA                       202401302403060719000000030177392000006813622200000545041000000118582602
2052494650270524946510000000000000000000000000SILVA, BEATRIZ                          202401302403060720000000208636752000054854687200004388361000000752795262
2274109340272741093490000000001100000921108015VELAZCO ADRIANA TERESA                  202401302403020721000000235341792000003452034200000276171000000288497412
2380071920203800719250000000001100000320805024GARCIA SERGIO HERNAN                    202401302403090722000000095385702000003387485200000271001000000128989552
2308081530203080815330000000001100000720709005RIVAS ENRIQUE SEBASTIAN                 202401302403090723000000213757092000000000000200000000001000000213757092
2300044810203000448170000000001100000475003006VECCHIETTI, ROBERTO ORLANDO             202401302403070724000000624646252000019120438200001529611000000843296272
2427890380204278903850000000001100013123106030ARGUELLO, GONZALO                       202401302403070725000000040712282000057870577200004629651000000614172152
2204133100202041331080000000001100013776908030SABADINI, EDUARDO RUBÉN                 202401302403030726000000164113212000005483618200000438681000000219180962
2369787560203697875600000000001100100515003024MARTINEZ, GONZALO                       202401302403090727000000045820471000005534679200000442781000000009083542
2361153650273611536560000000001100001980310030COLUSSI, PATRICIA NATALIA               202401302403010728000000233102832000012009984200000960801000000520239632
2242802100202428021020000000001100000439203004OJEDA, HILARIO RUBÉN                    202401302403080729000000025097822000000000000200000000001000000025097822
2121243910271212439170000000000000000000000000VIZGARRA IRMA PRESENTACION              202401302403060730000000132504342000005132543200000410611000000324726412
2311016280273110162830000000001100000725509005CHAVEZ, NOELIA                          202401302403090731000000035606042000000000000200000000001000000035606042
2294098130202940981360000000001100013835203030NIEVA, EDUARDO ANDRES                   202401302403070732000000050942382000000000000200000000001000000050942382
2184940310271849403160000000001100001324101016PERALTA, SILVIA BEATRIZ                 202401302403030733000000058992302000000000000200000000001000000184282252
2140377070201403770750000000001100014033406030BURATOVICH ANTONIO FRANCISCO            202401302403030735000000085705552000018853394200001508281000000272731212
2354666650203546666510000000001100013924804030CHETTOLO, JUAN FEDERICO                 202401302403040736000000038090861000003626981200000290161000000007780172
2168603340271686033420000000001100100539103013JUAREZ INGRID ROSANA                    202401302403070737000000059579252000001918013200000153441000000078605942
2302800340203028003410000000002100000136107024GOMEZ, BERNARDO RUBEN                   202401302403090738000000040709832000004855720200000388471000000126499812
2148888240271488882430000000001100000235900002GAMARRA, MARIA INES DEL ROSARIO         202401302403090739000000043683542000000000000200000000001000000044683542
2331441260203314412610000000001100000131709016RUBIO CHUAIRE JUAN ANDRES               202401302403040740000000280833662000001836637200000146931000000299053102
2363684830273636848370000000001100100265009002HONCHERUK IVANA CARINA                  202401302403080741000000025989152000000000000200000000001000000025989152
2225388360272253883640000000001100014007907030RAMIREZ ELOISA BEATRIZ                  202401302403050742000000109224752000000000000200000000001000000109224752
2207097640272070976460000000001100000221502020LALLANA, ANGELA CLAUDIA                 202401302403070743000000086834402000001388654200000111101000000010291161
2319710430203197104350000000001100013863001030BRITEZ ALEJANDRO MANUEL                 202401302403040745000000243572661000068518851200005481491000000455800912
2452497480204524974850000000001100013943407001NASIR JUAN CRUZ                         202401302403090746000000106849102000009744045200000779531000000317749682
2255097920202550979200000000002100000499604014BRUIC ERIC CONRADO                      202401302403050747000000148808262000010823701200000865901000000256179372
2320887440273208874400000000001100014070007030LEIVA, NOELIA BEATRIZ                   202401302403040751000000077508982000001661301200000132901000000093989092
2344139830203441398310000000001100014038402030OJEDA, GUSTAVO ALEJANDRO                202401302403020752000000105082922000000000000200000000001000000105082922
2393157920203931579260000000000000000000000000DURE ALEJANDRO TOMAS                    202401302403010755000000144476742000015333675200001226691000000358357872
2414134950204141349560000000001100014044007030JATCHUK NICOLAS DANEL                   202401302403060756000000013471012000000322504200000025801000000016670252
3202401302403000000405000006958306993000007604799743000000060476210000016244756095
