12024010924009
2148690710201486907160000000000000000000000000ACOSTA, HORACIO ALBERTO                 202401092400910001000000062019882000026256622200002100541000000332485562
2134398320231343983290000000001100003918803030LATORRE MARIO LUIS                      202401092400910002000000398307952000011449024200000915921000000511882272
2057587110270575871190000000001100000130103021PORTA, MARTA EVA                        202401092400950046000000569665382000134513834200010761051000001995490672
2047151150270471511500000000000000000000000000CARBALLO, MARIA LIDIA                   202401092400990048000001320884312000064211235200005136901000001952093962
2281657460202816574620000000001100000209105017GARCIA,ANIBAL MAXIMILIAN                202401092400910056000000402416012000010928410200000874251000000604013742
2174970480201749704840000000001100003920300030SANCHEZ JOSE LUIS                       202401092400910073000000258090072000010389537200000831161000000364404282
2213470510202134705160000000000000000000000000DAMILANO, ALBERTO JAVIER                202401092400970076000000356005732000114599878200009167991000001492836522
2230841900202308419000000000000000000000000000MARI, CHRISTIAN ARIEL                   202401092400970080000001033452722000010478630200000786821000001137452202
2059162920270591629210000000001101111111111003JARA,ELISA LILIAN                       202401092400960103000000745418572000081983090200006556541000001558692932
2066498890270664988970000000001100003921700030MARTINEZ,MIRTA                          202401092400930110000000182664992000013702499200001096211000000385414982
2127845530201278455310000000001100000239104014PULJIZ, OSCAR A. LEON                   202401092400950119000000340050222000042821868200003425761000000764843142
2100271530271002715380000000001100000342900013QUIROGA,MARIA MEDINA DE                 202401092400970124000001697077282000072539993200005385381000002485696582
2206513700272065137000000000001100000270703001SCHEMBREG JUANITA GLADYS                202401092400950126000000665067001000019453136200001556241000000384197411
2183768250201837682560000000001101111111111001JULIAN, JORGE ORLANDO                   202401092400950127000000117942272000003574108200000285921000000181754912
2049413850270494138530000000001100000165610025NOVIK, NILDA                            202401092400960128000000155281932000007830445200000626431000000232959952
2076703090200767030950000000001100003924506030GAUTIER,JORDAN ALBERTO                  202401092400910130000000112305382000001964496200000157161000000131793182
2111685570271116855710000000001100000103607020NAIDENOFF LILIAN GLADYS                 202401092400970132000000916981282000080817794200006465401000001716892822
2123311110201233111170000000001100000587206001VIGANOTTI,CARLOS RODOLFO                202401092400950133000000512449312000049023786200003921901000000998765272
2219305050272193050580000000001100003925002030MACIEL, MARCELA SOLEDAD                 202401092400920134000000387877362000017340882200001387231000000548405202
2080754050200807540520000000001100000068606002ESPINDOLA,JORGE ALBERTO                 202401092400960135000000390581212000091810471200007344841000001301342582
2343009760203430097640000000001100000157804007SAGUIR, SERGIO ELIAS                    202401092400970136000000757171652000088790924200007103261000001912886392
2213478010202134780100000000001100000006004021MARCON, DANTE RODOLFO                   202401092400950137000001061510622000157491707200012599361000002673185332
2200920290202009202960000000001100000607810001RAFFIN, CARLOS RAÚL                     202401092400950140000001610140352000144117867200011529421000003198139702
2100250700201002507060000000001100000011505001KOCHOL,EDUARDO MILAN                    202401092400950146000000193921562000097468591200007797541000001161361932
2083819970230838199790000000001101111111111005SCHULZ,HERALDO ROBERTO                  202401092400990148000000560261192000057132669200004570581000001127017302
2246324510232463245140000000001100001680107015LOPEZ,ANDREA VERONICA                   202401092400920149000000142475452000023885273200001910821000000509033242
2215462670272154626710000000001100000418007003PICCINELLI KARINA                       202401092400960154000000231174712000084314557200006629781000001233777862
2114153560271141535620000000001100003931304030BAQUE, STELLA MARYS                     202401092400910159000000223647512000001244926200000099601000000235997172
2080461180200804611870000000001100000132805018DOMINGUEZ,ALDO                          202401092400980160000000002100002000000000000200000000001000000002100002
2127046080201270460860000000001100000253103023ZAISER,RAUL ENRIQUE                     202401092400970163000000167720002000016720989200001337691000000333592702
2232932480272329324870000000001100003915605030SALOMÓN, ESTER NOEMÍ                    202401092400930164000000273028962000000000000200000000001000000273028962
2171509730201715097350000000001100003916700030DELLAMEA, RODOLFO ANTONI                202401092400940165000000415006002000061482780200004918611000001024915692
2079161040200791610480000000000000000000000000BRUNO CARLOS OMAR                       202401092400990167000000477451402000037849406200003027931000001002225882
2124662870201246628780000000001101111111111003VEGA,ERNESTO RAUL                       202401092400960170000000000400002000000000000200000000001000000000400002
2182914450271829144580000000001100000165806025ARIAS, MONICA S. IANCHUK                202401092400960171000000031505172000067242505200003402601000000700527622
2107819270231078192740000000001100000208707004GASPAR,ESTELA M.GARCIA D                202401092400980184000000333713672000052808931200004224721000000871578762
2113925820271139258200000000001100000418105003LEZCANO,JUANA NANCI C.DE                202401092400960187000001163491032000126706366200010136521000002420418172
2253696570202536965760000000001101111111111012ESCALANTE,CARLOS ALBERTO                202401092400990188000000273116332000022174193200001684961000000545450052
2142022140271420221470000000001100000182709012TROCHE, EMMA GLADYS ELIZABETH           202401092400990189000000544787492000005509836200000440771000000604269732
2341645140273416451450000000000000000000000000SAGUIR, ELBA GLADYS                     202401092400950192000000294169482000225757381200017549181000002533205662
2328787860203287878660000000000000000000000000SERRATRICE, ALBERTO ADRIAN              202401092400910194000000114518142000008223264200000657831000000200293952
2133063480201330634800000000001100000353207001KOCHOL, ALBERTO JOSE                    202401092400950195000000084172122000009125425200000730041000000174696332
2121053900201210539000000000001100003914902030SANCHEZ,HUGO ALBERTO                    202401092400910196000000170117622000016696186200001335701000000335743782
2078974090200789740960000000001100000241908006CISNEROS,CARLOS                         202401092400970198000000294989682000052190375200004175241000000812718192
2079162710200791627100000000001100000589701001CAROL,HUMBERTO RAMON                    202401092400950199000001122229762000042155939200003372481000001850703852
2134392630271343926360000000001100003914205030MACIEL, MARÍA PATRICIA                  202401092400940205000000114251862000012667762200000756291000000240173192
2169360320201693603250000000000000000000000000BRIZUELA PELLEGRINI,RAUL                202401092400970207000000621005232000033883655200002710691000000957131092
2105369290201053692990000000001100000103204009DEHEZA ATILIO EVARISTO                  202401092400960212000000375094652000014291108200001143301000000498774982
2262254250232622542590000000001100000587707001BONILLO, GUSTAVO RAUL                   202401092400950214000000256715652000225107253200017242191000002509796742
2125550430271255504310000000001100004705406030ANDRADA, NILDA NOEMI                    202401092400940216000000465907122000043654367200003296811000000958998082
2162969980201629699870000000001100000166008025PAULUK, FRANCISCO ENRIQU                202401092400960219000000171341971000066403534200005312271000000482381102
2111733950201117339540000000000000000000000000SILENCIO, JOSE RAMON                    202401092400970220000000305366832000099302158200007944211000001290444202
2147322230201473222330000000000000000000000000ROMERO BENITO BENIGNO                   202401092400990221000000588513252000061697787200004935801000001259222322
2112262530231122625390000000001100100314408003BERTONCINI JORGE RAUL                   202401092400960225000000206858992000054769302200004381541000000769521472
2244080000202440800070000000001100000162303010INGLANT PABLO DANIEL                    202401092400970226000000330586872000030008033200002400651000000628266552
2149489240271494892450000000000000000000000000SANG, ETHEL NOEMI                       202401092400950227000000318558852000024603286200001968301000000567521412
2054770160270547701680000000001100000109404024MONTES, ANA RITA LOPEZ D                202401092400990228000000138024112000007201620200000576141000000427907272
2165164240201651642460000000001100000165708025ESCOBEDO EDUARDO OSCAR                  202401092400960230000000645827652000088448879200007075871000001883836472
2140376630231403766390000000001100003916504030RAMIREZ PABLO MARCIAL                   202401092400940233000000063518992000031518661200002521471000000519829882
2113825560201138255620000000000000000000000000NUÑEZ BASTACINI, CARLOS LUIS            202401092400940238000000168304282000018767129200001501361000000354474212
2132892540201328925480000000001100003920703030FALCON JULIO CESAR                      202401092400940239000000032695312000012188228200000975041000000153602552
2239875280272398752840000000001100000588105001MONDINO VERONICA ANDREA                 202401092400950240000000216950692000031925594200002554051000000664668582
2253691230232536912390000000001100000212808004BARRIOS FACUNDO JULIAN                  202401092400980241000000316216822000100508819200008040681000001873875582
2129795280201297952800000000001100000055608018FERNANDEZ RUBEN ARIEL                   202401092400980242000000329702322000099884612200007990771000001653355572
2118990750271189907520000000001100113506807030ROMERO CORAZON MARIA G.D                202401092400910244000000262605112000012249297200000979931000000398613052
2229058120202290581270000000001100003918204030SANCHEZ,JORGE EDUARDO                   202401092400920248000000393836542000007729873200000618391000000528184952
2100234950271002349500000000000000000000000000ROJAS GLORIA ESTER                      202401092400960250000000450803052000070525900200005642061000001292509702
2247276680272472766830000000000000000000000000ROJAS IVANA L.BONFANTI D                202401092400910254000000346955942000014218662200001137461000000601116652
2168977250201689772560000000000000000000000000MULLER JUAN CARLOS R.                   202401092400910255000000428364732000011039974200000883211000000653442762
2208004220272080042260000000000000000000000000VEGA NORMA DEL CARMEN                   202401092400970259000000268901452000041866710200003349341000000828436462
2320656020273206560230000000001100113507510030DEDIEUS JOHANA MARIELA                  202401092400940262000000115529572000038156621200002899881000000494195902
2167577580271675775850000000001100003922109030ROMERO EMILCE GLADIS                    202401092400920264000000203144652000000730971200000058481000000210395882
2130486870201304868790000000001100000171803021BENITEZ PABLO                           202401092400950265000000381109642000045854358200003668311000000890862112
2161159000201611590000000000000000000000000000AZAREVICH WALTER OMAR                   202401092400980268000000115911662000035238746200002819131000000909879142
2175486970271754869710000000000000000000000000ZARATE, MARTA BEATRIZ VERA DE           202401092400940271000000159203862000020536514200001642891000000421573362
2204511030272045110340000000000000000000000000BARRERO, SANDRA ESTHER S.               202401092400940272000000717053042000072695719200005803171000001535771332
2220522720202205227260000000001100000127903010MENDEZ FERNANDO FABIAN                  202401092400970276000000638427032000217697805200017415791000002992800042
2183962210201839622140000000001101111111111030PENAYO OSCAR DANIEL                     202401092400940277000000001349952000001462928200000117031000000021854202
2121864630271218646360000000001100001678109015JOHNSON ELSA MARY                       202401092400920278000000339881742000007284667200000582801000000806375562
2135920860271359208650000000000000000000000000ALMIRON PETRONA CONCEPCION              202401092400930280000000255762822000017620792200001409661000000430561082
2244781370272447813790000000000101111111111030GARCÍA, MIRIAM NOEMÍ                    202401092400940282000000314514942000076412526200006061321000001072578882
2225375270272253752700000000000000000000000000GIL, GRISELDA AMALIA                    202401092400990283000000269766202000000696246200000055701000000382353462
2290127350202901273520000000001100003920006030ORTÍZ, DIEGO                            202401092400920285000000333256642000031125652200002490041000000516704772
2185491330271854913370000000001100003914804030VERA, EUGENIA                           202401092400940288000000345128762000006622429200000529781000000410823272
2101798410201017984110000000001100000397005022RISSO PATRON MANUEL GREGORIO            202401092400970290000000104526472000019732352200001578581000000378142782
2164534380271645343890000000000000000000000000ACEVEDO, NANCY HERRERA DE               202401092400970294000000202208932000076520648200006085121000000977184042
2325682150233256821590000000000000000000000000DOMINGUEZ, FRANCO JAVIER                202401092400960295000000348171842000002448610200000195891000000372462052
2217948040272179480400000000000000000000000000ALEGRE, NANCY ROXANA                    202401092400980296000000258405992000117324931200009300701000001740416852
2050904670230509046790000000000000000000000000CARRIZO, CARLOS NÉSTOR                  202401092400970297000000109725902000003975381200000318021000000185221192
2255347110202553471100000000001100003424008030MAFFEI, MARTIN RENATO                   202401092400940298000000080108982000024588071200001967061000000313496132
2306269660273062696610000000000000000000000000RODRIGUEZ, ESTELA ANDREA                202401092400950301000000212216402000068801889200005504091000001154550702
2217932760232179327690000000001100000421100003MACHBANIN, DANIEL RENEÉ                 202401092400960302000000964527012000139401929200011152121000002490585132
2220026360272200263670000000000000000000000000YURI, ROXANA ETEL                       202401092400940309000000067517182000002744952200000219601000000094747102
2227778680202277786880000000001100003439207030PIEDRABUENA, PABLO HUGO                 202401092400940311000000656770162000029483673200002358711000001323153092
2113223560271132235670000000001100000260707018DIEWALD, MARGARITA ISABEL D. DE         202401092400980312000000739651562000020914653200001673161000000947124932
2206939630202069396300000000000000000000000000CÉSPEDES, CARLOS ALBERTO                202401092400970313000000070079712000018544116200001483531000000254037342
2268122990202681229910000000000000000000000000BULACIO, HORACIO FABIÁN                 202401092400920314000000104427242000000084000200000006721000000106760522
2134856880271348568880000000001100000161404023VOGELMAN, EVANGELINA M.DE               202401092400970315000000105827212000013734987200001099261000000524130822
2184407900201844079070000000001100000240301014GIULIONI, HECTOR LUIS DANIEL            202401092400950316000000233800162000026822831200002145841000000499882632
2215176380272151763850000000000000000000000000GONZÁLEZ, JUANA                         202401092400990317000000048825132000005964942200000477201000000107997352
2146065370201460653770000000001100003958101030VELAZCO, RITO ALBERTO                   202401092400910318000000297036282000011592230200000927391000000517842242
2255286100202552861030000000001100000070506002GUIZDACOFF, DANTE RENÉ                  202401092400960320000000281927642000043670027200003493621000000942372112
2065026310270650263120000000001101111111111030BLANCO, ELISA                           202401092400940321000000070547652000017085466200001366821000000240035492
2204631570202046315740000000001100001701305015ROBLES, WALTER RICARDO                  202401092400920323000000180598622000010364205200000758631000000308617472
2146978920201469789250000000001100000242110016RAMIREZ, CARLOS ALBERTO                 202401092400940325000000429015142000011051010200000781211000000588768422
2121056210201210562170000000000000000000000000LUQUE, EMILIO MARTIR                    202401092400940328000000173894442000001507120200000120561000000188845082
2279904120202799041260000000001100004523207030COSSIO, CRISTIAN FEDERICO               202401092400940330000000307752652000012434136200000867961000000469965582
2338395010233383950190000000000000000000000000LIPPS, DIEGO LUIS                       202401092400980331000000197435302000043804027200003504281000000939339612
2057063940270570639420000000000000000000000000BARRERA, ANGELICA                       202401092400970332000000027016902000022513068200001801061000000270495772
2204513740272045137460000000001100004671101030PELLIZZARI, NORA DEL CARMEN             202401092400930333000000107883582000002630572200000210451000000133978852
2227845950202278459540000000000000000000000000ACOSTA, RUBEN HORACIO                   202401092400910336000000238877532000050449402200004035951000000763512802
2172515560271725155630000000001100004677007030CONDE OLGADO, NÉLIDA                    202401092400940342000000226875292000008141176200000614311000000466396222
2200906140202009061450000000000000000000000000VALUSSI, CARLOS ALBERTO                 202401092400940343000000106001692000137792235200010432751000001473491292
2179431100201794311070000000001100000195304021RIVERO, LUCIANO HUMBERTO                202401092400950345000000481406702000074792880200005983411000001223352092
2253691110202536911160000000000000000000000000TYWONIUK, ARIEL ABELARDO                202401092400980346000000194279782000030444560200002435541000000809238842
2079310490200793104930000000001100000617904001FUENTES JUAN CARLOS                     202401092400950347000000228026352000019941965200001595351000000453871652
2076795900200767959090000000000000000000000000RODRIGUEZ, DOMINGO RAMÓN                202401092400950348000000456375442000061925164200004922681000001085037402
2273248790272732487950000000001100000172201021ZALAZAR, MARÍA LORENA                   202401092400950349000000557904312000082939240200006602451000001382694262
2182796030231827960340000000000000000000000000ENCINA, NILDA ELENA                     202401092400940351000000166784562000019973339200001597871000000368619582
2312943360203129433610000000001100004870704030KISZKA, JOSE MARIA                      202401092400910352000000620906522000010973783200000877901000000866198952
2306143420273061434200000000001100004745510030GAITAN, NOELIA ANDREA                   202401092400940353000000033977972000020626547200001650131000000301098212
2179148670271791486710000000000000000000000000GIMENEZ, NANCI BEATRIZ                  202401092400980356000000173989202000023094036200001847531000000615529762
2135928380201359283810000000001100004746300030GODOY, JUAN CARLOS                      202401092400940357000000120854052000010943306200000875481000000229411632
2213069060202130690640000000000000000000000000AMBROSIO TODARO, CIRO FERNANDO          202401092400920358000000130068162000054107807200004328631000000713176962
2239150170232391501790000000001100004707400030GOMEZ, JORGE ALFREDO                    202401092400930359000000125143782000015554389200001244361000000279443312
2218620140272186201460000000001100000621504001RAJCKAKOWSKI, LILIANA GABRIELA          202401092400950360000000021396281000110639173200008851091000001496720162
2139606500201396065080000000001100000005508011ORTIZ, FRANCISCO RAFAEL                 202401092400950362000000214233492000009549725200000763981000000322816762
2269803670272698036790000000000000000000000000SANCHEZ, CINTHIA VERONICA               202401092400990363000000281673482000024584364200001966751000000525550372
2316127940203161279410000000000000000000000000BIAZONI, MARIANO ANTONELLO              202401092400970364000000167175062000047336477200003724541000000638814542
2142246270271422462740000000000000000000000000NAVARRO, NORMA INES                     202401092400960365000000202095162000057624645200004609941000000773731672
2281223280272812232890000000001100007350610030OLDERBURGEN, ANGELA BEATRIZ             202401092400940366000000101953652000004912902200000393031000000157262192
2066966980230669669840000000001100000719207001GOI, TERESITA MARIA                     202401092400950367000000278201332000003634133200000290731000000310521782
2140853230201408532330000000000000000000000000DEL VALLE, DESIDERIO JORGE              202401092400940368000000487005462000005665954200000453281000000543211722
2232735430272327354360000000001100001674600015VALDEZ, NANCY ETELVINA                  202401092400910369000000054953042000005652325200000452191000000111024102
2205917320202059173230000000000000000000000000CORREA HECTOR DANIEL                    202401092400950370000000106923562000042430715200003394461000000528835452
2248162160272481621690000000000000000000000000PEÓN, VERÓNICA BEATRÍZ                  202401092400950373000000056126842000017190089200001375211000000202892522
2264183120202641831200000000001100004568209030BENOIST, SERGIO ANIBAL                  202401092400930375000000177057762000025980719200002078461000000655129432
2349664090203496640980000000001100000165904025MICHELINI, RODOLFO OSCAR                202401092400960376000000213278742000023694694200001895551000000605482032
2220029240202200292480000000001100000646307001ROBLES, GUSTAVO ADOLFO                  202401092400950377000000418958452000030575811200002364411000000899229302
2246325430202463254300000000000000000000000000SABLICH, DIEGO ORLANDO                  202401092400910378000000488568742000051019685200004081591000001066013152
2121203580201212035890000000000000000000000000IZQUIERDO RICARDO                       202401092400970381000000075611942000081489390200006360901000001076294692
2218493860272184938610000000000000000000000000JIMENEZ, CLAUDIA MONICA                 202401092400950382000000464506602000169631455200013571181000002322948472
2289554660202895546620000000001100000560507018MORIENEGA, EUGENIO VICTOR               202401092400980383000001457852252000112180511200008974401000003583572312
2130364250271303642550000000000000000000000000ROMAN, ANA NIEVES                       202401092400990389000000054379922000015405194200001232411000000196056202
2274719050202747190530000000001100113507401030ZAMPEDRI, JUAN EDUARDO                  202401092400940390000000413621382000015367498200001229391000000566066972
2246064610202460646100000000001100000015504014TERZICH, NORBERTO RICARDO ARIEL         202401092400950392000000130843212000013049948200001044001000000407704692
2331459180203314591870000000000000000000000000GUTIERREZ, FERNANDO ANDRES              202401092400980393000000189251962000399895796200031991621000004204227052
2288584160272885841630000000000000000000000000RADA, PAMELA ELISABETH                  202401092400910396000000103169482000013196418200001055701000000338222452
2290202680202902026800000000000000000000000000OPAT, RODOLFO ANTONIO                   202401092400950397000000144676682000024659940200001972791000000601701742
2079271810200792718110000000001100001680608015JIMENEZ RUBEN LUIS                      202401092400920399000000441074672000001032297200000082591000000451315052
2312548080233125480890000000000000000000000000SORIA,  NAHUEL SEBASTIAN                202401092400990403000000001200002000000000000200000000001000000001200002
2109802810201098028170000000000000000000000000GALEANO, ISIDRO                         202401092400920404000000144689121000001724016200000137921000000127586881
2246875540202468755460000000000000000000000000ORTÍZ, DANIEL CHRISTIAN                 202401092400980405000000068591422000000867790200000069421000000077199902
2356905610203569056100000000000000000000000000FERNANDEZ LARRE GONZALO EMANUEL         202401092400910406000000049160552000004914302200000393151000000097910422
2221924300232219243040000000001100013316309030ALBARIÑO ANA NOEMI                      202401092400910409000000113971602000005216455200000417291000000305362662
2327124140203271241460000000001101111111111025SALIVAR ALEJANDRO MIGUEL                202401092400960411000000092724982000008848065200000707851000000216935282
2084948950200849489510000000000000000000000000QUIROGA, CARLOS RENE                    202401092400970412000000033169952000001259864200000100791000000005960302
2230595890202305958960000000000000000000000000SANCHEZ, ALEJANDRO DANIEL               202401092400930413000000003476131000011397340200000911791000000109585482
2354966150273549661530000000001100001606001030PENAYO GISELLE ANAHI                    202401092400940414000000335811472000052778675200004222311000001050201072
2323025980273230259890000000000000000000000000GUTIERREZ REGINA MARIA PIA              202401092400990416000000175421962000022569776200001762661000000421893362
2269639380202696393860000000000000000000000000VELAZQUEZ CARLOS ALEJANDRO              202401092400990418000000127653942000047269218200003781551000000622431272
2295468560202954685650000000001100000786101001GIULIONI, JOSÉ AGUSTÍN                  202401092400950419000000091320662000007878609200000630271000000193782232
2247973750202479737540000000001100000823510030FERNANDEZ, DARDO ANDRÉS                 202401092400940420000000140624732000016414785200001313201000000375506982
2304860810203048608130000000000000000000000000NOGUERA PRIETO JAVIER ALBERTO           202401092400990421000000026550032000014559754200001164771000000170982802
2307086020203070860270000000000000000000000000MORANTE DIEGO MARCELO                   202401092400980422000000088231472000044486406200003558921000000529536612
2216264340272162643420000000001101111111111030OVIEDO, MARIA GABRIELA                  202401092400940423000000037819931000008143114200000651431000000042959782
2172494370231724943740000000000000000000000000GOMEZ SUSANA RAQUEL                     202401092400980424000000127699822000021235020200001698821000000353749652
2243979270202439792780000000000000000000000000MOLINA DARIO FABIAN                     202401092400920429000000359598432000004299030200000278041000000412932142
2273689330202736893390000000001100003973402030SOLIS JUAN CARLOS                       202401092400930430000000342203352000004548434200000363881000000519176762
2204516390202045163920000000000000000000000000COLUSSI SERGIO ORLANDO                  202401092400920431000000236379542000026778868200001938771000000497501732
2316655050273166550550000000000000000000000000PUERTA BARBARA LISANDRA                 202401092400940432000000142012842000015741502200001259311000000399846552
2103742660201037426690000000000000000000000000SOROCZUK CARLOS ROBERTO                 202401092400970433000000311362532000003451241200000276111000000345598832
2338398400233383984090000000001100001485102001GIULIONI LUIS                           202401092400950436000000021069242000006277999200000502231000000204033502
2163672510271636725160000000001100002032809030NASIR ALICIA FLORENTINA                 202401092400940437000000181829712000025898575200002071881000000521498582
2313775160273137751650000000000000000000000000VINA SIMONICINI LORENA                  202401092400970439000000137106702000039969735200003197581000000646329722
2076231130200762311340000000001100000034401012ROBLEDO, JUAN OMAR                      202401092400990441000000091752092000026711937200002097891000000399820222
2275568970202755689700000000000000000000000000DEYDAR, HÉCTOR OSVALDO                  202401092400960443000000271335282000014299858200001143991000000979065022
2352853600273528536020000000000000000000000000OJEDA, YAMILA TRINIDAD                  202401092400990444000000258101142000012133973200000970731000000378470142
2259047400202590474050000000001100002143601030MOLARES MONTEIRO, FERNANDO GABRIEL      202401092400940445000000060453802000012386785200000990941000000293833212
2344789580203447895850000000000000000000000000RAMIREZ, NILSON RODRIGO                 202401092400940447000000181083432000007123579200000569891000000277451262
2387664740203876647430000000000000000000000000RODRIGUEZ JIMENEZ, MIGUEL EDUARDO       202401092400950448000000078573971000003826483200000306131000000059423521
2167067530271670675360000000000000000000000000BRASCAR, MIRIAN ELIZABETH               202401092400990450000000334636872000009845471200000787641000000439613942
2263392530272633925370000000000000000000000000AMARILLA, LORENA ELIZABETH              202401092400990451000000066264152000003724016200000297921000000123257392
2302905000203029050030000000000000000000000000PARED, MARCELO SEBASTIAN                202401092400910453000000066553302000003581122200000110701000000102253822
2397519190203975191990000000000000000000000000RODRIGUEZ JIMENEZ, ANTONIO ALEXIS       202401092400950454000000000591272000031003946200002480311000000356916172
2405859140234058591490000000000000000000000000MENDEZ, TOMAS FEDERICO                  202401092400970456000000050559642000015350355200001228031000000217533412
2139018840201390188430000000001100000270409014RAFFIN, JORGE FERNANDO                  202401092400950457000000319977912000082701074200006616091000001140372562
2221977160202219771660000000000000000000000000LATORRE, GUILLERMO ALBERTO              202401092400960458000000060613572000000000000200000000001000000058111072
2340357770233403577790000000000000000000000000ESCALANTE, GERARDO GASTÓN               202401092400990459000000188844472000016789860200001343181000000389612442
2311950760203119507630000000001100000560605018MORIENEGA, MIGUEL ANGEL                 202401092400980461000000013455211000025194162200002015531000000405577632
2083068190200830681920000000000000000000000000AGUIRRE, GUSTAVO OSCAR                  202401092400990462000000042868572000008927399200000714171000000310726642
2240938050272409380520000000000000000000000000GONZALEZ, GRACIELA CLAUDIA              202401092400990463000000023501152000005155803200000412471000000082650212
2410828560204108285620000000001100000112410021GÓMEZ, SANTIAGO                         202401092400950464000000596537152000078613384200006289051000001377131942
2272774870202727748710000000001101111111111001CHEJ, SERGIO ADRIAN                     202401092400950467000000202987242000013206189200001056511000000333993372
2216187910202161879120000000001100002260401030GONZALEZ, ORLANDO GUSTAVO               202401092400910468000000235074982000002421301200000193701000000259094292
2353051170273530511780000000000000000000000000RAMIREZ, LIZ ANABEL                     202401092400990469000000124918462000006316498200000505341000000161635852
2393150390203931503950000000000000000000000000BARRIOS, MATÍAS JUAN MANUEL             202401092400980470000000306378962000051553821200004124321000000896034482
2060743730270607437330000000000000000000000000SAUCEDO, ANTONIA                        202401092400950473000000151857282000145703594200011656261000001925986712
2305172410273051724190000000000000000000000000GARCÍA, ELENA                           202401092400980475000000091055832000000000000200000000001000000343284622
2361168020203611680200000000000000000000000000FORLIN DELLACASA, LEANDRO NAHUEL        202401092400950477000000256720532000069958795200005596681000001130830682
2293660260272936602690000000000000000000000000INSAURRALDE, CYNTHIA SABRINA            202401092400960481000000303078872000012351318200000988111000000426095442
2163756260231637562690000000000000000000000000GUTIERREZ, HUGO OMAR                    202401092400980482000000116986572000015479311200001238321000000315522862
2286612680272866126820000000000000000000000000DIP, CLAUDIA CECILIA                    202401092400940487000000168625272000052811625200004170851000000692572422
2241536320202415363280000000000000000000000000ESPINOZA, JOSÉ LUIS                     202401092400990488000000063141582000003991031200000319281000000102877112
2059162480270591624840000000001100000507804003RODRIGUEZ, CELINA                       202401092400960489000000059280492000136116445200010889331000001663383612
2302143760273021437600000000000000000000000000LÓPEZ CRISTALDO, NORMA EMILIA           202401092400910490000000085107422000005175171200000414011000000209020602
2274352250272743522510000000001100000050808025LEGUIZA, FRIDA AMALIA                   202401092400960491000000026623162000008855567200000708441000000147439142
2226872130272268721380000000001100011069906030VILLALBA, MARCELA ALEJANDRA             202401092400910492000000284609332000021581157200001726481000000498694422
2108765290271087652970000000001100000370208021VEGA, NILDA                             202401092400950493000000177323992000004983501200000398691000000259866812
2310850570273108505730000000001100000078210027JUDKEVICH, PAOLA LUCRECIA               202401092400960496000000047255721000010898620200000871871000000069188612
2336129660233361296640000000000000000000000000RAMIREZ, VALERIA EVELIN                 202401092400940497000000595785192000157935643200012634811000002434866562
2100259710271002597160000000000000000000000000BILINSKI, OLGA MARÍA                    202401092400920501000000312950732000002096183200000167691000000406786282
2280003480202800034850000000001100000129309024BARRIENTO, SERGIO ALCIDES               202401092400990504000000314620052000002441723200000195351000000354483932
2317866950203178669500000000000000000000000000FALCON, CESAR AUGUSTO                   202401092400910505000000429638652000017581447200001406521000000807195302
2139995100201399951050000000001100007644500030ALMADA, EULOGIO CARLOS                  202401092400910506000000005339502000000000000200000000001000000005339502
2348984420273489844250000000001100123139200030RIZZI, IVANNA YANELA                    202401092400920511000000139608422000023735984200001898881000000450712302
2238138570202381385750000000001100005289708030LEDESMA, GUSTAVO HERNÁN                 202401092400990512000000351051092000032066858200002565361000000669154312
2307055710203070557170000000000000000000000000PARRA, MAURO ARIEL                      202401092400910513000000247319652000010047546200000803791000001366920002
2313988250203139882530000000000000000000000000BONDARUK, MAURO LEANDRO                 202401092400970514000000240355092000010108440200000808681000000340630812
2315694150233156941590000000000000000000000000ORTIZ, MARTIN ENRIQUE                   202401092400940516000000135176292000007821926200000625751000000212769802
2332141130273321411340000000001100114340704030TOSSI, ELVIA MIREL                      202401092400910519000000096501272000000000000200000000001000000293012132
2200926410272009264180000000001100000658009003GAUNA, ELENA BEATRIZ                    202401092400960520000000091473162000007063063200000565051000000161538742
2328551740203285517490000000001100007121607030SCHELOVER, WALTER ALFREDO SEBASTIAN     202401092400940522000000273581872000010536453200000842901000000394600852
2400334030204003340300000000001100000121409014BLANCO, DENIS IVAN                      202401092400950523000000062724702000004110372200000328841000000103499582
2206513330202065133310000000000000000000000000RAFFIN HECTOR EDUARDO                   202401092400950524000000119007782000018644453200001491551000000313701262
2116621710271166217170000000000000000000000000AREVALO, CRISTELA                       202401092400990525000000114940012000008564178200000685141000000265183152
2124658420271246584250000000001100000281010014ASELLE, MARIA DEL CARMEN                202401092400950526000000033343191000019132171200001530581000000524906492
2333831590273338315920000000000000000000000000PRO CARLA DANIELA                       202401092400940527000000076872812000013535119200001082801000000272218552
2262216010202622160130000000000000000000000000ALEGRE JUAN DANIEL                      202401092400990528000000115581442000012221485200000977731000000090603862
2401754180204017541810000000001100000285608004IMFELD, SANTIAGO GABRIEL                202401092400980529000000086468622000003187605200000254991000000133509662
2262076150202620761570000000000000000000000000RAMIREZ, MIGUEL ANGEL                   202401092400990530000000258446262000017557386200001404621000000477603252
2201573570272015735780000000000000000000000000RAMONA ALBERTINA GATTO                  202401092400970531000000160789562000043547850200003483781000000628808582
2243294100202432941000000000000000000000000000ROMERO, CARMELO LUIS                    202401092400990533000000234869822000022106395200001768501000000611273232
2104082770271040827720000000000000000000000000MARIA JULIA SANDOVAL                    202401092400920534000000002600002000000000000200000000001000000002600002
2048917690270489176960000000001100000304300015DIAZ, LUCIA AURORA                      202401092400920536000000738717382000011673618200000933871000000861695442
2183075040271830750420000000001100007760009030AGUIRRE, BLANCA ESTER                   202401092400910537000000074082902000002763250200000221051000000087118202
2343522230203435222320000000000000000000000000ROA, SAMUEL NICANOR                     202401092400910538000000015358062000001373392200000109871000000403916242
2313084310273130843160000000001100007460307030VILLALBA, DELIA LEONOR                  202401092400920544000000132016142000000036000200000002881000000135073262
2377969970233779699790000000001100007764106030CALVO, DIEGO BLAS                       202401092400910545000000059076572000044229898200003369081000000550746952
2253844940232538449490000000000000000000000000ISSA URIEL ALEJANDRO                    202401092400970548000000152865962000061099743200004888001000000904746332
2242502150232425021590000000000000000000000000CADAVIZ, LUIS MARIA                     202401092400960549000000323806202000125904390200010072371000001629732732
2238613080272386130810000000001100011097606030PAVON, MONICA GRACIELA                  202401092400910551000000128881752000000000000200000000001000000128881752
2236351410272363514110000000001100007969800030RETAMOZO, GLADIS BEATRIZ                202401092400920552000000108315202000013272211200001061761000000239975552
2385385120273853851240000000000000000000000000TREPPO, MACARENA AYELÉN                 202401092400990554000000117584042000010465265200000837211000000393330232
2264899500202648995090000000000000000000000000TARTAGLINO, DARIO ALEJANDRO             202401092400970556000000356942862000058604220200004688321000001117989442
2258773390202587733900000000000000000000000000OJEDA, LUIS WALTER                      202401092400980558000000094409622000003043831200000243511000000124604422
2301995090273019950970000000000000000000000000RAMIREZ, LILIAN NOELIA                  202401092400990559000000093780612000007946292200000635701000000172607832
2332144460203321444650000000001100002233001030CUESTA, DARDO GERMAN                    202401092400930560000000163463372000044878400200003590251000001182436682
2250897750202508977590000000000000000000000000VILLARRUEL, OSCAR ALEJANDRO             202401092400940563000000058461492000012009042200000960721000000220991492
2297207410202972074160000000001101111111111030FERNANDEZ, MARCELO JOSE                 202401092400930564000000123594012000017807500200001424641000000494632272
2353053540273530535450000000000000000000000000VALLEJO, CARLA ARACELI                  202401092400970565000000101597332000195572033200015645761000002194763202
2401754900204017549040000000001100000297206004HASSAN MAHMUD, NADIR DIONEL             202401092400980566000000140174452000010141336200000811311000000294986252
2324739890273247398960000000000000000000000000LUSA, MARIA LAURA                       202401092400950567000000097374222000013661200200001092901000000619684702
2143761660271437616600000000001100000034608022CARO CLARA ESTELA                       202401092400970568000000080875312000039337701200003146991000000471105332
2303703630273037036380000000000000000000000000BUYATTI, DANIELA ELISABETH              202401092400990570000000070262002000001212143200000096971000000092880962
2362105170203621051700000000001100000340100017ALMADA, LEONARDO ALEJANDRO              202401092400920571000000019912102000001412821200000113031000000033948282
2141411080201414110800000000001100001715703001VEGA HORACCIO OSCAR                     202401092400950573000000240558962000000975927200000078081000000224709152
2272772640272727726440000000000000000000000000MEDINA, MARÍA ELENA                     202401092400950575000000096004432000056241345200004499341000000697996442
2281258040202812580450000000001100003997110030VALLINA, GUSTAVO ADRIAN                 202401092400910576000000167742552000000000000200000000001000000167742552
2340337140273403371450000000001100008684402030AMBROGGIO, ALEJANDRA SOLEDAD            202401092400930577000000097631732000034666097200002728801000000441563902
2248071270202480712740000000001100002158702030BAZ, DARÍO ALEJANDRO                    202401092400940579000000020613891000029979857200002398391000000469689752
2273778910202737789190000000001100003920801030CARRIO, JUAN PABLO                      202401092400910580000000232630302000026375449200002110011000000494274782
2172905020271729050270000000000000000000000000GOMEZ, HILDA JULIANA                    202401092400910582000000382628972000004086896200000326971000000426170962
2286608440272866084480000000001100009684701030RAMIREZ, LIDIA YAMILE                   202401092400940583000000069269441000005564740200000445171000000014067211
2281258410232812584190000000001100008922210030PALACIOS, HECTOR FABIAN                 202401092400920584000000106527802000003845694200000307661000000257790912
2303809600203038096010000000000000000000000000KIEWCZUN, BENJAMIN TEODORO              202401092400910585000000095167931000002093820200000167511000000074397241
2074339860200743398680000000001100000444203017MARI, PEDRO OSCAR                       202401092400920586000000063924422000001183219200000094661000000081429232
2310851020203108510280000000000000000000000000RODA, ELBIO JAVIER                      202401092400960588000000004800672000000000000200000000001000000004800672
2259861070202598610720000000000000000000000000IVAN, ALEJANDRO HORACIO                 202401092400960589000000192812132000066712563200005329331000000914997632
2324892890273248928990000000001100009572705030MARTINEZ, MARÍA ALEJANDRA               202401092400920590000000211727242000003012088200000240971000000245395302
2180216140271802161410000000000000000000000000GONZALEZ SILVIA NOEMI                   202401092400920591000000082676782000018590713200001487271000000287096642
2204949070272049490720000000000000000000000000VELAZQUEZ, ISABEL SUSANA                202401092400970592000000012195182000003469688200000277571000000046614492
2389700110273897001130000000000000000000000000CABALLERO, DEBORAH ELIANA               202401092400980593000000007299212000008046648200000643721000000172482472
2288583510202885835100000000001100013175102030GARAY, JOSE MARIA                       202401092400910594000000278673652000000060729200000004861000000365816362
2167031390271670313960000000000000000000000000YULAN, MARIA SUSANA                     202401092400970595000000041525172000021560440200001724841000000355040382
2306261790203062617980000000001100000728707018ORELLANO, ALFREDO GERARDO               202401092400950598000000199741932000011053786200000884291000000808217502
2348984410273489844170000000001100007460503030RIZZI, GEORGINA LORENA                  202401092400940599000000241601362000049058502200003924661000000729861722
2253643700202536437070000000000000000000000000GUILLEN, JORGE HORACIO                  202401092400950601000000660306612000087166934200006973351000001749785352
2434379840274343798440000000000000000000000000MENDEZ TREVISAN, SELENA FIORELA         202401092400990602000000201034352000010859067200000868741000000334210032
2142244760201422447650000000001100000728707015AYALA, JUAN ANIBAL                      202401092400910603000000222485462000002606519200000208511000000249342142
2381907250203819072530000000000000000000000000MACIEL, FRANCO DAVID                    202401092400920604000000292842122000020975783200001595141000000501004812
2213420800272134208070000000000000000000000000CORREA, SONIA YANINNE                   202401092400970605000000056880022000005796755200000463731000000114383842
2307301560203073015640000000000000000000000000INCOFF, JUAN CARLOS MIGUEL              202401092400970606000000517553842000062278231200004822901000001464006352
2319722980203197229800000000001100009443806030SANTINELLI, MAURO ANGEL                 202401092400910607000000618391602000022418591200001793521000000842782992
2301669440203016694460000000001100009752605030FLORES, ROLANDO FABIAN                  202401092400940608000000130890952000011445901200000915671000000244434292
2305665490203056654960000000000000000000000000ESCOBEDO, LUCAS GONZALO                 202401092400960609000000068106312000000395436200000031631000000072029042
2246006120202460061220000000000000000000000000ESTECHE, MAURICIO RAFAEL                202401092400960610000000091021192000043647720200003491771000000535006622
2140446930231404469390000000001100001609504001MENDOZA, JOSE RODOLFO                   202401092400950611000000077701822000027033174200002162691000000492788232
2267076960272670769660000000000000000000000000GARCIA, CAROLINA JAQUELINA              202401092400910612000000113309122000008733897200000698711000000411728882
2267197870202671978740000000000000000000000000CONFORTI, JUAN PABLO                    202401092400980613000000189415372000001734970200000138801000000706271522
2108518200201085182010000000001100000265006012ROJAS, JOAQUIN NELSON                   202401092400990614000000115967242000005747959200000353721000000199767282
2427370140204273701440000000000000000000000000GIMENEZ OJEDA, FEDERICO IVAN            202401092400990615000000192159122000019272982200001541821000000466952372
2304841950273048419530000000001100009721206030CARDOZO ROMERO, GABRIELA ADELIA         202401092400960616000000020918862000002408346200000192671000000060809152
2387648010203876480120000000000000000000000000ROMERO, FRANCO JOAQUIN                  202401092400990617000000085075882000006445251200000515601000000149013542
2128671410271286714180000000000000000000000000VERA, MARIA ELENA                       202401092400990618000000085520901000055690946200004332981000000706925632
2179860600201798606010000000001100000242502012ORTEGA, ENRIQUE GABRIEL                 202401092400990620000000143517222000035874532200002869971000000647165372
2141564940201415649440000000001100000498803017ROUSSELOT, GERARDO MARCELO              202401092400920622000000086596562000004097813200000327831000000190392662
2350476020203504760250000000000000000000000000ALVAREZ, EZEQUIEL DARIO                 202401092400990623000000042291962000003910981200000312881000000358163392
2286609400202866094070000000001100005649203030OJEDA, JUAN ALBERTO                     202401092400920624000000004600002000000000000200000000001000000004600002
2429843060204298430660000000000000000000000000RODRIGUEZ JIMENEZ, MAXIMILIANO FACUNDO  202401092400950625000000052749202000027638790200002211111000000498267742
2141941640271419416450000000001100134311808030RUIZ DIAZ, MARIA JOSEFA                 202401092400940628000000140492542000000267357200000021391000000213541272
2216188880202161888890000000000000000000000000GARCÍA, FABIÁN CARLOS                   202401092400910629000000201388052000011061383200000884901000000603300232
2354668010203546680180000000001100011139510030VELOSO, JUAN MARCELO                    202401092400910630000000274383632000009701677200000776121000000370624282
2135791290271357912910000000000000000000000000CUÑADO DORA SOFIA                       202401092400930633000000006605292000000000000200000000001000000006605292
2205918070202059180790000000001100000504301017LÓPEZ, SERGIO DANIEL                    202401092400910634000000185274292000002019056200000161531000000205303322
2183950520271839505200000000001100133873302030MIEREZ, ALICIA                          202401092400940635000000212117072000069424194200005553951000001065646112
2232733080202327330800000000001100011663110030NIKCEVICH, JORGE DARÍO                  202401092400940636000000087768492000007713132200000617041000000164282772
2311098210203110982180000000001100011141203030BESGA NASIR, MAURO ANDRÉS               202401092400920637000000275383932000030202156200002363111000000658951492
2292196060272921960620000000001100000804101018EPINAL, ARIELA BEATRIZ                  202401092400980638000000143980172000002495021200000199611000000163705272
2316987210203169872150000000001100000427703013QUIROGA, CARLOS JAVIER                  202401092400970639000000445356292000151344615200011759921000002077413552
2433350580204333505890000000001100000429207005TELLIER VERON, JORGE ABEL               202401092400990640000000109258542000000062239200000004981000000145077802
2128288270271282882740000000001100000172506009PACHECO, MARIA LUISA                    202401092400960641000000189603502000004483620200000358681000000234081022
2276150420202761504220000000000000000000000000VALLEJOS, DIEGO EMANUEL                 202401092400990642000000094378842000001789696200000143181000000112132622
2238595970202385959760000000001100011389807030LEONARD ALBERTO ENRIQUE                 202401092400930643000000185279352000035562456200002844991000000538058922
2361161110233611611140000000001100001050410016PENAYO, ANABEL ERIKA                    202401092400940644000000122250772000008829797200000706371000000295776252
2114064830271140648370000000001100011300310030PORTALUPPI, MIRTA GRACIELA              202401092400910645000000186314802000011636882200000857001000000534762672
2166500540201665005410000000001100000690708018BECHER OSCAR EDUARDO                    202401092400980646000000326750082000002265547200000181241000000349224312
2364942890203649428940000000000000000000000000SALINA SENA, ERNESTO EZEQUIEL           202401092400910647000000054423222000000000000200000000001000000054423222
2332143580273321435870000000001100011295210030MÜLLER, MARIA NOEL                      202401092400910648000000139792552000003216341200000257311000000218203152
2216862960272168629670000000001100011306510030SAPIEGA, GLADYS PATRICIA                202401092400940650000000075433042000003334776200000266781000000108514022
2361982870203619828790000000001100000509101017ZIOLKOWSKI, NORBERTO AUGUSTO            202401092400910651000000185005622000012390973200000991281000000451552522
2246329770272463297750000000001100001048107016RIVERO, MARIA SILVIA                    202401092400920653000000214271532000019441919200001555361000000485631572
2223431880272234318820000000000000000000000000LEVITT, LORENA GRISEL                   202401092400940654000000079570262000003410209200000272811000000113399542
2167065410201670654150000000000000000000000000ASSEL, CARLOS ORLANDO                   202401092400970655000000048075632000005067864200000405441000000092586332
2348819320203488193220000000001100000364505004GASPAR, HERNAN ULISES                   202401092400980656000000029335342000006250684200000500051000000138755882
2345694330273456943370000000001100000246904024AQUINO, RAMONA BEATRIZ                  202401092400990657000000100228482000002982339200000238581000000183080422
2111716040271117160430000000001100118822407030GARECA JUANA OBDULIA                    202401092400980658000000119219162000000000000200000000001000000325539412
2234064630272340646360000000000000000000000000MARIN, ANALIA                           202401092400950659000000097144732000006422872200000513841000000185244612
2174938290201749382970000000000000000000000000SANCHEZ JOSE HIPOLITO                   202401092400950660000000097904432000018048974200001443921000000290039502
2306268430203062684310000000001100001722806001COLLADO, DANIEL OMAR                    202401092400950661000000100717792000003199654200000255971000000201466862
2146791660271467916680000000001100011972301030MACIEL, MIRTA GLADIS                    202401092400940662000000002453821000010479243200000838341000000068256202
2229122530202291225340000000001100012082009030ACOSTA GUSTAVO ADOLFO                   202401092400940663000000066328702000003066586200000245331000000096749232
2270818770202708187740000000001100000703501013ZABALA, JUAN DIEGO                      202401092400970665000000046662532000020072925200001605821000000217963212
2301408880233014088890000000000000000000000000GASPARINI,MAURO DANIEL                  202401092400960666000000065922652000018524620200001481971000000249687382
2230111720202301117240000000001100000617000005ESCALANTE, FABIAN APOLONIO              202401092400990667000000055191882000000449937200000035991000000059655262
2235048190272350481970000000001100011098200030ALVARES, MARCELA ANALIA                 202401092400970668000000116406662000009191141200000735291000000294111832
2322778520203227785200000000001100000716902013PASSIMO, MARTIN CRUZ                    202401092400970669000000100224012000056303713200004504321000000944144172
2393067830203930678380000000000000000000000000SAGUIR, ALEJANDRO ELÍAS                 202401092400950670000001103105092000018853724200001508301000001393168282
2337304000203373040020000000000000000000000000BLANCO, RICARDO MAURICIO                202401092400940672000000138889002000005690141200000455221000000160188282
2102831830201028318380000000001100012068010030MONZÓN, JUAN RAMÓN                      202401092400980674000000078996462000000000000200000000001000000078996462
2338598310233385983190000000000000000000000000TADINACK, EMMANUEL MARTIN               202401092400970675000000339077022000012924025200001033901000000467283372
2374545660273745456690000000001100000286202025AGUIRRE, MARÍA ELISABET                 202401092400960677000000042373022000001438269200000115051000000060340662
2289279010272892790110000000001100001118604016KIEWCZUN, JULIA MARIA                   202401092400920679000000188387092000021135385200001647091000000398093852
2409685840274096858410000000001100101274100005IBAÑEZ SILVESTRI, AGUSTINA              202401092400990680000000156666842000013503291200001080221000000423101532
2245594000202455940040000000001100012231000030CAMARASA, EMILIANO FERNANDO             202401092400930681000000098577412000027147641200002171811000000288314512
2326719830203267198390000000000000000000000000GUTIERREZ, ADRIAN ROBERTO               202401092400930683000000651311982000070696360200005655751000001458781432
2310850790233108507990000000000000000000000000PEREZ STROHSCHEIN, FRANCO NICOLAS       202401092400960684000000559378002000448238328200035838081000005003846202
2393140370203931403730000000001100000636300005ALONSO, ROBERTO FRANCO                  202401092400990685000000051600762000004894748200000391591000000140345562
2209842290272098422920000000001100000873000003VILLORDO, MARÍA ALEJANDRA               202401092400960686000000158722052000032449264200002595931000000484118762
2213478520202134785250000000001100001799910001ROMERO, JUAN ALBERTO                    202401092400950687000000014962442000000000000200000000001000000014962442
2381941470273819414720000000001100012587503030PALACIO, ROSANA GABRIELA                202401092400950688000000070604292000018027837200001442221000000314528492
2169361600201693616070000000001100000442808008GODOY CARLOS OSVALDO                    202401092400970689000000057922812000006892453200000551391000000126295952
2449011800204490118060000000001100000405401004FIGUEROA KESQUE, VICTOR LAUTARO         202401092400960690000000092931292000011720975200000937681000000226894612
2405011950204050119570000000001100000448409014BARRETO, SANTIAGO NICOLÁS               202401092400950692000000482562432000020922352200001673781000000690112172
2176697690201766976960000000001100141463701030GALEANO, PEDRO ESTEBAN                  202401092400940693000000110196782000007582061200000606561000000171182762
2254640430202546404340000000001100000895705018IBAÑEZ, DANTE ARIEL                     202401092400980695000000068021622000001853934200000148321000000403780642
2255185860202551858620000000001100001435209015FERNANDEZ, CÉSAR DARÍO                  202401092400920696000000402327932000039214441200003137091000000791335252
2327289680203272896840000000001100003666902030DELLACASA, ADRIAN HUGO                  202401092400920697000000262902742000032166599200002413471000000582155262
2419435840274194358430000000000000000000000000AMBROSIO TODARO, CHIARA BELEN           202401092400920698000000150308192000015905820200001272461000000307761182
2383840120273838401260000000001100012982008030ACEVEDO, ADRIANA MARIA ITATI            202401092400980699000000113799302000003690604200000295251000000170648092
2412787590274127875900000000001100013000204030GONZALEZ, ARACELI BELEN                 202401092400910701000000087520482000000000000200000000001000000152177982
2175965220201759652200000000001100012975210030GOMEZ, RICARDO REINALDO                 202401092400920702000000147141302000005191135200000415301000000206637352
2335009320273350093260000000001100013021400030BAEZ, YANINA MARISEL                    202401092400980703000000091287462000013444638200001075571000000356139522
2312917710203129177190000000001100000465410014MACIEL, ENZO SEBASTIÁN                  202401092400950704000000185606152000018502777200001480231000000384795542
2079015140200790151490000000001100000872700015OJEDA, CARLOS LUÍS                      202401092400920705000000108033572000000000000200000000001000000108033572
2369249870273692498730000000001100001042201003RICO, FABIANA VANINA                    202401092400960706000000065921102000007108951200000568721000000136441892
2363682820203636828210000000001100000182905002BENES, CRISTIAN ALBERTO                 202401092400960707000000131903082000003590032200000287201000000383192712
2117543780271175437870000000001100013153007030MAMBRIN, MERCEDES GRACIELA              202401092400990708000000094041862000038369874200003069581000000541497022
2170356430201703564390000000001100301703003018NAVARRETE OSCAR                         202401092400980709000000055637012000000000000200000000001000000055637012
2294607230202946072350000000001100000333204012FLEITA FRANCISCO ANTONIO                202401092400990710000000361705702000025354338200002028311000000613220772
2427889470204278894760000000001100000350608010INGLANT MATIAS DANIEL                   202401092400970711000000353043542000171906733200013752571000002061357802
2434375460204343754610000000001100000474801014SALTEÑO LUCAS ADALBERTO                 202401092400950712000000020610391000000704489200000056361000000019374772
2129383190201293831950000000001100001060210003BONIARDI, RAÚL CLEMENTE                 202401092400960713000000108583021000006269170200000501541000000046392861
2323983620203239836240000000001100000344709014ACEVEDO, GERARDO DAVID                  202401092400950714000000057608132000000263042200000021051000000061017502
2446511170204465111740000000001100013432101030LOPEZ IVAN GABRIEL                      202401092400940715000000380248122000207723834200016589401000003009930022
2308081480273080814810000000001100000662006005PEREZ ANDREA ROMINA                     202401092400990716000000728938232000050350292200003454301000001228986852
2290127950272901279500000000001100000925706015ISMAEL GISELA YANINA                    202401092400920717000000170902502000005255580200000420441000000223037862
2079304420200793044260000000001100000969700018BAEZ LUIS ANGEL                         202401092400980718000000180298672000000296569200000023721000000185140642
2951463500279514635020000000001100132059305030BORMATAVA NADZEYA                       202401092400960719000000082375912000009533988200000762701000000193706592
2052494650270524946510000000000000000000000000SILVA, BEATRIZ                          202401092400960720000000252638132000139718120200011177471000001638641862
2274109340272741093490000000001100000921108015VELAZCO ADRIANA TERESA                  202401092400920721000000306207002000011707227200000936571000000454060582
2380071920203800719250000000001100000320805024GARCIA SERGIO HERNAN                    202401092400990722000000007748642000000553185200000044251000000046062242
2308081530203080815330000000001100000720709005RIVAS ENRIQUE SEBASTIAN                 202401092400990723000000435369981000000000000200000000001000000435369981
2300044810203000448170000000001100000475003006VECCHIETTI, ROBERTO ORLANDO             202401092400970724000000921468542000052478229200004198241000001517348592
2427890380204278903850000000001100013123106030ARGUELLO, GONZALO                       202401092400970725000000012728092000043173759200003453841000000501670342
2204133100202041331080000000001100013776908030SABADINI, EDUARDO RUBÉN                 202401092400930726000000003297192000011932714200000954621000000128458462
2369787560203697875600000000001100100515003024MARTINEZ, GONZALO                       202401092400990727000000046850072000002383474200000190681000000070494132
2361153650273611536560000000001100001980310030COLUSSI, PATRICIA NATALIA               202401092400910728000000160856772000037268025200002981451000000973978772
2242802100202428021020000000001100000439203004OJEDA, HILARIO RUBÉN                    202401092400980729000000003878172000001691353200000135301000000020656402
2121243910271212439170000000000000000000000000VIZGARRA IRMA PRESENTACION              202401092400960730000000075538442000001274822200000101981000000163218682
2311016280273110162830000000001100000725509005CHAVEZ, NOELIA                          202401092400990731000000034100802000010902219200000831821000000142291172
2294098130202940981360000000001100013835203030NIEVA, EDUARDO ANDRES                   202401092400970732000000067500832000000000000200000000001000000067500832
2184940310271849403160000000001100001324101016PERALTA, SILVIA BEATRIZ                 202401092400930733000000211038892000000000000200000000001000000262581222
2140377070201403770750000000001100014033406030BURATOVICH ANTONIO FRANCISCO            202401092400930735000000039061882000040900901200003215461000000444855432
2354666650203546666510000000001100013924804030CHETTOLO, JUAN FEDERICO                 202401092400940736000000157328052000000139303200000011141000000228556642
2168603340271686033420000000001100100539103013JUAREZ INGRID ROSANA                    202401092400970737000000137335682000004068450200000325471000000177694712
2302800340203028003410000000002100000136107024GOMEZ, BERNARDO RUBEN                   202401092400990738000000086222901000003644595200000291571000000050068521
2148888240271488882430000000001100000235900002GAMARRA, MARIA INES DEL ROSARIO         202401092400990739000000026943752000001004841200000080381000000046911782
2331441260203314412610000000001100000131709016RUBIO CHUAIRE JUAN ANDRES               202401092400940740000000292911462000000734268200000058741000000300196652
2225388360272253883640000000001100014007907030RAMIREZ ELOISA BEATRIZ                  202401092400950742000000160433822000006847507200000547801000000228361092
2319710430203197104350000000001100013863001030BRITEZ ALEJANDRO MANUEL                 202401092400940745000000474090382000018074910200001397331000000653442152
2452497480204524974850000000001100013943407001NASIR JUAN CRUZ                         202401092400990746000000121720292000025977225200001952711000000447122832
2255097920202550979200000000002100000499604014BRUIC ERIC CONRADO                      202401092400950747000000130774442000020474099200001637931000000333877502
2320887440273208874400000000001100014070007030LEIVA, NOELIA BEATRIZ                   202401092400940751000000045449272000005867669200000469431000000103656532
2393157920203931579260000000000000000000000000DURE ALEJANDRO TOMAS                    202401092400910755000000159102142000003291721200000263331000000193901232
2414134950204141349560000000001100014044007030JATCHUK NICOLAS DANEL                   202401092400960756000000087608412000000219228200000017541000000089783152
3202401092400900000406000009186649337000012349619723000000097910792000024099407435
