12021102021361                                                                                                                                                  
210283183020102831838000000000110012068010030MONZÓN, JUAN RAMÓN                      20211020213618067400000000100020000000010002000000100010000000010002       
233859831023338598319000000000000000000000000TADINACK, EMMANUEL MARTIN               20211020213617067500000000100020000000010002000000100010000000010002       
226374533027263745332000000000110012105800030PINSKER, VERONICA GRACIA                20211020213611067600000000100020000000010002000000100010000000010002       
237454566027374545669000000000110000286202025AGUIRRE, MARÍA ELISABET                 20211020213616067700000000100020000000010002000000100010000000010002       
320211020213610000000400000040000000000040000000004000000000004000                                                                                              
