12021122033001
223011404020230114049000000000111110738002001LAVIA EDUARDO RAUL                      20211220330011000100000261153620000051216662000004097810000073956241
213439832023134398329000000000110112127400001LAVIA VICTOR MANUEL                     20211220330011000200001456548820000059830132000004786310000205006382
207658492020076584924000000000110004708005030BONDAZ, LUIS ROLANDO                    20211220330014000700000531244820000209712382000016725210000261264342
221347051020213470516000000000111510574000001NAKASONE CLAUDIA                        20211220330015004600000675946720000149077632000011936210000259044031
204715115027047151150000000000000000000000000CARBALLO, MARIA LIDIA                   20211220330019004800000089018520000093708102000007525910000128810942
228165746020281657462000000000110000209105017GARCIA,ANIBAL MAXIMILIAN                20211220330011005600003483575920000029908662000002306010000391881002
207456992020074569928000000000110000183608012GIMENEZ,ROLANDO WALTER                  20211220330019006300000254608720000066594212000004912610000091563822
217497048020174970484000000000110003920300030SANCHEZ JOSE LUIS                       20211220330011007300000247620620000040110642000003208810000065955222
221347051020213470516000000000000000000000000DAMILANO, ALBERTO JAVIER                20211220330017007600000962422220000290602822000023262110000478401842
223084190020230841900000000000000000000000000MARI, CHRISTIAN ARIEL                   20211220330017008000000133057610000009650932000000777710000003732601
220263692027202636921000000000111111111111030DELLACASA, ADRIANA ELDA                 20211220330014008300000687554920000090593292000007182310000163438202
205916292027059162921000000000111111111111003JARA,ELISA LILIAN                       20211220330016010300001226265920000058609602000004545110000180781682
205875373023058753734000000000110003923106030LEZCANO,CLEMENTINA HAIDE                20211220330014010600000000000020000000AAAAD2000000000010000000001651
206649889027066498897000000000110003921700030MARTINEZ,MIRTA                          20211220330013011000000594299310000060547822000004641410000025728082
205142220027051422207000000000000000000000000FLEGO, MARIA M.KELLNER D                20211220330018011200000222989020000256327812000020519710000276574742
212784553020127845531000000000110000239104014PULJIZ, OSCAR A. LEON                   20211220330015011900000289719720000290574232000022935810000317252622
210027153027100271538000000000110000342900013QUIROGA,MARIA MEDINA DE                 20211220330017012400001455598120000324057282000026059010000508483962
220651370027206513700000000000110000270703001SCHEMBREG JUANITA GLADYS                20211220330015012600000122847710000063218502000005082510000051614492
218376825020183768256000000000111111111111001JULIAN, JORGE ORLANDO                   20211220330015012700000196553220000033041972000002585610000131466932
204941385027049413853000000000111425193000001NOVIK, NILDA                            20211220330016012800000124017420000009888392000000791010000022211032
207670309020076703095000000000110003924506030GAUTIER,JORDAN ALBERTO                  20211220330011013000000352531820000028625562000002299210000063648822
211168557027111685571000000000110000103607020NAIDENOFF LILIAN GLADYS                 20211220330017013200000362005020000338030322000027042310000377435092
212331111020123311117000000000110000587206001VIGANOTTI,CARLOS RODOLFO                20211220330015013300000184261720000385050982000030805810000400396572
221930505027219305058000000000111522240000001MACIEL, MARCELA SOLEDAD                 20211220330012013400000408609110000038023072000003046410000001682672
208075405020080754052000000000110000068606002ESPINDOLA,JORGE ALBERTO                 20211220330016013500000492256310000060627392000004854710000051557892
234300976020343009764000000000110000157804007SAGUIR, SERGIO ELIAS                    20211220330017013600000235286820000202959792000016243410000310962452
221347801020213478010000000000110000006004021MARCON, DANTE RODOLFO                   20211220330015013700001167676020000199835712000016020310000394420842
203272313027032723131000000000000000000000000PAJOR,ROSA INSAURRALDE D                20211220330016013900000162311620000345872052000027571210000359346092
220092029020200920296000000000110000607810001RAFFIN, CARLOS RAÚL                     20211220330015014000001890667420000216117822000017346110000435609352
225518259020255182596000000000111111111111015PEREZ, PABLO ADRIAN                     20211220330012014100000150146920000019830582000001499310000038315542
206159007027061590078000000000000000000000000PEREZ,ANGELA VERON VDA D                20211220330019014200002774155020000103446842000008080910000380054252
220094016020200940165000000000110003918302030ROBLEDO, ALFREDO EMILIO                 20211220330012014500000550862520000016260762000001300910000071216922
210025070020100250706000000000110000011505001KOCHOL,EDUARDO MILAN                    20211220330015014600000399995820000073442632000006071010000124722962
208381997023083819979000000000111111111111005SCHULZ,HERALDO ROBERTO                  20211220330019014800001506393720000107932732000008390110000257733092
224632451023246324514000000000110001680107015LOPEZ,ANDREA VERONICA                   20211220330012014900000564174820000033164782000002522410000118585902
221546267027215462671000000000111518655000001PICCINELLI KARINA                       20211220330016015400001153407220000137576642000011006210000245344412
211415356027114153562000000000111454734000001BAQUE, STELLA MARYS                     20211220330011015900000007499810000000112502000000009010000000638081
208046118020080461187000000000110000132805018DOMINGUEZ,ALDO                          20211220330018016000000916395020000070836232000005678710000161907862
205079296020050792960000000000111111111111010INGLANT,CARLOS                          20211220330017016100000538435820000282143062000021177110000421024812
212704608020127046086000000000110000253103023ZAISER,RAUL ENRIQUE                     20211220330017016300000267824020000068128772000005451610000089599712
223293248027232932487000000000110003915605030SALOMÓN, ESTER NOEMÍ                    20211220330013016400000092705810000000000002000000000010000009270581
217150973020171509735000000000110003916700030DELLAMEA, RODOLFO ANTONI                20211220330014016500000919321320000003967762000000319810000105277962
207916104020079161048000000000000000000000000BRUNO CARLOS OMAR                       20211220330019016700000839587720000104922842000008215610000248380512
212466287020124662878000000000111111111111003VEGA,ERNESTO RAUL                       20211220330016017000000043486210000001848222000000152410000002515641
218291445027182914458000000000110000165806025ARIAS, MONICA S. IANCHUK                20211220330016017100000076630410000037395842000002827110000029450092
212105785027121057854000000000110000286507016CHUAIRE,GRACIELA SARA                   20211220330014017200000446965620000000504002000000040210000053251922
208301507020083015072000000000000000000000000GUTIERREZ,ROBERTO                       20211220330013018200001035649620000078623432000006136510000182074742
210781927023107819274000000000110000208707004GASPAR,ESTELA M.GARCIA D                2021122033001801840000035869AAAA000189574632000015171710000269008212
211392582027113925820000000000110000418105003LEZCANO,JUANA NANCI C.DE                20211220330016018700001395889020000056898372000004579110000196029362
225369657020253696576000000000111130776000001ESCALANTE,CARLOS ALBERTO                20211220330019018800000153262310000083754562000005554910000134290222
214202214027142022147000000000111475859000001TROCHE, EMMA GLADYS ELIZABETH           20211220330019018900000515655620000039699202000003175910000085954892
234164514027341645145000000000000000000000000SAGUIR, ELBA GLADYS                     20211220330015019200000640898020000103036762000008155710000229578742
232878786020328787866000000000001205546000001SERRATRICE, ALBERTO ADRIAN              20211220330011019400000624212220000015570362000001245610000078667022
213306348020133063480000000000111049318000001KOCHOL, ALBERTO JOSE                    20211220330015019500000055330420000345917212000027682710000348681982
212105390020121053900000000000110003914902030SANCHEZ,HUGO ALBERTO                    20211220330011019600000120030820000114825332000009133310000125915082
207897409020078974096000000000110000241908006CISNEROS,CARLOS                         20211220330017019800000454506510000125969492000010094110000079509432
207916271020079162710000000000111016375000001CAROL,HUMBERTO RAMON                    20211220330015019900000931955120000144316332000011569810000316400362
213439659020134396599000000000111111111111030FERNANDEZ VICTOR LEOPOLD                20211220330012020200000024387720000000000002000000000010000002438772
213439263027134392636000000000000000000000000MACIEL, MARÍA PATRICIA                  20211220330014020500000841871020000003437582000000234810000087601202
216936032020169360325000000000000000000000000BRIZUELA PELLEGRINI,RAUL                20211220330017020700000473525710000084167072000006619210000036152582
210536929020105369299000000000111028914000001DEHEZA ATILIO EVARISTO                  20211220330016021200000043700410000059459202000004571510000075405802
226225425023262254259000000000110000587707001BONILLO, GUSTAVO RAUL                   20211220330015021400001007250620000058482772000004339610000160907872
212555043027125550431000000000111463201000001ANDRADA, NILDA NOEMI                    20211220330014021600001163054620000052156802000004135310000194985872
216296998020162969987000000000110000166008025PAULUK, FRANCISCO ENRIQU                20211220330016033001000009571320000005590262000000447210000006502672
211173395020111733954000000000001032609000001SILENCIO, JOSE RAMON                    20211220330017022000000116640520000085982502000006878310000103098222
214732223020147322233000000000000000000000000ROMERO BENITO BENIGNO                   20211220330019022100001915368220000425279122000033943710000680163822
211226253023112262539000000000110100314408003BERTONCINI JORGE RAUL                   20211220330016022500000089977420000054225792000004338210000063397962
224408000020244080007000000000110000162303010INGLANT PABLO DANIEL                    20211220330017022600000047102010000015015102000001116110000011563292
214948924027149489245000000000000000000000000SANG, ETHEL NOEMI                       20211220330015022700000149284610000115797432000009269610000100762512
205477016027054770168000000000110000109404024MONTES, ANA RITA LOPEZ D                20211220330019022800000162303120000025812142000002045410000070089402
216516424020165164246000000000110000165708025ESCOBEDO EDUARDO OSCAR                  20211220330016023000000923009520000809631772000064699010000870326922
205399102027053991020000000000111111111111003STROHSCHEIN GERTRUDIS S                 20211220330016023200000270288020000000000002000000000010000027032452
214037663023140376639000000000110003916504030RAMIREZ PABLO MARCIAL                   20211220330014023300000253028320000014203502000001136210000055805012
211382556020113825562000000000000000000000000NUÑEZ BASTACINI, CARLOS LUIS            20211220330014023800000377433710000043352932000003093710000005300192
213289254020132892548000000000110003920703030FALCON JULIO CESAR                      20211220330014023900001159688520000044991342000003599410000160600252
223987528027239875284000000000110000588105001MONDINO VERONICA ANDREA                 20211220330015024000000201660120000104932892000008397910000124259112
225369123023253691239000000000110000212808004BARRIOS FACUNDO JULIAN                  20211220330018024100001092199520000394809852000031588910000580730262
212979528024129795286000000000110000055608018FERNANDEZ RUBEN ARIEL                   20211220330018024200000947569120000159140452000012762810000329171232
211899075027118990752000000000110113506807030ROMERO CORAZON MARIA G.D                20211220330011024400000740592520000043827232000003506210000117535862
221618513020216185138000000000110003922000030OBREGON RAMON GUSTAVO                   20211220330011024700000323233020000045321022000003560410000077288282
222905812020229058127000000000110003918204030SANCHEZ,JORGE EDUARDO                   20211220330012024800000845901920000014583002000001166810000146266802
229021282020290212821000000000000000000000000VECCHIETTI, NORBERTO EDUARDO            20211220330017024900000950427720000077462842000006201610000176133452
210023495027100234950000000000000000000000000ROJAS GLORIA ESTER                      20211220330016025000000523764410000134677042000010773810000137597162
207923059020079230597000000000110003922403030ISMAEL JULIO                            20211220330012025300000239729020000030102162000002408110000053834252
224727668027247276683000000000000000000000000ROJAS IVANA L.BONFANTI D                20211220330011025400000238283010000057260132000004502210000075497962
216897725020168977256000000000000000000000000MULLER JUAN CARLOS R.                   20211220330011025500000861919620000084773842000006719810000181899772
207911536020079115364000000000110001682504015FERNANDEZ RAMON CESAR                   20211220330012025700000519132020000099809352000008002510000150922302
220800422027208004226000000000000000000000000VEGA NORMA DEL CARMEN                   20211220330017025900000736644020000240581722000019264810000376349642
234413905027344139054000000000111111111111030NOIRAT, MARIA MIRKA                     20211220330012026100000152530110000030058732000002426710000014563052
232065602027320656023000000000110113507510030DEDIEUS JOHANA MARIELA                  20211220330014026200000046803910000187099422000014967910000180922242
216757758027167577585000000000110003922109030ROMERO EMILCE GLADIS                    20211220330012026400000243190420000010909322000000872810000035141082
213048687020130486879000000000110000171803021BENITEZ PABLO                           20211220330015026500000014278420000102922272000008177410000140416652
227001837027270018373000000000110003919310030PACE MARIANA ORTIZ DE                   20211220330013026600000233107520000154612262000012371810000178035482
216115900020161159000000000000000000000000000AZAREVICH WALTER OMAR                   20211220330018026800000589873520000378838502000030343610000557057662
217548697027175486971000000000000000000000000ZARATE, MARTA BEATRIZ VERA DE           20211220330014027100000244435120000045180592000003623310000087746672
220451103027204511034000000000000000000000000BARRERO, SANDRA ESTHER S.               20211220330014027200002055452720000483005982000038621810000711045472
222052272020220522726000000000110000127903010MENDEZ FERNANDO FABIAN                  20211220330017027600000809604520000349582122000027970310000440962722
218396221020183962214000000000111111111111030PENAYO OSCAR DANIEL                     20211220330014027700000008749020000007530402000000602610000019779052
212186463027121864636000000000110001678109015JOHNSON ELSA MARY                       20211220330012027800000373027820000005268332000000421510000062136172
213592086027135920865000000000000000000000000ALMIRON PETRONA CONCEPCION              20211220330013028000000115837120000007211212000000576910000018737232
224478137027244781379000000000011111111111030GARCÍA, MIRIAM NOEMÍ                    20211220330014028200000155611320000073796802000005422810000088815652
222537527027225375270000000000000000000000000GIL, GRISELDA AMALIA                    20211220330019028300000051593920000070351532000005642010000106892022
230012735020290127352000000000110003920006030ORTÍZ, DIEGO                            20211220330012028500001146622610000099129082000007930410000002063702
218549133027185491337000000000110003914804030VERA, EUGENIA                           20211220330014028800000128707120000017503492000001181710000030256032
210179841020101798411000000000110000397005022RISSO PATRON MANUEL GREGORIO            20211220330017029000000402088320000091480182000007266010000192686112
216453438027164534389000000000000000000000000ACEVEDO, NANCY HERRERA DE               20211220330017029400000786794120000043971862000003545310000131877642
232568215023325682159000000000000000000000000DOMINGUEZ, FRANCO JAVIER                20211220330016029500000668609220000021411222000001713110000088100832
221794804027217948040000000000000000000000000ALEGRE, NANCY ROXANA                    20211220330018029600000420041020000071686612000005734810000169895362
205090467023050904679000000000000000000000000CARRIZO, CARLOS NÉSTOR                  20211220330017029700000171618520000060740542000004859110000104016732
225534711020255347110000000000110003424008030MAFFEI, MARTIN RENATO                   20211220330014029800000070981210000090713842000007138310000126282822
230776374020307763746000000000111111111111030GONZÁLEZ, JORGE HERNAN                  20211220330011030000000061785620000007144372000000571510000020461212
230626966027306269661000000000000000000000000RODRIGUEZ, ESTELA ANDREA                20211220330015030100001616355310000076408672000005689610000067801651
221793276023217932769000000000110000421100003MACHBANIN, DANIEL RENEÉ                 20211220330016030200000504969420000176677282000013942710000281395032
206213214027064134146000000000000000000000000RODRIGUEZ, BLANCA LUISA                 20211220330019030800000331213420000049935972000004040410000116917362
222002636027220026367000000000000000000000000YURI, ROXANA ETEL                       20211220330014030900000108638520000000000002000000000010000010863852
222777868020227778688000000000110003439207030PIEDRABUENA, PABLO HUGO                 20211220330014031100001397430520000034641072000002840110000283060742
211322356027113223567000000000110000260707018DIEWALD, MARGARITA ISABEL D. DE         20211220330018031200001101811020000230686402000018455010000339022002
220693963020206939630000000000000000000000000CÉSPEDES, CARLOS ALBERTO                20211220330017031300000221402220000091169882000007293610000112580742
226812299020268122991000000000000000000000000BULACIO, HORACIO FABIÁN                 20211220330012031400000086601210000040442722000003235210000039659242
213485688027134856888000000000110000161404023VOGELMAN, EVANGELINA M.DE               20211220330017031500000036551110000062663432000004506710000088080152
218440790020184407907000000000111086853000001GIULIONI, HECTOR LUIS DANIEL            20211220330015031600000152968120000071405712000005580110000086144512
221517638027215176385000000000000000000000000GONZÁLEZ, JUANA                         20211220330019031700000132305920000002609762000000208810000015819472
214606537020146065377000000000110003958101030VELAZCO, RITO ALBERTO                   20211220330011031800000663478420000017898722000001431910000094752222
225528610020255286103000000000110000070506002GUIZDACOFF, DANTE RENÉ                  20211220330016032000000264251620000018538892000001492310000061815122
206502631027065026312000000000111111111111030BLANCO, ELISA                           20211220330014032100000202497220000026443112000002115510000046481282
220463157020204631574000000000110001701305015ROBLES, WALTER RICARDO                  20211220330012032300000451664020000023450002000001875910000075910562
214697892020146978925000000000110000242110016RAMIREZ, CARLOS ALBERTO                 20211220330014032500000969710320000039911392000002971810000157471092
212105621020121056217000000000000000000000000LUQUE, EMILIO MARTIR                    20211220330014032800000171258110000000000002000000000010000017125811
227990412020279904126000000000110004523207030COSSIO, CRISTIAN FEDERICO               20211220330014033000000163378020000103665662000008293110000146694402
233839501023338395019000000000000000000000000LIPPS, DIEGO LUIS                       20211220330018033100000026002320000038614572000003093510000068279412
205706394027057063942000000000000000000000000BARRERA, ANGELICA                       20211220330017033200000089854820000050974492000004082610000059551712
220451374027204513746000000000110004671101030PELLIZZARI, NORA DEL CARMEN             20211220330013033300000110991020000024398252000001846510000035312702
222784595020227845954000000000000000000000000ACOSTA, RUBEN HORACIO                   20211220330011033600000429487820000292686722000022582710000344206732
232089571024320895711000000000000000000000000ANDRES, MARCIA EMILCE                   20211220330016033900000062489720000028953012000002318510000034970132
225278230027252782309000000000000000000000000SALIVA, YAMILA BEATRÍZ                  20211220330013034100000159391220000038075042000003046110000053709552
217251556027172515563000000000110004677007030CONDE OLGADO, NÉLIDA                    20211220330014034200000729749920000046306102000003709010000127177242
220090614020200906145000000000000000000000000VALUSSI, CARLOS ALBERTO                 20211220330014034300001149809120000745156222000059381910000854206692
217943110020179431107000000000110000195304021RIVERO, LUCIANO HUMBERTO                20211220330015034500000494971220000291405222000023348210000339567522
225369111020253691116000000000000000000000000TYWONIUK, ARIEL ABELARDO                20211220330018034600000285701820000060813252000004878510000229631422
207931049020079310493000000000110000617904001FUENTES JUAN CARLOS                     20211220330015034700000571114820000038824522000002921610000128322592
213069986020076795909000000000000000000000000RODRIGUEZ, DOMINGO RAMÓN                20211220330015034800000301354220000091592902000006847310000122923592
227324879027273248795000000000110000172201021ZALAZAR, MARÍA LORENA                   20211220330015034900000617769220000227104742000017852010000285981462
218279603023182796034000000000000000000000000ENCINA, NILDA ELENA                     20211220330014035100000154910120000031779772000002542410000048467822
231294336020312943361000000000121188211000001KISZKA, JOSE MARIA                      20211220330011035200000606227620000006932242000000554610000148930842
230614342027306143420000000000110004745510030GAITAN, NOELIA ANDREA                   20211220330014035300000330206720000083314342000006665010000134374632
213439200027134392008000000000110007722302030DIAZ COLODRERO MARIA BEATRIZ            20211220330014035500001353096320000056217032000004506110000191076052
217914867027179148671000000000000000000000000GIMENEZ, NANCI BEATRIZ                  20211220330018035600000225080910000024835272000001973910000066196792
213592838020135928381000000000110004746300030GODOY, JUAN CARLOS                      20211220330014035700000636846020000105858962000008468610000175696602
221306906020213069064000000000000000000000000AMBROSIO TODARO, CIRO FERNANDO          20211220330012035800000215210720000164512552000012325910000192573322
223915017023239150179000000000110004707400030GOMEZ, JORGE ALFREDO                    20211220330013035900000407445820000023101722000001848010000063661502
221862014027218620146000000000110000621504001RAJCKAKOWSKI, LILIANA GABRIELA          20211220330015036000000035493610000107781532000008623410000209445692
213960650020139606508000000000110000005508011ORTIZ, FRANCISCO RAFAEL                 20211220330015036200000115935620000007068452000000565410000022341472
226980367027269803679000000000000000000000000SANCHEZ, CINTHIA VERONICA               20211220330019036300000460654320000089431702000007155410000246407932
231612794020316127941000000000001191516000001BIAZONI, MARIANO ANTONELLO              20211220330017036400000408543720000111918852000008953410000151877882
214224627027142246274000000000000000000000000NAVARRO, NORMA INES                     20211220330016036500020263379510000063593502000005092410001963253691
228122328027281223289000000000110007350610030OLDERBURGEN, ANGELA BEATRIZ             20211220330014036600000249673020000001470272000000117610000052262212
206696698023066966984000000000110000719207001GOI, TERESITA MARIA                     20211220330015036700000261298620000031448542000002515710000060987082
214085323020140853233000000000000000000000000DEL VALLE, DESIDERIO JORGE              20211220330014036800000603942020000024826012000001986010000085021612
223273543027232735436000000000110001674600015VALDEZ, NANCY ETELVINA                  20211220330011036900000188386420000002937332000000234910000021752482
220591732020205917323000000000000000000000000CORREA HECTOR DANIEL                    20211220330015037000000108626020000023646392000001902410000038318752
224559204020245592044000000000110011270309030BARRERO, OMAR DARÍO                     20211220330014037100000006258210000000000002000000000010000000525821
224816216027248162169000000000000000000000000PEÓN, VERÓNICA BEATRÍZ                  20211220330015037300000066432820000000000002000000000010000007038812
226418312020264183120000000000110004568209030BENOIST, SERGIO ANIBAL                  20211220330011037500001776650120000259275662000020089810000453033472
234966409020349664098000000000110000165904025MICHELINI, RODOLFO OSCAR                20211220330016037600000207739520000063670722000005121110000085232612
222002924020220029248000000000110000646307001ROBLES, GUSTAVO ADOLFO                  20211220330015037700000237670110000076436512000006057110000089443512
224632543020246325430000000000000000000000000SABLICH, DIEGO ORLANDO                  20211220330011037800000697467220000150939322000012074410000223144502
212120358020121203589000000000000000000000000IZQUIERDO RICARDO                       20211220330017038100000067455320000021843812000001779710000078114122
221849386027218493861000000000000000000000000JIMENEZ, CLAUDIA MONICA                 20211220330015038200000461688920000580229882000045782710000693874662
228955466020289554662000000000110000560507018MORIENEGA, EUGENIO VICTOR               20211220330018038300000670889720000043783002000003511010000208523482
233730044027337300443000000000010004774806030DELLACASA, MARIA PAULA                  20211220330012038400000133269720000074290272000005933210000087023922
213036425027130364255000000000000000000000000ROMAN, ANA NIEVES                       20211220330019038900000473142420000064299682000005121210000137058102
227471905020274719053000000000110113507401030ZAMPEDRI, JUAN EDUARDO                  20211220330014039000000309387520000011825322000000950510000042669022
224606461020246064610000000000110000015504014TERZICH, NORBERTO RICARDO ARIEL         20211220330015039200000245175220000086484702000006918210000168650402
233145918020331459187000000000000000000000000GUTIERREZ, FERNANDO ANDRES              20211220330018039300000244510110000130616182000010536610000137310102
228858416027288584163000000000000000000000000RADA, PAMELA ELISABETH                  20211220330011039600000611843910000017735252000001418610000001650351
229020268020290202680000000000000000000000000OPAT, RODOLFO ANTONIO                   20211220330015039700000204172120000035907952000002872510000136467962
207927181020079271811000000000110001680608015JIMENEZ RUBEN LUIS                      20211220330012039900000480241110000008099882000000648110000039989041
231254808023312548089000000000000000000000000SORIA,  NAHUEL SEBASTIAN                20211220330019040300000316645410000014211752000000854910000017538281
210980281020109802817000000000000000000000000GALEANO, ISIDRO                         20211220330012040400000045456920000000924232000000073910000005462532
224687554020246875546000000000000000000000000ORTÍZ, DANIEL CHRISTIAN                 20211220330018040500000137787620000005545012000000443210000019279452
235690561020356905610000000000000000000000000FERNANDEZ LARRE GONZALO EMANUEL         20211220330011040600000376439520000015810722000001265010000057428172
220382869020203828692000000000111111111111003ROSSI GUSTAVO                           20211220330016040800000111269610000031351562000002507810000026245822
222192430023221924304000000000000000000000000ALBARIÑO ANA NOEMI                      20211220330011040900000101708410000011161422000000893010000002898282
225237666020252376667000000000111111111111003RIPOLL GABRIEL ALEJANDRO                20211220330016041000000561754820000145174882000011622910000200188072
232712414020327124146000000000111111111111025SALIVAR ALEJANDRO MIGUEL                20211220330016041100000017628120000006958352000000556610000069512742
208494895020084948951000000000000000000000000QUIROGA CARLOS RENE                     20211220330017041200000664898020000179053452000013881510000304824992
223059589020230595896000000000000000000000000SANCHEZ, ALEJANDRO DANIEL               20211220330013041300000179342420000027620302000002099110000045344632
235496615027354966153000000000110001606001030PENAYO GISELLE ANAHI                    20211220330014041400000020806220000021306642000001670710000067039881
232302598027323025989000000000000000000000000GUTIERREZ REGINA MARIA PIA              20211220330019041600000304499720000012483832000000868510000040805692
226963938020269639386000000000000000000000000VELAZQUEZ CARLOS ALEJANDRO              20211220330019041800000041072110000093510662000007504810000089652972
229546856020295468565000000000110000786101001GIULIONI, JOSÉ AGUSTÍN                  20211220330015041900000039624020000038867312000003109510000061215662
224797375020247973754000000000110000823510030FERNANDEZ, DARDO ANDRÉS                 20211220330014042000000220881020000038001922000003044610000059788412
230486081020304860813000000000000000000000000NOGUERA PRIETO JAVIER ALBERTO           20211220330019042100000170108820000047205522000003779310000063838472
230708602020307086027000000000000000000000000MORANTE DIEGO MARCELO                   20211220330018042200000043462020000128642942000010300910000131959052
221626434027216264342000000000111111111111030OVIEDO, MARIA GABRIELA                  20211220330014042300000539686520000140499352000011239810000193344022
217249437023172494374000000000000000000000000GOMEZ SUSANA RAQUEL                     20211220330018042400000528272820000182027432000014563010000224890892
224397927020243979278000000000000000000000000MOLINA DARIO FABIAN                     20211220330012042900000028104320000013175662000000968510000016081532
227368933020273689339000000000110003973402030SOLIS JUAN CARLOS                       20211220330013043000000565841110000000000002000000000010000054307951
220451639020204516392000000000000000000000000COLUSSI SERGIO ORLANDO                  20211220330012043100000351272520000054772072000004412110000089458112
231665505027316655055000000000000000000000000PUERTA BARBARA LISANDRA                 20211220330014043200000077790220000037977732000003038210000055808832
210374266020103742669000000000000000000000000SOROCZUK CARLOS ROBERTO                 20211220330017043300000105931320000020957562000001676710000031383022
233839840023338398409000000000110001485102001GIULIONI LUIS                           20211220330015043600000053062810000015929032000001274410000020001212
216367251027163672516000000000110002032809030NASIR ALICIA FLORENTINA                 20211220330014043700000525078120000235631132000018789010000289131792
231377516027313775165000000000000000000000000VINA SIMONICINI LORENA                  20211220330017043900000162736220000082311362000006502110000076888072
207623113020076231134000000000110000034401012ROBLEDO, JUAN OMAR                      20211220330019044100000169404120000016661782000001332910000107688692
227556897020275568970000000000000000000000000DEYDAR, HÉCTOR OSVALDO                  20211220330016044300001033275720000053865092000004191310000229199042
235285360027352853602000000000000000000000000OJEDA, YAMILA TRINIDAD                  20211220330019044400000392653520000138137932000011050910000196143382
225904740020259047405000000000110002143601030MOLARES MONTEIRO, FERNANDO GABRIEL      20211220330014044500000782749820000129825552000010386110000226163472
234478958020344789585000000000000000000000000RAMIREZ, NILSON RODRIGO                 20211220330014044700000001015220000012730782000001018510000022013512
238766474020387664743000000000000000000000000RODRIGUEZ JIMENEZ, MIGUEL EDUARDO       20211220330015044800000197114110000016143042000001291410000000548492
216706753027167067536000000000000000000000000BRASCAR, MIRIAN ELIZABETH               20211220330019045000000875608510000109128472000008552510000032612872
226339253027263392537000000000000000000000000AMARILLA, LORENA ELIZABETH              20211220330019045100000109140310000017218882000001382210000024351461
205615914027056159148000000000000000000000000VAZQUEZ, ZULMA RAMONA                   20211220330011045200000032465710000000390002000000034010000014859971
230290500020302905003000000000000000000000000PARED, MARCELO SEBASTIAN                20211220330011045300000106959120000000576002000000046010000011269812
239751919020397519199000000000000000000000000RODRIGUEZ JIMENEZ, ANTONIO ALEXIS       20211220330015045400000066106520000019874182000001414410000070941982
240585914023405859149000000000000000000000000MENDEZ, TOMAS FEDERICO                  20211220330017045600000035711420000009404342000000752410000019283242
213901884020139018843000000000110000270409014RAFFIN, JORGE FERNANDO                  20211220330015045700000325812320000031404622000002431210000051857682
222197716020221977166000000000000000000000000LATORRE, GUILLERMO ALBERTO              20211220330016045800000176666810000000067502000000010010000013485181
234035777023340357779000000000000000000000000ESCALANTE, GERARDO GASTÓN               20211220330019045900000061736310000023929182000001697810000389328791
221085081020210850814000000000110000037501014BARRETO SERGIO RICARDO                  20211220330015046000000064383410000114525682000009074110000107179932
231195076020311950763000000000110000560605018MORIENEGA, MIGUEL ANGEL                 20211220330018046100000593196120000173763452000013622710000269405692
208306819020083068192000000000000000000000000AGUIRRE, GUSTAVO OSCAR                  20211220330019046200000083748320000020484352000001538910000032604292
224093805027240938052000000000000000000000000GONZALEZ, GRACIELA CLAUDIA              20211220330019046300000003298620000011468822000000931210000011725062
241082856020410828562000000000110000112410021GÓMEZ, SANTIAGO                         20211220330015046400000244639320000418007702000033440610000439127572
220770583020207705838000000000000000000000000AYALA, OSCAR                            20211220330015046600000002183710000013440802000001075310000013114902
227277487020272774871000000000111111111111001CHEJ, SERGIO ADRIAN                     20211220330015046700000478359320000018504282000001480210000092369092
221618791020216187912000000000110002260401030GONZALEZ, ORLANDO GUSTAVO               20211220330011046800000749821310000045118882000003609510000030224201
235305117027353051178000000000000000000000000RAMIREZ, LIZ ANABEL                     20211220330019046900000000000020000000000002000000000010000002000002
239315039020393150395000000000000000000000000BARRIOS, MATÍAS JUAN MANUEL             20211220330018047000000094958520000037324062000002985610000057453352
206074373027060743733000000000000000000000000SAUCEDO, ANTONIA                        20211220330015047300000010797920000061573642000004935010000075266682
237762199023377621999000000000010000043106025ANDRES, NALDO LIONEL                    20211220330016047400000000000020000000000002000000000010000001702002
230517241027305172419000000000000000000000000GARCÍA, ELENA                           20211220330018047500000064605620000009910982000000795610000174832012
223070459027230704592000000000000000000000000LEDESMA, MARISA ALEJANDRA               20211220330017047600000046811510000060770472000004798410000057970242
236116802020361168020000000000000000000000000FORLIN DELLACASA, LEANDRO NAHUEL        20211220330015047700000061978320000043852732000003517410000092068622
229366026027293660269000000000000000000000000INSAURRALDE, CYNTHIA SABRINA            20211220330016048100000310679520000099047952000007924110000130256992
216375626023163756269000000000000000000000000GUTIERREZ, HUGO OMAR                    20211220330018048200000112703520000062997212000005040010000083295312
220091499020200914997000000000000000000000000ROMERO, MAURICIO JORGE                  20211220330019048300000012007310000007412002000000592810000006151992
228661268027286612682000000000000000000000000DIP, CLAUDIA CECILIA                    20211220330014048700000599659320000052110232000004168910000111659272
224153632020241536328000000000000000000000000ESPINOZA, JOSÉ LUIS                     20211220330019048800000199676020000007028012000000562410000027259372
205916248027059162484000000000110000507804003RODRIGUEZ, CELINA                       20211220330016048900000215973410000092393782000007404110000106422542
230214376027302143760000000000000000000000000LÓPEZ CRISTALDO, NORMA EMILIA           20211220330011049000000134349920000023712932000001898410000031103482
227435225027274352251000000000110000050808025LEGUIZA, FRIDA AMALIA                   20211220330016049100000052361920000007968972000000645310000010536811
222687213027226872138000000000110011069906030VILLALBA, MARCELA ALEJANDRA             20211220330011049200000140862420000007101642000000604810000021497402
210876529027108765297000000000110000370208021VEGA, NILDA                             20211220330015049300000266256120000007726312000000618110000061702112
231085057027310850573000000000110000078210027JUDKEVICH, PAOLA LUCRECIA               20211220330016049600000087809120000029722922000002388410000062225992
233612966023336129664000000000000000000000000RAMIREZ, VALERIA EVELIN                 20211220330014049700000270357720000073234612000005768410000167233142
210025971027100259716000000000000000000000000BILINSKI, OLGA MARÍA                    20211220330012050100000348819120000004058362000000288310000044127152
223419974023234199749000000000110000033905014TOMADIN, ROBERTO CARLOS                 20211220330015050300000424129210000064346802000004831310000022600752
228000348020280003485000000000110000129309024BARRIENTO, SERGIO ALCIDES               20211220330019050400000220315920000009678182000000774310000034491542
231786695020317866950000000000000000000000000FALCON, CESAR AUGUSTO                   20211220330011050500000717179320000028699582000001679810000141836402
213999510020139995105000000000110007644500030ALMADA, EULOGIO CARLOS                  20211220330011050600000117616220000000956672000000076510000012710642
210916883020109168832000000000000000000000000VALLEJOS, CARLOS                        20211220330019050700000040536520000056997042000004474010000060603292
234898442027348984425000000000110123139200030RIZZI, IVANNA YANELA                    20211220330012051100000635628920000163210342000012139010000236660282
223813857020238138575000000000110005289708030LEDESMA, GUSTAVO HERNÁN                 20211220330019051200000422112020000074742972000006006610000116353512
230705571020307055717000000000000000000000000PARRA, MAURO ARIEL                      20211220330011051300000635643510000064424262000005153710000043542951
231398825020313988253000000000000000000000000BONDARUK, MAURO LEANDRO                 20211220330017051400000342155620000009407982000000752710000055360172
225961143020259611432000000000000000000000000VITER, DANIEL GUSTAVO                   20211220330019051500000076333920000022966662000001837310000030416322
231569415023315694159000000000000000000000000ORTIZ, MARTIN ENRIQUE                   20211220330014051600000069470810000000000002000000000010000006947081
214649223023146492304000000000000000000000000RAMIREZ, CLARA INOCENCIA                20211220330018051800000147705920000031610452000002529110000047528132
233214113027332141134000000000110114340704030TOSSI, ELVIA MIREL                      20211220330011051900000006488010000000000002000000000010000056108302
220092641027200926418000000000110000658009003GAUNA, ELENA BEATRIZ                    20211220330016052000000231212210000033970032000002717510000010577062
232855174020328551749000000000110007121607030SCHELOVER, WALTER ALFREDO SEBASTIAN     20211220330014052200000252808020000008004222000000640410000043738982
240033403020400334030000000000110000121409014BLANCO, DENIS IVAN                      20211220330015052300000130648220000090876842000007270410000103214622
220651333020206513331000000000000000000000000RAFFIN HECTOR EDUARDO                   20211220330015052400000127301720000003560862000000284910000016262542
211662171027116621717000000000000000000000000AREVALO, CRISTELA                       20211220330019052500000195212220000014471022000001157810000059028412
212465842027124658425000000000110000281010014ASELLE, MARIA DEL CARMEN                20211220330015052600000010299610000065675452000005253610000067456882
233383159027333831592000000000000000000000000PRO CARLA DANIELA                       20211220330014052700000647677620000039439332000003155110000111659682
226221601020262216013000000000000000000000000ALEGRE JUAN DANIEL                      20211220330019052800000125572520000063907162000005112710000095279992
240175418020401754181000000000110000285608004IMFELD, SANTIAGO GABRIEL                20211220330018052900000173894320000011936312000000960810000036917662
226207615020262076157000000000000000000000000RAMIREZ, MIGUEL ANGEL                   20211220330019053000000279101420000077402182000006192410000111635232
220157357027201573578000000000000000000000000RAMONA ALBERTINA GATTO                  20211220330017053100000082276320000062648852000005011810000072035302
224329410020243294100000000000000000000000000ROMERO, CARMELO LUIS                    20211220330019053300000171937320000040997102000003279810000110195432
210408277027104082772000000000000000000000000MARIA JULIA SANDOVAL                    20211220330012053400000074447920000007187122000000556610000014575552
229225822023292258224000000000110000043607020CARDOZO EDITH PAOLA                     20211220330017053500000645102020000137599112000010946710000330202232
204891769027048917696000000000110000304300015DIAZ, LUCIA AURORA                      20211220330012053600000789920920000105859562000008473210000168892982
218307504027183075042000000000110007760009030AGUIRRE, BLANCA ESTER                   20211220330011053700000141567020000003924282000000316610000028623622
234352223020343522232000000000000000000000000ROA, SAMUEL NICANOR                     20211220330011053800000484311310000012184482000000974710000031046321
233724714027337247143000000000000000000000000SPAGNOLI, MELISA BELEN                  20211220330014054000000137493120000003410112000000127310000020096742
212465954020124659540000000000000000000000000MACIEL, JORGE BUENAVENTURA              20211220330015054300000154310020000028516412000002281310000043719282
231308431027313084316000000000110007460307030VILLALBA, DELIA LEONOR                  20211220330012054400000130298620000000000002000000000010000007773181
237796997023377969979000000000110007764106030CALVO, DIEGO BLAS                       20211220330011054500000137727820000073274242000005949210000111373782
225384494023253844949000000000000000000000000ISSA URIEL ALEJANDRO                    20211220330017054800000179797420000018773952000001515510000036602142
224250215023242502159000000000000000000000000CADAVIZ, LUIS MARIA                     20211220330016054900000471624610000097429142000007821510000061704522
233548612023335486129000000000000000000000000DE LOS SANTOS, JAVIER GONZALO           20211220330011055000000084748820000002204742000000226510000014162422
223861308027238613081000000000110011097606030PAVON, MONICA GRACIELA                  20211220330011055100000257467420000000000002000000000010000025746742
223635141027236351411000000000110007969800030RETAMOZO, GLADIS BEATRIZ                20211220330012055200000259652120000155602732000012448310000180323112
238538512027385385124000000000000000000000000TREPPO, MACARENA AYELÉN                 20211220330019055400000051809820000024559442000001969310000036970622
226489950020264899509000000000000000000000000TARTAGLINO, DARIO ALEJANDRO             20211220330017055600000413446520000099603152000008018610000201993202
225877339020258773390000000000000000000000000OJEDA, LUIS WALTER                      20211220330018055800000093235320000022019882000001761610000031167252
230199509027301995097000000000000000000000000RAMIREZ, LILIAN NOELIA                  20211220330019055900000391985920000000000002000000000010000039198592
233214446020332144465000000000110002233001030CUESTA, DARDO GERMAN                    20211220330013056000000564318220000079370072000005947210000180325492
225089775020250897759000000000000000000000000VILLARRUEL, OSCAR ALEJANDRO             20211220330014056300000066032120000061308822000004909010000084588042
229720741020297207416000000000111111111111030FERNANDEZ, MARCELO JOSE                 20211220330013056400000275080320000085559122000006679210000184857432
235305354027353053545000000000000000000000000VALLEJO, CARLA ARACELI                  20211220330017056500000294963720000190424122000015233710000281940552
240175490020401754904000000000110000297206004HASSAN MAHMUD, NADIR DIONEL             20211220330018056600000210795220000063210542000005065710000192779732
232473989027324739896000000000000000000000000LUSA, MARIA LAURA                       20211220330015056700000000655710000084974652000006653210000109750992
214376166027143761660000000000110000034608022CARO CLARA ESTELA                       20211220330017056800000186462320000037973492000003069610000056312762
230370363027303703638000000000000000000000000BUYATTI, DANIELA ELISABETH              20211220330019057000000093483610000006073042000000499710000007394712
236210517020362105170000000000110000340100017ALMADA, LEONARDO ALEJANDRO              20211220330012057100000012867420000002136702000000035010000003419942
214141108020141411080000000000110001715703001VEGA HORACCIO OSCAR                     20211220330015057300000103616220000024190842000001935310000034859332
227277264027272772644000000000000000000000000MEDINA, MARÍA ELENA                     20211220330015057500000096858720000018874032000001514510000031888502
228125804020281258045000000000110003997110030VALLINA, GUSTAVO ADRIAN                 20211220330011057600000177288410000000000002000000000010000017728841
234033714027340337145000000000110008684402030AMBROGGIO, ALEJANDRA SOLEDAD            20211220330013057700000717465320000012978712000001023610000103127582
237587137020375871379000000000000000000000000ORDENAVIA, ESTEBAN JOSÉ MARÍA           20211220330012057800000020000020000000000002000000000010000002000002
224807127020248071274000000000110002158702030BAZ, DARÍO ALEJANDRO                    20211220330014057900000354919420000005344212000000427510000050661182
227377891020273778919000000000110003920801030CARRIO, JUAN PABLO                      20211220330011058000000016829120000070707392000005661610000071824142
225302713023253027134000000000000000000000000POSCH WERNING, GRETEL GUADALUPE         20211220330012058100000079043020000000697982000000055910000008596692
217290502027172905027000000000000000000000000GOMEZ, HILDA JULIANA                    20211220330011058200000043830920000006275022000000424410000012932522
228660844027286608448000000000110009684701030RAMIREZ, LIDIA YAMILE                   20211220330014058300000423570420000011012852000000882510000055838212
228125841023281258419000000000110008922210030PALACIOS, HECTOR FABIAN                 20211220330012058400000160189620000000000002000000000010000073574532
230380960020303809601000000000000000000000000KIEWCZUN, BENJAMIN TEODORO              20211220330011058500001134886020000011288752000000903110000124687872
207433986020074339868000000000110000444203017MARI, PEDRO OSCAR                       20211220330012058600000062122120000002231092000000178510000010675452
233995170027339951700000000000000000000000000CACERES, YANINA BETANIA                 20211220330016058700000028970820000000000002000000000010000002897082
231085102020310851028000000000000000000000000RODA, ELBIO JAVIER                      20211220330016058800000040598520000000000002000000000010000008642302
225986107020259861072000000000000000000000000IVAN, ALEJANDRO HORACIO                 20211220330016058900000129845510000015907022000001167510000047975722
232489289027324892899000000000110009572705030MARTINEZ, MARÍA ALEJANDRA               20211220330012059000000167759520000001396732000000111710000021885112
218021614027180216141000000000001501446000001GONZALEZ SILVIA NOEMI                   20211220330012059100000033510020000037664602000002958010000046493472
220494907027204949072000000000000000000000000VELAZQUEZ, ISABEL SUSANA                20211220330017059200000001194610000006168632000000493510000009559822
238970011027389700113000000000000000000000000CABALLERO, DEBORAH ELIANA               20211220330018059300000229280920000023230022000001858210000053712292
228858351020288583510000000000000000000000000GARAY, JOSE MARIA                       20211220330011059400000757718210000007728192000000618310000046196841
216703139027167031396000000000000000000000000YULAN, MARIA SUSANA                     20211220330017059500000047296010000008858692000000708710000011046222
243333455020433334559000000000000000000000000GOMEZ, GONZALO LEONEL                   20211220330012059700000299742920000010023052000000801810000042997162
230626179020306261798000000000110000728707018ORELLANO, ALFREDO GERARDO               20211220330015059800000130828520000084481072000006758510000148749182
234898441027348984417000000000110007460503030RIZZI, GEORGINA LORENA                  20211220330014059900000598642920000231809612000018544710000317795952
203588317027035883172000000000110009177906030BUSSOLON, HAIDEE SILVIA                 20211220330014060000000829808520000009603222000000768210000092907252
225364370020253643707000000000000000000000000GUILLEN, JORGE HORACIO                  20211220330015060100000062125820000138143862000011120410000179378152
243437984027434379844000000000000000000000000MENDEZ TREVISAN, SELENA FIORELA         20211220330019060200000436374420000014945702000001204710000061754672
214224476020142244765000000000110000728707015AYALA, JUAN ANIBAL                      20211220330011060300000092626120000000000002000000000010000009262612
238190725020381907253000000000000000000000000MACIEL, FRANCO DAVID                    20211220330012060400000253802120000000288002000000023010000027115912
221342080027213420807000000000000000000000000CORREA, SONIA YANINNE                   20211220330017060500000010426220000000949062000000075910000001984092
230730156020307301564000000000000000000000000INCOFF, JUAN CARLOS MIGUEL              20211220330017060600000213117920000130871602000010471310000154336262
231972298020319722980000000000110009443806030SANTINELLI, MAURO ANGEL                 20211220330011060700001103746520000090878932000007334010000200520182
230166944020301669446000000000110009752605030FLORES, ROLANDO FABIAN                  20211220330014060800000356883920000018709142000001359310000054261602
230566549020305665496000000000000000000000000ESCOBEDO, LUCAS GONZALO                 20211220330016060900000240385220000001563972000000125110000029589482
224600612020246006122000000000000000000000000ESTECHE, MAURICIO RAFAEL                20211220330016061000000062495810000072009002000005767810000114362512
214044693023140446939000000000110001609504001MENDOZA, JOSE RODOLFO                   20211220330015061100000068733120000089218602000007137110000162502502
226707696027267076966000000000000000000000000GARCIA, CAROLINA JAQUELINA              20211220330011061200000097749410000021730562000001738410000025471332
226719787020267197874000000000000000000000000CONFORTI, JUAN PABLO                    20211220330018061300000298697220000016641082000001335810000071347572
210851820020108518201000000000110000265006012ROJAS, JOAQUIN NELSON                   20211220330019061400000127684210000010101292000000831010000003376481
242737014020427370144000000000000000000000000GIMENEZ OJEDA, FEDERICO IVAN            20211220330019061500000044195720000032330122000002586210000025366662
230484195027304841953000000000110009721206030CARDOZO ROMERO, GABRIELA ADELIA         20211220330016061600000076773110000000558302000000044610000005599032
238764801020387648012000000000000000000000000ROMERO, FRANCO JOAQUIN                  20211220330019061700000099957010000132166092000010573110000180361582
212867141027128671418000000000000000000000000VERA, MARIA ELENA                       20211220330019061800000212710520000035803362000002383510000086838232
217986060020179860601000000000110000242502012ORTEGA, ENRIQUE GABRIEL                 20211220330019062000000229693620000013479092000000828610000096566752
214156494020141564944000000000110000498803017ROUSSELOT, GERARDO MARCELO              20211220330012062200000064699620000000520042000000041610000006986842
235047602020350476025000000000000000000000000ALVAREZ, EZEQUIEL DARIO                 20211220330019062300000139469920000002074822000000166010000016405212
228660940020286609407000000000110005649203030OJEDA, JUAN ALBERTO                     20211220330012062400000551558520000003635092000000290810000110361862
242984306020429843066000000000000000000000000RODRIGUEZ JIMENEZ, MAXIMILIANO FACUNDO  20211220330015062500000017163320000048012932000003854610000054202952
220448783027204487834000000000000000000000000GUTIERREZ, SUSANA NELLI LUCIA           20211220330014062700000026297420000008954792000000716410000011512892
214194164027141941645000000000110134311808030RUIZ DIAZ, MARIA JOSEFA                 20211220330014062800000006378020000000000002000000000010000001747802
221618888020216188889000000000000000000000000GARCÍA, FABIÁN CARLOS                   20211220330011062900000402126320000003469292000000277510000058770842
235466801020354668018000000000110011139510030VELOSO, JUAN MARCELO                    20211220330011063000000514020310000029053882000002324210000015420571
233214471020332144716000000000000000000000000ARIZAGA, RODRIGO JAVIER                 20211220330014063100000023923720000003400392000000272010000021520612
213579129027135791291000000000000000000000000CUÑADO DORA SOFIA                       20211220330013063300000022338420000000000002000000000010000002233842
220591807020205918079000000000000000000000000LÓPEZ, S. DANIEL                        20211220330011063400000109520820000003243092000000259510000041751862
218395052027183950520000000000110133873302030MIEREZ, ALICIA                          20211220330011063500000833558110000076663562000006091010000007301351
223273308020232733080000000000000000000000000NIKCEVICH, JORGE DARÍO                  20211220330014063600000083958320000004923372000000305510000013288652
231109821020311098218000000000110011141203030BESGA NASIR, MAURO ANDRÉS               20211220330012063700000462728320000207796512000016481310000441224082
229219606027292196062000000000110000804101018EPINAL, ARIELA BEATRIZ                  20211220330018063800000457942210000002721662000000217710000027154331
231698721020316987215000000000110000427703013QUIROGA CARLOS JAVIER                   20211220330017063900000008442020000000000002000000000010000000844202
243335058020433350589000000000110000429207005TELLIER VERON, JORGE ABEL               20211220330019064000000264026720000000000002000000000010000029117922
212828827027128288274000000000110000172506009PACHECO, MARIA LUISA                    20211220330016064100000081837920000004689132000000376310000012835292
227615042020276150422000000000000000000000000VALLEJOS, DIEGO EMANUEL                 20211220330015064200000123815620000008004782000000640310000020322312
223859597020238595976000000000110011389807030LEONARD ALBERTO ENRIQUE                 20211220330013064300000241498210000000927012000000074210000023230231
236116111023361161114000000000110001050410016PENAYO, ANABEL ERIKA                    20211220330014064400000048819820000003218332000000257410000011316572
211406483027114064837000000000110011300310030PORTALUPPI, MIRTA GRACIELA              20211220330011064500001025915320000027105762000001466110000164588682
216650054020166500541000000000110000690708018BECHER OSCAR EDUARDO                    20211220330018064600000104501020000000540372000000043210000010986152
236494289020364942894000000000000000000000000SALINA SENA, ERNESTO EZEQUIEL           20211220330011064700000279932510000002737572000000219010000025277581
233214358027332143587000000000110011295210030MÜLLER, MARIA NOEL                      20211220330011064800000228135510000001989142000000159210000006679821
221686296027216862967000000000110011306510030SAPIEGA, GLADYS PATRICIA                20211220330014065000000312412220000045415052000003305710000078426952
236198287020361982879000000000110000509101017ZIOLKOWSKI, NORBERTO AUGUSTO            20211220330011065100000229180520000024487752000001934710000047213332
224632977027246329775000000000110001048107016RIVERO, MARIA SILVIA                    20211220330012065300000132969520000001840592000000147110000022097122
222343188027223431882000000000000000000000000LEVITT, LORENA GRISEL                   20211220330012065400000102301220000024582172000001966510000035728442
234881932020348819322000000000000000000000000GASPAR, HERNAN ULISES                   20211220330018065600000064447020000008935262000000714810000015308482
234569433027345694337000000000110000246904024AQUINO, RAMONA BEATRIZ                  20211220330019065700000135188420000001382642000000110610000015456422
211171604027111716043000000000110118822407030GARECA JUANA OBDULIA                    20211220330018065800000196118820000000000002000000000010000084521632
223406463027234064636000000000000000000000000MARIN, ANALIA                           20211220330015065900000185428220000010404702000000832310000028864292
217493829020174938297000000000000000000000000SANCHEZ JOSE HIPOLITO                   20211220330015066000000092158810000006784272000000542710000002485881
230626843020306268431000000000110001722806001COLLADO, DANIEL OMAR                    20211220330015066100000192345020000000000002000000000010000032317502
214679166027146791668000000000110011972301030MACIEL, MIRTA GLADIS                    20211220330014066200000080777920000009563442000000765110000030571072
227081877020270818774000000000110000703501013ZABALA, JUAN DIEGO                      20211220330017066500000168816320000004691042000000375310000046885952
230140888023301408889000000000000000000000000GASPARINI,MAURO DANIEL                  20211220330016066600000211280920000023544362000001883510000080459852
223011172020230111724000000000110000617000005ESCALANTE, FABIAN APOLONIO              20211220330019066700000117483520000000000002000000000010000011748352
223504819027235048197000000000110011098200030ALVARES, MARCELA ANALIA                 20211220330017066800000148817420000018471082000001477710000033205052
232277852020322778520000000000110000716902013PASSIMO, MARTIN CRUZ                    20211220330017066900000132297520000171903362000013756210000222635702
239306783020393067838000000000001638370000001SAGUIR, ALEJANDRO ELÍAS                 20211220330015067000002861479120000074382792000005684910000365583192
244744670020447446708000000000110011882509030PIETTO, JOAQUIN                         20211220330014067100000013475520000000000002000000000010000001457552
234703454020347034542000000000110003923106030LEZCANO, LEOPOLDO DE JESÚS              20211220330014067300000034042320000000000002000000000010000003404232
210283183020102831838000000000110012068010030MONZÓN, JUAN RAMÓN                      20211220330018067400000356781920000000000002000000000010000035678192
233859831023338598319000000000000000000000000TADINACK, EMMANUEL MARTIN               20211220330017067500000125275720000031635772000002530710000043910272
237454566027374545669000000000110000286202025AGUIRRE, MARÍA ELISABET                 20211220330016067700000025300420000000000002000000000010000002530042
320211220330010000039116073844580026234099640020786917004591907944
