12024082655555
214869071020148690716000000000000000000000000ACOSTA, HORACIO ALBERTO                 20240826555551000100000061184220000037916542000002525410000044282422
213439832023134398329000000000110003918803030LATORRE MARIO LUIS                      20240826555551000200000182743020000002548762000000203910000020802672
228165746020281657462000000000110000209105017GARCIA,ANIBAL MAXIMILIAN                20240826555551005600000103456910000071620682000005513810000063264262
217497048020174970484000000000110003920300030SANCHEZ JOSE LUIS                       20240826555551007300000260695620000000055002000000010010000027023062
206273740027062737404000000000110003913502030SANTINELLI,ANA MACIEL DE                20240826555551008200000183141710000030771802000002432510000012214382
207670309020076703095000000000110003924506030GAUTIER,JORDAN ALBERTO                  20240826555551013000000067184020000027420362000001891510000033949612
204803671020048036717000000000110005106503030COLOMBO,JUAN CARLOS                     20240826555551015600000031152010000000735232000000035010000002183471
211415356027114153562000000000110003931304030BAQUE, STELLA MARYS                     20240826555551015900000009949320000000000002000000000010000003414932
232878786020328787866000000000000000000000000SERRATRICE, ALBERTO ADRIAN              20240826555551019400000048741320000003853522000000308210000009346832
212105390020121053900000000000110003914902030SANCHEZ,HUGO ALBERTO                    20240826555551019600000026142720000047148812000003560010000049597332
201553400027015534007000000000000000000000000ZIOLKOWSKI,ANTONIA C. DE                20240826555551019700000044393110000049044702000003614910000055325402
211899075027118990752000000000110113506807030ROMERO CORAZON MARIA G.D                20240826555551024400000299087320000019918462000001575510000049849642
221618513020216185138000000000110003922000030OBREGON RAMON GUSTAVO                   20240826555551024700000100935420000022163422000001491510000032107812
224727668027247276683000000000000000000000000ROJAS IVANA L.BONFANTI D                20240826555551025400000053345710000093778392000006872510000120347072
216897725020168977256000000000000000000000000MULLER JUAN CARLOS R.                   20240826555551025500000009704410000060491962000004639210000078931452
210408315027104083159000000000110003655909030JARA, BETTY EVA MARTINEZ DE             20240826555551027400000070176620000024574892000001882810000031404272
230776374020307763746000000000111111111111030GONZÁLEZ, JORGE HERNAN                  20240826555551030000000078492820000000000002000000000010000015685982
214606537020146065377000000000110003958101030VELAZCO, RITO ALBERTO                   20240826555551031800000064906920000004248622000000301610000065601252
222784595020227845954000000000000000000000000ACOSTA, RUBEN HORACIO                   20240826555551033600000206652620000094812152000007193010000154734512
231294336020312943361000000000110004870704030KISZKA, JOSE MARIA                      20240826555551035200000431847510000000000002000000000010000016134311
223273543027232735436000000000110001674600015VALDEZ, NANCY ETELVINA                  20240826555551036900000026727220000008338302000000667110000010944312
226418312020264183120000000000110004568209030BENOIST, SERGIO ANIBAL                  20240826555551037500000208188620000084804752000005352210000133067212
224632543020246325430000000000000000000000000SABLICH, DIEGO ORLANDO                  20240826555551037800000089906620000061878072000004942910000108676412
228858416027288584163000000000000000000000000RADA, PAMELA ELISABETH                  20240826555551039600000118674020000008851222000000708210000047960302
235690561020356905610000000000000000000000000FERNANDEZ LARRE GONZALO EMANUEL         20240826555551040600000044872710000020769402000001450110000016436022
222192430023221924304000000000000000000000000ALBARIÑO ANA NOEMI                      20240826555551040900000004855920000002228692000000157410000002698542
205615914027056159148000000000000000000000000VAZQUEZ, ZULMA RAMONA                   20240826555551045200000079671720000001551562000000062510000009512482
230290500020302905003000000000000000000000000PARED, MARCELO SEBASTIAN                20240826555551045300000053159720000020091562000001607410000025246792
221618791020216187912000000000110002260401030GONZALEZ, ORLANDO GUSTAVO               20240826555551046800000029690720000003033782000000237510000005979102
230214376027302143760000000000000000000000000LÓPEZ CRISTALDO, NORMA EMILIA           20240826555551049000000066021220000042306922000003312410000061630602
222687213027226872138000000000000000000000000VILLALBA, MARCELA ALEJANDRA             20240826555551049200000058795620000012352652000000942110000018138002
231786695020317866950000000000000000000000000FALCON, CESAR AUGUSTO                   20240826555551050500000277729510000060279272000004395910000046560112
213999510020139995105000000000110007644500030ALMADA, EULOGIO CARLOS                  20240826555551050600000013354320000000000002000000000010000001335432
217596316020175963163000000000000000000000000ARANDA DICOFF, MIGUEL LILO HÉCTOR       20240826555551050800000068300020000027295272000002175310000033907742
230705571020307055717000000000000000000000000PARRA, MAURO ARIEL                      20240826555551051300000085674520000018090852000001244210000073914212
233214113027332141134000000000110114340704030TOSSI, ELVIA MIREL                      20240826555551051900000054950810000004541102000000363310000021074922
218307504027183075042000000000110007760009030AGUIRRE, BLANCA ESTER                   20240826555551053700000068135420000001135472000000090810000007940682
234352223020343522232000000000000000000000000ROA, SAMUEL NICANOR                     20240826555551053800000047129410000011864282000000841710000012560512
237112791020371127918000000000110002135610030DEGREGORIO, LUCIANO                     20240826555551054200000015030120000014632512000001156510000019940022
237796997023377969979000000000110007764106030CALVO, DIEGO BLAS                       20240826555551054500000073351720000013523432000000813410000049816162
233548612023335486129000000000110306638910030DE LOS SANTOS, JAVIER GONZALO           20240826555551055000000031123410000001509632000000120710000006119662
236210517020362105170000000000110000340100017ALMADA, LEONARDO ALEJANDRO              20240826555551057100000038407720000000000002000000000010000003988772
228125804020281258045000000000110003997110030VALLINA, GUSTAVO ADRIAN                 20240826555551057600000052597420000000000002000000000010000007747492
227377891020273778919000000000110003920801030CARRIO, JUAN PABLO                      20240826555551058000000130693920000031050202000002359910000044983602
225302713023253027134000000000000000000000000POSCH WERNING, GRETEL GUADALUPE         20240826555551058100000024303920000072051642000005642210000073917812
217290502027172905027000000000000000000000000GOMEZ, HILDA JULIANA                    20240826555551058200000156927520000006171002000000496310000025573732
230380960020303809601000000000000000000000000KIEWCZUN, BENJAMIN TEODORO              20240826555551058500000010078020000004301172000000354510000005273522
221930505027219305058000000000110003925002030MACIEL, MARCELA SOLEDAD                 20240826555552013400000100741320000121891842000009215510000178786522
225518259020255182596000000000111111111111015PEREZ, PABLO ADRIAN                     20240826555552014100000080009610000076570472000006076210000069753042
220094016020200940165000000000110003918302030ROBLEDO, ALFREDO EMILIO                 20240826555552014500000008635610000025898862000001960810000024839222
224632451023246324514000000000110001680107015LOPEZ,ANDREA VERONICA                   20240826555552014900000102542120000070205032000005440310000096751062
213592094027135920946000000000111111111111030ORTIZ,ANA R.B.PEREDO DE                 20240826555552017600000168815320000031717842000001933310000053438392
213439659020134396599000000000111111111111030FERNANDEZ VICTOR LEOPOLD                20240826555552020200000050330720000054609492000004398710000059202692
222905812020229058127000000000110003918204030SANCHEZ,JORGE EDUARDO                   20240826555552024800000455945810000017249302000001256310000016896611
207923059020079230597000000000110003922403030ISMAEL JULIO                            20240826555552025300000104586710000097158712000007521110000085947932
207911536020079115364000000000110001682504015FERNANDEZ RAMON CESAR                   20240826555552025700000155634620000331983322000026002110000344946572
234413905027344139054000000000111111111111030NOIRAT, MARIA MIRKA                     20240826555552026100000098928920000010444142000000829810000030920552
216757758027167577585000000000110003922109030ROMERO EMILCE GLADIS                    20240826555552026400000142656210000000000002000000000010000014265621
212186463027121864636000000000110001678109015JOHNSON ELSA MARY                       20240826555552027800000276127010000007455362000000505310000002130041
229012735020290127352000000000110003920006030ORTÍZ, DIEGO                            20240826555552028500000034252110000038472282000002993710000074313072
205789067027057890679000000000110111111111001ALVAREZ, RAMONA ALICIA                  20240826555552029200000010000020000000000002000000000010000001000002
226812299020268122991000000000000000000000000BULACIO, HORACIO FABIÁN                 20240826555552031400000007667210000017229802000001381610000023395282
202826557027028265579000000000110004705003030DEBRUNO, EMMA                           20240826555552032200000106010920000002481322000000231610000013559252
220463157020204631574000000000110001701305015ROBLES, WALTER RICARDO                  20240826555552032300000054227720000068734992000005479410000082507772
221306906020213069064000000000000000000000000AMBROSIO TODARO, CIRO FERNANDO          20240826555552035800000098837910000063099342000004801310000055641032
233730044027337300443000000000010004774806030DELLACASA, MARIA PAULA                  20240826555552038400000101777310000061242912000004639510000050601232
207927181020079271811000000000110001680608015JIMENEZ RUBEN LUIS                      20240826555552039900000041436510000009978782000000778210000005757312
210980281020109802817000000000000000000000000GALEANO, ISIDRO                         20240826555552040400000159144010000016101572000001288210000000058352
224397927020243979278000000000000000000000000MOLINA DARIO FABIAN                     20240826555552042900000097887220000016104972000001164110000068734912
220451639020204516392000000000000000000000000COLUSSI SERGIO ORLANDO                  20240826555552043100000112805920000060518602000004816210000071319572
210025971027100259716000000000000000000000000BILINSKI, OLGA MARÍA                    20240826555552050100000006053920000021102202000001672910000024246002
234898442027348984425000000000000000000000000RIZZI, IVANNA YANELA                    20240826555552051100000073903620000019682082000001577210000033051172
210408277027104082772000000000000000000000000MARIA JULIA SANDOVAL                    20240826555552053400000079544520000002344692000000265610000010272582
204891769027048917696000000000110000304300015DIAZ, LUCIA AURORA                      20240826555552053600000205893920000048279722000003803510000070338552
231308431027313084316000000000110007460307030VILLALBA, DELIA LEONOR                  20240826555552054400000092220220000007218122000000577410000022495432
223635141027236351411000000000110007969800030RETAMOZO, GLADIS BEATRIZ                20240826555552055200000027593720000021343312000001657110000026848732
236700944027367009441000000000000000000000000NUÑEZ, VALERIA MAGDALENA                20240826555552057400000000424820000000000002000000000010000021833632
237587137020375871379000000000000000000000000ORDENAVIA, ESTEBAN JOSÉ MARÍA           20240826555552057800000000264720000043003062000003367810000042692752
228125841023281258419000000000110008922210030PALACIOS, HECTOR FABIAN                 20240826555552058400000056858810000012663972000000990910000020215162
207433986020074339868000000000110000444203030MARI, PEDRO OSCAR                       20240826555552058600000034570720000000000002000000000010000003457072
232489289027324892899000000000000000000000000MARTINEZ, MARÍA ALEJANDRA               20240826555552059000000091296710000001198622000000095810000007940631
243333455020433334559000000000000000000000000GOMEZ, GONZALO LEONEL                   20240826555552059700000041098220000019164112000001488210000023125112
206649889027066498897000000000110003921700030MARTINEZ,MIRTA                          20240826555553011000000105834210000055607232000004360510000055970422
223293248027232932487000000000110003915605030SALOMÓN, ESTER NOEMÍ                    20240826555553016400000089560310000000000002000000000010000008956031
208301507020083015072000000000000000000000000GUTIERREZ,ROBERTO                       20240826555553018200000115524620000068632862000005503110000082007412
227001837027270018373000000000110003919310030PACE MARIANA ORTIZ DE                   20240826555553026600000077325920000103267272000007629910000110236872
213592086027135920865000000000000000000000000ALMIRON PETRONA CONCEPCION              20240826555553028000000315117110000007402072000000592110000024168851
220451374027204513746000000000110004671101030PELLIZZARI, NORA DEL CARMEN             20240826555553033300000347988020000039683242000003062210000074175822
225278230027252782309000000000000000000000000SALIVA, YAMILA BEATRÍZ                  20240826555553034100000114653520000108016172000008148610000122591162
223915017023239150179000000000110004707400030GOMEZ, JORGE ALFREDO                    20240826555553035900000047820420000043391932000003232610000047850712
223059589020230595896000000000000000000000000SANCHEZ, ALEJANDRO DANIEL               20240826555553041300000103253220000015515612000001211410000025719792
227368933020273689339000000000110003973402030SOLIS JUAN CARLOS                       20240826555553043000000023992220000003412462000000239210000005987762
235306691023353066919000000000110000075110030GARCIA CARBALLO, CHRISTIAN GABRIEL      20240826555553053900000040484620000000375572000000018810000025990832
233214446020332144465000000000000000000000000CUESTA, DARDO GERMAN                    20240826555553056000000191164110000082204242000005856110000108080342
229720741020297207416000000000111111111111030FERNANDEZ, MARCELO JOSE                 20240826555553056400000081283520000056198942000004367910000075738702
234033714027340337145000000000110008684402030AMBROGGIO, ALEJANDRA SOLEDAD            20240826555553057700000031033510000011755292000000802410000038928752
207658492020076584924000000000110004708005030BONDAZ, LUIS ROLANDO                    20240826555554000700000123939620000011130212000000879610000023536212
220263692027202636921000000000111111111111030DELLACASA, ADRIANA ELDA                 20240826555554008300000129079120000154319402000011816310000208467132
205875373023058753734000000000110003923106030LEZCANO,CLEMENTINA HAIDE                20240826555554010600000073694220000000031402000000005010000007450322
217150973020171509735000000000110003916700030DELLAMEA, RODOLFO ANTONI                20240826555554016500000237462620000025439072000001822910000078563842
212105785027121057854000000000110000286507016CHUAIRE,GRACIELA SARA                   20240826555554017200000134218020000000010002000000005010000013431302
213439263027134392636000000000110003914205030MACIEL, MARÍA PATRICIA                  20240826555554020500000103380120000020201282000001131010000030426192
212555043027125550431000000000110004705406030ANDRADA, NILDA NOEMI                    20240826555554021600000011843720000028512072000002187410000041382512
207453388020074533885000000000110004668400030FLORES RAMON                            20240826555554021800000127769420000005351412000000414510000018086902
214037663023140376639000000000110003916504030RAMIREZ PABLO MARCIAL                   20240826555554023300000053411920000035131462000002281910000057027512
211382556020113825562000000000000000000000000NUÑEZ BASTACINI, CARLOS LUIS            20240826555554023800000025530210000049217412000003786510000046285742
213289254020132892548000000000110003920703030FALCON JULIO CESAR                      20240826555554023900000166488820000088866082000006368210000104878142
232065602027320656023000000000110113507510030DEDIEUS JOHANA MARIELA                  20240826555554026200000098778520000116789902000008856010000126782652
217548697027175486971000000000000000000000000ZARATE, MARTA BEATRIZ VERA DE           20240826555554027100000036938410000044758622000003514710000046872462
220451103027204511034000000000000000000000000BARRERO, SANDRA ESTHER S.               20240826555554027200000241634620000064319732000004608110000098996892
218396221020183962214000000000111111111111030PENAYO OSCAR DANIEL                     20240826555554027700000028011720000011172752000000832510000039564122
224478137027244781379000000000011111111111030GARCÍA, MIRIAM NOEMÍ                    20240826555554028200000004771910000030487962000002181410000029792632
218549133027185491337000000000110003914804030VERA, EUGENIA                           20240826555554028800000109587910000050177312000003584210000038860102
225534711020255347110000000000110003424008030MAFFEI, MARTIN RENATO                   20240826555554029800000096635720000101971362000005646310000163934752
222002636027220026367000000000000000000000000YURI, ROXANA ETEL                       20240826555554030900000020199520000000000002000000000010000002019952
222777868020227778688000000000110003439207030PIEDRABUENA, PABLO HUGO                 20240826555554031100000167295920000042879022000003379510000119917462
206502631027065026312000000000111111111111030BLANCO, ELISA                           20240826555554032100000080594120000025611562000001747010000033496272
214697892020146978925000000000110000242110016RAMIREZ, CARLOS ALBERTO                 20240826555554032500000098630720000072333602000005727110000101466792
212105621020121056217000000000000000000000000LUQUE, EMILIO MARTIR                    20240826555554032800000009155210000003423502000000264110000002481572
227990412020279904126000000000110004523207030COSSIO, CRISTIAN FEDERICO               20240826555554033000000195391720000105892142000008145610000125001562
217251556027172515563000000000110004677007030CONDE OLGADO, NÉLIDA                    20240826555554034200000101830120000047165082000003730110000075672622
220090614020200906145000000000000000000000000VALUSSI, CARLOS ALBERTO                 20240826555554034300000138249620000104209402000008126610000119863502
218279603023182796034000000000000000000000000ENCINA, NILDA ELENA                     20240826555554035100000067854620000015264062000001215710000023693352
230614342027306143420000000000110004745510030GAITAN, NOELIA ANDREA                   20240826555554035300000199627610000026194722000001770810000016544182
213439200027134392008000000000110007722302030DIAZ COLODRERO MARIA BEATRIZ            20240826555554035500000173288620000025071122000001718110000042228172
213592838020135928381000000000110004746300030GODOY, JUAN CARLOS                      20240826555554035700000114427120000065983422000004876310000079487452
228122328027281223289000000000110007350610030OLDERBURGEN, ANGELA BEATRIZ             20240826555554036600000026873420000006925902000000475510000014681642
214085323020140853233000000000000000000000000DEL VALLE, DESIDERIO JORGE              20240826555554036800000114258310000008056542000000560310000003425321
208301719020083017199000000000110004722810030BARRERO, GUILLERMO ANTONIO              20240826555554037100000063105520000000000002000000000010000006310552
227471905020274719053000000000110113507401030ZAMPEDRI, JUAN EDUARDO                  20240826555554039000000153543920000063016912000005010610000077870242
235496615027354966153000000000110001606001030PENAYO GISELLE ANAHI                    20240826555554041400000055612110000012997602000001000810000014223992
224797375020247973754000000000110000823510030FERNANDEZ, DARDO ANDRÉS                 20240826555554042000000094213220000016723022000001323410000033064482
221626434027216264342000000000111111111111030OVIEDO, MARIA GABRIELA                  20240826555554042300000346032110000031805152000001922610000002864571
231665505027316655055000000000000000000000000PUERTA BARBARA LISANDRA                 20240826555554043200000042592820000012892522000000914510000030819402
216367251027163672516000000000110002032809030NASIR ALICIA FLORENTINA                 20240826555554043700000187520820000110642612000007399910000160679142
237070793020370707937000000000000000000000000BENITEZ, SANTIAGO JULIAN                20240826555554044000000088875620000041605932000003195210000050173972
225904740020259047405000000000110002143601030MOLARES MONTEIRO, FERNANDO GABRIEL      20240826555554044500000042729810000028431922000001922610000033943832
234478958020344789585000000000000000000000000RAMIREZ, NILSON RODRIGO                 20240826555554044700000000792620000010849302000000868010000015447712
228661268027286612682000000000000000000000000DIP, CLAUDIA CECILIA                    20240826555554048700000010237810000053281212000004226210000051834822
233612966023336129664000000000000000000000000RAMIREZ, VALERIA EVELIN                 20240826555554049700000078298520000085192062000006288210000109023072
231569415023315694159000000000000000000000000ORTIZ, MARTIN ENRIQUE                   20240826555554051600000011439110000019933332000000648510000018724572
213592624020135926249000000000000000000000000LÓPEZ, PEDRO JOAQUIN                    20240826555554051700000308999620000004639992000000312810000035508672
232855174020328551749000000000110007121607030SCHELOVER, WALTER ALFREDO SEBASTIAN     20240826555554052200000035020610000002246252000000132410000001269051
233383159027333831592000000000000000000000000PRO CARLA DANIELA                       20240826555554052700000090275320000008680772000000543710000019500932
233724714027337247143000000000000000000000000SPAGNOLI, MELISA BELEN                  20240826555554054000000046993020000005937202000000475010000010589002
225089775020250897759000000000000000000000000VILLARRUEL, OSCAR ALEJANDRO             20240826555554056300000032754620000003141742000000251310000036817222
228660844027286608448000000000000000000000000RAMIREZ, LIDIA YAMILE                   20240826555554058300000009534010000002233512000000116610000012073052
203588317027035883172000000000110009177906030BUSSOLON, HAIDEE SILVIA                 20240826555554060000000052569720000021201232000001696110000026584192
205758711027057587119000000000110000130103021PORTA, MARTA EVA                        20240826555555004600000154941920000135219902000010893710000166476322
212784553020127845531000000000110000239104014PULJIZ, OSCAR A. LEON                   20240826555555011900000226852520000189730992000014548110000210961432
220651370027206513700000000000110000270703001SCHEMBREG JUANITA GLADYS                20240826555555012600000320148520000107132582000008573110000153561522
218376825020183768256000000000111111111111001JULIAN, JORGE ORLANDO                   20240826555555012700000074075220000033196542000002582410000087403022
212331111020123311117000000000110000587206001VIGANOTTI,CARLOS RODOLFO                20240826555555013300000204997020000227255552000018143610000245940892
221347801020213478010000000000110000006004021MARCON, DANTE RODOLFO                   20240826555555013700000294399120000114196012000008942510000184884722
220092029020200920296000000000110000607810001RAFFIN, CARLOS RAÚL                     20240826555555014000000217222620000120811672000009460610000169158312
210025070020100250706000000000110000011505001KOCHOL,EDUARDO MILAN                    20240826555555014600000146860220000222583722000017595510000256032702
234164514027341645145000000000000000000000000SAGUIR, ELBA GLADYS                     20240826555555019200000020412610000116470032000008645310000128198092
213306348020133063480000000000110000353207001KOCHOL, ALBERTO JOSE                    20240826555555019500000097555220000037750662000002934110000047212772
207916271020079162710000000000110000589701001CAROL,HUMBERTO RAMON                    20240826555555019900000079422720000089467282000007016310000146400922
226225425023262254259000000000110000587707001BONILLO, GUSTAVO RAUL                   20240826555555021400000267875720000066557092000004698310000097948832
207649449020076494496000000000111111111111001SAGUIR ABRHAM SALVADOR                  20240826555555021500000294165120000063602112000004601910000100865482
214948924027149489245000000000000000000000000SANG, ETHEL NOEMI                       20240826555555022700000067814610000061496762000004262710000060463982
223987528027239875284000000000110000588105001MONDINO VERONICA ANDREA                 20240826555555024000000139537720000065470892000004897910000078934872
213048687020130486879000000000110000171803021BENITEZ PABLO                           20240826555555026500000040857210000063902862000004655910000078038802
230626966027306269661000000000000000000000000RODRIGUEZ, ESTELA ANDREA                20240826555555030100000157212720000227092622000016864110000254646332
218440790020184407907000000000110000240301014GIULIONI, HECTOR LUIS DANIEL            20240826555555031600000069266220000113482402000008503610000119558662
217943110020179431107000000000110000195304021RIVERO, LUCIANO HUMBERTO                20240826555555034500000150620020000318473962000024786710000331357292
207931049020079310493000000000110000617904001FUENTES JUAN CARLOS                     20240826555555034700000127051820000042902942000003419110000074156702
213069986020076795909000000000000000000000000RODRIGUEZ, DOMINGO RAMÓN                20240826555555034800000263507920000025826572000001838010000085041812
227324879027273248795000000000110000172201021ZALAZAR, MARÍA LORENA                   20240826555555034900000208932420000086776962000006525710000108702632
221862014027218620146000000000110000621504001RAJCKAKOWSKI, LILIANA GABRIELA          20240826555555036000000200177020000138142672000010593110000188008902
213960650020139606508000000000110000005508011ORTIZ, FRANCISCO RAFAEL                 20240826555555036200000101772810000008179012000000654510000000734282
206696698023066966984000000000110000719207001GOI, TERESITA MARIA                     20240826555555036700000064237520000026222282000002097910000038388242
220591732020205917323000000000000000000000000CORREA HECTOR DANIEL                    20240826555555037000000026568520000120290012000009389010000134417992
224816216027248162169000000000000000000000000PEÓN, VERÓNICA BEATRÍZ                  20240826555555037300000008145820000041776242000003208110000061873662
222002924020220029248000000000110000646307001ROBLES, GUSTAVO ADOLFO                  20240826555555037700000207801010000103630592000008267210000115915872
221849386027218493861000000000000000000000000JIMENEZ, CLAUDIA MONICA                 20240826555555038200000158706310000348001562000025842110000376441992
224606461020246064610000000000110000015504014TERZICH, NORBERTO RICARDO ARIEL         20240826555555039200000107759420000072675002000005052010000108007742
227663469020276634691000000000111111111111001MIJALUK, CÉSAR IVÁN                     20240826555555039500000042980120000132369732000010575110000144033532
229020268020290202680000000000000000000000000OPAT, RODOLFO ANTONIO                   20240826555555039700000013412920000021300982000001694910000037691582
229546856020295468565000000000110000786101001GIULIONI, JOSÉ AGUSTÍN                  20240826555555041900000132191110000016349852000001298410000003000902
233839840023338398409000000000000000000000000GIULIONI LUIS                           20240826555555043600000012336420000016655972000001332410000026710372
238766474020387664743000000000000000000000000RODRIGUEZ JIMENEZ, MIGUEL EDUARDO       20240826555555044800000037348410000008631792000000690510000010038122
239751919020397519199000000000000000000000000RODRIGUEZ JIMENEZ, ANTONIO ALEXIS       20240826555555045400000048439620000030925172000002125010000049553382
213901884020139018843000000000110000270409014RAFFIN, JORGE FERNANDO                  20240826555555045700000076663220000053105512000004085010000060618332
221085081020210850814000000000110000037501014BARRETO SERGIO RICARDO                  20240826555555046000000012630320000172222922000013557910000172130162
241082856020410828562000000000110000112410021GÓMEZ, SANTIAGO                         20240826555555046400000139668320000081063982000006432110000094387602
220770583020207705838000000000000000000000000AYALA, OSCAR                            20240826555555046600000030419220000012421362000000998810000015363402
227277487020272774871000000000111111111111001CHEJ, SERGIO ADRIAN                     20240826555555046700000061364520000014035832000001003310000025377702
206074373027060743733000000000000000000000000SAUCEDO, ANTONIA                        20240826555555047300000163341410000043598962000003490510000063435112
236116802020361168020000000000000000000000000FORLIN DELLACASA, LEANDRO NAHUEL        20240826555555047700000053345720000076313222000006047010000114763692
210876529027108765297000000000000000000000000VEGA, NILDA                             20240826555555049300000087767620000008732782000000607610000034710632
223419974023234199749000000000110000033905014TOMADIN, ROBERTO CARLOS                 20240826555555050300000095819820000059277582000004680210000068391542
240033403020400334030000000000110000121409014BLANCO, DENIS IVAN                      20240826555555052300000002035820000003930612000000317110000004102482
220651333020206513331000000000000000000000000RAFFIN HECTOR EDUARDO                   20240826555555052400000034267220000013218082000000936410000016551162
212465842027124658425000000000110000281010014ASELLE, MARIA DEL CARMEN                20240826555555052600000047007820000009889452000000776410000031091342
212465954020124659540000000000000000000000000MACIEL, JORGE BUENAVENTURA              20240826555555054300000088465220000001536242000000122910000010370472
232473989027324739896000000000000000000000000LUSA, MARIA LAURA                       20240826555555056700000041586820000018547912000001466510000032992392
227277264027272772644000000000000000000000000MEDINA, MARÍA ELENA                     20240826555555057500000017032620000029670522000002373810000031136402
225364370020253643707000000000000000000000000GUILLEN, JORGE HORACIO                  20240826555555060100000113840410000199146412000015503510000238926072
205916292027059162921000000000111111111111003JARA,ELISA LILIAN                       20240826555556010300000146630420000039172892000003110610000053524872
204941385027049413853000000000110000165610025NOVIK, NILDA                            20240826555556012800000062174420000018581712000001448910000035348512
208075405020080754052000000000110000068606002ESPINDOLA,JORGE ALBERTO                 20240826555556013500000029153520000067976962000005044010000090005412
203272313027032723131000000000000000000000000PAJOR,ROSA INSAURRALDE D                20240826555556013900000110491620000060461342000004698610000071040642
221546267027215462671000000000110000418007003PICCINELLI KARINA                       20240826555556015400000117298320000097664042000007635810000156998812
212466287020124662878000000000111111111111003VEGA,ERNESTO RAUL                       20240826555556017000000020271320000010345912000000827710000012290272
218291445027182914458000000000110000165806025ARIAS, MONICA S. IANCHUK                20240826555556017100000075521420000043069132000003318110000050289462
211392582027113925820000000000110000418105003LEZCANO,JUANA NANCI C.DE                20240826555556018700000051755820000193174632000015442010000196806012
210536929020105369299000000000110000103204009DEHEZA ATILIO EVARISTO                  20240826555556021200000106780120000057875422000004629910000094517242
216296998020162969987000000000110000166008025PAULUK, FRANCISCO ENRIQU                20240826555556021900000062159520000022373092000001771610000028591882
211226253023112262539000000000110100314408003BERTONCINI JORGE RAUL                   20240826555556022500000046612720000079602642000006325710000085313142
216516424020165164246000000000110000165708025ESCOBEDO EDUARDO OSCAR                  20240826555556023000000237108420000113168112000009059010000158426602
205399102027053991020000000000111111111111003STROHSCHEIN GERTRUDIS S                 20240826555556023200000025428210000101393422000007896710000104000182
210023495027100234950000000000000000000000000ROJAS GLORIA ESTER                      20240826555556025000000011649520000097895802000007832010000158707502
232568215023325682159000000000000000000000000DOMINGUEZ, FRANCO JAVIER                20240826555556029500000076589920000035308902000001481710000044391922
221793276023217932769000000000110000421100003MACHBANIN, DANIEL RENEÉ                 20240826555556030200000037308620000139401942000010152910000195061312
225528610020255286103000000000110000070506002GUIZDACOFF, DANTE RENÉ                  20240826555556032000000376101710000048093892000003716610000038412512
232089571024320895711000000000000000000000000ANDRES, MARCIA EMILCE                   20240826555556033900000090600420000027254102000002094710000077446472
214224627027142246274000000000000000000000000NAVARRO, NORMA INES                     20240826555556036500000041928120000175972482000014079510000178757342
234966409020349664098000000000110000165904025MICHELINI, RODOLFO OSCAR                20240826555556037600000024108020000036656582000002893510000053516532
220382869020203828692000000000111111111111003ROSSI GUSTAVO                           20240826555556040800000028632220000019787732000001577310000026058272
225237666020252376667000000000111111111111003RIPOLL GABRIEL ALEJANDRO                20240826555556041000000089496520000166915082000013075410000188875092
232712414020327124146000000000111111111111025SALIVAR ALEJANDRO MIGUEL                20240826555556041100000059770420000026906812000002152810000049792122
227556897020275568970000000000000000000000000DEYDAR, HÉCTOR OSVALDO                  20240826555556044300000197067120000026171792000002093610000080740052
222197716020221977166000000000000000000000000LATORRE, GUILLERMO ALBERTO              20240826555556045800000025538420000000000002000000000010000006218842
234902008023349020084000000000000000000000000GASPARINI, CARLA ROCIO                  20240826555556046500000106125720000060767922000004800710000073757672
237762199023377621999000000000010000043106025ANDRES, NALDO LIONEL                    20240826555556047400000020088220000001336092000000106910000005832922
229366026027293660269000000000000000000000000INSAURRALDE, CYNTHIA SABRINA            20240826555556048100000025358510000012121252000000965210000018780932
205916248027059162484000000000110000507804003RODRIGUEZ, CELINA                       20240826555556048900000103710010000076761982000006117110000076844482
227435225027274352251000000000110000050808025LEGUIZA, FRIDA AMALIA                   20240826555556049100000128044410000016794022000001343510000018004182
231085057027310850573000000000110000078210027JUDKEVICH, PAOLA LUCRECIA               20240826555556049600000058307420000053618392000004229810000063676152
220092641027200926418000000000110000658009003GAUNA, ELENA BEATRIZ                    20240826555556052000000028154610000024021002000001767410000021028812
224250215023242502159000000000000000000000000CADAVIZ, LUIS MARIA                     20240826555556054900000300484320000130695382000010485510000166605262
233995170027339951700000000000000000000000000CACERES, YANINA BETANIA                 20240826555556058700000015557620000000847622000000067810000002396602
231085102020310851028000000000000000000000000RODA, ELBIO JAVIER                      20240826555556058800000017357820000000000002000000000010000003017282
225986107020259861072000000000000000000000000IVAN, ALEJANDRO HORACIO                 20240826555556058900000035998110000049996472000003999810000068698682
221347051020213470516000000000000000000000000DAMILANO, ALBERTO JAVIER                20240826555557007600000097000920000403888232000032207110000451132162
205424805027054248054000000000000000000000000DEL BIANCO, ANA MARIA                   20240826555557008000000256535810000000030002000000005010000025624081
210027153027100271538000000000110000342900013QUIROGA,MARIA MEDINA DE                 20240826555557012400000441732720000333600942000026621010000381277862
211168557027111685571000000000110000103607020NAIDENOFF LILIAN GLADYS                 20240826555557013200000095693720000041329982000003311410000050668212
234300976020343009764000000000110000157804007SAGUIR, SERGIO ELIAS                    20240826555557013600000029563810000146023642000011725910000212966922
209986165027099861652000000000000000000000000CONESA, SARA.                           20240826555557013800000296934320000226031582000016893210000254035692
205079296020050792960000000000111111111111010INGLANT,CARLOS                          20240826555557016100000017546220000128903152000009678610000154826812
212704608020127046086000000000000000000000000ZAISER,RAUL ENRIQUE                     20240826555557016300000059026920000075111302000006008710000086010122
211276314027112763142000000000111111111111007AGUIRRE, GLORIA MABEL                   20240826555557019000000015000020000000000002000000000010000001500002
207897409020078974096000000000110000241908006CISNEROS,CARLOS                         20240826555557019800000091283120000178255942000013978510000185986402
216936032020169360325000000000000000000000000BRIZUELA PELLEGRINI,RAUL                20240826555557020700000446620910000031516442000002526710000013398321
211173395020111733954000000000000000000000000SILENCIO, JOSE RAMON                    20240826555557022000000013224110000116112722000009292410000114261072
224408000020244080007000000000110000162303010INGLANT PABLO DANIEL                    20240826555557022600000052189620000085928382000006867210000090460622
207931131020079311317000000000110000241701006TADINACK VALERIO AGUSTIN                20240826555557023100000035165220000079010902000006132210000081914202
229021282020290212821000000000000000000000000VECCHIETTI, NORBERTO EDUARDO            20240826555557024900000128881220000020303572000001611810000059301762
227368805020273688057000000000111111111111030CIUCCI FRANCO MARIO C.                  20240826555557025100000013070020000000000002000000000010000001307002
220800422027208004226000000000000000000000000VEGA NORMA DEL CARMEN                   20240826555557025900000018533210000084350922000006710510000133065202
222052272020220522726000000000110000127903010MENDEZ FERNANDO FABIAN                  20240826555557027600000221154810000177411012000014110410000173052992
210179841020101798411000000000110000397005022RISSO PATRON MANUEL GREGORIO            20240826555557029000000171628520000091043562000007257110000120653652
216453438027164534389000000000000000000000000ACEVEDO, NANCY HERRERA DE               20240826555557029400000023926010000039647812000003163910000050957112
205090467023050904679000000000000000000000000CARRIZO, CARLOS NÉSTOR                  20240826555557029700000031867310000018627482000001264010000028123362
220693963020206939630000000000000000000000000CÉSPEDES, CARLOS ALBERTO                20240826555557031300000054226710000008194042000000591810000007322672
213485688027134856888000000000110000161404023VOGELMAN, EVANGELINA M.DE               20240826555557031500000123725710000010343912000000668810000030653402
205706394027057063942000000000000000000000000BARRERA, ANGELICA                       20240826555557033200000063928420000077720652000006193110000086640682
231612794020316127941000000000000000000000000BIAZONI, MARIANO ANTONELLO              20240826555557036400000061156820000069125862000005534010000078116642
212120358020121203589000000000000000000000000IZQUIERDO RICARDO                       20240826555557038100000010581020000058152052000004463410000134092142
223070107027230701070000000000000000000000000CIUCCI DANIELA ALEJANDRA                20240826555557040700000232303820000199601902000015492310000294469922
208494895020084948951000000000000000000000000QUIROGA CARLOS RENE                     20240826555557041200000075642410000147095922000011768110000144650022
210374266020103742669000000000000000000000000SOROCZUK CARLOS ROBERTO                 20240826555557043300000103938510000020921202000001673510000010360002
231377516027313775165000000000000000000000000VINA SIMONICINI LORENA                  20240826555557043900000081066210000041115602000003272110000046303322
240585914023405859149000000000000000000000000MENDEZ, TOMAS FEDERICO                  20240826555557045600000027067710000000559472000000044810000006707732
236291267023362912679000000000000000000000000MERCADO ALVAREZ, CLAUDIO PAOLO          20240826555557047200011993814420000027273862000002246010001226430702
223070459027230704592000000000000000000000000LEDESMA, MARISA ALEJANDRA               20240826555557047600000009520320000032762722000002571810000033807572
234012628023340126289000000000000000000000000PASSIMO, PABLO FACUNDO                  20240826555557048000000107710220000186293672000014903210000221770122
231398825020313988253000000000000000000000000BONDARUK, MAURO LEANDRO                 20240826555557051400000046513920000026437422000002117710000049518842
220157357027201573578000000000000000000000000RAMONA ALBERTINA GATTO                  20240826555557053100000003650720000011737212000000939110000017111702
229225822023292258224000000000110000043607020CARDOZO EDITH PAOLA                     20240826555557053500000033439620000143662042000011509310000179961272
213743054021137430547000000000000000000000000CARDOZO, MIRTA DE LAS MERCEDES          20240826555557054600000021399220000000000002000000000010000002139922
226489950020264899509000000000000000000000000TARTAGLINO, DARIO ALEJANDRO             20240826555557055600000025865110000012676132000001029810000020273152
235305354027353053545000000000000000000000000VALLEJOS, CARLA ARACELI                 20240826555557056500000033545220000032860292000002629810000053202832
220494907027204949072000000000000000000000000VELAZQUEZ, ISABEL SUSANA                20240826555557059200000037432420000006364832000000524310000022640642
205142220027051422207000000000000000000000000FLEGO, MARIA M.KELLNER D                20240826555558011200000238518610000229467482000017581910000204238132
208046118020080461187000000000110000132805018DOMINGUEZ,ALDO                          20240826555558016000000208369620000073618692000005648210000093890832
210781927023107819274000000000110000208707004GASPAR,ESTELA M.GARCIA D                20240826555558018400000085366010000061040422000004883410000056439732
225369123023253691239000000000110000212808004BARRIOS FACUNDO JULIAN                  20240826555558024100000058914920000349678992000027933410000378731242
212979528024129795286000000000110000055608018FERNANDEZ RUBEN ARIEL                   20240826555558024200000289661410000033144712000002351010000105882912
216115900020161159000000000000000000000000000AZAREVICH WALTER OMAR                   20240826555558026800000011497410000100983692000008119910000148422052
221794804027217948040000000000000000000000000ALEGRE, NANCY ROXANA                    20240826555558029600000112854720000056527062000004455810000092903552
211322356027113223567000000000110000260707018DIEWALD, MARGARITA ISABEL D. DE         20240826555558031200000085521020000046747762000003739710000054925892
233839501023338395019000000000000000000000000LIPPS, DIEGO LUIS                       20240826555558033100000120130810000027509832000002082510000028655002
225369111020253691116000000000000000000000000TYWONIUK, ARIEL ABELARDO                20240826555558034600000001571520000044543552000003523910000113847392
217914867027179148671000000000000000000000000GIMENEZ, NANCI BEATRIZ                  20240826555558035600000125406320000010953472000000886710000056349432
228955466020289554662000000000110000560507018MORIENEGA, EUGENIO VICTOR               20240826555558038300000068513810000015364852000001183210000129742572
233145918020331459187000000000000000000000000GUTIERREZ, FERNANDO ANDRES              20240826555558039300000100463420000042157782000003345410000062857232
224687554020246875546000000000000000000000000ORTÍZ, DANIEL CHRISTIAN                 20240826555558040500000022836520000002627972000000210110000004890612
230708602020307086027000000000000000000000000MORANTE DIEGO MARCELO                   20240826555558042200000024399110000058181252000004654710000055275872
217249437023172494374000000000000000000000000GOMEZ SUSANA RAQUEL                     20240826555558042400000084895420000040049032000003205810000048767992
227002538020270025383000000000000000000000000MONZON GUSTAVO DANIEL                   20240826555558042800000017508320000021640722000001518910000023239662
231195076020311950763000000000000000000000000MORIENEGA, MIGUEL ANGEL                 20240826555558046100000040062010000004818172000000395810000009614392
239315039020393150395000000000000000000000000BARRIOS, MATÍAS JUAN MANUEL             20240826555558047000000014083410000000784892000000062810000001321282
230517241027305172419000000000000000000000000GARCÍA, ELENA                           20240826555558047500000273099310000009484932000000755810000005907772
216375626023163756269000000000000000000000000GUTIERREZ, HUGO OMAR                    20240826555558048200000074230420000012172012000000973710000019497682
240175418020401754181000000000110000285608004IMFELD, SANTIAGO GABRIEL                20240826555558052900000030111220000000000002000000000010000003011122
225877339020258773390000000000000000000000000OJEDA, LUIS WALTER                      20240826555558055800000032211020000000000002000000000010000003951102
240175490020401754904000000000110000297206004HASSAN MAHMUD, NADIR DIONEL             20240826555558056600000051431020000020366282000001629310000034553452
238970011027389700113000000000000000000000000CABALLERO, DEBORAH ELIANA               20240826555558059300000031533910000016685412000001313510000013500672
224524909027245249093000000000000000000000000BARRIOS, ELISA MARIANA                  20240826555558066400000223251710000087199582000006995010000080860062
204715115027047151150000000000000000000000000CARBALLO, MARIA LIDIA                   20240826555559004800000075373810000036191012000002441810000028999452
207456992020074569928000000000110000183608012GIMENEZ,ROLANDO WALTER                  20240826555559006300000059699010000079595392000005947310000094380762
206159007027061590078000000000000000000000000PEREZ,ANGELA VERON VDA D                20240826555559014200000261213120000064030362000004641110000090322562
208381997023083819979000000000111111111111005SCHULZ,HERALDO ROBERTO                  20240826555559014800000354780420000160799952000012663910000203445102
207916104020079161048000000000000000000000000BRUNO CARLOS OMAR                       20240826555559016700000112800810000044424342000003322910000060658452
225369657020253696576000000000111111111111012ESCALANTE,CARLOS ALBERTO                20240826555559018800000226342320000128017132000010021810000159304782
214202214027142022147000000000110000182709012TROCHE, EMMA GLADYS ELIZABETH           20240826555559018900000055088220000054953932000004244010000074938602
214732223020147322233000000000000000000000000ROMERO BENITO BENIGNO                   20240826555559022100000117899020000096424192000007437210000133801692
205477016027054770168000000000110000109404024MONTES, ANA RITA LOPEZ D                20240826555559022800000078997020000014330142000001146610000048661582
222537527027225375270000000000000000000000000GIL, GRISELDA AMALIA                    20240826555559028300000113132110000025016462000002001410000042174712
206213214027064134146000000000000000000000000RODRIGUEZ, BLANCA LUISA                 20240826555559030800000053456920000160042782000011355810000192173722
221517638027215176385000000000000000000000000GONZÁLEZ, JUANA                         20240826555559031700000061480320000048609972000003852110000054372792
228602937027286029375000000000000000000000000ROJAS, LIANA REBECA                     20240826555559033700000067676410000078072512000006075510000070697322
222465013020224650133000000000000000000000000GIMENEZ, RICARDO RUBÉN                  20240826555559034400000021993820000064269382000005122210000146789692
226980367027269803679000000000000000000000000SANCHEZ, CINTHIA VERONICA               20240826555559036300000024273320000060833602000004838110000073539402
232645626027326456263000000000000000000000000TASCÓN, ADRIANA  CAROLINA               20240826555559038500000033782620000034941432000002372110000079202632
213036425027130364255000000000000000000000000ROMAN, ANA NIEVES                       20240826555559038900000031374220000096042972000007611110000113361542
231254808023312548089000000000000000000000000SORIA,  NAHUEL SEBASTIAN                20240826555559040300000020921610000007127522000000525110000004982862
232302598027323025989000000000000000000000000GUTIERREZ REGINA MARIA PIA              20240826555559041600000052793120000073497242000005289410000082255512
226963938020269639386000000000000000000000000VELAZQUEZ CARLOS ALEJANDRO              20240826555559041800000055207020000001833482000000149310000014936252
230486081020304860813000000000000000000000000NOGUERA PRIETO JAVIER ALBERTO           20240826555559042100000080296120000049796762000003971510000057429222
207623113020076231134000000000110000034401012ROBLEDO, JUAN OMAR                      20240826555559044100000026729510000016158162000001137010000035531012
235285360027352853602000000000000000000000000OJEDA, YAMILA TRINIDAD                  20240826555559044400000110641520000019619702000001565210000033489332
216706753027167067536000000000000000000000000BRASCAR, MIRIAN ELIZABETH               20240826555559045000000002891820000022427472000001765210000027170132
226339253027263392537000000000000000000000000AMARILLA, LORENA ELIZABETH              20240826555559045100000257870010000000216272000000017310000020072461
234035777023340357779000000000000000000000000ESCALANTE, GERARDO GASTÓN               20240826555559045900000013436610000053420292000004184010000084747982
208306819020083068192000000000000000000000000AGUIRRE, GUSTAVO OSCAR                  20240826555559046200000054159210000011066672000000801610000013871952
224093805027240938052000000000000000000000000GONZALEZ, GRACIELA CLAUDIA              20240826555559046300000031656320000011694462000000948410000023552272
235305117027353051178000000000000000000000000RAMIREZ, LIZ ANABEL                     20240826555559046900000009124820000013750922000001102710000039783892
220091499020200914997000000000000000000000000ROMERO, MAURICIO JORGE                  20240826555559048300000004249620000026859612000002058410000042448562
224153632020241536328000000000000000000000000ESPINOZA, JOSÉ LUIS                     20240826555559048800000047269420000006106912000000488610000010946992
228000348020280003485000000000110000129309024BARRIENTO, SERGIO ALCIDES               20240826555559050400000005985910000000000002000000000010000005214562
210916883020109168832000000000000000000000000VALLEJOS, CARLOS                        20240826555559050700000005120110000054139292000004335710000064233962
223813857020238138575000000000110005289708030LEDESMA, GUSTAVO HERNÁN                 20240826555559051200000005769320000018065602000001450410000018497492
225961143020259611432000000000000000000000000VITER, DANIEL GUSTAVO                   20240826555559051500000037773920000000745442000000059610000004516872
211662171027116621717000000000000000000000000AREVALO, CRISTELA                       20240826555559052500000138519610000016293382000001108110000058189512
226221601020262216013000000000000000000000000ALEGRE JUAN DANIEL                      20240826555559052800000334420610000025029412000001999410000003082812
226207615020262076157000000000000000000000000RAMIREZ, MIGUEL ANGEL                   20240826555559053000000023018910000010050702000000804110000013756062
224329410020243294100000000000000000000000000ROMERO CARMELO LUIS                     20240826555559053300000057240410000023995232000001933010000018227892
238538512027385385124000000000000000000000000TREPPO, MACARENA AYELÉN                 20240826555559055400000062285120000015349222000001196210000047295612
230199509027301995097000000000000000000000000RAMIREZ, LILIAN NOELIA                  20240826555559055900000025083310000003222942000000257810000001240492
230370363027303703638000000000000000000000000BUYATTI, DANIELA ELISABETH              20240826555559057000000044715820000000000002000000000010000010939082
243437984027434379844000000000000000000000000MENDEZ TREVISAN, SELENA FIORELA         20240826555559060200000017711310000010249232000000822510000009953852
320240826555550000034604453206430018073250510013905917002481052347
